{"contracts/Drivrs2.sol":{"Drivrs2":{"abi":[{"inputs":[],"name":"ApprovalCallerNotOwnerNorApproved","type":"error"},{"inputs":[],"name":"ApprovalQueryForNonexistentToken","type":"error"},{"inputs":[],"name":"BalanceQueryForZeroAddress","type":"error"},{"inputs":[],"name":"InvalidQueryRange","type":"error"},{"inputs":[],"name":"MintERC2309QuantityExceedsLimit","type":"error"},{"inputs":[],"name":"MintToZeroAddress","type":"error"},{"inputs":[],"name":"MintZeroQuantity","type":"error"},{"inputs":[{"internalType":"address","name":"operator","type":"address"}],"name":"OperatorNotAllowed","type":"error"},{"inputs":[],"name":"OwnerQueryForNonexistentToken","type":"error"},{"inputs":[],"name":"OwnershipNotInitializedForExtraData","type":"error"},{"inputs":[],"name":"TransferCallerNotOwnerNorApproved","type":"error"},{"inputs":[],"name":"TransferFromIncorrectOwner","type":"error"},{"inputs":[],"name":"TransferToNonERC721ReceiverImplementer","type":"error"},{"inputs":[],"name":"TransferToZeroAddress","type":"error"},{"inputs":[],"name":"URIQueryForNonexistentToken","type":"error"},{"anonymous":false,"inputs":[{"indexed":true,"internalType":"address","name":"owner","type":"address"},{"indexed":true,"internalType":"address","name":"approved","type":"address"},{"indexed":true,"internalType":"uint256","name":"tokenId","type":"uint256"}],"name":"Approval","type":"event"},{"anonymous":false,"inputs":[{"indexed":true,"internalType":"address","name":"owner","type":"address"},{"indexed":true,"internalType":"address","name":"operator","type":"address"},{"indexed":false,"internalType":"bool","name":"approved","type":"bool"}],"name":"ApprovalForAll","type":"event"},{"anonymous":false,"inputs":[{"indexed":true,"internalType":"uint256","name":"fromTokenId","type":"uint256"},{"indexed":false,"internalType":"uint256","name":"toTokenId","type":"uint256"},{"indexed":true,"internalType":"address","name":"from","type":"address"},{"indexed":true,"internalType":"address","name":"to","type":"address"}],"name":"ConsecutiveTransfer","type":"event"},{"anonymous":false,"inputs":[{"indexed":false,"internalType":"uint8","name":"version","type":"uint8"}],"name":"Initialized","type":"event"},{"anonymous":false,"inputs":[{"indexed":true,"internalType":"address","name":"previousOwner","type":"address"},{"indexed":true,"internalType":"address","name":"newOwner","type":"address"}],"name":"OwnershipTransferred","type":"event"},{"anonymous":false,"inputs":[{"indexed":true,"internalType":"address","name":"from","type":"address"},{"indexed":true,"internalType":"address","name":"to","type":"address"},{"indexed":true,"internalType":"uint256","name":"tokenId","type":"uint256"}],"name":"Transfer","type":"event"},{"inputs":[],"name":"ADDRESS_1","outputs":[{"internalType":"address","name":"","type":"address"}],"stateMutability":"view","type":"function"},{"inputs":[],"name":"ADDRESS_2","outputs":[{"internalType":"address","name":"","type":"address"}],"stateMutability":"view","type":"function"},{"inputs":[],"name":"MAX_SUPPLY","outputs":[{"internalType":"uint256","name":"","type":"uint256"}],"stateMutability":"view","type":"function"},{"inputs":[],"name":"MINT_LIMIT","outputs":[{"internalType":"uint256","name":"","type":"uint256"}],"stateMutability":"view","type":"function"},{"inputs":[],"name":"PUBLIC_PRICE","outputs":[{"internalType":"uint256","name":"","type":"uint256"}],"stateMutability":"view","type":"function"},{"inputs":[],"name":"TRANSACTION_LIMIT","outputs":[{"internalType":"uint256","name":"","type":"uint256"}],"stateMutability":"view","type":"function"},{"inputs":[],"name":"WL_PRICE","outputs":[{"internalType":"uint256","name":"","type":"uint256"}],"stateMutability":"view","type":"function"},{"inputs":[],"name":"__DefaultOperatorFilterer_init","outputs":[],"stateMutability":"nonpayable","type":"function"},{"inputs":[{"internalType":"address","name":"subscriptionOrRegistrantToCopy","type":"address"},{"internalType":"bool","name":"subscribe","type":"bool"}],"name":"__OperatorFilterer_init","outputs":[],"stateMutability":"nonpayable","type":"function"},{"inputs":[{"internalType":"address","name":"to","type":"address"},{"internalType":"uint256","name":"tokenId","type":"uint256"}],"name":"approve","outputs":[],"stateMutability":"payable","type":"function"},{"inputs":[{"internalType":"address","name":"owner","type":"address"}],"name":"balanceOf","outputs":[{"internalType":"uint256","name":"","type":"uint256"}],"stateMutability":"view","type":"function"},{"inputs":[{"internalType":"uint256","name":"_maxSupply","type":"uint256"}],"name":"decreaseSupply","outputs":[],"stateMutability":"nonpayable","type":"function"},{"inputs":[{"internalType":"address[]","name":"_addresses","type":"address[]"},{"internalType":"uint256[]","name":"quantities","type":"uint256[]"}],"name":"devMint","outputs":[],"stateMutability":"nonpayable","type":"function"},{"inputs":[{"internalType":"uint256","name":"tokenId","type":"uint256"}],"name":"explicitOwnershipOf","outputs":[{"components":[{"internalType":"address","name":"addr","type":"address"},{"internalType":"uint64","name":"startTimestamp","type":"uint64"},{"internalType":"bool","name":"burned","type":"bool"},{"internalType":"uint24","name":"extraData","type":"uint24"}],"internalType":"struct IERC721AUpgradeable.TokenOwnership","name":"ownership","type":"tuple"}],"stateMutability":"view","type":"function"},{"inputs":[{"internalType":"uint256[]","name":"tokenIds","type":"uint256[]"}],"name":"explicitOwnershipsOf","outputs":[{"components":[{"internalType":"address","name":"addr","type":"address"},{"internalType":"uint64","name":"startTimestamp","type":"uint64"},{"internalType":"bool","name":"burned","type":"bool"},{"internalType":"uint24","name":"extraData","type":"uint24"}],"internalType":"struct IERC721AUpgradeable.TokenOwnership[]","name":"","type":"tuple[]"}],"stateMutability":"view","type":"function"},{"inputs":[{"internalType":"bytes32[]","name":"proof","type":"bytes32[]"},{"internalType":"uint256","name":"numberOfTokens","type":"uint256"},{"internalType":"uint256","name":"maxMint","type":"uint256"}],"name":"freeMint","outputs":[],"stateMutability":"nonpayable","type":"function"},{"inputs":[{"internalType":"uint256","name":"tokenId","type":"uint256"}],"name":"getApproved","outputs":[{"internalType":"address","name":"","type":"address"}],"stateMutability":"view","type":"function"},{"inputs":[],"name":"initialize","outputs":[],"stateMutability":"nonpayable","type":"function"},{"inputs":[{"internalType":"address","name":"owner","type":"address"},{"internalType":"address","name":"operator","type":"address"}],"name":"isApprovedForAll","outputs":[{"internalType":"bool","name":"","type":"bool"}],"stateMutability":"view","type":"function"},{"inputs":[],"name":"isPresaleActive","outputs":[{"internalType":"bool","name":"","type":"bool"}],"stateMutability":"view","type":"function"},{"inputs":[],"name":"isPublicSaleActive","outputs":[{"internalType":"bool","name":"","type":"bool"}],"stateMutability":"view","type":"function"},{"inputs":[{"internalType":"uint256","name":"numberOfTokens","type":"uint256"}],"name":"mint","outputs":[],"stateMutability":"payable","type":"function"},{"inputs":[],"name":"name","outputs":[{"internalType":"string","name":"","type":"string"}],"stateMutability":"view","type":"function"},{"inputs":[{"internalType":"address","name":"owner","type":"address"}],"name":"numberMinted","outputs":[{"internalType":"uint256","name":"","type":"uint256"}],"stateMutability":"view","type":"function"},{"inputs":[],"name":"owner","outputs":[{"internalType":"address","name":"","type":"address"}],"stateMutability":"view","type":"function"},{"inputs":[{"internalType":"uint256","name":"tokenId","type":"uint256"}],"name":"ownerOf","outputs":[{"internalType":"address","name":"","type":"address"}],"stateMutability":"view","type":"function"},{"inputs":[{"internalType":"bytes32[]","name":"proof","type":"bytes32[]"},{"internalType":"uint256","name":"numberOfTokens","type":"uint256"},{"internalType":"uint256","name":"maxMint","type":"uint256"}],"name":"presaleMint","outputs":[],"stateMutability":"payable","type":"function"},{"inputs":[],"name":"renounceOwnership","outputs":[],"stateMutability":"nonpayable","type":"function"},{"inputs":[{"internalType":"bool","name":"revealed","type":"bool"},{"internalType":"string","name":"_baseURI","type":"string"}],"name":"reveal","outputs":[],"stateMutability":"nonpayable","type":"function"},{"inputs":[{"internalType":"address","name":"from","type":"address"},{"internalType":"address","name":"to","type":"address"},{"internalType":"uint256","name":"tokenId","type":"uint256"}],"name":"safeTransferFrom","outputs":[],"stateMutability":"payable","type":"function"},{"inputs":[{"internalType":"address","name":"from","type":"address"},{"internalType":"address","name":"to","type":"address"},{"internalType":"uint256","name":"tokenId","type":"uint256"},{"internalType":"bytes","name":"data","type":"bytes"}],"name":"safeTransferFrom","outputs":[],"stateMutability":"payable","type":"function"},{"inputs":[{"internalType":"address","name":"operator","type":"address"},{"internalType":"bool","name":"approved","type":"bool"}],"name":"setApprovalForAll","outputs":[],"stateMutability":"nonpayable","type":"function"},{"inputs":[{"internalType":"string","name":"URI","type":"string"}],"name":"setBaseURI","outputs":[],"stateMutability":"nonpayable","type":"function"},{"inputs":[{"internalType":"bytes32","name":"_freemintRoot","type":"bytes32"}],"name":"setFreeMintRoot","outputs":[],"stateMutability":"nonpayable","type":"function"},{"inputs":[{"internalType":"uint256","name":"_mintLimit","type":"uint256"}],"name":"setMintLimit","outputs":[],"stateMutability":"nonpayable","type":"function"},{"inputs":[{"internalType":"bytes32","name":"_presaleRoot","type":"bytes32"}],"name":"setPreSaleRoot","outputs":[],"stateMutability":"nonpayable","type":"function"},{"inputs":[],"name":"setPreSaleStatus","outputs":[],"stateMutability":"nonpayable","type":"function"},{"inputs":[{"internalType":"uint256","name":"_wlPrice","type":"uint256"}],"name":"setPresalePrice","outputs":[],"stateMutability":"nonpayable","type":"function"},{"inputs":[{"internalType":"uint256","name":"_publicPrice","type":"uint256"}],"name":"setPublicPrice","outputs":[],"stateMutability":"nonpayable","type":"function"},{"inputs":[],"name":"setPublicSaleStatus","outputs":[],"stateMutability":"nonpayable","type":"function"},{"inputs":[{"internalType":"address","name":"_signer","type":"address"}],"name":"setSigner","outputs":[],"stateMutability":"nonpayable","type":"function"},{"inputs":[{"internalType":"uint256","name":"_transactionLimit","type":"uint256"}],"name":"setTransactionLimit","outputs":[],"stateMutability":"nonpayable","type":"function"},{"inputs":[{"internalType":"bytes4","name":"interfaceId","type":"bytes4"}],"name":"supportsInterface","outputs":[{"internalType":"bool","name":"","type":"bool"}],"stateMutability":"view","type":"function"},{"inputs":[],"name":"symbol","outputs":[{"internalType":"string","name":"","type":"string"}],"stateMutability":"view","type":"function"},{"inputs":[{"internalType":"uint256","name":"tokenId","type":"uint256"}],"name":"tokenURI","outputs":[{"internalType":"string","name":"","type":"string"}],"stateMutability":"view","type":"function"},{"inputs":[{"internalType":"address","name":"owner","type":"address"}],"name":"tokensOfOwner","outputs":[{"internalType":"uint256[]","name":"","type":"uint256[]"}],"stateMutability":"view","type":"function"},{"inputs":[{"internalType":"address","name":"owner","type":"address"},{"internalType":"uint256","name":"start","type":"uint256"},{"internalType":"uint256","name":"stop","type":"uint256"}],"name":"tokensOfOwnerIn","outputs":[{"internalType":"uint256[]","name":"","type":"uint256[]"}],"stateMutability":"view","type":"function"},{"inputs":[],"name":"totalSupply","outputs":[{"internalType":"uint256","name":"","type":"uint256"}],"stateMutability":"view","type":"function"},{"inputs":[{"internalType":"address","name":"from","type":"address"},{"internalType":"address","name":"to","type":"address"},{"internalType":"uint256","name":"tokenId","type":"uint256"}],"name":"transferFrom","outputs":[],"stateMutability":"payable","type":"function"},{"inputs":[{"internalType":"address","name":"newOwner","type":"address"}],"name":"transferOwnership","outputs":[],"stateMutability":"nonpayable","type":"function"},{"inputs":[{"internalType":"bytes32","name":"","type":"bytes32"}],"name":"usedDigests","outputs":[{"internalType":"bool","name":"","type":"bool"}],"stateMutability":"view","type":"function"},{"inputs":[{"internalType":"address","name":"","type":"address"}],"name":"userPurchase","outputs":[{"internalType":"uint256","name":"presaleMinted","type":"uint256"},{"internalType":"uint256","name":"freeMinted","type":"uint256"}],"stateMutability":"view","type":"function"},{"inputs":[],"name":"withdraw","outputs":[],"stateMutability":"nonpayable","type":"function"}],"evm":{"bytecode":{"linkReferences":{},"object":"608060405234801561001057600080fd5b506139c9806100206000396000f3fe60806040526004361061031a5760003560e01c806370c42575116101ab578063b08da342116100f7578063d39c4de711610095578063e985e9c51161006f578063e985e9c51461090d578063f2fde38b1461092d578063fe042d491461094d578063ff633d551461096d57600080fd5b8063d39c4de714610895578063dc33e681146108c5578063de97536b146108e557600080fd5b8063b88d4fde116100d1578063b88d4fde14610815578063c23dc68f14610828578063c627525514610855578063c87b56dd1461087557600080fd5b8063b08da3421461078e578063b484eff7146107b6578063b6fd509b146107ff57600080fd5b806395d89b41116101645780639e6a1d7d1161013e5780639e6a1d7d1461071b578063a0712d681461073b578063a101ff6d1461074e578063a22cb4651461076e57600080fd5b806395d89b41146106c657806398e52f9a146106db57806399a2557a146106fb57600080fd5b806370c425751461061c578063715018a61461063c5780637dfed9fe146106515780638129fc1c146106665780638462151c1461067b5780638da5cb5b146106a857600080fd5b80633549345e1161026a5780635bbb2177116102235780636352211e116101fd5780636352211e1461059c57806364bfa546146105bc5780636c19e783146105dc57806370a08231146105fc57600080fd5b80635bbb21771461053a57806360d938dc14610567578063611f3f101461058657600080fd5b80633549345e146104aa5780633c18c3da146104ca5780633ccfd60b146104dd5780633e07ac02146104f257806342842e0e1461050757806355f804b31461051a57600080fd5b806318160ddd116102d75780632446548f116102b15780632446548f1461043e57806331c3c7a01461045e57806332cb6b0c1461047457806334837ad31461048a57600080fd5b806318160ddd146103fc5780631e84c4131461041157806323b872dd1461042b57600080fd5b806301ffc9a71461031f578063027752401461035457806303eaebec1461037857806306fdde031461038f578063081812fc146103b1578063095ea7b3146103e9575b600080fd5b34801561032b57600080fd5b5061033f61033a366004612ddf565b61098d565b60405190151581526020015b60405180910390f35b34801561036057600080fd5b5061036a60685481565b60405190815260200161034b565b34801561038457600080fd5b5061038d6109df565b005b34801561039b57600080fd5b506103a4610a30565b60405161034b9190612e5b565b3480156103bd57600080fd5b506103d16103cc366004612e6e565b610acb565b6040516001600160a01b03909116815260200161034b565b61038d6103f7366004612e9e565b610b0f565b34801561040857600080fd5b5061036a610b1f565b34801561041d57600080fd5b50606a5461033f9060ff1681565b61038d610439366004612ec8565b610b3e565b34801561044a57600080fd5b5061038d610459366004612fd8565b610c93565b34801561046a57600080fd5b5061036a60665481565b34801561048057600080fd5b5061036a60655481565b34801561049657600080fd5b5061038d6104a5366004613097565b610dab565b3480156104b657600080fd5b5061038d6104c5366004612e6e565b611078565b61038d6104d8366004613097565b611085565b3480156104e957600080fd5b5061038d611381565b3480156104fe57600080fd5b5061038d61146a565b61038d610515366004612ec8565b61148f565b34801561052657600080fd5b5061038d61053536600461317f565b6115d9565b34801561054657600080fd5b5061055a6105553660046131c0565b6115f2565b60405161034b9190613270565b34801561057357600080fd5b50606a5461033f90610100900460ff1681565b34801561059257600080fd5b5061036a60675481565b3480156105a857600080fd5b506103d16105b7366004612e6e565b61163e565b3480156105c857600080fd5b5061038d6105d7366004612e6e565b611649565b3480156105e857600080fd5b5061038d6105f73660046132b2565b611656565b34801561060857600080fd5b5061036a6106173660046132b2565b611680565b34801561062857600080fd5b5061038d610637366004612e6e565b6116df565b34801561064857600080fd5b5061038d6116ec565b34801561065d57600080fd5b5061038d6116fe565b34801561067257600080fd5b5061038d61171a565b34801561068757600080fd5b5061069b6106963660046132b2565b6119d3565b60405161034b91906132cd565b3480156106b457600080fd5b506033546001600160a01b03166103d1565b3480156106d257600080fd5b506103a4611a01565b3480156106e757600080fd5b5061038d6106f6366004612e6e565b611a19565b34801561070757600080fd5b5061069b610716366004613305565b611a6e565b34801561072757600080fd5b5061038d610736366004612e6e565b611a7b565b61038d610749366004612e6e565b611a88565b34801561075a57600080fd5b5061038d610769366004613346565b611bd2565b34801561077a57600080fd5b5061038d61078936600461339a565b611bfb565b34801561079a57600080fd5b506103d173779e3847551fa09d15a0ae2ae86b60a912ea00ad81565b3480156107c257600080fd5b506107ea6107d13660046132b2565b606e602052600090815260409020805460019091015482565b6040805192835260208301919091520161034b565b34801561080b57600080fd5b5061036a60695481565b61038d6108233660046133d1565b611c78565b34801561083457600080fd5b50610848610843366004612e6e565b611dd0565b60405161034b9190613490565b34801561086157600080fd5b5061038d610870366004612e6e565b611e2b565b34801561088157600080fd5b506103a4610890366004612e6e565b611e38565b3480156108a157600080fd5b5061033f6108b0366004612e6e565b60716020526000908152604090205460ff1681565b3480156108d157600080fd5b5061036a6108e03660046132b2565b611e90565b3480156108f157600080fd5b506103d173188a3c584f0de9ee0eabe04316a94a41f0867c0c81565b34801561091957600080fd5b5061033f61092836600461349e565b611e9b565b34801561093957600080fd5b5061038d6109483660046132b2565b611ed8565b34801561095957600080fd5b5061038d610968366004612e6e565b611f4e565b34801561097957600080fd5b5061038d61098836600461339a565b611f5b565b60006301ffc9a760e01b6001600160e01b0319831614806109be57506380ac58cd60e01b6001600160e01b03198316145b806109d95750635b5e139f60e01b6001600160e01b03198316145b92915050565b600054610100900460ff16610a0f5760405162461bcd60e51b8152600401610a06906134d1565b60405180910390fd5b610a2e733cc6cdda760b79bafa08df41ecfa224f810dceb66001611f5b565b565b6060610a3a6120e4565b6002018054610a489061351c565b80601f0160208091040260200160405190810160405280929190818152602001828054610a749061351c565b8015610ac15780601f10610a9657610100808354040283529160200191610ac1565b820191906000526020600020905b815481529060010190602001808311610aa457829003601f168201915b5050505050905090565b6000610ad682612108565b610aea57610aea6333d1c03960e21b61215e565b610af26120e4565b60009283526006016020525060409020546001600160a01b031690565b610b1b82826001612168565b5050565b600080610b2a6120e4565b60010154610b366120e4565b540303919050565b826daaeb6d7670e522a718067333cd4e3b15610c8257336001600160a01b03821603610b7457610b6f848484612219565b610c8d565b604051633185c44d60e21b81526daaeb6d7670e522a718067333cd4e9063c617113490610ba79030903390600401613556565b602060405180830381865afa158015610bc4573d6000803e3d6000fd5b505050506040513d601f19601f82011682018060405250810190610be89190613570565b8015610c635750604051633185c44d60e21b81526daaeb6d7670e522a718067333cd4e9063c617113490610c229030908590600401613556565b602060405180830381865afa158015610c3f573d6000803e3d6000fd5b505050506040513d601f19601f82011682018060405250810190610c639190613570565b610c8257604051633b79c77360e21b8152336004820152602401610a06565b610c8d848484612219565b50505050565b8051825114610cd75760405162461bcd60e51b815260206004820152601060248201526f57524f4e475f504152414d455445525360801b6044820152606401610a06565b6000805b8251811015610d1d57828181518110610cf657610cf661358d565b602002602001015182610d0991906135b9565b915080610d15816135d1565b915050610cdb565b50606554610d29610b1f565b610d3390836135b9565b1115610d515760405162461bcd60e51b8152600401610a06906135ea565b60005b8351811015610c8d57610d99848281518110610d7257610d7261358d565b6020026020010151848381518110610d8c57610d8c61358d565b60200260200101516123dc565b80610da3816135d1565b915050610d54565b336000908152606f60205260409020546003904211610ddc5760405162461bcd60e51b8152600401610a0690613615565b323314610dfb5760405162461bcd60e51b8152600401610a069061364c565b8060ff16600103610e2857606a5460ff16610e285760405162461bcd60e51b8152600401610a0690613683565b8060ff16600203610e5a57606a54610100900460ff16610e5a5760405162461bcd60e51b8152600401610a06906136ba565b8060ff16600303610e8c57606a54610100900460ff16610e8c5760405162461bcd60e51b8152600401610a06906136f1565b82606554610e98610b1f565b610ea290836135b9565b1115610ec05760405162461bcd60e51b8152600401610a06906135ea565b606854610ecc33611e90565b610ed690836135b9565b1115610f185760405162461bcd60e51b8152602060048201526011602482015270115610d1515117d352539517d312535255607a1b6044820152606401610a06565b606954811115610f3a5760405162461bcd60e51b8152600401610a0690613728565b6040516bffffffffffffffffffffffff193360601b16602082015260348101849052600090605401604051602081830303815290604052805190602001209050610f8786606d54836123f6565b610fc35760405162461bcd60e51b815260206004820152600d60248201526c141493d3d197d2539590531251609a1b6044820152606401610a06565b336000908152606e60205260409020600101548490610fe39087906135b9565b11156110315760405162461bcd60e51b815260206004820152601b60248201527f4558434545445f414c4c4f43415445445f4d494e545f4c494d495400000000006044820152606401610a06565b336000908152606f60209081526040808320429055606e909152812060010180548792906110609084906135b9565b909155506110709050338661240c565b505050505050565b611080612500565b606655565b336000908152606f602052604090205460029042116110b65760405162461bcd60e51b8152600401610a0690613615565b3233146110d55760405162461bcd60e51b8152600401610a069061364c565b8060ff1660010361110257606a5460ff166111025760405162461bcd60e51b8152600401610a0690613683565b8060ff1660020361113457606a54610100900460ff166111345760405162461bcd60e51b8152600401610a06906136ba565b8060ff1660030361116657606a54610100900460ff166111665760405162461bcd60e51b8152600401610a06906136f1565b82606554611172610b1f565b61117c90836135b9565b111561119a5760405162461bcd60e51b8152600401610a06906135ea565b6068546111a633611e90565b6111b090836135b9565b11156111f25760405162461bcd60e51b8152602060048201526011602482015270115610d1515117d352539517d312535255607a1b6044820152606401610a06565b6069548111156112145760405162461bcd60e51b8152600401610a0690613728565b6040516bffffffffffffffffffffffff193360601b1660208201526034810184905260009060540160405160208183030381529060405280519060200120905061126186606c54836123f6565b61129d5760405162461bcd60e51b815260206004820152600d60248201526c141493d3d197d2539590531251609a1b6044820152606401610a06565b336000908152606e602052604090205484906112ba9087906135b9565b11156113085760405162461bcd60e51b815260206004820152601b60248201527f4558434545445f414c4c4f43415445445f4d494e545f4c494d495400000000006044820152606401610a06565b846066546113169190613770565b34146113555760405162461bcd60e51b815260206004820152600e60248201526d1253959053125117d05353d5539560921b6044820152606401610a06565b336000908152606f60209081526040808320429055606e909152812080548792906110609084906135b9565b611389612500565b47806113d05760405162461bcd60e51b81526020600482015260166024820152754e6f2062616c616e636520746f20776974686472617760501b6044820152606401610a06565b73188a3c584f0de9ee0eabe04316a94a41f0867c0c6108fc6127106113f7846102bc613770565b61140191906137a5565b6040518115909202916000818181858888f19350505050158015611429573d6000803e3d6000fd5b5060405173779e3847551fa09d15a0ae2ae86b60a912ea00ad904780156108fc02916000818181858888f19350505050158015610b1b573d6000803e3d6000fd5b611472612500565b606a805461ff001981166101009182900460ff1615909102179055565b826daaeb6d7670e522a718067333cd4e3b156115ce57336001600160a01b038216036114c057610b6f84848461255a565b604051633185c44d60e21b81526daaeb6d7670e522a718067333cd4e9063c6171134906114f39030903390600401613556565b602060405180830381865afa158015611510573d6000803e3d6000fd5b505050506040513d601f19601f820116820180604052508101906115349190613570565b80156115af5750604051633185c44d60e21b81526daaeb6d7670e522a718067333cd4e9063c61711349061156e9030908590600401613556565b602060405180830381865afa15801561158b573d6000803e3d6000fd5b505050506040513d601f19601f820116820180604052508101906115af9190613570565b6115ce57604051633b79c77360e21b8152336004820152602401610a06565b610c8d84848461255a565b6115e1612500565b6115ed606b8383612cbc565b505050565b60408051828152600583901b8082016020019092526060915b801561163657601f198082019186010135600061162782611dd0565b848401602001525061160b9050565b509392505050565b60006109d982612575565b611651612500565b606955565b61165e612500565b607080546001600160a01b0319166001600160a01b0392909216919091179055565b60006001600160a01b0382166116a0576116a06323d3ad8160e21b61215e565b6001600160401b036116b06120e4565b6005016000846001600160a01b03166001600160a01b0316815260200190815260200160002054169050919050565b6116e7612500565b606d55565b6116f4612500565b610a2e600061262f565b611706612500565b606a805460ff19811660ff90911615179055565b60008051602061397483398151915254610100900460ff1661174f576000805160206139748339815191525460ff1615611753565b303b155b6117c55760405162461bcd60e51b815260206004820152603760248201527f455243373231415f5f496e697469616c697a61626c653a20636f6e747261637460448201527f20697320616c726561647920696e697469616c697a65640000000000000000006064820152608401610a06565b60008051602061397483398151915254610100900460ff1615801561180157600080516020613974833981519152805461ffff19166101011790555b600054610100900460ff16158080156118215750600054600160ff909116105b8061183b5750303b15801561183b575060005460ff166001145b61189e5760405162461bcd60e51b815260206004820152602e60248201527f496e697469616c697a61626c653a20636f6e747261637420697320616c72656160448201526d191e481a5b9a5d1a585b1a5e995960921b6064820152608401610a06565b6000805460ff1916600117905580156118c1576000805461ff0019166101001790555b61190f6040518060400160405280600a8152602001694452495652535041535360b01b8152506040518060400160405280600a8152602001694452495652535041535360b01b815250612681565b6119176126bf565b61191f6109df565b6122b8606555661550f7dca70000606681905560675560016068819055606955606a805462ffffff1916905560408051602081019182905260009081905261196991606b91612d40565b5080156119b0576000805461ff0019169055604051600181527f7f26b83ff96e1f2b6a682f133852f6798a09c465da95921460cefb38474024989060200160405180910390a15b5080156119d057600080516020613974833981519152805461ff00191690555b50565b60606000806119e06126ee565b905060608183146119f9576119f68584846126fe565b90505b949350505050565b6060611a0b6120e4565b6003018054610a489061351c565b611a21612500565b6065548110611a695760405162461bcd60e51b815260206004820152601460248201527343414e545f494e4352454153455f535550504c5960601b6044820152606401610a06565b606555565b60606119f98484846126fe565b611a83612500565b606855565b336000908152606f60205260409020546001904211611ab95760405162461bcd60e51b8152600401610a0690613615565b323314611ad85760405162461bcd60e51b8152600401610a069061364c565b8060ff16600103611b0557606a5460ff16611b055760405162461bcd60e51b8152600401610a0690613683565b8060ff16600203611b3757606a54610100900460ff16611b375760405162461bcd60e51b8152600401610a06906136ba565b8060ff16600303611b6957606a54610100900460ff16611b695760405162461bcd60e51b8152600401610a06906136f1565b81606754611b779190613770565b3414611bb65760405162461bcd60e51b815260206004820152600e60248201526d1253959053125117d05353d5539560921b6044820152606401610a06565b336000818152606f60205260409020429055610b1b908361240c565b611bda612500565b606a805462ff000019166201000085151502179055610c8d606b8383612cbc565b80611c046120e4565b336000818152600792909201602090815260408084206001600160a01b03881680865290835293819020805460ff19169515159590951790945592518415158152919290917f17307eab39ab6107e8899845ad3d59bd9653f200f220920489ca2b5937696c31910160405180910390a35050565b836daaeb6d7670e522a718067333cd4e3b15611dbd57336001600160a01b03821603611caf57611caa858585856127f8565b611dc9565b604051633185c44d60e21b81526daaeb6d7670e522a718067333cd4e9063c617113490611ce29030903390600401613556565b602060405180830381865afa158015611cff573d6000803e3d6000fd5b505050506040513d601f19601f82011682018060405250810190611d239190613570565b8015611d9e5750604051633185c44d60e21b81526daaeb6d7670e522a718067333cd4e9063c617113490611d5d9030908590600401613556565b602060405180830381865afa158015611d7a573d6000803e3d6000fd5b505050506040513d601f19601f82011682018060405250810190611d9e9190613570565b611dbd57604051633b79c77360e21b8152336004820152602401610a06565b611dc9858585856127f8565b5050505050565b604080516080810182526000808252602082018190529181018290526060810191909152611dfc6126ee565b821015611e26575b611e0d82612833565b611e1d5760001990910190611e04565b6109d982612853565b919050565b611e33612500565b606755565b606a5460609062010000900460ff1615611e7e57606b611e57836128dc565b604051602001611e68929190613852565b6040516020818303038152906040529050919050565b606b604051602001611e689190613877565b60006109d9826129dc565b6000611ea56120e4565b6001600160a01b039384166000908152600791909101602090815260408083209490951682529290925250205460ff1690565b611ee0612500565b6001600160a01b038116611f455760405162461bcd60e51b815260206004820152602660248201527f4f776e61626c653a206e6577206f776e657220697320746865207a65726f206160448201526564647265737360d01b6064820152608401610a06565b6119d08161262f565b611f56612500565b606c55565b600054610100900460ff16611f825760405162461bcd60e51b8152600401610a06906134d1565b6daaeb6d7670e522a718067333cd4e3b15610b1b5760405163c3c5a54760e01b81523060048201526daaeb6d7670e522a718067333cd4e9063c3c5a547906024016020604051808303816000875af1158015611fe2573d6000803e3d6000fd5b505050506040513d601f19601f820116820180604052508101906120069190613570565b610b1b57801561207157604051633e9f1edf60e11b81526daaeb6d7670e522a718067333cd4e90637d3e3dbe906120439030908690600401613556565b600060405180830381600087803b15801561205d57600080fd5b505af1158015611070573d6000803e3d6000fd5b6001600160a01b038216156120b35760405163a0af290360e01b81526daaeb6d7670e522a718067333cd4e9063a0af2903906120439030908690600401613556565b604051632210724360e11b81523060048201526daaeb6d7670e522a718067333cd4e90634420e48690602401612043565b7f2569078dfb4b0305704d3008e7403993ae9601b85f7ae5e742de3de8f8011c4090565b60006121126120e4565b54821015611e265760005b6121256120e4565b6000848152600491909101602052604081205491508190036121515761214a83613883565b925061211d565b600160e01b161592915050565b8060005260046000fd5b60006121738361163e565b905081801561218b5750336001600160a01b03821614155b156121ae5761219a8133611e9b565b6121ae576121ae6367d9dca160e11b61215e565b836121b76120e4565b6000858152600691909101602052604080822080546001600160a01b0319166001600160a01b0394851617905551859287811692908516917f8c5be1e5ebec7d5bd14f71427d1e84f3dd0314c0f7b2291e5b200ac8c7c3b9259190a450505050565b600061222482612575565b6001600160a01b03948516949091508116841461224a5761224a62a1148160e81b61215e565b60008061225684612a21565b9150915061227b81876122663390565b6001600160a01b039081169116811491141790565b61229d576122898633611e9b565b61229d5761229d632ce44b5f60e11b61215e565b80156122a857600082555b6122b06120e4565b6001600160a01b03871660009081526005919091016020526040902080546000190190556122dc6120e4565b6001600160a01b03861660008181526005929092016020526040909120805460010190554260a01b17600160e11b176123136120e4565b60008681526004919091016020526040812091909155600160e11b8416900361238957600184016123426120e4565b600082815260049190910160205260408120549003612387576123636120e4565b54811461238757836123736120e4565b600083815260049190910160205260409020555b505b6001600160a01b0385168481887fddf252ad1be2c89b69c2b068fc378daa952ba7f163c4a11628f55a4df523b3ef600080a4806000036123d3576123d3633a954ecd60e21b61215e565b50505050505050565b610b1b828260405180602001604052806000815250612a49565b6000826124038584612abb565b14949350505050565b60006124166120e4565b54905060008290036124325761243263b562e8dd60e01b61215e565b6001600160a01b0383164260a01b6001841460e11b17176124516120e4565b600083815260049190910160205260409020556801000000000000000182026124786120e4565b6001600160a01b03851660008181526005929092016020526040822080549093019092558190036124b2576124b2622e076360e81b61215e565b818301825b808360007fddf252ad1be2c89b69c2b068fc378daa952ba7f163c4a11628f55a4df523b3ef600080a48181600101915081036124b757816124f66120e4565b55506115ed915050565b6033546001600160a01b03163314610a2e5760405162461bcd60e51b815260206004820181905260248201527f4f776e61626c653a2063616c6c6572206973206e6f7420746865206f776e65726044820152606401610a06565b6115ed83838360405180602001604052806000815250611c78565b600061257f6120e4565b60008381526004919091016020526040812054915081900361260c576125a36120e4565b5482106125ba576125ba636f96cda160e11b61215e565b6125c26120e4565b6000199092016000818152600493909301602052604090922054905080156125ba57600160e01b81166000036125f757919050565b612607636f96cda160e11b61215e565b6125ba565b600160e01b811660000361261f57919050565b611e26636f96cda160e11b61215e565b603380546001600160a01b038381166001600160a01b0319831681179093556040519116919082907f8be0079c531659141344cd1fd0a4f28419497f9722a3daafe3b4186f6b6457e090600090a35050565b60008051602061397483398151915254610100900460ff166126b55760405162461bcd60e51b8152600401610a069061389a565b610b1b8282612b27565b600054610100900460ff166126e65760405162461bcd60e51b8152600401610a06906134d1565b610a2e612baa565b60006126f86120e4565b54919050565b606081831061271757612717631960ccad60e11b61215e565b60006127216126ee565b905080831061272e578092505b6060600061273b87611680565b858710908102915081156127ec5781878703116127585786860391505b60405192506001820160051b8301604052600061277488611dd0565b905060008160400151612785575080515b60005b6127918a612853565b92506040830151600081146127a957600092506127ce565b8351156127b557835192505b8b831860601b6127ce576001820191508a8260051b8801525b5060018a019950888a14806127e257508481145b1561278857855250505b50909695505050505050565b612803848484610b3e565b6001600160a01b0383163b15610c8d5761281f84848484612bda565b610c8d57610c8d6368d2bf6b60e11b61215e565b600061283d6120e4565b6000928352600401602052506040902054151590565b6040805160808101825260008082526020820181905291810182905260608101919091526109d96128826120e4565b60008481526004919091016020526040902054604080516080810182526001600160a01b038316815260a083901c6001600160401b03166020820152600160e01b831615159181019190915260e89190911c606082015290565b6060816000036129035750506040805180820190915260018152600360fc1b602082015290565b8160005b811561292d5780612917816135d1565b91506129269050600a836137a5565b9150612907565b6000816001600160401b0381111561294757612947612f04565b6040519080825280601f01601f191660200182016040528015612971576020820181803683370190505b5090505b84156119f9576129866001836138ee565b9150612993600a86613905565b61299e9060306135b9565b60f81b8183815181106129b3576129b361358d565b60200101906001600160f81b031916908160001a9053506129d5600a866137a5565b9450612975565b60006001600160401b0360406129f06120e4565b6005016000856001600160a01b03166001600160a01b0316815260200190815260200160002054901c169050919050565b6000806000612a2e6120e4565b60009485526006016020525050604090912080549092909150565b612a53838361240c565b6001600160a01b0383163b156115ed576000612a6d6120e4565b5490508281035b612a876000868380600101945086612bda565b612a9b57612a9b6368d2bf6b60e11b61215e565b818110612a745781612aab6120e4565b5414611dc957611dc9600061215e565b600081815b8451811015611636576000858281518110612add57612add61358d565b60200260200101519050808311612b035760008381526020829052604090209250612b14565b600081815260208490526040902092505b5080612b1f816135d1565b915050612ac0565b60008051602061397483398151915254610100900460ff16612b5b5760405162461bcd60e51b8152600401610a069061389a565b81612b646120e4565b6002019080519060200190612b7a929190612d40565b5080612b846120e4565b6003019080519060200190612b9a929190612d40565b506000612ba56120e4565b555050565b600054610100900460ff16612bd15760405162461bcd60e51b8152600401610a06906134d1565b610a2e3361262f565b604051630a85bd0160e11b81526000906001600160a01b0385169063150b7a0290612c0f903390899088908890600401613919565b6020604051808303816000875af1925050508015612c4a575060408051601f3d908101601f19168201909252612c4791810190613956565b60015b612c9f573d808015612c78576040519150601f19603f3d011682016040523d82523d6000602084013e612c7d565b606091505b508051600003612c9757612c976368d2bf6b60e11b61215e565b805181602001fd5b6001600160e01b031916630a85bd0160e11b149050949350505050565b828054612cc89061351c565b90600052602060002090601f016020900481019282612cea5760008555612d30565b82601f10612d035782800160ff19823516178555612d30565b82800160010185558215612d30579182015b82811115612d30578235825591602001919060010190612d15565b50612d3c929150612db4565b5090565b828054612d4c9061351c565b90600052602060002090601f016020900481019282612d6e5760008555612d30565b82601f10612d8757805160ff1916838001178555612d30565b82800160010185558215612d30579182015b82811115612d30578251825591602001919060010190612d99565b5b80821115612d3c5760008155600101612db5565b6001600160e01b0319811681146119d057600080fd5b600060208284031215612df157600080fd5b8135612dfc81612dc9565b9392505050565b60005b83811015612e1e578181015183820152602001612e06565b83811115610c8d5750506000910152565b60008151808452612e47816020860160208601612e03565b601f01601f19169290920160200192915050565b602081526000612dfc6020830184612e2f565b600060208284031215612e8057600080fd5b5035919050565b80356001600160a01b0381168114611e2657600080fd5b60008060408385031215612eb157600080fd5b612eba83612e87565b946020939093013593505050565b600080600060608486031215612edd57600080fd5b612ee684612e87565b9250612ef460208501612e87565b9150604084013590509250925092565b634e487b7160e01b600052604160045260246000fd5b604051601f8201601f191681016001600160401b0381118282101715612f4257612f42612f04565b604052919050565b60006001600160401b03821115612f6357612f63612f04565b5060051b60200190565b600082601f830112612f7e57600080fd5b81356020612f93612f8e83612f4a565b612f1a565b82815260059290921b84018101918181019086841115612fb257600080fd5b8286015b84811015612fcd5780358352918301918301612fb6565b509695505050505050565b60008060408385031215612feb57600080fd5b82356001600160401b038082111561300257600080fd5b818501915085601f83011261301657600080fd5b81356020613026612f8e83612f4a565b82815260059290921b8401810191818101908984111561304557600080fd5b948201945b8386101561306a5761305b86612e87565b8252948201949082019061304a565b9650508601359250508082111561308057600080fd5b5061308d85828601612f6d565b9150509250929050565b6000806000606084860312156130ac57600080fd5b83356001600160401b038111156130c257600080fd5b8401601f810186136130d357600080fd5b803560206130e3612f8e83612f4a565b82815260059290921b8301810191818101908984111561310257600080fd5b938201935b8385101561312057843582529382019390820190613107565b999188013598505060409096013595945050505050565b60008083601f84011261314957600080fd5b5081356001600160401b0381111561316057600080fd5b60208301915083602082850101111561317857600080fd5b9250929050565b6000806020838503121561319257600080fd5b82356001600160401b038111156131a857600080fd5b6131b485828601613137565b90969095509350505050565b600080602083850312156131d357600080fd5b82356001600160401b03808211156131ea57600080fd5b818501915085601f8301126131fe57600080fd5b81358181111561320d57600080fd5b8660208260051b850101111561322257600080fd5b60209290920196919550909350505050565b80516001600160a01b031682526020808201516001600160401b03169083015260408082015115159083015260609081015162ffffff16910152565b6020808252825182820181905260009190848201906040850190845b818110156127ec5761329f838551613234565b928401926080929092019160010161328c565b6000602082840312156132c457600080fd5b612dfc82612e87565b6020808252825182820181905260009190848201906040850190845b818110156127ec578351835292840192918401916001016132e9565b60008060006060848603121561331a57600080fd5b61332384612e87565b95602085013595506040909401359392505050565b80151581146119d057600080fd5b60008060006040848603121561335b57600080fd5b833561336681613338565b925060208401356001600160401b0381111561338157600080fd5b61338d86828701613137565b9497909650939450505050565b600080604083850312156133ad57600080fd5b6133b683612e87565b915060208301356133c681613338565b809150509250929050565b600080600080608085870312156133e757600080fd5b6133f085612e87565b935060206133ff818701612e87565b93506040860135925060608601356001600160401b038082111561342257600080fd5b818801915088601f83011261343657600080fd5b81358181111561344857613448612f04565b61345a601f8201601f19168501612f1a565b9150808252898482850101111561347057600080fd5b808484018584013760008482840101525080935050505092959194509250565b608081016109d98284613234565b600080604083850312156134b157600080fd5b6134ba83612e87565b91506134c860208401612e87565b90509250929050565b6020808252602b908201527f496e697469616c697a61626c653a20636f6e7472616374206973206e6f74206960408201526a6e697469616c697a696e6760a81b606082015260800190565b600181811c9082168061353057607f821691505b60208210810361355057634e487b7160e01b600052602260045260246000fd5b50919050565b6001600160a01b0392831681529116602082015260400190565b60006020828403121561358257600080fd5b8151612dfc81613338565b634e487b7160e01b600052603260045260246000fd5b634e487b7160e01b600052601160045260246000fd5b600082198211156135cc576135cc6135a3565b500190565b6000600182016135e3576135e36135a3565b5060010190565b6020808252601190820152704e4f545f454e4f5547485f535550504c5960781b604082015260600190565b6020808252601d908201527f43414e4e4f545f4d494e545f4f4e5f5448455f53414d455f424c4f434b000000604082015260600190565b6020808252601d908201527f434f4e5452414354535f4e4f545f414c4c4f5745445f544f5f4d494e54000000604082015260600190565b6020808252601d908201527f5055424c49435f4d494e545f49535f4e4f545f5945545f414354495645000000604082015260600190565b6020808252601e908201527f50524553414c455f4d494e545f49535f4e4f545f5945545f4143544956450000604082015260600190565b6020808252601b908201527f465245455f4d494e545f49535f4e4f545f5945545f4143544956450000000000604082015260600190565b60208082526028908201527f455843454544494e475f4d4158494d554d5f414d4f554e545f5045525f5452416040820152672729a0a1aa24a7a760c11b606082015260800190565b600081600019048311821515161561378a5761378a6135a3565b500290565b634e487b7160e01b600052601260045260246000fd5b6000826137b4576137b461378f565b500490565b8054600090600181811c90808316806137d357607f831692505b602080841082036137f457634e487b7160e01b600052602260045260246000fd5b818015613808576001811461381957613846565b60ff19861689528489019650613846565b60008881526020902060005b8681101561383e5781548b820152908501908301613825565b505084890196505b50505050505092915050565b600061385e82856137b9565b835161386e818360208801612e03565b01949350505050565b6000612dfc82846137b9565b600081613892576138926135a3565b506000190190565b60208082526034908201527f455243373231415f5f496e697469616c697a61626c653a20636f6e7472616374604082015273206973206e6f7420696e697469616c697a696e6760601b606082015260800190565b600082821015613900576139006135a3565b500390565b6000826139145761391461378f565b500690565b6001600160a01b038581168252841660208201526040810183905260806060820181905260009061394c90830184612e2f565b9695505050505050565b60006020828403121561396857600080fd5b8151612dfc81612dc956feee151c8401928dc223602bb187aff91b9a56c7cae5476ef1b3287b085a16c85fa2646970667358221220186fc279a88df3a3507b6b9c2a3e7589cff85c268dcb50a7f3a7a839b3a2875c64736f6c634300080d0033","opcodes":"PUSH1 0x80 PUSH1 0x40 MSTORE CALLVALUE DUP1 ISZERO PUSH2 0x10 JUMPI PUSH1 0x0 DUP1 REVERT JUMPDEST POP PUSH2 0x39C9 DUP1 PUSH2 0x20 PUSH1 0x0 CODECOPY PUSH1 0x0 RETURN INVALID PUSH1 0x80 PUSH1 0x40 MSTORE PUSH1 0x4 CALLDATASIZE LT PUSH2 0x31A JUMPI PUSH1 0x0 CALLDATALOAD PUSH1 0xE0 SHR DUP1 PUSH4 0x70C42575 GT PUSH2 0x1AB JUMPI DUP1 PUSH4 0xB08DA342 GT PUSH2 0xF7 JUMPI DUP1 PUSH4 0xD39C4DE7 GT PUSH2 0x95 JUMPI DUP1 PUSH4 0xE985E9C5 GT PUSH2 0x6F JUMPI DUP1 PUSH4 0xE985E9C5 EQ PUSH2 0x90D JUMPI DUP1 PUSH4 0xF2FDE38B EQ PUSH2 0x92D JUMPI DUP1 PUSH4 0xFE042D49 EQ PUSH2 0x94D JUMPI DUP1 PUSH4 0xFF633D55 EQ PUSH2 0x96D JUMPI PUSH1 0x0 DUP1 REVERT JUMPDEST DUP1 PUSH4 0xD39C4DE7 EQ PUSH2 0x895 JUMPI DUP1 PUSH4 0xDC33E681 EQ PUSH2 0x8C5 JUMPI DUP1 PUSH4 0xDE97536B EQ PUSH2 0x8E5 JUMPI PUSH1 0x0 DUP1 REVERT JUMPDEST DUP1 PUSH4 0xB88D4FDE GT PUSH2 0xD1 JUMPI DUP1 PUSH4 0xB88D4FDE EQ PUSH2 0x815 JUMPI DUP1 PUSH4 0xC23DC68F EQ PUSH2 0x828 JUMPI DUP1 PUSH4 0xC6275255 EQ PUSH2 0x855 JUMPI DUP1 PUSH4 0xC87B56DD EQ PUSH2 0x875 JUMPI PUSH1 0x0 DUP1 REVERT JUMPDEST DUP1 PUSH4 0xB08DA342 EQ PUSH2 0x78E JUMPI DUP1 PUSH4 0xB484EFF7 EQ PUSH2 0x7B6 JUMPI DUP1 PUSH4 0xB6FD509B EQ PUSH2 0x7FF JUMPI PUSH1 0x0 DUP1 REVERT JUMPDEST DUP1 PUSH4 0x95D89B41 GT PUSH2 0x164 JUMPI DUP1 PUSH4 0x9E6A1D7D GT PUSH2 0x13E JUMPI DUP1 PUSH4 0x9E6A1D7D EQ PUSH2 0x71B JUMPI DUP1 PUSH4 0xA0712D68 EQ PUSH2 0x73B JUMPI DUP1 PUSH4 0xA101FF6D EQ PUSH2 0x74E JUMPI DUP1 PUSH4 0xA22CB465 EQ PUSH2 0x76E JUMPI PUSH1 0x0 DUP1 REVERT JUMPDEST DUP1 PUSH4 0x95D89B41 EQ PUSH2 0x6C6 JUMPI DUP1 PUSH4 0x98E52F9A EQ PUSH2 0x6DB JUMPI DUP1 PUSH4 0x99A2557A EQ PUSH2 0x6FB JUMPI PUSH1 0x0 DUP1 REVERT JUMPDEST DUP1 PUSH4 0x70C42575 EQ PUSH2 0x61C JUMPI DUP1 PUSH4 0x715018A6 EQ PUSH2 0x63C JUMPI DUP1 PUSH4 0x7DFED9FE EQ PUSH2 0x651 JUMPI DUP1 PUSH4 0x8129FC1C EQ PUSH2 0x666 JUMPI DUP1 PUSH4 0x8462151C EQ PUSH2 0x67B JUMPI DUP1 PUSH4 0x8DA5CB5B EQ PUSH2 0x6A8 JUMPI PUSH1 0x0 DUP1 REVERT JUMPDEST DUP1 PUSH4 0x3549345E GT PUSH2 0x26A JUMPI DUP1 PUSH4 0x5BBB2177 GT PUSH2 0x223 JUMPI DUP1 PUSH4 0x6352211E GT PUSH2 0x1FD JUMPI DUP1 PUSH4 0x6352211E EQ PUSH2 0x59C JUMPI DUP1 PUSH4 0x64BFA546 EQ PUSH2 0x5BC JUMPI DUP1 PUSH4 0x6C19E783 EQ PUSH2 0x5DC JUMPI DUP1 PUSH4 0x70A08231 EQ PUSH2 0x5FC JUMPI PUSH1 0x0 DUP1 REVERT JUMPDEST DUP1 PUSH4 0x5BBB2177 EQ PUSH2 0x53A JUMPI DUP1 PUSH4 0x60D938DC EQ PUSH2 0x567 JUMPI DUP1 PUSH4 0x611F3F10 EQ PUSH2 0x586 JUMPI PUSH1 0x0 DUP1 REVERT JUMPDEST DUP1 PUSH4 0x3549345E EQ PUSH2 0x4AA JUMPI DUP1 PUSH4 0x3C18C3DA EQ PUSH2 0x4CA JUMPI DUP1 PUSH4 0x3CCFD60B EQ PUSH2 0x4DD JUMPI DUP1 PUSH4 0x3E07AC02 EQ PUSH2 0x4F2 JUMPI DUP1 PUSH4 0x42842E0E EQ PUSH2 0x507 JUMPI DUP1 PUSH4 0x55F804B3 EQ PUSH2 0x51A JUMPI PUSH1 0x0 DUP1 REVERT JUMPDEST DUP1 PUSH4 0x18160DDD GT PUSH2 0x2D7 JUMPI DUP1 PUSH4 0x2446548F GT PUSH2 0x2B1 JUMPI DUP1 PUSH4 0x2446548F EQ PUSH2 0x43E JUMPI DUP1 PUSH4 0x31C3C7A0 EQ PUSH2 0x45E JUMPI DUP1 PUSH4 0x32CB6B0C EQ PUSH2 0x474 JUMPI DUP1 PUSH4 0x34837AD3 EQ PUSH2 0x48A JUMPI PUSH1 0x0 DUP1 REVERT JUMPDEST DUP1 PUSH4 0x18160DDD EQ PUSH2 0x3FC JUMPI DUP1 PUSH4 0x1E84C413 EQ PUSH2 0x411 JUMPI DUP1 PUSH4 0x23B872DD EQ PUSH2 0x42B JUMPI PUSH1 0x0 DUP1 REVERT JUMPDEST DUP1 PUSH4 0x1FFC9A7 EQ PUSH2 0x31F JUMPI DUP1 PUSH4 0x2775240 EQ PUSH2 0x354 JUMPI DUP1 PUSH4 0x3EAEBEC EQ PUSH2 0x378 JUMPI DUP1 PUSH4 0x6FDDE03 EQ PUSH2 0x38F JUMPI DUP1 PUSH4 0x81812FC EQ PUSH2 0x3B1 JUMPI DUP1 PUSH4 0x95EA7B3 EQ PUSH2 0x3E9 JUMPI JUMPDEST PUSH1 0x0 DUP1 REVERT JUMPDEST CALLVALUE DUP1 ISZERO PUSH2 0x32B JUMPI PUSH1 0x0 DUP1 REVERT JUMPDEST POP PUSH2 0x33F PUSH2 0x33A CALLDATASIZE PUSH1 0x4 PUSH2 0x2DDF JUMP JUMPDEST PUSH2 0x98D JUMP JUMPDEST PUSH1 0x40 MLOAD SWAP1 ISZERO ISZERO DUP2 MSTORE PUSH1 0x20 ADD JUMPDEST PUSH1 0x40 MLOAD DUP1 SWAP2 SUB SWAP1 RETURN JUMPDEST CALLVALUE DUP1 ISZERO PUSH2 0x360 JUMPI PUSH1 0x0 DUP1 REVERT JUMPDEST POP PUSH2 0x36A PUSH1 0x68 SLOAD DUP2 JUMP JUMPDEST PUSH1 0x40 MLOAD SWAP1 DUP2 MSTORE PUSH1 0x20 ADD PUSH2 0x34B JUMP JUMPDEST CALLVALUE DUP1 ISZERO PUSH2 0x384 JUMPI PUSH1 0x0 DUP1 REVERT JUMPDEST POP PUSH2 0x38D PUSH2 0x9DF JUMP JUMPDEST STOP JUMPDEST CALLVALUE DUP1 ISZERO PUSH2 0x39B JUMPI PUSH1 0x0 DUP1 REVERT JUMPDEST POP PUSH2 0x3A4 PUSH2 0xA30 JUMP JUMPDEST PUSH1 0x40 MLOAD PUSH2 0x34B SWAP2 SWAP1 PUSH2 0x2E5B JUMP JUMPDEST CALLVALUE DUP1 ISZERO PUSH2 0x3BD JUMPI PUSH1 0x0 DUP1 REVERT JUMPDEST POP PUSH2 0x3D1 PUSH2 0x3CC CALLDATASIZE PUSH1 0x4 PUSH2 0x2E6E JUMP JUMPDEST PUSH2 0xACB JUMP JUMPDEST PUSH1 0x40 MLOAD PUSH1 0x1 PUSH1 0x1 PUSH1 0xA0 SHL SUB SWAP1 SWAP2 AND DUP2 MSTORE PUSH1 0x20 ADD PUSH2 0x34B JUMP JUMPDEST PUSH2 0x38D PUSH2 0x3F7 CALLDATASIZE PUSH1 0x4 PUSH2 0x2E9E JUMP JUMPDEST PUSH2 0xB0F JUMP JUMPDEST CALLVALUE DUP1 ISZERO PUSH2 0x408 JUMPI PUSH1 0x0 DUP1 REVERT JUMPDEST POP PUSH2 0x36A PUSH2 0xB1F JUMP JUMPDEST CALLVALUE DUP1 ISZERO PUSH2 0x41D JUMPI PUSH1 0x0 DUP1 REVERT JUMPDEST POP PUSH1 0x6A SLOAD PUSH2 0x33F SWAP1 PUSH1 0xFF AND DUP2 JUMP JUMPDEST PUSH2 0x38D PUSH2 0x439 CALLDATASIZE PUSH1 0x4 PUSH2 0x2EC8 JUMP JUMPDEST PUSH2 0xB3E JUMP JUMPDEST CALLVALUE DUP1 ISZERO PUSH2 0x44A JUMPI PUSH1 0x0 DUP1 REVERT JUMPDEST POP PUSH2 0x38D PUSH2 0x459 CALLDATASIZE PUSH1 0x4 PUSH2 0x2FD8 JUMP JUMPDEST PUSH2 0xC93 JUMP JUMPDEST CALLVALUE DUP1 ISZERO PUSH2 0x46A JUMPI PUSH1 0x0 DUP1 REVERT JUMPDEST POP PUSH2 0x36A PUSH1 0x66 SLOAD DUP2 JUMP JUMPDEST CALLVALUE DUP1 ISZERO PUSH2 0x480 JUMPI PUSH1 0x0 DUP1 REVERT JUMPDEST POP PUSH2 0x36A PUSH1 0x65 SLOAD DUP2 JUMP JUMPDEST CALLVALUE DUP1 ISZERO PUSH2 0x496 JUMPI PUSH1 0x0 DUP1 REVERT JUMPDEST POP PUSH2 0x38D PUSH2 0x4A5 CALLDATASIZE PUSH1 0x4 PUSH2 0x3097 JUMP JUMPDEST PUSH2 0xDAB JUMP JUMPDEST CALLVALUE DUP1 ISZERO PUSH2 0x4B6 JUMPI PUSH1 0x0 DUP1 REVERT JUMPDEST POP PUSH2 0x38D PUSH2 0x4C5 CALLDATASIZE PUSH1 0x4 PUSH2 0x2E6E JUMP JUMPDEST PUSH2 0x1078 JUMP JUMPDEST PUSH2 0x38D PUSH2 0x4D8 CALLDATASIZE PUSH1 0x4 PUSH2 0x3097 JUMP JUMPDEST PUSH2 0x1085 JUMP JUMPDEST CALLVALUE DUP1 ISZERO PUSH2 0x4E9 JUMPI PUSH1 0x0 DUP1 REVERT JUMPDEST POP PUSH2 0x38D PUSH2 0x1381 JUMP JUMPDEST CALLVALUE DUP1 ISZERO PUSH2 0x4FE JUMPI PUSH1 0x0 DUP1 REVERT JUMPDEST POP PUSH2 0x38D PUSH2 0x146A JUMP JUMPDEST PUSH2 0x38D PUSH2 0x515 CALLDATASIZE PUSH1 0x4 PUSH2 0x2EC8 JUMP JUMPDEST PUSH2 0x148F JUMP JUMPDEST CALLVALUE DUP1 ISZERO PUSH2 0x526 JUMPI PUSH1 0x0 DUP1 REVERT JUMPDEST POP PUSH2 0x38D PUSH2 0x535 CALLDATASIZE PUSH1 0x4 PUSH2 0x317F JUMP JUMPDEST PUSH2 0x15D9 JUMP JUMPDEST CALLVALUE DUP1 ISZERO PUSH2 0x546 JUMPI PUSH1 0x0 DUP1 REVERT JUMPDEST POP PUSH2 0x55A PUSH2 0x555 CALLDATASIZE PUSH1 0x4 PUSH2 0x31C0 JUMP JUMPDEST PUSH2 0x15F2 JUMP JUMPDEST PUSH1 0x40 MLOAD PUSH2 0x34B SWAP2 SWAP1 PUSH2 0x3270 JUMP JUMPDEST CALLVALUE DUP1 ISZERO PUSH2 0x573 JUMPI PUSH1 0x0 DUP1 REVERT JUMPDEST POP PUSH1 0x6A SLOAD PUSH2 0x33F SWAP1 PUSH2 0x100 SWAP1 DIV PUSH1 0xFF AND DUP2 JUMP JUMPDEST CALLVALUE DUP1 ISZERO PUSH2 0x592 JUMPI PUSH1 0x0 DUP1 REVERT JUMPDEST POP PUSH2 0x36A PUSH1 0x67 SLOAD DUP2 JUMP JUMPDEST CALLVALUE DUP1 ISZERO PUSH2 0x5A8 JUMPI PUSH1 0x0 DUP1 REVERT JUMPDEST POP PUSH2 0x3D1 PUSH2 0x5B7 CALLDATASIZE PUSH1 0x4 PUSH2 0x2E6E JUMP JUMPDEST PUSH2 0x163E JUMP JUMPDEST CALLVALUE DUP1 ISZERO PUSH2 0x5C8 JUMPI PUSH1 0x0 DUP1 REVERT JUMPDEST POP PUSH2 0x38D PUSH2 0x5D7 CALLDATASIZE PUSH1 0x4 PUSH2 0x2E6E JUMP JUMPDEST PUSH2 0x1649 JUMP JUMPDEST CALLVALUE DUP1 ISZERO PUSH2 0x5E8 JUMPI PUSH1 0x0 DUP1 REVERT JUMPDEST POP PUSH2 0x38D PUSH2 0x5F7 CALLDATASIZE PUSH1 0x4 PUSH2 0x32B2 JUMP JUMPDEST PUSH2 0x1656 JUMP JUMPDEST CALLVALUE DUP1 ISZERO PUSH2 0x608 JUMPI PUSH1 0x0 DUP1 REVERT JUMPDEST POP PUSH2 0x36A PUSH2 0x617 CALLDATASIZE PUSH1 0x4 PUSH2 0x32B2 JUMP JUMPDEST PUSH2 0x1680 JUMP JUMPDEST CALLVALUE DUP1 ISZERO PUSH2 0x628 JUMPI PUSH1 0x0 DUP1 REVERT JUMPDEST POP PUSH2 0x38D PUSH2 0x637 CALLDATASIZE PUSH1 0x4 PUSH2 0x2E6E JUMP JUMPDEST PUSH2 0x16DF JUMP JUMPDEST CALLVALUE DUP1 ISZERO PUSH2 0x648 JUMPI PUSH1 0x0 DUP1 REVERT JUMPDEST POP PUSH2 0x38D PUSH2 0x16EC JUMP JUMPDEST CALLVALUE DUP1 ISZERO PUSH2 0x65D JUMPI PUSH1 0x0 DUP1 REVERT JUMPDEST POP PUSH2 0x38D PUSH2 0x16FE JUMP JUMPDEST CALLVALUE DUP1 ISZERO PUSH2 0x672 JUMPI PUSH1 0x0 DUP1 REVERT JUMPDEST POP PUSH2 0x38D PUSH2 0x171A JUMP JUMPDEST CALLVALUE DUP1 ISZERO PUSH2 0x687 JUMPI PUSH1 0x0 DUP1 REVERT JUMPDEST POP PUSH2 0x69B PUSH2 0x696 CALLDATASIZE PUSH1 0x4 PUSH2 0x32B2 JUMP JUMPDEST PUSH2 0x19D3 JUMP JUMPDEST PUSH1 0x40 MLOAD PUSH2 0x34B SWAP2 SWAP1 PUSH2 0x32CD JUMP JUMPDEST CALLVALUE DUP1 ISZERO PUSH2 0x6B4 JUMPI PUSH1 0x0 DUP1 REVERT JUMPDEST POP PUSH1 0x33 SLOAD PUSH1 0x1 PUSH1 0x1 PUSH1 0xA0 SHL SUB AND PUSH2 0x3D1 JUMP JUMPDEST CALLVALUE DUP1 ISZERO PUSH2 0x6D2 JUMPI PUSH1 0x0 DUP1 REVERT JUMPDEST POP PUSH2 0x3A4 PUSH2 0x1A01 JUMP JUMPDEST CALLVALUE DUP1 ISZERO PUSH2 0x6E7 JUMPI PUSH1 0x0 DUP1 REVERT JUMPDEST POP PUSH2 0x38D PUSH2 0x6F6 CALLDATASIZE PUSH1 0x4 PUSH2 0x2E6E JUMP JUMPDEST PUSH2 0x1A19 JUMP JUMPDEST CALLVALUE DUP1 ISZERO PUSH2 0x707 JUMPI PUSH1 0x0 DUP1 REVERT JUMPDEST POP PUSH2 0x69B PUSH2 0x716 CALLDATASIZE PUSH1 0x4 PUSH2 0x3305 JUMP JUMPDEST PUSH2 0x1A6E JUMP JUMPDEST CALLVALUE DUP1 ISZERO PUSH2 0x727 JUMPI PUSH1 0x0 DUP1 REVERT JUMPDEST POP PUSH2 0x38D PUSH2 0x736 CALLDATASIZE PUSH1 0x4 PUSH2 0x2E6E JUMP JUMPDEST PUSH2 0x1A7B JUMP JUMPDEST PUSH2 0x38D PUSH2 0x749 CALLDATASIZE PUSH1 0x4 PUSH2 0x2E6E JUMP JUMPDEST PUSH2 0x1A88 JUMP JUMPDEST CALLVALUE DUP1 ISZERO PUSH2 0x75A JUMPI PUSH1 0x0 DUP1 REVERT JUMPDEST POP PUSH2 0x38D PUSH2 0x769 CALLDATASIZE PUSH1 0x4 PUSH2 0x3346 JUMP JUMPDEST PUSH2 0x1BD2 JUMP JUMPDEST CALLVALUE DUP1 ISZERO PUSH2 0x77A JUMPI PUSH1 0x0 DUP1 REVERT JUMPDEST POP PUSH2 0x38D PUSH2 0x789 CALLDATASIZE PUSH1 0x4 PUSH2 0x339A JUMP JUMPDEST PUSH2 0x1BFB JUMP JUMPDEST CALLVALUE DUP1 ISZERO PUSH2 0x79A JUMPI PUSH1 0x0 DUP1 REVERT JUMPDEST POP PUSH2 0x3D1 PUSH20 0x779E3847551FA09D15A0AE2AE86B60A912EA00AD DUP2 JUMP JUMPDEST CALLVALUE DUP1 ISZERO PUSH2 0x7C2 JUMPI PUSH1 0x0 DUP1 REVERT JUMPDEST POP PUSH2 0x7EA PUSH2 0x7D1 CALLDATASIZE PUSH1 0x4 PUSH2 0x32B2 JUMP JUMPDEST PUSH1 0x6E PUSH1 0x20 MSTORE PUSH1 0x0 SWAP1 DUP2 MSTORE PUSH1 0x40 SWAP1 KECCAK256 DUP1 SLOAD PUSH1 0x1 SWAP1 SWAP2 ADD SLOAD DUP3 JUMP JUMPDEST PUSH1 0x40 DUP1 MLOAD SWAP3 DUP4 MSTORE PUSH1 0x20 DUP4 ADD SWAP2 SWAP1 SWAP2 MSTORE ADD PUSH2 0x34B JUMP JUMPDEST CALLVALUE DUP1 ISZERO PUSH2 0x80B JUMPI PUSH1 0x0 DUP1 REVERT JUMPDEST POP PUSH2 0x36A PUSH1 0x69 SLOAD DUP2 JUMP JUMPDEST PUSH2 0x38D PUSH2 0x823 CALLDATASIZE PUSH1 0x4 PUSH2 0x33D1 JUMP JUMPDEST PUSH2 0x1C78 JUMP JUMPDEST CALLVALUE DUP1 ISZERO PUSH2 0x834 JUMPI PUSH1 0x0 DUP1 REVERT JUMPDEST POP PUSH2 0x848 PUSH2 0x843 CALLDATASIZE PUSH1 0x4 PUSH2 0x2E6E JUMP JUMPDEST PUSH2 0x1DD0 JUMP JUMPDEST PUSH1 0x40 MLOAD PUSH2 0x34B SWAP2 SWAP1 PUSH2 0x3490 JUMP JUMPDEST CALLVALUE DUP1 ISZERO PUSH2 0x861 JUMPI PUSH1 0x0 DUP1 REVERT JUMPDEST POP PUSH2 0x38D PUSH2 0x870 CALLDATASIZE PUSH1 0x4 PUSH2 0x2E6E JUMP JUMPDEST PUSH2 0x1E2B JUMP JUMPDEST CALLVALUE DUP1 ISZERO PUSH2 0x881 JUMPI PUSH1 0x0 DUP1 REVERT JUMPDEST POP PUSH2 0x3A4 PUSH2 0x890 CALLDATASIZE PUSH1 0x4 PUSH2 0x2E6E JUMP JUMPDEST PUSH2 0x1E38 JUMP JUMPDEST CALLVALUE DUP1 ISZERO PUSH2 0x8A1 JUMPI PUSH1 0x0 DUP1 REVERT JUMPDEST POP PUSH2 0x33F PUSH2 0x8B0 CALLDATASIZE PUSH1 0x4 PUSH2 0x2E6E JUMP JUMPDEST PUSH1 0x71 PUSH1 0x20 MSTORE PUSH1 0x0 SWAP1 DUP2 MSTORE PUSH1 0x40 SWAP1 KECCAK256 SLOAD PUSH1 0xFF AND DUP2 JUMP JUMPDEST CALLVALUE DUP1 ISZERO PUSH2 0x8D1 JUMPI PUSH1 0x0 DUP1 REVERT JUMPDEST POP PUSH2 0x36A PUSH2 0x8E0 CALLDATASIZE PUSH1 0x4 PUSH2 0x32B2 JUMP JUMPDEST PUSH2 0x1E90 JUMP JUMPDEST CALLVALUE DUP1 ISZERO PUSH2 0x8F1 JUMPI PUSH1 0x0 DUP1 REVERT JUMPDEST POP PUSH2 0x3D1 PUSH20 0x188A3C584F0DE9EE0EABE04316A94A41F0867C0C DUP2 JUMP JUMPDEST CALLVALUE DUP1 ISZERO PUSH2 0x919 JUMPI PUSH1 0x0 DUP1 REVERT JUMPDEST POP PUSH2 0x33F PUSH2 0x928 CALLDATASIZE PUSH1 0x4 PUSH2 0x349E JUMP JUMPDEST PUSH2 0x1E9B JUMP JUMPDEST CALLVALUE DUP1 ISZERO PUSH2 0x939 JUMPI PUSH1 0x0 DUP1 REVERT JUMPDEST POP PUSH2 0x38D PUSH2 0x948 CALLDATASIZE PUSH1 0x4 PUSH2 0x32B2 JUMP JUMPDEST PUSH2 0x1ED8 JUMP JUMPDEST CALLVALUE DUP1 ISZERO PUSH2 0x959 JUMPI PUSH1 0x0 DUP1 REVERT JUMPDEST POP PUSH2 0x38D PUSH2 0x968 CALLDATASIZE PUSH1 0x4 PUSH2 0x2E6E JUMP JUMPDEST PUSH2 0x1F4E JUMP JUMPDEST CALLVALUE DUP1 ISZERO PUSH2 0x979 JUMPI PUSH1 0x0 DUP1 REVERT JUMPDEST POP PUSH2 0x38D PUSH2 0x988 CALLDATASIZE PUSH1 0x4 PUSH2 0x339A JUMP JUMPDEST PUSH2 0x1F5B JUMP JUMPDEST PUSH1 0x0 PUSH4 0x1FFC9A7 PUSH1 0xE0 SHL PUSH1 0x1 PUSH1 0x1 PUSH1 0xE0 SHL SUB NOT DUP4 AND EQ DUP1 PUSH2 0x9BE JUMPI POP PUSH4 0x80AC58CD PUSH1 0xE0 SHL PUSH1 0x1 PUSH1 0x1 PUSH1 0xE0 SHL SUB NOT DUP4 AND EQ JUMPDEST DUP1 PUSH2 0x9D9 JUMPI POP PUSH4 0x5B5E139F PUSH1 0xE0 SHL PUSH1 0x1 PUSH1 0x1 PUSH1 0xE0 SHL SUB NOT DUP4 AND EQ JUMPDEST SWAP3 SWAP2 POP POP JUMP JUMPDEST PUSH1 0x0 SLOAD PUSH2 0x100 SWAP1 DIV PUSH1 0xFF AND PUSH2 0xA0F JUMPI PUSH1 0x40 MLOAD PUSH3 0x461BCD PUSH1 0xE5 SHL DUP2 MSTORE PUSH1 0x4 ADD PUSH2 0xA06 SWAP1 PUSH2 0x34D1 JUMP JUMPDEST PUSH1 0x40 MLOAD DUP1 SWAP2 SUB SWAP1 REVERT JUMPDEST PUSH2 0xA2E PUSH20 0x3CC6CDDA760B79BAFA08DF41ECFA224F810DCEB6 PUSH1 0x1 PUSH2 0x1F5B JUMP JUMPDEST JUMP JUMPDEST PUSH1 0x60 PUSH2 0xA3A PUSH2 0x20E4 JUMP JUMPDEST PUSH1 0x2 ADD DUP1 SLOAD PUSH2 0xA48 SWAP1 PUSH2 0x351C JUMP JUMPDEST DUP1 PUSH1 0x1F ADD PUSH1 0x20 DUP1 SWAP2 DIV MUL PUSH1 0x20 ADD PUSH1 0x40 MLOAD SWAP1 DUP2 ADD PUSH1 0x40 MSTORE DUP1 SWAP3 SWAP2 SWAP1 DUP2 DUP2 MSTORE PUSH1 0x20 ADD DUP3 DUP1 SLOAD PUSH2 0xA74 SWAP1 PUSH2 0x351C JUMP JUMPDEST DUP1 ISZERO PUSH2 0xAC1 JUMPI DUP1 PUSH1 0x1F LT PUSH2 0xA96 JUMPI PUSH2 0x100 DUP1 DUP4 SLOAD DIV MUL DUP4 MSTORE SWAP2 PUSH1 0x20 ADD SWAP2 PUSH2 0xAC1 JUMP JUMPDEST DUP3 ADD SWAP2 SWAP1 PUSH1 0x0 MSTORE PUSH1 0x20 PUSH1 0x0 KECCAK256 SWAP1 JUMPDEST DUP2 SLOAD DUP2 MSTORE SWAP1 PUSH1 0x1 ADD SWAP1 PUSH1 0x20 ADD DUP1 DUP4 GT PUSH2 0xAA4 JUMPI DUP3 SWAP1 SUB PUSH1 0x1F AND DUP3 ADD SWAP2 JUMPDEST POP POP POP POP POP SWAP1 POP SWAP1 JUMP JUMPDEST PUSH1 0x0 PUSH2 0xAD6 DUP3 PUSH2 0x2108 JUMP JUMPDEST PUSH2 0xAEA JUMPI PUSH2 0xAEA PUSH4 0x33D1C039 PUSH1 0xE2 SHL PUSH2 0x215E JUMP JUMPDEST PUSH2 0xAF2 PUSH2 0x20E4 JUMP JUMPDEST PUSH1 0x0 SWAP3 DUP4 MSTORE PUSH1 0x6 ADD PUSH1 0x20 MSTORE POP PUSH1 0x40 SWAP1 KECCAK256 SLOAD PUSH1 0x1 PUSH1 0x1 PUSH1 0xA0 SHL SUB AND SWAP1 JUMP JUMPDEST PUSH2 0xB1B DUP3 DUP3 PUSH1 0x1 PUSH2 0x2168 JUMP JUMPDEST POP POP JUMP JUMPDEST PUSH1 0x0 DUP1 PUSH2 0xB2A PUSH2 0x20E4 JUMP JUMPDEST PUSH1 0x1 ADD SLOAD PUSH2 0xB36 PUSH2 0x20E4 JUMP JUMPDEST SLOAD SUB SUB SWAP2 SWAP1 POP JUMP JUMPDEST DUP3 PUSH14 0xAAEB6D7670E522A718067333CD4E EXTCODESIZE ISZERO PUSH2 0xC82 JUMPI CALLER PUSH1 0x1 PUSH1 0x1 PUSH1 0xA0 SHL SUB DUP3 AND SUB PUSH2 0xB74 JUMPI PUSH2 0xB6F DUP5 DUP5 DUP5 PUSH2 0x2219 JUMP JUMPDEST PUSH2 0xC8D JUMP JUMPDEST PUSH1 0x40 MLOAD PUSH4 0x3185C44D PUSH1 0xE2 SHL DUP2 MSTORE PUSH14 0xAAEB6D7670E522A718067333CD4E SWAP1 PUSH4 0xC6171134 SWAP1 PUSH2 0xBA7 SWAP1 ADDRESS SWAP1 CALLER SWAP1 PUSH1 0x4 ADD PUSH2 0x3556 JUMP JUMPDEST PUSH1 0x20 PUSH1 0x40 MLOAD DUP1 DUP4 SUB DUP2 DUP7 GAS STATICCALL ISZERO DUP1 ISZERO PUSH2 0xBC4 JUMPI RETURNDATASIZE PUSH1 0x0 DUP1 RETURNDATACOPY RETURNDATASIZE PUSH1 0x0 REVERT JUMPDEST POP POP POP POP PUSH1 0x40 MLOAD RETURNDATASIZE PUSH1 0x1F NOT PUSH1 0x1F DUP3 ADD AND DUP3 ADD DUP1 PUSH1 0x40 MSTORE POP DUP2 ADD SWAP1 PUSH2 0xBE8 SWAP2 SWAP1 PUSH2 0x3570 JUMP JUMPDEST DUP1 ISZERO PUSH2 0xC63 JUMPI POP PUSH1 0x40 MLOAD PUSH4 0x3185C44D PUSH1 0xE2 SHL DUP2 MSTORE PUSH14 0xAAEB6D7670E522A718067333CD4E SWAP1 PUSH4 0xC6171134 SWAP1 PUSH2 0xC22 SWAP1 ADDRESS SWAP1 DUP6 SWAP1 PUSH1 0x4 ADD PUSH2 0x3556 JUMP JUMPDEST PUSH1 0x20 PUSH1 0x40 MLOAD DUP1 DUP4 SUB DUP2 DUP7 GAS STATICCALL ISZERO DUP1 ISZERO PUSH2 0xC3F JUMPI RETURNDATASIZE PUSH1 0x0 DUP1 RETURNDATACOPY RETURNDATASIZE PUSH1 0x0 REVERT JUMPDEST POP POP POP POP PUSH1 0x40 MLOAD RETURNDATASIZE PUSH1 0x1F NOT PUSH1 0x1F DUP3 ADD AND DUP3 ADD DUP1 PUSH1 0x40 MSTORE POP DUP2 ADD SWAP1 PUSH2 0xC63 SWAP2 SWAP1 PUSH2 0x3570 JUMP JUMPDEST PUSH2 0xC82 JUMPI PUSH1 0x40 MLOAD PUSH4 0x3B79C773 PUSH1 0xE2 SHL DUP2 MSTORE CALLER PUSH1 0x4 DUP3 ADD MSTORE PUSH1 0x24 ADD PUSH2 0xA06 JUMP JUMPDEST PUSH2 0xC8D DUP5 DUP5 DUP5 PUSH2 0x2219 JUMP JUMPDEST POP POP POP POP JUMP JUMPDEST DUP1 MLOAD DUP3 MLOAD EQ PUSH2 0xCD7 JUMPI PUSH1 0x40 MLOAD PUSH3 0x461BCD PUSH1 0xE5 SHL DUP2 MSTORE PUSH1 0x20 PUSH1 0x4 DUP3 ADD MSTORE PUSH1 0x10 PUSH1 0x24 DUP3 ADD MSTORE PUSH16 0x57524F4E475F504152414D4554455253 PUSH1 0x80 SHL PUSH1 0x44 DUP3 ADD MSTORE PUSH1 0x64 ADD PUSH2 0xA06 JUMP JUMPDEST PUSH1 0x0 DUP1 JUMPDEST DUP3 MLOAD DUP2 LT ISZERO PUSH2 0xD1D JUMPI DUP3 DUP2 DUP2 MLOAD DUP2 LT PUSH2 0xCF6 JUMPI PUSH2 0xCF6 PUSH2 0x358D JUMP JUMPDEST PUSH1 0x20 MUL PUSH1 0x20 ADD ADD MLOAD DUP3 PUSH2 0xD09 SWAP2 SWAP1 PUSH2 0x35B9 JUMP JUMPDEST SWAP2 POP DUP1 PUSH2 0xD15 DUP2 PUSH2 0x35D1 JUMP JUMPDEST SWAP2 POP POP PUSH2 0xCDB JUMP JUMPDEST POP PUSH1 0x65 SLOAD PUSH2 0xD29 PUSH2 0xB1F JUMP JUMPDEST PUSH2 0xD33 SWAP1 DUP4 PUSH2 0x35B9 JUMP JUMPDEST GT ISZERO PUSH2 0xD51 JUMPI PUSH1 0x40 MLOAD PUSH3 0x461BCD PUSH1 0xE5 SHL DUP2 MSTORE PUSH1 0x4 ADD PUSH2 0xA06 SWAP1 PUSH2 0x35EA JUMP JUMPDEST PUSH1 0x0 JUMPDEST DUP4 MLOAD DUP2 LT ISZERO PUSH2 0xC8D JUMPI PUSH2 0xD99 DUP5 DUP3 DUP2 MLOAD DUP2 LT PUSH2 0xD72 JUMPI PUSH2 0xD72 PUSH2 0x358D JUMP JUMPDEST PUSH1 0x20 MUL PUSH1 0x20 ADD ADD MLOAD DUP5 DUP4 DUP2 MLOAD DUP2 LT PUSH2 0xD8C JUMPI PUSH2 0xD8C PUSH2 0x358D JUMP JUMPDEST PUSH1 0x20 MUL PUSH1 0x20 ADD ADD MLOAD PUSH2 0x23DC JUMP JUMPDEST DUP1 PUSH2 0xDA3 DUP2 PUSH2 0x35D1 JUMP JUMPDEST SWAP2 POP POP PUSH2 0xD54 JUMP JUMPDEST CALLER PUSH1 0x0 SWAP1 DUP2 MSTORE PUSH1 0x6F PUSH1 0x20 MSTORE PUSH1 0x40 SWAP1 KECCAK256 SLOAD PUSH1 0x3 SWAP1 TIMESTAMP GT PUSH2 0xDDC JUMPI PUSH1 0x40 MLOAD PUSH3 0x461BCD PUSH1 0xE5 SHL DUP2 MSTORE PUSH1 0x4 ADD PUSH2 0xA06 SWAP1 PUSH2 0x3615 JUMP JUMPDEST ORIGIN CALLER EQ PUSH2 0xDFB JUMPI PUSH1 0x40 MLOAD PUSH3 0x461BCD PUSH1 0xE5 SHL DUP2 MSTORE PUSH1 0x4 ADD PUSH2 0xA06 SWAP1 PUSH2 0x364C JUMP JUMPDEST DUP1 PUSH1 0xFF AND PUSH1 0x1 SUB PUSH2 0xE28 JUMPI PUSH1 0x6A SLOAD PUSH1 0xFF AND PUSH2 0xE28 JUMPI PUSH1 0x40 MLOAD PUSH3 0x461BCD PUSH1 0xE5 SHL DUP2 MSTORE PUSH1 0x4 ADD PUSH2 0xA06 SWAP1 PUSH2 0x3683 JUMP JUMPDEST DUP1 PUSH1 0xFF AND PUSH1 0x2 SUB PUSH2 0xE5A JUMPI PUSH1 0x6A SLOAD PUSH2 0x100 SWAP1 DIV PUSH1 0xFF AND PUSH2 0xE5A JUMPI PUSH1 0x40 MLOAD PUSH3 0x461BCD PUSH1 0xE5 SHL DUP2 MSTORE PUSH1 0x4 ADD PUSH2 0xA06 SWAP1 PUSH2 0x36BA JUMP JUMPDEST DUP1 PUSH1 0xFF AND PUSH1 0x3 SUB PUSH2 0xE8C JUMPI PUSH1 0x6A SLOAD PUSH2 0x100 SWAP1 DIV PUSH1 0xFF AND PUSH2 0xE8C JUMPI PUSH1 0x40 MLOAD PUSH3 0x461BCD PUSH1 0xE5 SHL DUP2 MSTORE PUSH1 0x4 ADD PUSH2 0xA06 SWAP1 PUSH2 0x36F1 JUMP JUMPDEST DUP3 PUSH1 0x65 SLOAD PUSH2 0xE98 PUSH2 0xB1F JUMP JUMPDEST PUSH2 0xEA2 SWAP1 DUP4 PUSH2 0x35B9 JUMP JUMPDEST GT ISZERO PUSH2 0xEC0 JUMPI PUSH1 0x40 MLOAD PUSH3 0x461BCD PUSH1 0xE5 SHL DUP2 MSTORE PUSH1 0x4 ADD PUSH2 0xA06 SWAP1 PUSH2 0x35EA JUMP JUMPDEST PUSH1 0x68 SLOAD PUSH2 0xECC CALLER PUSH2 0x1E90 JUMP JUMPDEST PUSH2 0xED6 SWAP1 DUP4 PUSH2 0x35B9 JUMP JUMPDEST GT ISZERO PUSH2 0xF18 JUMPI PUSH1 0x40 MLOAD PUSH3 0x461BCD PUSH1 0xE5 SHL DUP2 MSTORE PUSH1 0x20 PUSH1 0x4 DUP3 ADD MSTORE PUSH1 0x11 PUSH1 0x24 DUP3 ADD MSTORE PUSH17 0x115610D1515117D352539517D312535255 PUSH1 0x7A SHL PUSH1 0x44 DUP3 ADD MSTORE PUSH1 0x64 ADD PUSH2 0xA06 JUMP JUMPDEST PUSH1 0x69 SLOAD DUP2 GT ISZERO PUSH2 0xF3A JUMPI PUSH1 0x40 MLOAD PUSH3 0x461BCD PUSH1 0xE5 SHL DUP2 MSTORE PUSH1 0x4 ADD PUSH2 0xA06 SWAP1 PUSH2 0x3728 JUMP JUMPDEST PUSH1 0x40 MLOAD PUSH12 0xFFFFFFFFFFFFFFFFFFFFFFFF NOT CALLER PUSH1 0x60 SHL AND PUSH1 0x20 DUP3 ADD MSTORE PUSH1 0x34 DUP2 ADD DUP5 SWAP1 MSTORE PUSH1 0x0 SWAP1 PUSH1 0x54 ADD PUSH1 0x40 MLOAD PUSH1 0x20 DUP2 DUP4 SUB SUB DUP2 MSTORE SWAP1 PUSH1 0x40 MSTORE DUP1 MLOAD SWAP1 PUSH1 0x20 ADD KECCAK256 SWAP1 POP PUSH2 0xF87 DUP7 PUSH1 0x6D SLOAD DUP4 PUSH2 0x23F6 JUMP JUMPDEST PUSH2 0xFC3 JUMPI PUSH1 0x40 MLOAD PUSH3 0x461BCD PUSH1 0xE5 SHL DUP2 MSTORE PUSH1 0x20 PUSH1 0x4 DUP3 ADD MSTORE PUSH1 0xD PUSH1 0x24 DUP3 ADD MSTORE PUSH13 0x141493D3D197D2539590531251 PUSH1 0x9A SHL PUSH1 0x44 DUP3 ADD MSTORE PUSH1 0x64 ADD PUSH2 0xA06 JUMP JUMPDEST CALLER PUSH1 0x0 SWAP1 DUP2 MSTORE PUSH1 0x6E PUSH1 0x20 MSTORE PUSH1 0x40 SWAP1 KECCAK256 PUSH1 0x1 ADD SLOAD DUP5 SWAP1 PUSH2 0xFE3 SWAP1 DUP8 SWAP1 PUSH2 0x35B9 JUMP JUMPDEST GT ISZERO PUSH2 0x1031 JUMPI PUSH1 0x40 MLOAD PUSH3 0x461BCD PUSH1 0xE5 SHL DUP2 MSTORE PUSH1 0x20 PUSH1 0x4 DUP3 ADD MSTORE PUSH1 0x1B PUSH1 0x24 DUP3 ADD MSTORE PUSH32 0x4558434545445F414C4C4F43415445445F4D494E545F4C494D49540000000000 PUSH1 0x44 DUP3 ADD MSTORE PUSH1 0x64 ADD PUSH2 0xA06 JUMP JUMPDEST CALLER PUSH1 0x0 SWAP1 DUP2 MSTORE PUSH1 0x6F PUSH1 0x20 SWAP1 DUP2 MSTORE PUSH1 0x40 DUP1 DUP4 KECCAK256 TIMESTAMP SWAP1 SSTORE PUSH1 0x6E SWAP1 SWAP2 MSTORE DUP2 KECCAK256 PUSH1 0x1 ADD DUP1 SLOAD DUP8 SWAP3 SWAP1 PUSH2 0x1060 SWAP1 DUP5 SWAP1 PUSH2 0x35B9 JUMP JUMPDEST SWAP1 SWAP2 SSTORE POP PUSH2 0x1070 SWAP1 POP CALLER DUP7 PUSH2 0x240C JUMP JUMPDEST POP POP POP POP POP POP JUMP JUMPDEST PUSH2 0x1080 PUSH2 0x2500 JUMP JUMPDEST PUSH1 0x66 SSTORE JUMP JUMPDEST CALLER PUSH1 0x0 SWAP1 DUP2 MSTORE PUSH1 0x6F PUSH1 0x20 MSTORE PUSH1 0x40 SWAP1 KECCAK256 SLOAD PUSH1 0x2 SWAP1 TIMESTAMP GT PUSH2 0x10B6 JUMPI PUSH1 0x40 MLOAD PUSH3 0x461BCD PUSH1 0xE5 SHL DUP2 MSTORE PUSH1 0x4 ADD PUSH2 0xA06 SWAP1 PUSH2 0x3615 JUMP JUMPDEST ORIGIN CALLER EQ PUSH2 0x10D5 JUMPI PUSH1 0x40 MLOAD PUSH3 0x461BCD PUSH1 0xE5 SHL DUP2 MSTORE PUSH1 0x4 ADD PUSH2 0xA06 SWAP1 PUSH2 0x364C JUMP JUMPDEST DUP1 PUSH1 0xFF AND PUSH1 0x1 SUB PUSH2 0x1102 JUMPI PUSH1 0x6A SLOAD PUSH1 0xFF AND PUSH2 0x1102 JUMPI PUSH1 0x40 MLOAD PUSH3 0x461BCD PUSH1 0xE5 SHL DUP2 MSTORE PUSH1 0x4 ADD PUSH2 0xA06 SWAP1 PUSH2 0x3683 JUMP JUMPDEST DUP1 PUSH1 0xFF AND PUSH1 0x2 SUB PUSH2 0x1134 JUMPI PUSH1 0x6A SLOAD PUSH2 0x100 SWAP1 DIV PUSH1 0xFF AND PUSH2 0x1134 JUMPI PUSH1 0x40 MLOAD PUSH3 0x461BCD PUSH1 0xE5 SHL DUP2 MSTORE PUSH1 0x4 ADD PUSH2 0xA06 SWAP1 PUSH2 0x36BA JUMP JUMPDEST DUP1 PUSH1 0xFF AND PUSH1 0x3 SUB PUSH2 0x1166 JUMPI PUSH1 0x6A SLOAD PUSH2 0x100 SWAP1 DIV PUSH1 0xFF AND PUSH2 0x1166 JUMPI PUSH1 0x40 MLOAD PUSH3 0x461BCD PUSH1 0xE5 SHL DUP2 MSTORE PUSH1 0x4 ADD PUSH2 0xA06 SWAP1 PUSH2 0x36F1 JUMP JUMPDEST DUP3 PUSH1 0x65 SLOAD PUSH2 0x1172 PUSH2 0xB1F JUMP JUMPDEST PUSH2 0x117C SWAP1 DUP4 PUSH2 0x35B9 JUMP JUMPDEST GT ISZERO PUSH2 0x119A JUMPI PUSH1 0x40 MLOAD PUSH3 0x461BCD PUSH1 0xE5 SHL DUP2 MSTORE PUSH1 0x4 ADD PUSH2 0xA06 SWAP1 PUSH2 0x35EA JUMP JUMPDEST PUSH1 0x68 SLOAD PUSH2 0x11A6 CALLER PUSH2 0x1E90 JUMP JUMPDEST PUSH2 0x11B0 SWAP1 DUP4 PUSH2 0x35B9 JUMP JUMPDEST GT ISZERO PUSH2 0x11F2 JUMPI PUSH1 0x40 MLOAD PUSH3 0x461BCD PUSH1 0xE5 SHL DUP2 MSTORE PUSH1 0x20 PUSH1 0x4 DUP3 ADD MSTORE PUSH1 0x11 PUSH1 0x24 DUP3 ADD MSTORE PUSH17 0x115610D1515117D352539517D312535255 PUSH1 0x7A SHL PUSH1 0x44 DUP3 ADD MSTORE PUSH1 0x64 ADD PUSH2 0xA06 JUMP JUMPDEST PUSH1 0x69 SLOAD DUP2 GT ISZERO PUSH2 0x1214 JUMPI PUSH1 0x40 MLOAD PUSH3 0x461BCD PUSH1 0xE5 SHL DUP2 MSTORE PUSH1 0x4 ADD PUSH2 0xA06 SWAP1 PUSH2 0x3728 JUMP JUMPDEST PUSH1 0x40 MLOAD PUSH12 0xFFFFFFFFFFFFFFFFFFFFFFFF NOT CALLER PUSH1 0x60 SHL AND PUSH1 0x20 DUP3 ADD MSTORE PUSH1 0x34 DUP2 ADD DUP5 SWAP1 MSTORE PUSH1 0x0 SWAP1 PUSH1 0x54 ADD PUSH1 0x40 MLOAD PUSH1 0x20 DUP2 DUP4 SUB SUB DUP2 MSTORE SWAP1 PUSH1 0x40 MSTORE DUP1 MLOAD SWAP1 PUSH1 0x20 ADD KECCAK256 SWAP1 POP PUSH2 0x1261 DUP7 PUSH1 0x6C SLOAD DUP4 PUSH2 0x23F6 JUMP JUMPDEST PUSH2 0x129D JUMPI PUSH1 0x40 MLOAD PUSH3 0x461BCD PUSH1 0xE5 SHL DUP2 MSTORE PUSH1 0x20 PUSH1 0x4 DUP3 ADD MSTORE PUSH1 0xD PUSH1 0x24 DUP3 ADD MSTORE PUSH13 0x141493D3D197D2539590531251 PUSH1 0x9A SHL PUSH1 0x44 DUP3 ADD MSTORE PUSH1 0x64 ADD PUSH2 0xA06 JUMP JUMPDEST CALLER PUSH1 0x0 SWAP1 DUP2 MSTORE PUSH1 0x6E PUSH1 0x20 MSTORE PUSH1 0x40 SWAP1 KECCAK256 SLOAD DUP5 SWAP1 PUSH2 0x12BA SWAP1 DUP8 SWAP1 PUSH2 0x35B9 JUMP JUMPDEST GT ISZERO PUSH2 0x1308 JUMPI PUSH1 0x40 MLOAD PUSH3 0x461BCD PUSH1 0xE5 SHL DUP2 MSTORE PUSH1 0x20 PUSH1 0x4 DUP3 ADD MSTORE PUSH1 0x1B PUSH1 0x24 DUP3 ADD MSTORE PUSH32 0x4558434545445F414C4C4F43415445445F4D494E545F4C494D49540000000000 PUSH1 0x44 DUP3 ADD MSTORE PUSH1 0x64 ADD PUSH2 0xA06 JUMP JUMPDEST DUP5 PUSH1 0x66 SLOAD PUSH2 0x1316 SWAP2 SWAP1 PUSH2 0x3770 JUMP JUMPDEST CALLVALUE EQ PUSH2 0x1355 JUMPI PUSH1 0x40 MLOAD PUSH3 0x461BCD PUSH1 0xE5 SHL DUP2 MSTORE PUSH1 0x20 PUSH1 0x4 DUP3 ADD MSTORE PUSH1 0xE PUSH1 0x24 DUP3 ADD MSTORE PUSH14 0x1253959053125117D05353D55395 PUSH1 0x92 SHL PUSH1 0x44 DUP3 ADD MSTORE PUSH1 0x64 ADD PUSH2 0xA06 JUMP JUMPDEST CALLER PUSH1 0x0 SWAP1 DUP2 MSTORE PUSH1 0x6F PUSH1 0x20 SWAP1 DUP2 MSTORE PUSH1 0x40 DUP1 DUP4 KECCAK256 TIMESTAMP SWAP1 SSTORE PUSH1 0x6E SWAP1 SWAP2 MSTORE DUP2 KECCAK256 DUP1 SLOAD DUP8 SWAP3 SWAP1 PUSH2 0x1060 SWAP1 DUP5 SWAP1 PUSH2 0x35B9 JUMP JUMPDEST PUSH2 0x1389 PUSH2 0x2500 JUMP JUMPDEST SELFBALANCE DUP1 PUSH2 0x13D0 JUMPI PUSH1 0x40 MLOAD PUSH3 0x461BCD PUSH1 0xE5 SHL DUP2 MSTORE PUSH1 0x20 PUSH1 0x4 DUP3 ADD MSTORE PUSH1 0x16 PUSH1 0x24 DUP3 ADD MSTORE PUSH22 0x4E6F2062616C616E636520746F207769746864726177 PUSH1 0x50 SHL PUSH1 0x44 DUP3 ADD MSTORE PUSH1 0x64 ADD PUSH2 0xA06 JUMP JUMPDEST PUSH20 0x188A3C584F0DE9EE0EABE04316A94A41F0867C0C PUSH2 0x8FC PUSH2 0x2710 PUSH2 0x13F7 DUP5 PUSH2 0x2BC PUSH2 0x3770 JUMP JUMPDEST PUSH2 0x1401 SWAP2 SWAP1 PUSH2 0x37A5 JUMP JUMPDEST PUSH1 0x40 MLOAD DUP2 ISZERO SWAP1 SWAP3 MUL SWAP2 PUSH1 0x0 DUP2 DUP2 DUP2 DUP6 DUP9 DUP9 CALL SWAP4 POP POP POP POP ISZERO DUP1 ISZERO PUSH2 0x1429 JUMPI RETURNDATASIZE PUSH1 0x0 DUP1 RETURNDATACOPY RETURNDATASIZE PUSH1 0x0 REVERT JUMPDEST POP PUSH1 0x40 MLOAD PUSH20 0x779E3847551FA09D15A0AE2AE86B60A912EA00AD SWAP1 SELFBALANCE DUP1 ISZERO PUSH2 0x8FC MUL SWAP2 PUSH1 0x0 DUP2 DUP2 DUP2 DUP6 DUP9 DUP9 CALL SWAP4 POP POP POP POP ISZERO DUP1 ISZERO PUSH2 0xB1B JUMPI RETURNDATASIZE PUSH1 0x0 DUP1 RETURNDATACOPY RETURNDATASIZE PUSH1 0x0 REVERT JUMPDEST PUSH2 0x1472 PUSH2 0x2500 JUMP JUMPDEST PUSH1 0x6A DUP1 SLOAD PUSH2 0xFF00 NOT DUP2 AND PUSH2 0x100 SWAP2 DUP3 SWAP1 DIV PUSH1 0xFF AND ISZERO SWAP1 SWAP2 MUL OR SWAP1 SSTORE JUMP JUMPDEST DUP3 PUSH14 0xAAEB6D7670E522A718067333CD4E EXTCODESIZE ISZERO PUSH2 0x15CE JUMPI CALLER PUSH1 0x1 PUSH1 0x1 PUSH1 0xA0 SHL SUB DUP3 AND SUB PUSH2 0x14C0 JUMPI PUSH2 0xB6F DUP5 DUP5 DUP5 PUSH2 0x255A JUMP JUMPDEST PUSH1 0x40 MLOAD PUSH4 0x3185C44D PUSH1 0xE2 SHL DUP2 MSTORE PUSH14 0xAAEB6D7670E522A718067333CD4E SWAP1 PUSH4 0xC6171134 SWAP1 PUSH2 0x14F3 SWAP1 ADDRESS SWAP1 CALLER SWAP1 PUSH1 0x4 ADD PUSH2 0x3556 JUMP JUMPDEST PUSH1 0x20 PUSH1 0x40 MLOAD DUP1 DUP4 SUB DUP2 DUP7 GAS STATICCALL ISZERO DUP1 ISZERO PUSH2 0x1510 JUMPI RETURNDATASIZE PUSH1 0x0 DUP1 RETURNDATACOPY RETURNDATASIZE PUSH1 0x0 REVERT JUMPDEST POP POP POP POP PUSH1 0x40 MLOAD RETURNDATASIZE PUSH1 0x1F NOT PUSH1 0x1F DUP3 ADD AND DUP3 ADD DUP1 PUSH1 0x40 MSTORE POP DUP2 ADD SWAP1 PUSH2 0x1534 SWAP2 SWAP1 PUSH2 0x3570 JUMP JUMPDEST DUP1 ISZERO PUSH2 0x15AF JUMPI POP PUSH1 0x40 MLOAD PUSH4 0x3185C44D PUSH1 0xE2 SHL DUP2 MSTORE PUSH14 0xAAEB6D7670E522A718067333CD4E SWAP1 PUSH4 0xC6171134 SWAP1 PUSH2 0x156E SWAP1 ADDRESS SWAP1 DUP6 SWAP1 PUSH1 0x4 ADD PUSH2 0x3556 JUMP JUMPDEST PUSH1 0x20 PUSH1 0x40 MLOAD DUP1 DUP4 SUB DUP2 DUP7 GAS STATICCALL ISZERO DUP1 ISZERO PUSH2 0x158B JUMPI RETURNDATASIZE PUSH1 0x0 DUP1 RETURNDATACOPY RETURNDATASIZE PUSH1 0x0 REVERT JUMPDEST POP POP POP POP PUSH1 0x40 MLOAD RETURNDATASIZE PUSH1 0x1F NOT PUSH1 0x1F DUP3 ADD AND DUP3 ADD DUP1 PUSH1 0x40 MSTORE POP DUP2 ADD SWAP1 PUSH2 0x15AF SWAP2 SWAP1 PUSH2 0x3570 JUMP JUMPDEST PUSH2 0x15CE JUMPI PUSH1 0x40 MLOAD PUSH4 0x3B79C773 PUSH1 0xE2 SHL DUP2 MSTORE CALLER PUSH1 0x4 DUP3 ADD MSTORE PUSH1 0x24 ADD PUSH2 0xA06 JUMP JUMPDEST PUSH2 0xC8D DUP5 DUP5 DUP5 PUSH2 0x255A JUMP JUMPDEST PUSH2 0x15E1 PUSH2 0x2500 JUMP JUMPDEST PUSH2 0x15ED PUSH1 0x6B DUP4 DUP4 PUSH2 0x2CBC JUMP JUMPDEST POP POP POP JUMP JUMPDEST PUSH1 0x40 DUP1 MLOAD DUP3 DUP2 MSTORE PUSH1 0x5 DUP4 SWAP1 SHL DUP1 DUP3 ADD PUSH1 0x20 ADD SWAP1 SWAP3 MSTORE PUSH1 0x60 SWAP2 JUMPDEST DUP1 ISZERO PUSH2 0x1636 JUMPI PUSH1 0x1F NOT DUP1 DUP3 ADD SWAP2 DUP7 ADD ADD CALLDATALOAD PUSH1 0x0 PUSH2 0x1627 DUP3 PUSH2 0x1DD0 JUMP JUMPDEST DUP5 DUP5 ADD PUSH1 0x20 ADD MSTORE POP PUSH2 0x160B SWAP1 POP JUMP JUMPDEST POP SWAP4 SWAP3 POP POP POP JUMP JUMPDEST PUSH1 0x0 PUSH2 0x9D9 DUP3 PUSH2 0x2575 JUMP JUMPDEST PUSH2 0x1651 PUSH2 0x2500 JUMP JUMPDEST PUSH1 0x69 SSTORE JUMP JUMPDEST PUSH2 0x165E PUSH2 0x2500 JUMP JUMPDEST PUSH1 0x70 DUP1 SLOAD PUSH1 0x1 PUSH1 0x1 PUSH1 0xA0 SHL SUB NOT AND PUSH1 0x1 PUSH1 0x1 PUSH1 0xA0 SHL SUB SWAP3 SWAP1 SWAP3 AND SWAP2 SWAP1 SWAP2 OR SWAP1 SSTORE JUMP JUMPDEST PUSH1 0x0 PUSH1 0x1 PUSH1 0x1 PUSH1 0xA0 SHL SUB DUP3 AND PUSH2 0x16A0 JUMPI PUSH2 0x16A0 PUSH4 0x23D3AD81 PUSH1 0xE2 SHL PUSH2 0x215E JUMP JUMPDEST PUSH1 0x1 PUSH1 0x1 PUSH1 0x40 SHL SUB PUSH2 0x16B0 PUSH2 0x20E4 JUMP JUMPDEST PUSH1 0x5 ADD PUSH1 0x0 DUP5 PUSH1 0x1 PUSH1 0x1 PUSH1 0xA0 SHL SUB AND PUSH1 0x1 PUSH1 0x1 PUSH1 0xA0 SHL SUB AND DUP2 MSTORE PUSH1 0x20 ADD SWAP1 DUP2 MSTORE PUSH1 0x20 ADD PUSH1 0x0 KECCAK256 SLOAD AND SWAP1 POP SWAP2 SWAP1 POP JUMP JUMPDEST PUSH2 0x16E7 PUSH2 0x2500 JUMP JUMPDEST PUSH1 0x6D SSTORE JUMP JUMPDEST PUSH2 0x16F4 PUSH2 0x2500 JUMP JUMPDEST PUSH2 0xA2E PUSH1 0x0 PUSH2 0x262F JUMP JUMPDEST PUSH2 0x1706 PUSH2 0x2500 JUMP JUMPDEST PUSH1 0x6A DUP1 SLOAD PUSH1 0xFF NOT DUP2 AND PUSH1 0xFF SWAP1 SWAP2 AND ISZERO OR SWAP1 SSTORE JUMP JUMPDEST PUSH1 0x0 DUP1 MLOAD PUSH1 0x20 PUSH2 0x3974 DUP4 CODECOPY DUP2 MLOAD SWAP2 MSTORE SLOAD PUSH2 0x100 SWAP1 DIV PUSH1 0xFF AND PUSH2 0x174F JUMPI PUSH1 0x0 DUP1 MLOAD PUSH1 0x20 PUSH2 0x3974 DUP4 CODECOPY DUP2 MLOAD SWAP2 MSTORE SLOAD PUSH1 0xFF AND ISZERO PUSH2 0x1753 JUMP JUMPDEST ADDRESS EXTCODESIZE ISZERO JUMPDEST PUSH2 0x17C5 JUMPI PUSH1 0x40 MLOAD PUSH3 0x461BCD PUSH1 0xE5 SHL DUP2 MSTORE PUSH1 0x20 PUSH1 0x4 DUP3 ADD MSTORE PUSH1 0x37 PUSH1 0x24 DUP3 ADD MSTORE PUSH32 0x455243373231415F5F496E697469616C697A61626C653A20636F6E7472616374 PUSH1 0x44 DUP3 ADD MSTORE PUSH32 0x20697320616C726561647920696E697469616C697A6564000000000000000000 PUSH1 0x64 DUP3 ADD MSTORE PUSH1 0x84 ADD PUSH2 0xA06 JUMP JUMPDEST PUSH1 0x0 DUP1 MLOAD PUSH1 0x20 PUSH2 0x3974 DUP4 CODECOPY DUP2 MLOAD SWAP2 MSTORE SLOAD PUSH2 0x100 SWAP1 DIV PUSH1 0xFF AND ISZERO DUP1 ISZERO PUSH2 0x1801 JUMPI PUSH1 0x0 DUP1 MLOAD PUSH1 0x20 PUSH2 0x3974 DUP4 CODECOPY DUP2 MLOAD SWAP2 MSTORE DUP1 SLOAD PUSH2 0xFFFF NOT AND PUSH2 0x101 OR SWAP1 SSTORE JUMPDEST PUSH1 0x0 SLOAD PUSH2 0x100 SWAP1 DIV PUSH1 0xFF AND ISZERO DUP1 DUP1 ISZERO PUSH2 0x1821 JUMPI POP PUSH1 0x0 SLOAD PUSH1 0x1 PUSH1 0xFF SWAP1 SWAP2 AND LT JUMPDEST DUP1 PUSH2 0x183B JUMPI POP ADDRESS EXTCODESIZE ISZERO DUP1 ISZERO PUSH2 0x183B JUMPI POP PUSH1 0x0 SLOAD PUSH1 0xFF AND PUSH1 0x1 EQ JUMPDEST PUSH2 0x189E JUMPI PUSH1 0x40 MLOAD PUSH3 0x461BCD PUSH1 0xE5 SHL DUP2 MSTORE PUSH1 0x20 PUSH1 0x4 DUP3 ADD MSTORE PUSH1 0x2E PUSH1 0x24 DUP3 ADD MSTORE PUSH32 0x496E697469616C697A61626C653A20636F6E747261637420697320616C726561 PUSH1 0x44 DUP3 ADD MSTORE PUSH14 0x191E481A5B9A5D1A585B1A5E9959 PUSH1 0x92 SHL PUSH1 0x64 DUP3 ADD MSTORE PUSH1 0x84 ADD PUSH2 0xA06 JUMP JUMPDEST PUSH1 0x0 DUP1 SLOAD PUSH1 0xFF NOT AND PUSH1 0x1 OR SWAP1 SSTORE DUP1 ISZERO PUSH2 0x18C1 JUMPI PUSH1 0x0 DUP1 SLOAD PUSH2 0xFF00 NOT AND PUSH2 0x100 OR SWAP1 SSTORE JUMPDEST PUSH2 0x190F PUSH1 0x40 MLOAD DUP1 PUSH1 0x40 ADD PUSH1 0x40 MSTORE DUP1 PUSH1 0xA DUP2 MSTORE PUSH1 0x20 ADD PUSH10 0x44524956525350415353 PUSH1 0xB0 SHL DUP2 MSTORE POP PUSH1 0x40 MLOAD DUP1 PUSH1 0x40 ADD PUSH1 0x40 MSTORE DUP1 PUSH1 0xA DUP2 MSTORE PUSH1 0x20 ADD PUSH10 0x44524956525350415353 PUSH1 0xB0 SHL DUP2 MSTORE POP PUSH2 0x2681 JUMP JUMPDEST PUSH2 0x1917 PUSH2 0x26BF JUMP JUMPDEST PUSH2 0x191F PUSH2 0x9DF JUMP JUMPDEST PUSH2 0x22B8 PUSH1 0x65 SSTORE PUSH7 0x1550F7DCA70000 PUSH1 0x66 DUP2 SWAP1 SSTORE PUSH1 0x67 SSTORE PUSH1 0x1 PUSH1 0x68 DUP2 SWAP1 SSTORE PUSH1 0x69 SSTORE PUSH1 0x6A DUP1 SLOAD PUSH3 0xFFFFFF NOT AND SWAP1 SSTORE PUSH1 0x40 DUP1 MLOAD PUSH1 0x20 DUP2 ADD SWAP2 DUP3 SWAP1 MSTORE PUSH1 0x0 SWAP1 DUP2 SWAP1 MSTORE PUSH2 0x1969 SWAP2 PUSH1 0x6B SWAP2 PUSH2 0x2D40 JUMP JUMPDEST POP DUP1 ISZERO PUSH2 0x19B0 JUMPI PUSH1 0x0 DUP1 SLOAD PUSH2 0xFF00 NOT AND SWAP1 SSTORE PUSH1 0x40 MLOAD PUSH1 0x1 DUP2 MSTORE PUSH32 0x7F26B83FF96E1F2B6A682F133852F6798A09C465DA95921460CEFB3847402498 SWAP1 PUSH1 0x20 ADD PUSH1 0x40 MLOAD DUP1 SWAP2 SUB SWAP1 LOG1 JUMPDEST POP DUP1 ISZERO PUSH2 0x19D0 JUMPI PUSH1 0x0 DUP1 MLOAD PUSH1 0x20 PUSH2 0x3974 DUP4 CODECOPY DUP2 MLOAD SWAP2 MSTORE DUP1 SLOAD PUSH2 0xFF00 NOT AND SWAP1 SSTORE JUMPDEST POP JUMP JUMPDEST PUSH1 0x60 PUSH1 0x0 DUP1 PUSH2 0x19E0 PUSH2 0x26EE JUMP JUMPDEST SWAP1 POP PUSH1 0x60 DUP2 DUP4 EQ PUSH2 0x19F9 JUMPI PUSH2 0x19F6 DUP6 DUP5 DUP5 PUSH2 0x26FE JUMP JUMPDEST SWAP1 POP JUMPDEST SWAP5 SWAP4 POP POP POP POP JUMP JUMPDEST PUSH1 0x60 PUSH2 0x1A0B PUSH2 0x20E4 JUMP JUMPDEST PUSH1 0x3 ADD DUP1 SLOAD PUSH2 0xA48 SWAP1 PUSH2 0x351C JUMP JUMPDEST PUSH2 0x1A21 PUSH2 0x2500 JUMP JUMPDEST PUSH1 0x65 SLOAD DUP2 LT PUSH2 0x1A69 JUMPI PUSH1 0x40 MLOAD PUSH3 0x461BCD PUSH1 0xE5 SHL DUP2 MSTORE PUSH1 0x20 PUSH1 0x4 DUP3 ADD MSTORE PUSH1 0x14 PUSH1 0x24 DUP3 ADD MSTORE PUSH20 0x43414E545F494E4352454153455F535550504C59 PUSH1 0x60 SHL PUSH1 0x44 DUP3 ADD MSTORE PUSH1 0x64 ADD PUSH2 0xA06 JUMP JUMPDEST PUSH1 0x65 SSTORE JUMP JUMPDEST PUSH1 0x60 PUSH2 0x19F9 DUP5 DUP5 DUP5 PUSH2 0x26FE JUMP JUMPDEST PUSH2 0x1A83 PUSH2 0x2500 JUMP JUMPDEST PUSH1 0x68 SSTORE JUMP JUMPDEST CALLER PUSH1 0x0 SWAP1 DUP2 MSTORE PUSH1 0x6F PUSH1 0x20 MSTORE PUSH1 0x40 SWAP1 KECCAK256 SLOAD PUSH1 0x1 SWAP1 TIMESTAMP GT PUSH2 0x1AB9 JUMPI PUSH1 0x40 MLOAD PUSH3 0x461BCD PUSH1 0xE5 SHL DUP2 MSTORE PUSH1 0x4 ADD PUSH2 0xA06 SWAP1 PUSH2 0x3615 JUMP JUMPDEST ORIGIN CALLER EQ PUSH2 0x1AD8 JUMPI PUSH1 0x40 MLOAD PUSH3 0x461BCD PUSH1 0xE5 SHL DUP2 MSTORE PUSH1 0x4 ADD PUSH2 0xA06 SWAP1 PUSH2 0x364C JUMP JUMPDEST DUP1 PUSH1 0xFF AND PUSH1 0x1 SUB PUSH2 0x1B05 JUMPI PUSH1 0x6A SLOAD PUSH1 0xFF AND PUSH2 0x1B05 JUMPI PUSH1 0x40 MLOAD PUSH3 0x461BCD PUSH1 0xE5 SHL DUP2 MSTORE PUSH1 0x4 ADD PUSH2 0xA06 SWAP1 PUSH2 0x3683 JUMP JUMPDEST DUP1 PUSH1 0xFF AND PUSH1 0x2 SUB PUSH2 0x1B37 JUMPI PUSH1 0x6A SLOAD PUSH2 0x100 SWAP1 DIV PUSH1 0xFF AND PUSH2 0x1B37 JUMPI PUSH1 0x40 MLOAD PUSH3 0x461BCD PUSH1 0xE5 SHL DUP2 MSTORE PUSH1 0x4 ADD PUSH2 0xA06 SWAP1 PUSH2 0x36BA JUMP JUMPDEST DUP1 PUSH1 0xFF AND PUSH1 0x3 SUB PUSH2 0x1B69 JUMPI PUSH1 0x6A SLOAD PUSH2 0x100 SWAP1 DIV PUSH1 0xFF AND PUSH2 0x1B69 JUMPI PUSH1 0x40 MLOAD PUSH3 0x461BCD PUSH1 0xE5 SHL DUP2 MSTORE PUSH1 0x4 ADD PUSH2 0xA06 SWAP1 PUSH2 0x36F1 JUMP JUMPDEST DUP2 PUSH1 0x67 SLOAD PUSH2 0x1B77 SWAP2 SWAP1 PUSH2 0x3770 JUMP JUMPDEST CALLVALUE EQ PUSH2 0x1BB6 JUMPI PUSH1 0x40 MLOAD PUSH3 0x461BCD PUSH1 0xE5 SHL DUP2 MSTORE PUSH1 0x20 PUSH1 0x4 DUP3 ADD MSTORE PUSH1 0xE PUSH1 0x24 DUP3 ADD MSTORE PUSH14 0x1253959053125117D05353D55395 PUSH1 0x92 SHL PUSH1 0x44 DUP3 ADD MSTORE PUSH1 0x64 ADD PUSH2 0xA06 JUMP JUMPDEST CALLER PUSH1 0x0 DUP2 DUP2 MSTORE PUSH1 0x6F PUSH1 0x20 MSTORE PUSH1 0x40 SWAP1 KECCAK256 TIMESTAMP SWAP1 SSTORE PUSH2 0xB1B SWAP1 DUP4 PUSH2 0x240C JUMP JUMPDEST PUSH2 0x1BDA PUSH2 0x2500 JUMP JUMPDEST PUSH1 0x6A DUP1 SLOAD PUSH3 0xFF0000 NOT AND PUSH3 0x10000 DUP6 ISZERO ISZERO MUL OR SWAP1 SSTORE PUSH2 0xC8D PUSH1 0x6B DUP4 DUP4 PUSH2 0x2CBC JUMP JUMPDEST DUP1 PUSH2 0x1C04 PUSH2 0x20E4 JUMP JUMPDEST CALLER PUSH1 0x0 DUP2 DUP2 MSTORE PUSH1 0x7 SWAP3 SWAP1 SWAP3 ADD PUSH1 0x20 SWAP1 DUP2 MSTORE PUSH1 0x40 DUP1 DUP5 KECCAK256 PUSH1 0x1 PUSH1 0x1 PUSH1 0xA0 SHL SUB DUP9 AND DUP1 DUP7 MSTORE SWAP1 DUP4 MSTORE SWAP4 DUP2 SWAP1 KECCAK256 DUP1 SLOAD PUSH1 0xFF NOT AND SWAP6 ISZERO ISZERO SWAP6 SWAP1 SWAP6 OR SWAP1 SWAP5 SSTORE SWAP3 MLOAD DUP5 ISZERO ISZERO DUP2 MSTORE SWAP2 SWAP3 SWAP1 SWAP2 PUSH32 0x17307EAB39AB6107E8899845AD3D59BD9653F200F220920489CA2B5937696C31 SWAP2 ADD PUSH1 0x40 MLOAD DUP1 SWAP2 SUB SWAP1 LOG3 POP POP JUMP JUMPDEST DUP4 PUSH14 0xAAEB6D7670E522A718067333CD4E EXTCODESIZE ISZERO PUSH2 0x1DBD JUMPI CALLER PUSH1 0x1 PUSH1 0x1 PUSH1 0xA0 SHL SUB DUP3 AND SUB PUSH2 0x1CAF JUMPI PUSH2 0x1CAA DUP6 DUP6 DUP6 DUP6 PUSH2 0x27F8 JUMP JUMPDEST PUSH2 0x1DC9 JUMP JUMPDEST PUSH1 0x40 MLOAD PUSH4 0x3185C44D PUSH1 0xE2 SHL DUP2 MSTORE PUSH14 0xAAEB6D7670E522A718067333CD4E SWAP1 PUSH4 0xC6171134 SWAP1 PUSH2 0x1CE2 SWAP1 ADDRESS SWAP1 CALLER SWAP1 PUSH1 0x4 ADD PUSH2 0x3556 JUMP JUMPDEST PUSH1 0x20 PUSH1 0x40 MLOAD DUP1 DUP4 SUB DUP2 DUP7 GAS STATICCALL ISZERO DUP1 ISZERO PUSH2 0x1CFF JUMPI RETURNDATASIZE PUSH1 0x0 DUP1 RETURNDATACOPY RETURNDATASIZE PUSH1 0x0 REVERT JUMPDEST POP POP POP POP PUSH1 0x40 MLOAD RETURNDATASIZE PUSH1 0x1F NOT PUSH1 0x1F DUP3 ADD AND DUP3 ADD DUP1 PUSH1 0x40 MSTORE POP DUP2 ADD SWAP1 PUSH2 0x1D23 SWAP2 SWAP1 PUSH2 0x3570 JUMP JUMPDEST DUP1 ISZERO PUSH2 0x1D9E JUMPI POP PUSH1 0x40 MLOAD PUSH4 0x3185C44D PUSH1 0xE2 SHL DUP2 MSTORE PUSH14 0xAAEB6D7670E522A718067333CD4E SWAP1 PUSH4 0xC6171134 SWAP1 PUSH2 0x1D5D SWAP1 ADDRESS SWAP1 DUP6 SWAP1 PUSH1 0x4 ADD PUSH2 0x3556 JUMP JUMPDEST PUSH1 0x20 PUSH1 0x40 MLOAD DUP1 DUP4 SUB DUP2 DUP7 GAS STATICCALL ISZERO DUP1 ISZERO PUSH2 0x1D7A JUMPI RETURNDATASIZE PUSH1 0x0 DUP1 RETURNDATACOPY RETURNDATASIZE PUSH1 0x0 REVERT JUMPDEST POP POP POP POP PUSH1 0x40 MLOAD RETURNDATASIZE PUSH1 0x1F NOT PUSH1 0x1F DUP3 ADD AND DUP3 ADD DUP1 PUSH1 0x40 MSTORE POP DUP2 ADD SWAP1 PUSH2 0x1D9E SWAP2 SWAP1 PUSH2 0x3570 JUMP JUMPDEST PUSH2 0x1DBD JUMPI PUSH1 0x40 MLOAD PUSH4 0x3B79C773 PUSH1 0xE2 SHL DUP2 MSTORE CALLER PUSH1 0x4 DUP3 ADD MSTORE PUSH1 0x24 ADD PUSH2 0xA06 JUMP JUMPDEST PUSH2 0x1DC9 DUP6 DUP6 DUP6 DUP6 PUSH2 0x27F8 JUMP JUMPDEST POP POP POP POP POP JUMP JUMPDEST PUSH1 0x40 DUP1 MLOAD PUSH1 0x80 DUP2 ADD DUP3 MSTORE PUSH1 0x0 DUP1 DUP3 MSTORE PUSH1 0x20 DUP3 ADD DUP2 SWAP1 MSTORE SWAP2 DUP2 ADD DUP3 SWAP1 MSTORE PUSH1 0x60 DUP2 ADD SWAP2 SWAP1 SWAP2 MSTORE PUSH2 0x1DFC PUSH2 0x26EE JUMP JUMPDEST DUP3 LT ISZERO PUSH2 0x1E26 JUMPI JUMPDEST PUSH2 0x1E0D DUP3 PUSH2 0x2833 JUMP JUMPDEST PUSH2 0x1E1D JUMPI PUSH1 0x0 NOT SWAP1 SWAP2 ADD SWAP1 PUSH2 0x1E04 JUMP JUMPDEST PUSH2 0x9D9 DUP3 PUSH2 0x2853 JUMP JUMPDEST SWAP2 SWAP1 POP JUMP JUMPDEST PUSH2 0x1E33 PUSH2 0x2500 JUMP JUMPDEST PUSH1 0x67 SSTORE JUMP JUMPDEST PUSH1 0x6A SLOAD PUSH1 0x60 SWAP1 PUSH3 0x10000 SWAP1 DIV PUSH1 0xFF AND ISZERO PUSH2 0x1E7E JUMPI PUSH1 0x6B PUSH2 0x1E57 DUP4 PUSH2 0x28DC JUMP JUMPDEST PUSH1 0x40 MLOAD PUSH1 0x20 ADD PUSH2 0x1E68 SWAP3 SWAP2 SWAP1 PUSH2 0x3852 JUMP JUMPDEST PUSH1 0x40 MLOAD PUSH1 0x20 DUP2 DUP4 SUB SUB DUP2 MSTORE SWAP1 PUSH1 0x40 MSTORE SWAP1 POP SWAP2 SWAP1 POP JUMP JUMPDEST PUSH1 0x6B PUSH1 0x40 MLOAD PUSH1 0x20 ADD PUSH2 0x1E68 SWAP2 SWAP1 PUSH2 0x3877 JUMP JUMPDEST PUSH1 0x0 PUSH2 0x9D9 DUP3 PUSH2 0x29DC JUMP JUMPDEST PUSH1 0x0 PUSH2 0x1EA5 PUSH2 0x20E4 JUMP JUMPDEST PUSH1 0x1 PUSH1 0x1 PUSH1 0xA0 SHL SUB SWAP4 DUP5 AND PUSH1 0x0 SWAP1 DUP2 MSTORE PUSH1 0x7 SWAP2 SWAP1 SWAP2 ADD PUSH1 0x20 SWAP1 DUP2 MSTORE PUSH1 0x40 DUP1 DUP4 KECCAK256 SWAP5 SWAP1 SWAP6 AND DUP3 MSTORE SWAP3 SWAP1 SWAP3 MSTORE POP KECCAK256 SLOAD PUSH1 0xFF AND SWAP1 JUMP JUMPDEST PUSH2 0x1EE0 PUSH2 0x2500 JUMP JUMPDEST PUSH1 0x1 PUSH1 0x1 PUSH1 0xA0 SHL SUB DUP2 AND PUSH2 0x1F45 JUMPI PUSH1 0x40 MLOAD PUSH3 0x461BCD PUSH1 0xE5 SHL DUP2 MSTORE PUSH1 0x20 PUSH1 0x4 DUP3 ADD MSTORE PUSH1 0x26 PUSH1 0x24 DUP3 ADD MSTORE PUSH32 0x4F776E61626C653A206E6577206F776E657220697320746865207A65726F2061 PUSH1 0x44 DUP3 ADD MSTORE PUSH6 0x646472657373 PUSH1 0xD0 SHL PUSH1 0x64 DUP3 ADD MSTORE PUSH1 0x84 ADD PUSH2 0xA06 JUMP JUMPDEST PUSH2 0x19D0 DUP2 PUSH2 0x262F JUMP JUMPDEST PUSH2 0x1F56 PUSH2 0x2500 JUMP JUMPDEST PUSH1 0x6C SSTORE JUMP JUMPDEST PUSH1 0x0 SLOAD PUSH2 0x100 SWAP1 DIV PUSH1 0xFF AND PUSH2 0x1F82 JUMPI PUSH1 0x40 MLOAD PUSH3 0x461BCD PUSH1 0xE5 SHL DUP2 MSTORE PUSH1 0x4 ADD PUSH2 0xA06 SWAP1 PUSH2 0x34D1 JUMP JUMPDEST PUSH14 0xAAEB6D7670E522A718067333CD4E EXTCODESIZE ISZERO PUSH2 0xB1B JUMPI PUSH1 0x40 MLOAD PUSH4 0xC3C5A547 PUSH1 0xE0 SHL DUP2 MSTORE ADDRESS PUSH1 0x4 DUP3 ADD MSTORE PUSH14 0xAAEB6D7670E522A718067333CD4E SWAP1 PUSH4 0xC3C5A547 SWAP1 PUSH1 0x24 ADD PUSH1 0x20 PUSH1 0x40 MLOAD DUP1 DUP4 SUB DUP2 PUSH1 0x0 DUP8 GAS CALL ISZERO DUP1 ISZERO PUSH2 0x1FE2 JUMPI RETURNDATASIZE PUSH1 0x0 DUP1 RETURNDATACOPY RETURNDATASIZE PUSH1 0x0 REVERT JUMPDEST POP POP POP POP PUSH1 0x40 MLOAD RETURNDATASIZE PUSH1 0x1F NOT PUSH1 0x1F DUP3 ADD AND DUP3 ADD DUP1 PUSH1 0x40 MSTORE POP DUP2 ADD SWAP1 PUSH2 0x2006 SWAP2 SWAP1 PUSH2 0x3570 JUMP JUMPDEST PUSH2 0xB1B JUMPI DUP1 ISZERO PUSH2 0x2071 JUMPI PUSH1 0x40 MLOAD PUSH4 0x3E9F1EDF PUSH1 0xE1 SHL DUP2 MSTORE PUSH14 0xAAEB6D7670E522A718067333CD4E SWAP1 PUSH4 0x7D3E3DBE SWAP1 PUSH2 0x2043 SWAP1 ADDRESS SWAP1 DUP7 SWAP1 PUSH1 0x4 ADD PUSH2 0x3556 JUMP JUMPDEST PUSH1 0x0 PUSH1 0x40 MLOAD DUP1 DUP4 SUB DUP2 PUSH1 0x0 DUP8 DUP1 EXTCODESIZE ISZERO DUP1 ISZERO PUSH2 0x205D JUMPI PUSH1 0x0 DUP1 REVERT JUMPDEST POP GAS CALL ISZERO DUP1 ISZERO PUSH2 0x1070 JUMPI RETURNDATASIZE PUSH1 0x0 DUP1 RETURNDATACOPY RETURNDATASIZE PUSH1 0x0 REVERT JUMPDEST PUSH1 0x1 PUSH1 0x1 PUSH1 0xA0 SHL SUB DUP3 AND ISZERO PUSH2 0x20B3 JUMPI PUSH1 0x40 MLOAD PUSH4 0xA0AF2903 PUSH1 0xE0 SHL DUP2 MSTORE PUSH14 0xAAEB6D7670E522A718067333CD4E SWAP1 PUSH4 0xA0AF2903 SWAP1 PUSH2 0x2043 SWAP1 ADDRESS SWAP1 DUP7 SWAP1 PUSH1 0x4 ADD PUSH2 0x3556 JUMP JUMPDEST PUSH1 0x40 MLOAD PUSH4 0x22107243 PUSH1 0xE1 SHL DUP2 MSTORE ADDRESS PUSH1 0x4 DUP3 ADD MSTORE PUSH14 0xAAEB6D7670E522A718067333CD4E SWAP1 PUSH4 0x4420E486 SWAP1 PUSH1 0x24 ADD PUSH2 0x2043 JUMP JUMPDEST PUSH32 0x2569078DFB4B0305704D3008E7403993AE9601B85F7AE5E742DE3DE8F8011C40 SWAP1 JUMP JUMPDEST PUSH1 0x0 PUSH2 0x2112 PUSH2 0x20E4 JUMP JUMPDEST SLOAD DUP3 LT ISZERO PUSH2 0x1E26 JUMPI PUSH1 0x0 JUMPDEST PUSH2 0x2125 PUSH2 0x20E4 JUMP JUMPDEST PUSH1 0x0 DUP5 DUP2 MSTORE PUSH1 0x4 SWAP2 SWAP1 SWAP2 ADD PUSH1 0x20 MSTORE PUSH1 0x40 DUP2 KECCAK256 SLOAD SWAP2 POP DUP2 SWAP1 SUB PUSH2 0x2151 JUMPI PUSH2 0x214A DUP4 PUSH2 0x3883 JUMP JUMPDEST SWAP3 POP PUSH2 0x211D JUMP JUMPDEST PUSH1 0x1 PUSH1 0xE0 SHL AND ISZERO SWAP3 SWAP2 POP POP JUMP JUMPDEST DUP1 PUSH1 0x0 MSTORE PUSH1 0x4 PUSH1 0x0 REVERT JUMPDEST PUSH1 0x0 PUSH2 0x2173 DUP4 PUSH2 0x163E JUMP JUMPDEST SWAP1 POP DUP2 DUP1 ISZERO PUSH2 0x218B JUMPI POP CALLER PUSH1 0x1 PUSH1 0x1 PUSH1 0xA0 SHL SUB DUP3 AND EQ ISZERO JUMPDEST ISZERO PUSH2 0x21AE JUMPI PUSH2 0x219A DUP2 CALLER PUSH2 0x1E9B JUMP JUMPDEST PUSH2 0x21AE JUMPI PUSH2 0x21AE PUSH4 0x67D9DCA1 PUSH1 0xE1 SHL PUSH2 0x215E JUMP JUMPDEST DUP4 PUSH2 0x21B7 PUSH2 0x20E4 JUMP JUMPDEST PUSH1 0x0 DUP6 DUP2 MSTORE PUSH1 0x6 SWAP2 SWAP1 SWAP2 ADD PUSH1 0x20 MSTORE PUSH1 0x40 DUP1 DUP3 KECCAK256 DUP1 SLOAD PUSH1 0x1 PUSH1 0x1 PUSH1 0xA0 SHL SUB NOT AND PUSH1 0x1 PUSH1 0x1 PUSH1 0xA0 SHL SUB SWAP5 DUP6 AND OR SWAP1 SSTORE MLOAD DUP6 SWAP3 DUP8 DUP2 AND SWAP3 SWAP1 DUP6 AND SWAP2 PUSH32 0x8C5BE1E5EBEC7D5BD14F71427D1E84F3DD0314C0F7B2291E5B200AC8C7C3B925 SWAP2 SWAP1 LOG4 POP POP POP POP JUMP JUMPDEST PUSH1 0x0 PUSH2 0x2224 DUP3 PUSH2 0x2575 JUMP JUMPDEST PUSH1 0x1 PUSH1 0x1 PUSH1 0xA0 SHL SUB SWAP5 DUP6 AND SWAP5 SWAP1 SWAP2 POP DUP2 AND DUP5 EQ PUSH2 0x224A JUMPI PUSH2 0x224A PUSH3 0xA11481 PUSH1 0xE8 SHL PUSH2 0x215E JUMP JUMPDEST PUSH1 0x0 DUP1 PUSH2 0x2256 DUP5 PUSH2 0x2A21 JUMP JUMPDEST SWAP2 POP SWAP2 POP PUSH2 0x227B DUP2 DUP8 PUSH2 0x2266 CALLER SWAP1 JUMP JUMPDEST PUSH1 0x1 PUSH1 0x1 PUSH1 0xA0 SHL SUB SWAP1 DUP2 AND SWAP2 AND DUP2 EQ SWAP2 EQ OR SWAP1 JUMP JUMPDEST PUSH2 0x229D JUMPI PUSH2 0x2289 DUP7 CALLER PUSH2 0x1E9B JUMP JUMPDEST PUSH2 0x229D JUMPI PUSH2 0x229D PUSH4 0x2CE44B5F PUSH1 0xE1 SHL PUSH2 0x215E JUMP JUMPDEST DUP1 ISZERO PUSH2 0x22A8 JUMPI PUSH1 0x0 DUP3 SSTORE JUMPDEST PUSH2 0x22B0 PUSH2 0x20E4 JUMP JUMPDEST PUSH1 0x1 PUSH1 0x1 PUSH1 0xA0 SHL SUB DUP8 AND PUSH1 0x0 SWAP1 DUP2 MSTORE PUSH1 0x5 SWAP2 SWAP1 SWAP2 ADD PUSH1 0x20 MSTORE PUSH1 0x40 SWAP1 KECCAK256 DUP1 SLOAD PUSH1 0x0 NOT ADD SWAP1 SSTORE PUSH2 0x22DC PUSH2 0x20E4 JUMP JUMPDEST PUSH1 0x1 PUSH1 0x1 PUSH1 0xA0 SHL SUB DUP7 AND PUSH1 0x0 DUP2 DUP2 MSTORE PUSH1 0x5 SWAP3 SWAP1 SWAP3 ADD PUSH1 0x20 MSTORE PUSH1 0x40 SWAP1 SWAP2 KECCAK256 DUP1 SLOAD PUSH1 0x1 ADD SWAP1 SSTORE TIMESTAMP PUSH1 0xA0 SHL OR PUSH1 0x1 PUSH1 0xE1 SHL OR PUSH2 0x2313 PUSH2 0x20E4 JUMP JUMPDEST PUSH1 0x0 DUP7 DUP2 MSTORE PUSH1 0x4 SWAP2 SWAP1 SWAP2 ADD PUSH1 0x20 MSTORE PUSH1 0x40 DUP2 KECCAK256 SWAP2 SWAP1 SWAP2 SSTORE PUSH1 0x1 PUSH1 0xE1 SHL DUP5 AND SWAP1 SUB PUSH2 0x2389 JUMPI PUSH1 0x1 DUP5 ADD PUSH2 0x2342 PUSH2 0x20E4 JUMP JUMPDEST PUSH1 0x0 DUP3 DUP2 MSTORE PUSH1 0x4 SWAP2 SWAP1 SWAP2 ADD PUSH1 0x20 MSTORE PUSH1 0x40 DUP2 KECCAK256 SLOAD SWAP1 SUB PUSH2 0x2387 JUMPI PUSH2 0x2363 PUSH2 0x20E4 JUMP JUMPDEST SLOAD DUP2 EQ PUSH2 0x2387 JUMPI DUP4 PUSH2 0x2373 PUSH2 0x20E4 JUMP JUMPDEST PUSH1 0x0 DUP4 DUP2 MSTORE PUSH1 0x4 SWAP2 SWAP1 SWAP2 ADD PUSH1 0x20 MSTORE PUSH1 0x40 SWAP1 KECCAK256 SSTORE JUMPDEST POP JUMPDEST PUSH1 0x1 PUSH1 0x1 PUSH1 0xA0 SHL SUB DUP6 AND DUP5 DUP2 DUP9 PUSH32 0xDDF252AD1BE2C89B69C2B068FC378DAA952BA7F163C4A11628F55A4DF523B3EF PUSH1 0x0 DUP1 LOG4 DUP1 PUSH1 0x0 SUB PUSH2 0x23D3 JUMPI PUSH2 0x23D3 PUSH4 0x3A954ECD PUSH1 0xE2 SHL PUSH2 0x215E JUMP JUMPDEST POP POP POP POP POP POP POP JUMP JUMPDEST PUSH2 0xB1B DUP3 DUP3 PUSH1 0x40 MLOAD DUP1 PUSH1 0x20 ADD PUSH1 0x40 MSTORE DUP1 PUSH1 0x0 DUP2 MSTORE POP PUSH2 0x2A49 JUMP JUMPDEST PUSH1 0x0 DUP3 PUSH2 0x2403 DUP6 DUP5 PUSH2 0x2ABB JUMP JUMPDEST EQ SWAP5 SWAP4 POP POP POP POP JUMP JUMPDEST PUSH1 0x0 PUSH2 0x2416 PUSH2 0x20E4 JUMP JUMPDEST SLOAD SWAP1 POP PUSH1 0x0 DUP3 SWAP1 SUB PUSH2 0x2432 JUMPI PUSH2 0x2432 PUSH4 0xB562E8DD PUSH1 0xE0 SHL PUSH2 0x215E JUMP JUMPDEST PUSH1 0x1 PUSH1 0x1 PUSH1 0xA0 SHL SUB DUP4 AND TIMESTAMP PUSH1 0xA0 SHL PUSH1 0x1 DUP5 EQ PUSH1 0xE1 SHL OR OR PUSH2 0x2451 PUSH2 0x20E4 JUMP JUMPDEST PUSH1 0x0 DUP4 DUP2 MSTORE PUSH1 0x4 SWAP2 SWAP1 SWAP2 ADD PUSH1 0x20 MSTORE PUSH1 0x40 SWAP1 KECCAK256 SSTORE PUSH9 0x10000000000000001 DUP3 MUL PUSH2 0x2478 PUSH2 0x20E4 JUMP JUMPDEST PUSH1 0x1 PUSH1 0x1 PUSH1 0xA0 SHL SUB DUP6 AND PUSH1 0x0 DUP2 DUP2 MSTORE PUSH1 0x5 SWAP3 SWAP1 SWAP3 ADD PUSH1 0x20 MSTORE PUSH1 0x40 DUP3 KECCAK256 DUP1 SLOAD SWAP1 SWAP4 ADD SWAP1 SWAP3 SSTORE DUP2 SWAP1 SUB PUSH2 0x24B2 JUMPI PUSH2 0x24B2 PUSH3 0x2E0763 PUSH1 0xE8 SHL PUSH2 0x215E JUMP JUMPDEST DUP2 DUP4 ADD DUP3 JUMPDEST DUP1 DUP4 PUSH1 0x0 PUSH32 0xDDF252AD1BE2C89B69C2B068FC378DAA952BA7F163C4A11628F55A4DF523B3EF PUSH1 0x0 DUP1 LOG4 DUP2 DUP2 PUSH1 0x1 ADD SWAP2 POP DUP2 SUB PUSH2 0x24B7 JUMPI DUP2 PUSH2 0x24F6 PUSH2 0x20E4 JUMP JUMPDEST SSTORE POP PUSH2 0x15ED SWAP2 POP POP JUMP JUMPDEST PUSH1 0x33 SLOAD PUSH1 0x1 PUSH1 0x1 PUSH1 0xA0 SHL SUB AND CALLER EQ PUSH2 0xA2E JUMPI PUSH1 0x40 MLOAD PUSH3 0x461BCD PUSH1 0xE5 SHL DUP2 MSTORE PUSH1 0x20 PUSH1 0x4 DUP3 ADD DUP2 SWAP1 MSTORE PUSH1 0x24 DUP3 ADD MSTORE PUSH32 0x4F776E61626C653A2063616C6C6572206973206E6F7420746865206F776E6572 PUSH1 0x44 DUP3 ADD MSTORE PUSH1 0x64 ADD PUSH2 0xA06 JUMP JUMPDEST PUSH2 0x15ED DUP4 DUP4 DUP4 PUSH1 0x40 MLOAD DUP1 PUSH1 0x20 ADD PUSH1 0x40 MSTORE DUP1 PUSH1 0x0 DUP2 MSTORE POP PUSH2 0x1C78 JUMP JUMPDEST PUSH1 0x0 PUSH2 0x257F PUSH2 0x20E4 JUMP JUMPDEST PUSH1 0x0 DUP4 DUP2 MSTORE PUSH1 0x4 SWAP2 SWAP1 SWAP2 ADD PUSH1 0x20 MSTORE PUSH1 0x40 DUP2 KECCAK256 SLOAD SWAP2 POP DUP2 SWAP1 SUB PUSH2 0x260C JUMPI PUSH2 0x25A3 PUSH2 0x20E4 JUMP JUMPDEST SLOAD DUP3 LT PUSH2 0x25BA JUMPI PUSH2 0x25BA PUSH4 0x6F96CDA1 PUSH1 0xE1 SHL PUSH2 0x215E JUMP JUMPDEST PUSH2 0x25C2 PUSH2 0x20E4 JUMP JUMPDEST PUSH1 0x0 NOT SWAP1 SWAP3 ADD PUSH1 0x0 DUP2 DUP2 MSTORE PUSH1 0x4 SWAP4 SWAP1 SWAP4 ADD PUSH1 0x20 MSTORE PUSH1 0x40 SWAP1 SWAP3 KECCAK256 SLOAD SWAP1 POP DUP1 ISZERO PUSH2 0x25BA JUMPI PUSH1 0x1 PUSH1 0xE0 SHL DUP2 AND PUSH1 0x0 SUB PUSH2 0x25F7 JUMPI SWAP2 SWAP1 POP JUMP JUMPDEST PUSH2 0x2607 PUSH4 0x6F96CDA1 PUSH1 0xE1 SHL PUSH2 0x215E JUMP JUMPDEST PUSH2 0x25BA JUMP JUMPDEST PUSH1 0x1 PUSH1 0xE0 SHL DUP2 AND PUSH1 0x0 SUB PUSH2 0x261F JUMPI SWAP2 SWAP1 POP JUMP JUMPDEST PUSH2 0x1E26 PUSH4 0x6F96CDA1 PUSH1 0xE1 SHL PUSH2 0x215E JUMP JUMPDEST PUSH1 0x33 DUP1 SLOAD PUSH1 0x1 PUSH1 0x1 PUSH1 0xA0 SHL SUB DUP4 DUP2 AND PUSH1 0x1 PUSH1 0x1 PUSH1 0xA0 SHL SUB NOT DUP4 AND DUP2 OR SWAP1 SWAP4 SSTORE PUSH1 0x40 MLOAD SWAP2 AND SWAP2 SWAP1 DUP3 SWAP1 PUSH32 0x8BE0079C531659141344CD1FD0A4F28419497F9722A3DAAFE3B4186F6B6457E0 SWAP1 PUSH1 0x0 SWAP1 LOG3 POP POP JUMP JUMPDEST PUSH1 0x0 DUP1 MLOAD PUSH1 0x20 PUSH2 0x3974 DUP4 CODECOPY DUP2 MLOAD SWAP2 MSTORE SLOAD PUSH2 0x100 SWAP1 DIV PUSH1 0xFF AND PUSH2 0x26B5 JUMPI PUSH1 0x40 MLOAD PUSH3 0x461BCD PUSH1 0xE5 SHL DUP2 MSTORE PUSH1 0x4 ADD PUSH2 0xA06 SWAP1 PUSH2 0x389A JUMP JUMPDEST PUSH2 0xB1B DUP3 DUP3 PUSH2 0x2B27 JUMP JUMPDEST PUSH1 0x0 SLOAD PUSH2 0x100 SWAP1 DIV PUSH1 0xFF AND PUSH2 0x26E6 JUMPI PUSH1 0x40 MLOAD PUSH3 0x461BCD PUSH1 0xE5 SHL DUP2 MSTORE PUSH1 0x4 ADD PUSH2 0xA06 SWAP1 PUSH2 0x34D1 JUMP JUMPDEST PUSH2 0xA2E PUSH2 0x2BAA JUMP JUMPDEST PUSH1 0x0 PUSH2 0x26F8 PUSH2 0x20E4 JUMP JUMPDEST SLOAD SWAP2 SWAP1 POP JUMP JUMPDEST PUSH1 0x60 DUP2 DUP4 LT PUSH2 0x2717 JUMPI PUSH2 0x2717 PUSH4 0x1960CCAD PUSH1 0xE1 SHL PUSH2 0x215E JUMP JUMPDEST PUSH1 0x0 PUSH2 0x2721 PUSH2 0x26EE JUMP JUMPDEST SWAP1 POP DUP1 DUP4 LT PUSH2 0x272E JUMPI DUP1 SWAP3 POP JUMPDEST PUSH1 0x60 PUSH1 0x0 PUSH2 0x273B DUP8 PUSH2 0x1680 JUMP JUMPDEST DUP6 DUP8 LT SWAP1 DUP2 MUL SWAP2 POP DUP2 ISZERO PUSH2 0x27EC JUMPI DUP2 DUP8 DUP8 SUB GT PUSH2 0x2758 JUMPI DUP7 DUP7 SUB SWAP2 POP JUMPDEST PUSH1 0x40 MLOAD SWAP3 POP PUSH1 0x1 DUP3 ADD PUSH1 0x5 SHL DUP4 ADD PUSH1 0x40 MSTORE PUSH1 0x0 PUSH2 0x2774 DUP9 PUSH2 0x1DD0 JUMP JUMPDEST SWAP1 POP PUSH1 0x0 DUP2 PUSH1 0x40 ADD MLOAD PUSH2 0x2785 JUMPI POP DUP1 MLOAD JUMPDEST PUSH1 0x0 JUMPDEST PUSH2 0x2791 DUP11 PUSH2 0x2853 JUMP JUMPDEST SWAP3 POP PUSH1 0x40 DUP4 ADD MLOAD PUSH1 0x0 DUP2 EQ PUSH2 0x27A9 JUMPI PUSH1 0x0 SWAP3 POP PUSH2 0x27CE JUMP JUMPDEST DUP4 MLOAD ISZERO PUSH2 0x27B5 JUMPI DUP4 MLOAD SWAP3 POP JUMPDEST DUP12 DUP4 XOR PUSH1 0x60 SHL PUSH2 0x27CE JUMPI PUSH1 0x1 DUP3 ADD SWAP2 POP DUP11 DUP3 PUSH1 0x5 SHL DUP9 ADD MSTORE JUMPDEST POP PUSH1 0x1 DUP11 ADD SWAP10 POP DUP9 DUP11 EQ DUP1 PUSH2 0x27E2 JUMPI POP DUP5 DUP2 EQ JUMPDEST ISZERO PUSH2 0x2788 JUMPI DUP6 MSTORE POP POP JUMPDEST POP SWAP1 SWAP7 SWAP6 POP POP POP POP POP POP JUMP JUMPDEST PUSH2 0x2803 DUP5 DUP5 DUP5 PUSH2 0xB3E JUMP JUMPDEST PUSH1 0x1 PUSH1 0x1 PUSH1 0xA0 SHL SUB DUP4 AND EXTCODESIZE ISZERO PUSH2 0xC8D JUMPI PUSH2 0x281F DUP5 DUP5 DUP5 DUP5 PUSH2 0x2BDA JUMP JUMPDEST PUSH2 0xC8D JUMPI PUSH2 0xC8D PUSH4 0x68D2BF6B PUSH1 0xE1 SHL PUSH2 0x215E JUMP JUMPDEST PUSH1 0x0 PUSH2 0x283D PUSH2 0x20E4 JUMP JUMPDEST PUSH1 0x0 SWAP3 DUP4 MSTORE PUSH1 0x4 ADD PUSH1 0x20 MSTORE POP PUSH1 0x40 SWAP1 KECCAK256 SLOAD ISZERO ISZERO SWAP1 JUMP JUMPDEST PUSH1 0x40 DUP1 MLOAD PUSH1 0x80 DUP2 ADD DUP3 MSTORE PUSH1 0x0 DUP1 DUP3 MSTORE PUSH1 0x20 DUP3 ADD DUP2 SWAP1 MSTORE SWAP2 DUP2 ADD DUP3 SWAP1 MSTORE PUSH1 0x60 DUP2 ADD SWAP2 SWAP1 SWAP2 MSTORE PUSH2 0x9D9 PUSH2 0x2882 PUSH2 0x20E4 JUMP JUMPDEST PUSH1 0x0 DUP5 DUP2 MSTORE PUSH1 0x4 SWAP2 SWAP1 SWAP2 ADD PUSH1 0x20 MSTORE PUSH1 0x40 SWAP1 KECCAK256 SLOAD PUSH1 0x40 DUP1 MLOAD PUSH1 0x80 DUP2 ADD DUP3 MSTORE PUSH1 0x1 PUSH1 0x1 PUSH1 0xA0 SHL SUB DUP4 AND DUP2 MSTORE PUSH1 0xA0 DUP4 SWAP1 SHR PUSH1 0x1 PUSH1 0x1 PUSH1 0x40 SHL SUB AND PUSH1 0x20 DUP3 ADD MSTORE PUSH1 0x1 PUSH1 0xE0 SHL DUP4 AND ISZERO ISZERO SWAP2 DUP2 ADD SWAP2 SWAP1 SWAP2 MSTORE PUSH1 0xE8 SWAP2 SWAP1 SWAP2 SHR PUSH1 0x60 DUP3 ADD MSTORE SWAP1 JUMP JUMPDEST PUSH1 0x60 DUP2 PUSH1 0x0 SUB PUSH2 0x2903 JUMPI POP POP PUSH1 0x40 DUP1 MLOAD DUP1 DUP3 ADD SWAP1 SWAP2 MSTORE PUSH1 0x1 DUP2 MSTORE PUSH1 0x3 PUSH1 0xFC SHL PUSH1 0x20 DUP3 ADD MSTORE SWAP1 JUMP JUMPDEST DUP2 PUSH1 0x0 JUMPDEST DUP2 ISZERO PUSH2 0x292D JUMPI DUP1 PUSH2 0x2917 DUP2 PUSH2 0x35D1 JUMP JUMPDEST SWAP2 POP PUSH2 0x2926 SWAP1 POP PUSH1 0xA DUP4 PUSH2 0x37A5 JUMP JUMPDEST SWAP2 POP PUSH2 0x2907 JUMP JUMPDEST PUSH1 0x0 DUP2 PUSH1 0x1 PUSH1 0x1 PUSH1 0x40 SHL SUB DUP2 GT ISZERO PUSH2 0x2947 JUMPI PUSH2 0x2947 PUSH2 0x2F04 JUMP JUMPDEST PUSH1 0x40 MLOAD SWAP1 DUP1 DUP3 MSTORE DUP1 PUSH1 0x1F ADD PUSH1 0x1F NOT AND PUSH1 0x20 ADD DUP3 ADD PUSH1 0x40 MSTORE DUP1 ISZERO PUSH2 0x2971 JUMPI PUSH1 0x20 DUP3 ADD DUP2 DUP1 CALLDATASIZE DUP4 CALLDATACOPY ADD SWAP1 POP JUMPDEST POP SWAP1 POP JUMPDEST DUP5 ISZERO PUSH2 0x19F9 JUMPI PUSH2 0x2986 PUSH1 0x1 DUP4 PUSH2 0x38EE JUMP JUMPDEST SWAP2 POP PUSH2 0x2993 PUSH1 0xA DUP7 PUSH2 0x3905 JUMP JUMPDEST PUSH2 0x299E SWAP1 PUSH1 0x30 PUSH2 0x35B9 JUMP JUMPDEST PUSH1 0xF8 SHL DUP2 DUP4 DUP2 MLOAD DUP2 LT PUSH2 0x29B3 JUMPI PUSH2 0x29B3 PUSH2 0x358D JUMP JUMPDEST PUSH1 0x20 ADD ADD SWAP1 PUSH1 0x1 PUSH1 0x1 PUSH1 0xF8 SHL SUB NOT AND SWAP1 DUP2 PUSH1 0x0 BYTE SWAP1 MSTORE8 POP PUSH2 0x29D5 PUSH1 0xA DUP7 PUSH2 0x37A5 JUMP JUMPDEST SWAP5 POP PUSH2 0x2975 JUMP JUMPDEST PUSH1 0x0 PUSH1 0x1 PUSH1 0x1 PUSH1 0x40 SHL SUB PUSH1 0x40 PUSH2 0x29F0 PUSH2 0x20E4 JUMP JUMPDEST PUSH1 0x5 ADD PUSH1 0x0 DUP6 PUSH1 0x1 PUSH1 0x1 PUSH1 0xA0 SHL SUB AND PUSH1 0x1 PUSH1 0x1 PUSH1 0xA0 SHL SUB AND DUP2 MSTORE PUSH1 0x20 ADD SWAP1 DUP2 MSTORE PUSH1 0x20 ADD PUSH1 0x0 KECCAK256 SLOAD SWAP1 SHR AND SWAP1 POP SWAP2 SWAP1 POP JUMP JUMPDEST PUSH1 0x0 DUP1 PUSH1 0x0 PUSH2 0x2A2E PUSH2 0x20E4 JUMP JUMPDEST PUSH1 0x0 SWAP5 DUP6 MSTORE PUSH1 0x6 ADD PUSH1 0x20 MSTORE POP POP PUSH1 0x40 SWAP1 SWAP2 KECCAK256 DUP1 SLOAD SWAP1 SWAP3 SWAP1 SWAP2 POP JUMP JUMPDEST PUSH2 0x2A53 DUP4 DUP4 PUSH2 0x240C JUMP JUMPDEST PUSH1 0x1 PUSH1 0x1 PUSH1 0xA0 SHL SUB DUP4 AND EXTCODESIZE ISZERO PUSH2 0x15ED JUMPI PUSH1 0x0 PUSH2 0x2A6D PUSH2 0x20E4 JUMP JUMPDEST SLOAD SWAP1 POP DUP3 DUP2 SUB JUMPDEST PUSH2 0x2A87 PUSH1 0x0 DUP7 DUP4 DUP1 PUSH1 0x1 ADD SWAP5 POP DUP7 PUSH2 0x2BDA JUMP JUMPDEST PUSH2 0x2A9B JUMPI PUSH2 0x2A9B PUSH4 0x68D2BF6B PUSH1 0xE1 SHL PUSH2 0x215E JUMP JUMPDEST DUP2 DUP2 LT PUSH2 0x2A74 JUMPI DUP2 PUSH2 0x2AAB PUSH2 0x20E4 JUMP JUMPDEST SLOAD EQ PUSH2 0x1DC9 JUMPI PUSH2 0x1DC9 PUSH1 0x0 PUSH2 0x215E JUMP JUMPDEST PUSH1 0x0 DUP2 DUP2 JUMPDEST DUP5 MLOAD DUP2 LT ISZERO PUSH2 0x1636 JUMPI PUSH1 0x0 DUP6 DUP3 DUP2 MLOAD DUP2 LT PUSH2 0x2ADD JUMPI PUSH2 0x2ADD PUSH2 0x358D JUMP JUMPDEST PUSH1 0x20 MUL PUSH1 0x20 ADD ADD MLOAD SWAP1 POP DUP1 DUP4 GT PUSH2 0x2B03 JUMPI PUSH1 0x0 DUP4 DUP2 MSTORE PUSH1 0x20 DUP3 SWAP1 MSTORE PUSH1 0x40 SWAP1 KECCAK256 SWAP3 POP PUSH2 0x2B14 JUMP JUMPDEST PUSH1 0x0 DUP2 DUP2 MSTORE PUSH1 0x20 DUP5 SWAP1 MSTORE PUSH1 0x40 SWAP1 KECCAK256 SWAP3 POP JUMPDEST POP DUP1 PUSH2 0x2B1F DUP2 PUSH2 0x35D1 JUMP JUMPDEST SWAP2 POP POP PUSH2 0x2AC0 JUMP JUMPDEST PUSH1 0x0 DUP1 MLOAD PUSH1 0x20 PUSH2 0x3974 DUP4 CODECOPY DUP2 MLOAD SWAP2 MSTORE SLOAD PUSH2 0x100 SWAP1 DIV PUSH1 0xFF AND PUSH2 0x2B5B JUMPI PUSH1 0x40 MLOAD PUSH3 0x461BCD PUSH1 0xE5 SHL DUP2 MSTORE PUSH1 0x4 ADD PUSH2 0xA06 SWAP1 PUSH2 0x389A JUMP JUMPDEST DUP2 PUSH2 0x2B64 PUSH2 0x20E4 JUMP JUMPDEST PUSH1 0x2 ADD SWAP1 DUP1 MLOAD SWAP1 PUSH1 0x20 ADD SWAP1 PUSH2 0x2B7A SWAP3 SWAP2 SWAP1 PUSH2 0x2D40 JUMP JUMPDEST POP DUP1 PUSH2 0x2B84 PUSH2 0x20E4 JUMP JUMPDEST PUSH1 0x3 ADD SWAP1 DUP1 MLOAD SWAP1 PUSH1 0x20 ADD SWAP1 PUSH2 0x2B9A SWAP3 SWAP2 SWAP1 PUSH2 0x2D40 JUMP JUMPDEST POP PUSH1 0x0 PUSH2 0x2BA5 PUSH2 0x20E4 JUMP JUMPDEST SSTORE POP POP JUMP JUMPDEST PUSH1 0x0 SLOAD PUSH2 0x100 SWAP1 DIV PUSH1 0xFF AND PUSH2 0x2BD1 JUMPI PUSH1 0x40 MLOAD PUSH3 0x461BCD PUSH1 0xE5 SHL DUP2 MSTORE PUSH1 0x4 ADD PUSH2 0xA06 SWAP1 PUSH2 0x34D1 JUMP JUMPDEST PUSH2 0xA2E CALLER PUSH2 0x262F JUMP JUMPDEST PUSH1 0x40 MLOAD PUSH4 0xA85BD01 PUSH1 0xE1 SHL DUP2 MSTORE PUSH1 0x0 SWAP1 PUSH1 0x1 PUSH1 0x1 PUSH1 0xA0 SHL SUB DUP6 AND SWAP1 PUSH4 0x150B7A02 SWAP1 PUSH2 0x2C0F SWAP1 CALLER SWAP1 DUP10 SWAP1 DUP9 SWAP1 DUP9 SWAP1 PUSH1 0x4 ADD PUSH2 0x3919 JUMP JUMPDEST PUSH1 0x20 PUSH1 0x40 MLOAD DUP1 DUP4 SUB DUP2 PUSH1 0x0 DUP8 GAS CALL SWAP3 POP POP POP DUP1 ISZERO PUSH2 0x2C4A JUMPI POP PUSH1 0x40 DUP1 MLOAD PUSH1 0x1F RETURNDATASIZE SWAP1 DUP2 ADD PUSH1 0x1F NOT AND DUP3 ADD SWAP1 SWAP3 MSTORE PUSH2 0x2C47 SWAP2 DUP2 ADD SWAP1 PUSH2 0x3956 JUMP JUMPDEST PUSH1 0x1 JUMPDEST PUSH2 0x2C9F JUMPI RETURNDATASIZE DUP1 DUP1 ISZERO PUSH2 0x2C78 JUMPI PUSH1 0x40 MLOAD SWAP2 POP PUSH1 0x1F NOT PUSH1 0x3F RETURNDATASIZE ADD AND DUP3 ADD PUSH1 0x40 MSTORE RETURNDATASIZE DUP3 MSTORE RETURNDATASIZE PUSH1 0x0 PUSH1 0x20 DUP5 ADD RETURNDATACOPY PUSH2 0x2C7D JUMP JUMPDEST PUSH1 0x60 SWAP2 POP JUMPDEST POP DUP1 MLOAD PUSH1 0x0 SUB PUSH2 0x2C97 JUMPI PUSH2 0x2C97 PUSH4 0x68D2BF6B PUSH1 0xE1 SHL PUSH2 0x215E JUMP JUMPDEST DUP1 MLOAD DUP2 PUSH1 0x20 ADD REVERT JUMPDEST PUSH1 0x1 PUSH1 0x1 PUSH1 0xE0 SHL SUB NOT AND PUSH4 0xA85BD01 PUSH1 0xE1 SHL EQ SWAP1 POP SWAP5 SWAP4 POP POP POP POP JUMP JUMPDEST DUP3 DUP1 SLOAD PUSH2 0x2CC8 SWAP1 PUSH2 0x351C JUMP JUMPDEST SWAP1 PUSH1 0x0 MSTORE PUSH1 0x20 PUSH1 0x0 KECCAK256 SWAP1 PUSH1 0x1F ADD PUSH1 0x20 SWAP1 DIV DUP2 ADD SWAP3 DUP3 PUSH2 0x2CEA JUMPI PUSH1 0x0 DUP6 SSTORE PUSH2 0x2D30 JUMP JUMPDEST DUP3 PUSH1 0x1F LT PUSH2 0x2D03 JUMPI DUP3 DUP1 ADD PUSH1 0xFF NOT DUP3 CALLDATALOAD AND OR DUP6 SSTORE PUSH2 0x2D30 JUMP JUMPDEST DUP3 DUP1 ADD PUSH1 0x1 ADD DUP6 SSTORE DUP3 ISZERO PUSH2 0x2D30 JUMPI SWAP2 DUP3 ADD JUMPDEST DUP3 DUP2 GT ISZERO PUSH2 0x2D30 JUMPI DUP3 CALLDATALOAD DUP3 SSTORE SWAP2 PUSH1 0x20 ADD SWAP2 SWAP1 PUSH1 0x1 ADD SWAP1 PUSH2 0x2D15 JUMP JUMPDEST POP PUSH2 0x2D3C SWAP3 SWAP2 POP PUSH2 0x2DB4 JUMP JUMPDEST POP SWAP1 JUMP JUMPDEST DUP3 DUP1 SLOAD PUSH2 0x2D4C SWAP1 PUSH2 0x351C JUMP JUMPDEST SWAP1 PUSH1 0x0 MSTORE PUSH1 0x20 PUSH1 0x0 KECCAK256 SWAP1 PUSH1 0x1F ADD PUSH1 0x20 SWAP1 DIV DUP2 ADD SWAP3 DUP3 PUSH2 0x2D6E JUMPI PUSH1 0x0 DUP6 SSTORE PUSH2 0x2D30 JUMP JUMPDEST DUP3 PUSH1 0x1F LT PUSH2 0x2D87 JUMPI DUP1 MLOAD PUSH1 0xFF NOT AND DUP4 DUP1 ADD OR DUP6 SSTORE PUSH2 0x2D30 JUMP JUMPDEST DUP3 DUP1 ADD PUSH1 0x1 ADD DUP6 SSTORE DUP3 ISZERO PUSH2 0x2D30 JUMPI SWAP2 DUP3 ADD JUMPDEST DUP3 DUP2 GT ISZERO PUSH2 0x2D30 JUMPI DUP3 MLOAD DUP3 SSTORE SWAP2 PUSH1 0x20 ADD SWAP2 SWAP1 PUSH1 0x1 ADD SWAP1 PUSH2 0x2D99 JUMP JUMPDEST JUMPDEST DUP1 DUP3 GT ISZERO PUSH2 0x2D3C JUMPI PUSH1 0x0 DUP2 SSTORE PUSH1 0x1 ADD PUSH2 0x2DB5 JUMP JUMPDEST PUSH1 0x1 PUSH1 0x1 PUSH1 0xE0 SHL SUB NOT DUP2 AND DUP2 EQ PUSH2 0x19D0 JUMPI PUSH1 0x0 DUP1 REVERT JUMPDEST PUSH1 0x0 PUSH1 0x20 DUP3 DUP5 SUB SLT ISZERO PUSH2 0x2DF1 JUMPI PUSH1 0x0 DUP1 REVERT JUMPDEST DUP2 CALLDATALOAD PUSH2 0x2DFC DUP2 PUSH2 0x2DC9 JUMP JUMPDEST SWAP4 SWAP3 POP POP POP JUMP JUMPDEST PUSH1 0x0 JUMPDEST DUP4 DUP2 LT ISZERO PUSH2 0x2E1E JUMPI DUP2 DUP2 ADD MLOAD DUP4 DUP3 ADD MSTORE PUSH1 0x20 ADD PUSH2 0x2E06 JUMP JUMPDEST DUP4 DUP2 GT ISZERO PUSH2 0xC8D JUMPI POP POP PUSH1 0x0 SWAP2 ADD MSTORE JUMP JUMPDEST PUSH1 0x0 DUP2 MLOAD DUP1 DUP5 MSTORE PUSH2 0x2E47 DUP2 PUSH1 0x20 DUP7 ADD PUSH1 0x20 DUP7 ADD PUSH2 0x2E03 JUMP JUMPDEST PUSH1 0x1F ADD PUSH1 0x1F NOT AND SWAP3 SWAP1 SWAP3 ADD PUSH1 0x20 ADD SWAP3 SWAP2 POP POP JUMP JUMPDEST PUSH1 0x20 DUP2 MSTORE PUSH1 0x0 PUSH2 0x2DFC PUSH1 0x20 DUP4 ADD DUP5 PUSH2 0x2E2F JUMP JUMPDEST PUSH1 0x0 PUSH1 0x20 DUP3 DUP5 SUB SLT ISZERO PUSH2 0x2E80 JUMPI PUSH1 0x0 DUP1 REVERT JUMPDEST POP CALLDATALOAD SWAP2 SWAP1 POP JUMP JUMPDEST DUP1 CALLDATALOAD PUSH1 0x1 PUSH1 0x1 PUSH1 0xA0 SHL SUB DUP2 AND DUP2 EQ PUSH2 0x1E26 JUMPI PUSH1 0x0 DUP1 REVERT JUMPDEST PUSH1 0x0 DUP1 PUSH1 0x40 DUP4 DUP6 SUB SLT ISZERO PUSH2 0x2EB1 JUMPI PUSH1 0x0 DUP1 REVERT JUMPDEST PUSH2 0x2EBA DUP4 PUSH2 0x2E87 JUMP JUMPDEST SWAP5 PUSH1 0x20 SWAP4 SWAP1 SWAP4 ADD CALLDATALOAD SWAP4 POP POP POP JUMP JUMPDEST PUSH1 0x0 DUP1 PUSH1 0x0 PUSH1 0x60 DUP5 DUP7 SUB SLT ISZERO PUSH2 0x2EDD JUMPI PUSH1 0x0 DUP1 REVERT JUMPDEST PUSH2 0x2EE6 DUP5 PUSH2 0x2E87 JUMP JUMPDEST SWAP3 POP PUSH2 0x2EF4 PUSH1 0x20 DUP6 ADD PUSH2 0x2E87 JUMP JUMPDEST SWAP2 POP PUSH1 0x40 DUP5 ADD CALLDATALOAD SWAP1 POP SWAP3 POP SWAP3 POP SWAP3 JUMP JUMPDEST PUSH4 0x4E487B71 PUSH1 0xE0 SHL PUSH1 0x0 MSTORE PUSH1 0x41 PUSH1 0x4 MSTORE PUSH1 0x24 PUSH1 0x0 REVERT JUMPDEST PUSH1 0x40 MLOAD PUSH1 0x1F DUP3 ADD PUSH1 0x1F NOT AND DUP2 ADD PUSH1 0x1 PUSH1 0x1 PUSH1 0x40 SHL SUB DUP2 GT DUP3 DUP3 LT OR ISZERO PUSH2 0x2F42 JUMPI PUSH2 0x2F42 PUSH2 0x2F04 JUMP JUMPDEST PUSH1 0x40 MSTORE SWAP2 SWAP1 POP JUMP JUMPDEST PUSH1 0x0 PUSH1 0x1 PUSH1 0x1 PUSH1 0x40 SHL SUB DUP3 GT ISZERO PUSH2 0x2F63 JUMPI PUSH2 0x2F63 PUSH2 0x2F04 JUMP JUMPDEST POP PUSH1 0x5 SHL PUSH1 0x20 ADD SWAP1 JUMP JUMPDEST PUSH1 0x0 DUP3 PUSH1 0x1F DUP4 ADD SLT PUSH2 0x2F7E JUMPI PUSH1 0x0 DUP1 REVERT JUMPDEST DUP2 CALLDATALOAD PUSH1 0x20 PUSH2 0x2F93 PUSH2 0x2F8E DUP4 PUSH2 0x2F4A JUMP JUMPDEST PUSH2 0x2F1A JUMP JUMPDEST DUP3 DUP2 MSTORE PUSH1 0x5 SWAP3 SWAP1 SWAP3 SHL DUP5 ADD DUP2 ADD SWAP2 DUP2 DUP2 ADD SWAP1 DUP7 DUP5 GT ISZERO PUSH2 0x2FB2 JUMPI PUSH1 0x0 DUP1 REVERT JUMPDEST DUP3 DUP7 ADD JUMPDEST DUP5 DUP2 LT ISZERO PUSH2 0x2FCD JUMPI DUP1 CALLDATALOAD DUP4 MSTORE SWAP2 DUP4 ADD SWAP2 DUP4 ADD PUSH2 0x2FB6 JUMP JUMPDEST POP SWAP7 SWAP6 POP POP POP POP POP POP JUMP JUMPDEST PUSH1 0x0 DUP1 PUSH1 0x40 DUP4 DUP6 SUB SLT ISZERO PUSH2 0x2FEB JUMPI PUSH1 0x0 DUP1 REVERT JUMPDEST DUP3 CALLDATALOAD PUSH1 0x1 PUSH1 0x1 PUSH1 0x40 SHL SUB DUP1 DUP3 GT ISZERO PUSH2 0x3002 JUMPI PUSH1 0x0 DUP1 REVERT JUMPDEST DUP2 DUP6 ADD SWAP2 POP DUP6 PUSH1 0x1F DUP4 ADD SLT PUSH2 0x3016 JUMPI PUSH1 0x0 DUP1 REVERT JUMPDEST DUP2 CALLDATALOAD PUSH1 0x20 PUSH2 0x3026 PUSH2 0x2F8E DUP4 PUSH2 0x2F4A JUMP JUMPDEST DUP3 DUP2 MSTORE PUSH1 0x5 SWAP3 SWAP1 SWAP3 SHL DUP5 ADD DUP2 ADD SWAP2 DUP2 DUP2 ADD SWAP1 DUP10 DUP5 GT ISZERO PUSH2 0x3045 JUMPI PUSH1 0x0 DUP1 REVERT JUMPDEST SWAP5 DUP3 ADD SWAP5 JUMPDEST DUP4 DUP7 LT ISZERO PUSH2 0x306A JUMPI PUSH2 0x305B DUP7 PUSH2 0x2E87 JUMP JUMPDEST DUP3 MSTORE SWAP5 DUP3 ADD SWAP5 SWAP1 DUP3 ADD SWAP1 PUSH2 0x304A JUMP JUMPDEST SWAP7 POP POP DUP7 ADD CALLDATALOAD SWAP3 POP POP DUP1 DUP3 GT ISZERO PUSH2 0x3080 JUMPI PUSH1 0x0 DUP1 REVERT JUMPDEST POP PUSH2 0x308D DUP6 DUP3 DUP7 ADD PUSH2 0x2F6D JUMP JUMPDEST SWAP2 POP POP SWAP3 POP SWAP3 SWAP1 POP JUMP JUMPDEST PUSH1 0x0 DUP1 PUSH1 0x0 PUSH1 0x60 DUP5 DUP7 SUB SLT ISZERO PUSH2 0x30AC JUMPI PUSH1 0x0 DUP1 REVERT JUMPDEST DUP4 CALLDATALOAD PUSH1 0x1 PUSH1 0x1 PUSH1 0x40 SHL SUB DUP2 GT ISZERO PUSH2 0x30C2 JUMPI PUSH1 0x0 DUP1 REVERT JUMPDEST DUP5 ADD PUSH1 0x1F DUP2 ADD DUP7 SGT PUSH2 0x30D3 JUMPI PUSH1 0x0 DUP1 REVERT JUMPDEST DUP1 CALLDATALOAD PUSH1 0x20 PUSH2 0x30E3 PUSH2 0x2F8E DUP4 PUSH2 0x2F4A JUMP JUMPDEST DUP3 DUP2 MSTORE PUSH1 0x5 SWAP3 SWAP1 SWAP3 SHL DUP4 ADD DUP2 ADD SWAP2 DUP2 DUP2 ADD SWAP1 DUP10 DUP5 GT ISZERO PUSH2 0x3102 JUMPI PUSH1 0x0 DUP1 REVERT JUMPDEST SWAP4 DUP3 ADD SWAP4 JUMPDEST DUP4 DUP6 LT ISZERO PUSH2 0x3120 JUMPI DUP5 CALLDATALOAD DUP3 MSTORE SWAP4 DUP3 ADD SWAP4 SWAP1 DUP3 ADD SWAP1 PUSH2 0x3107 JUMP JUMPDEST SWAP10 SWAP2 DUP9 ADD CALLDATALOAD SWAP9 POP POP PUSH1 0x40 SWAP1 SWAP7 ADD CALLDATALOAD SWAP6 SWAP5 POP POP POP POP POP JUMP JUMPDEST PUSH1 0x0 DUP1 DUP4 PUSH1 0x1F DUP5 ADD SLT PUSH2 0x3149 JUMPI PUSH1 0x0 DUP1 REVERT JUMPDEST POP DUP2 CALLDATALOAD PUSH1 0x1 PUSH1 0x1 PUSH1 0x40 SHL SUB DUP2 GT ISZERO PUSH2 0x3160 JUMPI PUSH1 0x0 DUP1 REVERT JUMPDEST PUSH1 0x20 DUP4 ADD SWAP2 POP DUP4 PUSH1 0x20 DUP3 DUP6 ADD ADD GT ISZERO PUSH2 0x3178 JUMPI PUSH1 0x0 DUP1 REVERT JUMPDEST SWAP3 POP SWAP3 SWAP1 POP JUMP JUMPDEST PUSH1 0x0 DUP1 PUSH1 0x20 DUP4 DUP6 SUB SLT ISZERO PUSH2 0x3192 JUMPI PUSH1 0x0 DUP1 REVERT JUMPDEST DUP3 CALLDATALOAD PUSH1 0x1 PUSH1 0x1 PUSH1 0x40 SHL SUB DUP2 GT ISZERO PUSH2 0x31A8 JUMPI PUSH1 0x0 DUP1 REVERT JUMPDEST PUSH2 0x31B4 DUP6 DUP3 DUP7 ADD PUSH2 0x3137 JUMP JUMPDEST SWAP1 SWAP7 SWAP1 SWAP6 POP SWAP4 POP POP POP POP JUMP JUMPDEST PUSH1 0x0 DUP1 PUSH1 0x20 DUP4 DUP6 SUB SLT ISZERO PUSH2 0x31D3 JUMPI PUSH1 0x0 DUP1 REVERT JUMPDEST DUP3 CALLDATALOAD PUSH1 0x1 PUSH1 0x1 PUSH1 0x40 SHL SUB DUP1 DUP3 GT ISZERO PUSH2 0x31EA JUMPI PUSH1 0x0 DUP1 REVERT JUMPDEST DUP2 DUP6 ADD SWAP2 POP DUP6 PUSH1 0x1F DUP4 ADD SLT PUSH2 0x31FE JUMPI PUSH1 0x0 DUP1 REVERT JUMPDEST DUP2 CALLDATALOAD DUP2 DUP2 GT ISZERO PUSH2 0x320D JUMPI PUSH1 0x0 DUP1 REVERT JUMPDEST DUP7 PUSH1 0x20 DUP3 PUSH1 0x5 SHL DUP6 ADD ADD GT ISZERO PUSH2 0x3222 JUMPI PUSH1 0x0 DUP1 REVERT JUMPDEST PUSH1 0x20 SWAP3 SWAP1 SWAP3 ADD SWAP7 SWAP2 SWAP6 POP SWAP1 SWAP4 POP POP POP POP JUMP JUMPDEST DUP1 MLOAD PUSH1 0x1 PUSH1 0x1 PUSH1 0xA0 SHL SUB AND DUP3 MSTORE PUSH1 0x20 DUP1 DUP3 ADD MLOAD PUSH1 0x1 PUSH1 0x1 PUSH1 0x40 SHL SUB AND SWAP1 DUP4 ADD MSTORE PUSH1 0x40 DUP1 DUP3 ADD MLOAD ISZERO ISZERO SWAP1 DUP4 ADD MSTORE PUSH1 0x60 SWAP1 DUP2 ADD MLOAD PUSH3 0xFFFFFF AND SWAP2 ADD MSTORE JUMP JUMPDEST PUSH1 0x20 DUP1 DUP3 MSTORE DUP3 MLOAD DUP3 DUP3 ADD DUP2 SWAP1 MSTORE PUSH1 0x0 SWAP2 SWAP1 DUP5 DUP3 ADD SWAP1 PUSH1 0x40 DUP6 ADD SWAP1 DUP5 JUMPDEST DUP2 DUP2 LT ISZERO PUSH2 0x27EC JUMPI PUSH2 0x329F DUP4 DUP6 MLOAD PUSH2 0x3234 JUMP JUMPDEST SWAP3 DUP5 ADD SWAP3 PUSH1 0x80 SWAP3 SWAP1 SWAP3 ADD SWAP2 PUSH1 0x1 ADD PUSH2 0x328C JUMP JUMPDEST PUSH1 0x0 PUSH1 0x20 DUP3 DUP5 SUB SLT ISZERO PUSH2 0x32C4 JUMPI PUSH1 0x0 DUP1 REVERT JUMPDEST PUSH2 0x2DFC DUP3 PUSH2 0x2E87 JUMP JUMPDEST PUSH1 0x20 DUP1 DUP3 MSTORE DUP3 MLOAD DUP3 DUP3 ADD DUP2 SWAP1 MSTORE PUSH1 0x0 SWAP2 SWAP1 DUP5 DUP3 ADD SWAP1 PUSH1 0x40 DUP6 ADD SWAP1 DUP5 JUMPDEST DUP2 DUP2 LT ISZERO PUSH2 0x27EC JUMPI DUP4 MLOAD DUP4 MSTORE SWAP3 DUP5 ADD SWAP3 SWAP2 DUP5 ADD SWAP2 PUSH1 0x1 ADD PUSH2 0x32E9 JUMP JUMPDEST PUSH1 0x0 DUP1 PUSH1 0x0 PUSH1 0x60 DUP5 DUP7 SUB SLT ISZERO PUSH2 0x331A JUMPI PUSH1 0x0 DUP1 REVERT JUMPDEST PUSH2 0x3323 DUP5 PUSH2 0x2E87 JUMP JUMPDEST SWAP6 PUSH1 0x20 DUP6 ADD CALLDATALOAD SWAP6 POP PUSH1 0x40 SWAP1 SWAP5 ADD CALLDATALOAD SWAP4 SWAP3 POP POP POP JUMP JUMPDEST DUP1 ISZERO ISZERO DUP2 EQ PUSH2 0x19D0 JUMPI PUSH1 0x0 DUP1 REVERT JUMPDEST PUSH1 0x0 DUP1 PUSH1 0x0 PUSH1 0x40 DUP5 DUP7 SUB SLT ISZERO PUSH2 0x335B JUMPI PUSH1 0x0 DUP1 REVERT JUMPDEST DUP4 CALLDATALOAD PUSH2 0x3366 DUP2 PUSH2 0x3338 JUMP JUMPDEST SWAP3 POP PUSH1 0x20 DUP5 ADD CALLDATALOAD PUSH1 0x1 PUSH1 0x1 PUSH1 0x40 SHL SUB DUP2 GT ISZERO PUSH2 0x3381 JUMPI PUSH1 0x0 DUP1 REVERT JUMPDEST PUSH2 0x338D DUP7 DUP3 DUP8 ADD PUSH2 0x3137 JUMP JUMPDEST SWAP5 SWAP8 SWAP1 SWAP7 POP SWAP4 SWAP5 POP POP POP POP JUMP JUMPDEST PUSH1 0x0 DUP1 PUSH1 0x40 DUP4 DUP6 SUB SLT ISZERO PUSH2 0x33AD JUMPI PUSH1 0x0 DUP1 REVERT JUMPDEST PUSH2 0x33B6 DUP4 PUSH2 0x2E87 JUMP JUMPDEST SWAP2 POP PUSH1 0x20 DUP4 ADD CALLDATALOAD PUSH2 0x33C6 DUP2 PUSH2 0x3338 JUMP JUMPDEST DUP1 SWAP2 POP POP SWAP3 POP SWAP3 SWAP1 POP JUMP JUMPDEST PUSH1 0x0 DUP1 PUSH1 0x0 DUP1 PUSH1 0x80 DUP6 DUP8 SUB SLT ISZERO PUSH2 0x33E7 JUMPI PUSH1 0x0 DUP1 REVERT JUMPDEST PUSH2 0x33F0 DUP6 PUSH2 0x2E87 JUMP JUMPDEST SWAP4 POP PUSH1 0x20 PUSH2 0x33FF DUP2 DUP8 ADD PUSH2 0x2E87 JUMP JUMPDEST SWAP4 POP PUSH1 0x40 DUP7 ADD CALLDATALOAD SWAP3 POP PUSH1 0x60 DUP7 ADD CALLDATALOAD PUSH1 0x1 PUSH1 0x1 PUSH1 0x40 SHL SUB DUP1 DUP3 GT ISZERO PUSH2 0x3422 JUMPI PUSH1 0x0 DUP1 REVERT JUMPDEST DUP2 DUP9 ADD SWAP2 POP DUP9 PUSH1 0x1F DUP4 ADD SLT PUSH2 0x3436 JUMPI PUSH1 0x0 DUP1 REVERT JUMPDEST DUP2 CALLDATALOAD DUP2 DUP2 GT ISZERO PUSH2 0x3448 JUMPI PUSH2 0x3448 PUSH2 0x2F04 JUMP JUMPDEST PUSH2 0x345A PUSH1 0x1F DUP3 ADD PUSH1 0x1F NOT AND DUP6 ADD PUSH2 0x2F1A JUMP JUMPDEST SWAP2 POP DUP1 DUP3 MSTORE DUP10 DUP5 DUP3 DUP6 ADD ADD GT ISZERO PUSH2 0x3470 JUMPI PUSH1 0x0 DUP1 REVERT JUMPDEST DUP1 DUP5 DUP5 ADD DUP6 DUP5 ADD CALLDATACOPY PUSH1 0x0 DUP5 DUP3 DUP5 ADD ADD MSTORE POP DUP1 SWAP4 POP POP POP POP SWAP3 SWAP6 SWAP2 SWAP5 POP SWAP3 POP JUMP JUMPDEST PUSH1 0x80 DUP2 ADD PUSH2 0x9D9 DUP3 DUP5 PUSH2 0x3234 JUMP JUMPDEST PUSH1 0x0 DUP1 PUSH1 0x40 DUP4 DUP6 SUB SLT ISZERO PUSH2 0x34B1 JUMPI PUSH1 0x0 DUP1 REVERT JUMPDEST PUSH2 0x34BA DUP4 PUSH2 0x2E87 JUMP JUMPDEST SWAP2 POP PUSH2 0x34C8 PUSH1 0x20 DUP5 ADD PUSH2 0x2E87 JUMP JUMPDEST SWAP1 POP SWAP3 POP SWAP3 SWAP1 POP JUMP JUMPDEST PUSH1 0x20 DUP1 DUP3 MSTORE PUSH1 0x2B SWAP1 DUP3 ADD MSTORE PUSH32 0x496E697469616C697A61626C653A20636F6E7472616374206973206E6F742069 PUSH1 0x40 DUP3 ADD MSTORE PUSH11 0x6E697469616C697A696E67 PUSH1 0xA8 SHL PUSH1 0x60 DUP3 ADD MSTORE PUSH1 0x80 ADD SWAP1 JUMP JUMPDEST PUSH1 0x1 DUP2 DUP2 SHR SWAP1 DUP3 AND DUP1 PUSH2 0x3530 JUMPI PUSH1 0x7F DUP3 AND SWAP2 POP JUMPDEST PUSH1 0x20 DUP3 LT DUP2 SUB PUSH2 0x3550 JUMPI PUSH4 0x4E487B71 PUSH1 0xE0 SHL PUSH1 0x0 MSTORE PUSH1 0x22 PUSH1 0x4 MSTORE PUSH1 0x24 PUSH1 0x0 REVERT JUMPDEST POP SWAP2 SWAP1 POP JUMP JUMPDEST PUSH1 0x1 PUSH1 0x1 PUSH1 0xA0 SHL SUB SWAP3 DUP4 AND DUP2 MSTORE SWAP2 AND PUSH1 0x20 DUP3 ADD MSTORE PUSH1 0x40 ADD SWAP1 JUMP JUMPDEST PUSH1 0x0 PUSH1 0x20 DUP3 DUP5 SUB SLT ISZERO PUSH2 0x3582 JUMPI PUSH1 0x0 DUP1 REVERT JUMPDEST DUP2 MLOAD PUSH2 0x2DFC DUP2 PUSH2 0x3338 JUMP JUMPDEST PUSH4 0x4E487B71 PUSH1 0xE0 SHL PUSH1 0x0 MSTORE PUSH1 0x32 PUSH1 0x4 MSTORE PUSH1 0x24 PUSH1 0x0 REVERT JUMPDEST PUSH4 0x4E487B71 PUSH1 0xE0 SHL PUSH1 0x0 MSTORE PUSH1 0x11 PUSH1 0x4 MSTORE PUSH1 0x24 PUSH1 0x0 REVERT JUMPDEST PUSH1 0x0 DUP3 NOT DUP3 GT ISZERO PUSH2 0x35CC JUMPI PUSH2 0x35CC PUSH2 0x35A3 JUMP JUMPDEST POP ADD SWAP1 JUMP JUMPDEST PUSH1 0x0 PUSH1 0x1 DUP3 ADD PUSH2 0x35E3 JUMPI PUSH2 0x35E3 PUSH2 0x35A3 JUMP JUMPDEST POP PUSH1 0x1 ADD SWAP1 JUMP JUMPDEST PUSH1 0x20 DUP1 DUP3 MSTORE PUSH1 0x11 SWAP1 DUP3 ADD MSTORE PUSH17 0x4E4F545F454E4F5547485F535550504C59 PUSH1 0x78 SHL PUSH1 0x40 DUP3 ADD MSTORE PUSH1 0x60 ADD SWAP1 JUMP JUMPDEST PUSH1 0x20 DUP1 DUP3 MSTORE PUSH1 0x1D SWAP1 DUP3 ADD MSTORE PUSH32 0x43414E4E4F545F4D494E545F4F4E5F5448455F53414D455F424C4F434B000000 PUSH1 0x40 DUP3 ADD MSTORE PUSH1 0x60 ADD SWAP1 JUMP JUMPDEST PUSH1 0x20 DUP1 DUP3 MSTORE PUSH1 0x1D SWAP1 DUP3 ADD MSTORE PUSH32 0x434F4E5452414354535F4E4F545F414C4C4F5745445F544F5F4D494E54000000 PUSH1 0x40 DUP3 ADD MSTORE PUSH1 0x60 ADD SWAP1 JUMP JUMPDEST PUSH1 0x20 DUP1 DUP3 MSTORE PUSH1 0x1D SWAP1 DUP3 ADD MSTORE PUSH32 0x5055424C49435F4D494E545F49535F4E4F545F5945545F414354495645000000 PUSH1 0x40 DUP3 ADD MSTORE PUSH1 0x60 ADD SWAP1 JUMP JUMPDEST PUSH1 0x20 DUP1 DUP3 MSTORE PUSH1 0x1E SWAP1 DUP3 ADD MSTORE PUSH32 0x50524553414C455F4D494E545F49535F4E4F545F5945545F4143544956450000 PUSH1 0x40 DUP3 ADD MSTORE PUSH1 0x60 ADD SWAP1 JUMP JUMPDEST PUSH1 0x20 DUP1 DUP3 MSTORE PUSH1 0x1B SWAP1 DUP3 ADD MSTORE PUSH32 0x465245455F4D494E545F49535F4E4F545F5945545F4143544956450000000000 PUSH1 0x40 DUP3 ADD MSTORE PUSH1 0x60 ADD SWAP1 JUMP JUMPDEST PUSH1 0x20 DUP1 DUP3 MSTORE PUSH1 0x28 SWAP1 DUP3 ADD MSTORE PUSH32 0x455843454544494E475F4D4158494D554D5F414D4F554E545F5045525F545241 PUSH1 0x40 DUP3 ADD MSTORE PUSH8 0x2729A0A1AA24A7A7 PUSH1 0xC1 SHL PUSH1 0x60 DUP3 ADD MSTORE PUSH1 0x80 ADD SWAP1 JUMP JUMPDEST PUSH1 0x0 DUP2 PUSH1 0x0 NOT DIV DUP4 GT DUP3 ISZERO ISZERO AND ISZERO PUSH2 0x378A JUMPI PUSH2 0x378A PUSH2 0x35A3 JUMP JUMPDEST POP MUL SWAP1 JUMP JUMPDEST PUSH4 0x4E487B71 PUSH1 0xE0 SHL PUSH1 0x0 MSTORE PUSH1 0x12 PUSH1 0x4 MSTORE PUSH1 0x24 PUSH1 0x0 REVERT JUMPDEST PUSH1 0x0 DUP3 PUSH2 0x37B4 JUMPI PUSH2 0x37B4 PUSH2 0x378F JUMP JUMPDEST POP DIV SWAP1 JUMP JUMPDEST DUP1 SLOAD PUSH1 0x0 SWAP1 PUSH1 0x1 DUP2 DUP2 SHR SWAP1 DUP1 DUP4 AND DUP1 PUSH2 0x37D3 JUMPI PUSH1 0x7F DUP4 AND SWAP3 POP JUMPDEST PUSH1 0x20 DUP1 DUP5 LT DUP3 SUB PUSH2 0x37F4 JUMPI PUSH4 0x4E487B71 PUSH1 0xE0 SHL PUSH1 0x0 MSTORE PUSH1 0x22 PUSH1 0x4 MSTORE PUSH1 0x24 PUSH1 0x0 REVERT JUMPDEST DUP2 DUP1 ISZERO PUSH2 0x3808 JUMPI PUSH1 0x1 DUP2 EQ PUSH2 0x3819 JUMPI PUSH2 0x3846 JUMP JUMPDEST PUSH1 0xFF NOT DUP7 AND DUP10 MSTORE DUP5 DUP10 ADD SWAP7 POP PUSH2 0x3846 JUMP JUMPDEST PUSH1 0x0 DUP9 DUP2 MSTORE PUSH1 0x20 SWAP1 KECCAK256 PUSH1 0x0 JUMPDEST DUP7 DUP2 LT ISZERO PUSH2 0x383E JUMPI DUP2 SLOAD DUP12 DUP3 ADD MSTORE SWAP1 DUP6 ADD SWAP1 DUP4 ADD PUSH2 0x3825 JUMP JUMPDEST POP POP DUP5 DUP10 ADD SWAP7 POP JUMPDEST POP POP POP POP POP POP SWAP3 SWAP2 POP POP JUMP JUMPDEST PUSH1 0x0 PUSH2 0x385E DUP3 DUP6 PUSH2 0x37B9 JUMP JUMPDEST DUP4 MLOAD PUSH2 0x386E DUP2 DUP4 PUSH1 0x20 DUP9 ADD PUSH2 0x2E03 JUMP JUMPDEST ADD SWAP5 SWAP4 POP POP POP POP JUMP JUMPDEST PUSH1 0x0 PUSH2 0x2DFC DUP3 DUP5 PUSH2 0x37B9 JUMP JUMPDEST PUSH1 0x0 DUP2 PUSH2 0x3892 JUMPI PUSH2 0x3892 PUSH2 0x35A3 JUMP JUMPDEST POP PUSH1 0x0 NOT ADD SWAP1 JUMP JUMPDEST PUSH1 0x20 DUP1 DUP3 MSTORE PUSH1 0x34 SWAP1 DUP3 ADD MSTORE PUSH32 0x455243373231415F5F496E697469616C697A61626C653A20636F6E7472616374 PUSH1 0x40 DUP3 ADD MSTORE PUSH20 0x206973206E6F7420696E697469616C697A696E67 PUSH1 0x60 SHL PUSH1 0x60 DUP3 ADD MSTORE PUSH1 0x80 ADD SWAP1 JUMP JUMPDEST PUSH1 0x0 DUP3 DUP3 LT ISZERO PUSH2 0x3900 JUMPI PUSH2 0x3900 PUSH2 0x35A3 JUMP JUMPDEST POP SUB SWAP1 JUMP JUMPDEST PUSH1 0x0 DUP3 PUSH2 0x3914 JUMPI PUSH2 0x3914 PUSH2 0x378F JUMP JUMPDEST POP MOD SWAP1 JUMP JUMPDEST PUSH1 0x1 PUSH1 0x1 PUSH1 0xA0 SHL SUB DUP6 DUP2 AND DUP3 MSTORE DUP5 AND PUSH1 0x20 DUP3 ADD MSTORE PUSH1 0x40 DUP2 ADD DUP4 SWAP1 MSTORE PUSH1 0x80 PUSH1 0x60 DUP3 ADD DUP2 SWAP1 MSTORE PUSH1 0x0 SWAP1 PUSH2 0x394C SWAP1 DUP4 ADD DUP5 PUSH2 0x2E2F JUMP JUMPDEST SWAP7 SWAP6 POP POP POP POP POP POP JUMP JUMPDEST PUSH1 0x0 PUSH1 0x20 DUP3 DUP5 SUB SLT ISZERO PUSH2 0x3968 JUMPI PUSH1 0x0 DUP1 REVERT JUMPDEST DUP2 MLOAD PUSH2 0x2DFC DUP2 PUSH2 0x2DC9 JUMP INVALID 0xEE ISZERO SHR DUP5 ADD SWAP3 DUP14 0xC2 0x23 PUSH1 0x2B 0xB1 DUP8 0xAF 0xF9 SHL SWAP11 JUMP 0xC7 0xCA 0xE5 SELFBALANCE PUSH15 0xF1B3287B085A16C85FA26469706673 PC 0x22 SLT KECCAK256 XOR PUSH16 0xC279A88DF3A3507B6B9C2A3E7589CFF8 0x5C 0x26 DUP14 0xCB POP 0xA7 RETURN 0xA7 0xA8 CODECOPY 0xB3 LOG2 DUP8 0x5C PUSH5 0x736F6C6343 STOP ADDMOD 0xD STOP CALLER "},"methodIdentifiers":{"ADDRESS_1()":"b08da342","ADDRESS_2()":"de97536b","MAX_SUPPLY()":"32cb6b0c","MINT_LIMIT()":"02775240","PUBLIC_PRICE()":"611f3f10","TRANSACTION_LIMIT()":"b6fd509b","WL_PRICE()":"31c3c7a0","__DefaultOperatorFilterer_init()":"03eaebec","__OperatorFilterer_init(address,bool)":"ff633d55","approve(address,uint256)":"095ea7b3","balanceOf(address)":"70a08231","decreaseSupply(uint256)":"98e52f9a","devMint(address[],uint256[])":"2446548f","explicitOwnershipOf(uint256)":"c23dc68f","explicitOwnershipsOf(uint256[])":"5bbb2177","freeMint(bytes32[],uint256,uint256)":"34837ad3","getApproved(uint256)":"081812fc","initialize()":"8129fc1c","isApprovedForAll(address,address)":"e985e9c5","isPresaleActive()":"60d938dc","isPublicSaleActive()":"1e84c413","mint(uint256)":"a0712d68","name()":"06fdde03","numberMinted(address)":"dc33e681","owner()":"8da5cb5b","ownerOf(uint256)":"6352211e","presaleMint(bytes32[],uint256,uint256)":"3c18c3da","renounceOwnership()":"715018a6","reveal(bool,string)":"a101ff6d","safeTransferFrom(address,address,uint256)":"42842e0e","safeTransferFrom(address,address,uint256,bytes)":"b88d4fde","setApprovalForAll(address,bool)":"a22cb465","setBaseURI(string)":"55f804b3","setFreeMintRoot(bytes32)":"70c42575","setMintLimit(uint256)":"9e6a1d7d","setPreSaleRoot(bytes32)":"fe042d49","setPreSaleStatus()":"3e07ac02","setPresalePrice(uint256)":"3549345e","setPublicPrice(uint256)":"c6275255","setPublicSaleStatus()":"7dfed9fe","setSigner(address)":"6c19e783","setTransactionLimit(uint256)":"64bfa546","supportsInterface(bytes4)":"01ffc9a7","symbol()":"95d89b41","tokenURI(uint256)":"c87b56dd","tokensOfOwner(address)":"8462151c","tokensOfOwnerIn(address,uint256,uint256)":"99a2557a","totalSupply()":"18160ddd","transferFrom(address,address,uint256)":"23b872dd","transferOwnership(address)":"f2fde38b","usedDigests(bytes32)":"d39c4de7","userPurchase(address)":"b484eff7","withdraw()":"3ccfd60b"}},"storageLayout":{"storage":[{"astId":138,"contract":"contracts/Drivrs2.sol:Drivrs2","label":"_initialized","offset":0,"slot":"0","type":"t_uint8"},{"astId":141,"contract":"contracts/Drivrs2.sol:Drivrs2","label":"_initializing","offset":1,"slot":"0","type":"t_bool"},{"astId":625,"contract":"contracts/Drivrs2.sol:Drivrs2","label":"__gap","offset":0,"slot":"1","type":"t_array(t_uint256)50_storage"},{"astId":10,"contract":"contracts/Drivrs2.sol:Drivrs2","label":"_owner","offset":0,"slot":"51","type":"t_address"},{"astId":130,"contract":"contracts/Drivrs2.sol:Drivrs2","label":"__gap","offset":0,"slot":"52","type":"t_array(t_uint256)49_storage"},{"astId":2340,"contract":"contracts/Drivrs2.sol:Drivrs2","label":"MAX_SUPPLY","offset":0,"slot":"101","type":"t_uint256"},{"astId":2342,"contract":"contracts/Drivrs2.sol:Drivrs2","label":"WL_PRICE","offset":0,"slot":"102","type":"t_uint256"},{"astId":2344,"contract":"contracts/Drivrs2.sol:Drivrs2","label":"PUBLIC_PRICE","offset":0,"slot":"103","type":"t_uint256"},{"astId":2346,"contract":"contracts/Drivrs2.sol:Drivrs2","label":"MINT_LIMIT","offset":0,"slot":"104","type":"t_uint256"},{"astId":2348,"contract":"contracts/Drivrs2.sol:Drivrs2","label":"TRANSACTION_LIMIT","offset":0,"slot":"105","type":"t_uint256"},{"astId":2350,"contract":"contracts/Drivrs2.sol:Drivrs2","label":"isPublicSaleActive","offset":0,"slot":"106","type":"t_bool"},{"astId":2352,"contract":"contracts/Drivrs2.sol:Drivrs2","label":"isPresaleActive","offset":1,"slot":"106","type":"t_bool"},{"astId":2354,"contract":"contracts/Drivrs2.sol:Drivrs2","label":"_revealed","offset":2,"slot":"106","type":"t_bool"},{"astId":2356,"contract":"contracts/Drivrs2.sol:Drivrs2","label":"baseURI","offset":0,"slot":"107","type":"t_string_storage"},{"astId":2358,"contract":"contracts/Drivrs2.sol:Drivrs2","label":"presaleRoot","offset":0,"slot":"108","type":"t_bytes32"},{"astId":2360,"contract":"contracts/Drivrs2.sol:Drivrs2","label":"freemintRoot","offset":0,"slot":"109","type":"t_bytes32"},{"astId":2370,"contract":"contracts/Drivrs2.sol:Drivrs2","label":"userPurchase","offset":0,"slot":"110","type":"t_mapping(t_address,t_struct(UserPurchaseInfo)2365_storage)"},{"astId":2374,"contract":"contracts/Drivrs2.sol:Drivrs2","label":"addressBlockBought","offset":0,"slot":"111","type":"t_mapping(t_address,t_uint256)"},{"astId":2382,"contract":"contracts/Drivrs2.sol:Drivrs2","label":"signer","offset":0,"slot":"112","type":"t_address"},{"astId":2386,"contract":"contracts/Drivrs2.sol:Drivrs2","label":"usedDigests","offset":0,"slot":"113","type":"t_mapping(t_bytes32,t_bool)"}],"types":{"t_address":{"encoding":"inplace","label":"address","numberOfBytes":"20"},"t_array(t_uint256)49_storage":{"base":"t_uint256","encoding":"inplace","label":"uint256[49]","numberOfBytes":"1568"},"t_array(t_uint256)50_storage":{"base":"t_uint256","encoding":"inplace","label":"uint256[50]","numberOfBytes":"1600"},"t_bool":{"encoding":"inplace","label":"bool","numberOfBytes":"1"},"t_bytes32":{"encoding":"inplace","label":"bytes32","numberOfBytes":"32"},"t_mapping(t_address,t_struct(UserPurchaseInfo)2365_storage)":{"encoding":"mapping","key":"t_address","label":"mapping(address => struct Drivrs2.UserPurchaseInfo)","numberOfBytes":"32","value":"t_struct(UserPurchaseInfo)2365_storage"},"t_mapping(t_address,t_uint256)":{"encoding":"mapping","key":"t_address","label":"mapping(address => uint256)","numberOfBytes":"32","value":"t_uint256"},"t_mapping(t_bytes32,t_bool)":{"encoding":"mapping","key":"t_bytes32","label":"mapping(bytes32 => bool)","numberOfBytes":"32","value":"t_bool"},"t_string_storage":{"encoding":"bytes","label":"string","numberOfBytes":"32"},"t_struct(UserPurchaseInfo)2365_storage":{"encoding":"inplace","label":"struct Drivrs2.UserPurchaseInfo","members":[{"astId":2362,"contract":"contracts/Drivrs2.sol:Drivrs2","label":"presaleMinted","offset":0,"slot":"0","type":"t_uint256"},{"astId":2364,"contract":"contracts/Drivrs2.sol:Drivrs2","label":"freeMinted","offset":0,"slot":"1","type":"t_uint256"}],"numberOfBytes":"64"},"t_uint256":{"encoding":"inplace","label":"uint256","numberOfBytes":"32"},"t_uint8":{"encoding":"inplace","label":"uint8","numberOfBytes":"1"}}}}}}