{"contracts/Drivrs.sol":{"Drivrs":{"abi":[{"inputs":[],"name":"ApprovalCallerNotOwnerNorApproved","type":"error"},{"inputs":[],"name":"ApprovalQueryForNonexistentToken","type":"error"},{"inputs":[],"name":"BalanceQueryForZeroAddress","type":"error"},{"inputs":[],"name":"InvalidQueryRange","type":"error"},{"inputs":[],"name":"MintERC2309QuantityExceedsLimit","type":"error"},{"inputs":[],"name":"MintToZeroAddress","type":"error"},{"inputs":[],"name":"MintZeroQuantity","type":"error"},{"inputs":[{"internalType":"address","name":"operator","type":"address"}],"name":"OperatorNotAllowed","type":"error"},{"inputs":[],"name":"OwnerQueryForNonexistentToken","type":"error"},{"inputs":[],"name":"OwnershipNotInitializedForExtraData","type":"error"},{"inputs":[],"name":"TransferCallerNotOwnerNorApproved","type":"error"},{"inputs":[],"name":"TransferFromIncorrectOwner","type":"error"},{"inputs":[],"name":"TransferToNonERC721ReceiverImplementer","type":"error"},{"inputs":[],"name":"TransferToZeroAddress","type":"error"},{"inputs":[],"name":"URIQueryForNonexistentToken","type":"error"},{"anonymous":false,"inputs":[{"indexed":true,"internalType":"address","name":"owner","type":"address"},{"indexed":true,"internalType":"address","name":"approved","type":"address"},{"indexed":true,"internalType":"uint256","name":"tokenId","type":"uint256"}],"name":"Approval","type":"event"},{"anonymous":false,"inputs":[{"indexed":true,"internalType":"address","name":"owner","type":"address"},{"indexed":true,"internalType":"address","name":"operator","type":"address"},{"indexed":false,"internalType":"bool","name":"approved","type":"bool"}],"name":"ApprovalForAll","type":"event"},{"anonymous":false,"inputs":[{"indexed":true,"internalType":"uint256","name":"fromTokenId","type":"uint256"},{"indexed":false,"internalType":"uint256","name":"toTokenId","type":"uint256"},{"indexed":true,"internalType":"address","name":"from","type":"address"},{"indexed":true,"internalType":"address","name":"to","type":"address"}],"name":"ConsecutiveTransfer","type":"event"},{"anonymous":false,"inputs":[{"indexed":false,"internalType":"uint8","name":"version","type":"uint8"}],"name":"Initialized","type":"event"},{"anonymous":false,"inputs":[{"indexed":true,"internalType":"address","name":"previousOwner","type":"address"},{"indexed":true,"internalType":"address","name":"newOwner","type":"address"}],"name":"OwnershipTransferred","type":"event"},{"anonymous":false,"inputs":[{"indexed":true,"internalType":"address","name":"from","type":"address"},{"indexed":true,"internalType":"address","name":"to","type":"address"},{"indexed":true,"internalType":"uint256","name":"tokenId","type":"uint256"}],"name":"Transfer","type":"event"},{"inputs":[],"name":"ADDRESS_1","outputs":[{"internalType":"address","name":"","type":"address"}],"stateMutability":"view","type":"function"},{"inputs":[],"name":"ADDRESS_2","outputs":[{"internalType":"address","name":"","type":"address"}],"stateMutability":"view","type":"function"},{"inputs":[],"name":"MAX_SUPPLY","outputs":[{"internalType":"uint256","name":"","type":"uint256"}],"stateMutability":"view","type":"function"},{"inputs":[],"name":"MINT_LIMIT","outputs":[{"internalType":"uint256","name":"","type":"uint256"}],"stateMutability":"view","type":"function"},{"inputs":[],"name":"PUBLIC_PRICE","outputs":[{"internalType":"uint256","name":"","type":"uint256"}],"stateMutability":"view","type":"function"},{"inputs":[],"name":"TRANSACTION_LIMIT","outputs":[{"internalType":"uint256","name":"","type":"uint256"}],"stateMutability":"view","type":"function"},{"inputs":[],"name":"WL_PRICE","outputs":[{"internalType":"uint256","name":"","type":"uint256"}],"stateMutability":"view","type":"function"},{"inputs":[],"name":"__DefaultOperatorFilterer_init","outputs":[],"stateMutability":"nonpayable","type":"function"},{"inputs":[{"internalType":"address","name":"subscriptionOrRegistrantToCopy","type":"address"},{"internalType":"bool","name":"subscribe","type":"bool"}],"name":"__OperatorFilterer_init","outputs":[],"stateMutability":"nonpayable","type":"function"},{"inputs":[{"internalType":"address","name":"to","type":"address"},{"internalType":"uint256","name":"tokenId","type":"uint256"}],"name":"approve","outputs":[],"stateMutability":"payable","type":"function"},{"inputs":[{"internalType":"address","name":"owner","type":"address"}],"name":"balanceOf","outputs":[{"internalType":"uint256","name":"","type":"uint256"}],"stateMutability":"view","type":"function"},{"inputs":[{"internalType":"uint256","name":"_maxSupply","type":"uint256"}],"name":"decreaseSupply","outputs":[],"stateMutability":"nonpayable","type":"function"},{"inputs":[{"internalType":"address[]","name":"_addresses","type":"address[]"},{"internalType":"uint256[]","name":"quantities","type":"uint256[]"}],"name":"devMint","outputs":[],"stateMutability":"nonpayable","type":"function"},{"inputs":[{"internalType":"uint256","name":"tokenId","type":"uint256"}],"name":"explicitOwnershipOf","outputs":[{"components":[{"internalType":"address","name":"addr","type":"address"},{"internalType":"uint64","name":"startTimestamp","type":"uint64"},{"internalType":"bool","name":"burned","type":"bool"},{"internalType":"uint24","name":"extraData","type":"uint24"}],"internalType":"struct IERC721AUpgradeable.TokenOwnership","name":"ownership","type":"tuple"}],"stateMutability":"view","type":"function"},{"inputs":[{"internalType":"uint256[]","name":"tokenIds","type":"uint256[]"}],"name":"explicitOwnershipsOf","outputs":[{"components":[{"internalType":"address","name":"addr","type":"address"},{"internalType":"uint64","name":"startTimestamp","type":"uint64"},{"internalType":"bool","name":"burned","type":"bool"},{"internalType":"uint24","name":"extraData","type":"uint24"}],"internalType":"struct IERC721AUpgradeable.TokenOwnership[]","name":"","type":"tuple[]"}],"stateMutability":"view","type":"function"},{"inputs":[{"internalType":"bytes32[]","name":"proof","type":"bytes32[]"},{"internalType":"uint256","name":"numberOfTokens","type":"uint256"},{"internalType":"uint256","name":"maxMint","type":"uint256"}],"name":"freeMint","outputs":[],"stateMutability":"nonpayable","type":"function"},{"inputs":[{"internalType":"uint256","name":"tokenId","type":"uint256"}],"name":"getApproved","outputs":[{"internalType":"address","name":"","type":"address"}],"stateMutability":"view","type":"function"},{"inputs":[],"name":"initialize","outputs":[],"stateMutability":"nonpayable","type":"function"},{"inputs":[{"internalType":"address","name":"owner","type":"address"},{"internalType":"address","name":"operator","type":"address"}],"name":"isApprovedForAll","outputs":[{"internalType":"bool","name":"","type":"bool"}],"stateMutability":"view","type":"function"},{"inputs":[],"name":"isPresaleActive","outputs":[{"internalType":"bool","name":"","type":"bool"}],"stateMutability":"view","type":"function"},{"inputs":[],"name":"isPublicSaleActive","outputs":[{"internalType":"bool","name":"","type":"bool"}],"stateMutability":"view","type":"function"},{"inputs":[{"internalType":"uint256","name":"numberOfTokens","type":"uint256"},{"internalType":"uint64","name":"expireTime","type":"uint64"},{"internalType":"bytes","name":"sig","type":"bytes"}],"name":"mint","outputs":[],"stateMutability":"payable","type":"function"},{"inputs":[],"name":"name","outputs":[{"internalType":"string","name":"","type":"string"}],"stateMutability":"view","type":"function"},{"inputs":[{"internalType":"address","name":"owner","type":"address"}],"name":"numberMinted","outputs":[{"internalType":"uint256","name":"","type":"uint256"}],"stateMutability":"view","type":"function"},{"inputs":[],"name":"owner","outputs":[{"internalType":"address","name":"","type":"address"}],"stateMutability":"view","type":"function"},{"inputs":[{"internalType":"uint256","name":"tokenId","type":"uint256"}],"name":"ownerOf","outputs":[{"internalType":"address","name":"","type":"address"}],"stateMutability":"view","type":"function"},{"inputs":[{"internalType":"bytes32[]","name":"proof","type":"bytes32[]"},{"internalType":"uint256","name":"numberOfTokens","type":"uint256"},{"internalType":"uint256","name":"maxMint","type":"uint256"}],"name":"presaleMint","outputs":[],"stateMutability":"payable","type":"function"},{"inputs":[],"name":"renounceOwnership","outputs":[],"stateMutability":"nonpayable","type":"function"},{"inputs":[{"internalType":"bool","name":"revealed","type":"bool"},{"internalType":"string","name":"_baseURI","type":"string"}],"name":"reveal","outputs":[],"stateMutability":"nonpayable","type":"function"},{"inputs":[{"internalType":"address","name":"from","type":"address"},{"internalType":"address","name":"to","type":"address"},{"internalType":"uint256","name":"tokenId","type":"uint256"}],"name":"safeTransferFrom","outputs":[],"stateMutability":"payable","type":"function"},{"inputs":[{"internalType":"address","name":"from","type":"address"},{"internalType":"address","name":"to","type":"address"},{"internalType":"uint256","name":"tokenId","type":"uint256"},{"internalType":"bytes","name":"data","type":"bytes"}],"name":"safeTransferFrom","outputs":[],"stateMutability":"payable","type":"function"},{"inputs":[{"internalType":"address","name":"operator","type":"address"},{"internalType":"bool","name":"approved","type":"bool"}],"name":"setApprovalForAll","outputs":[],"stateMutability":"nonpayable","type":"function"},{"inputs":[{"internalType":"string","name":"URI","type":"string"}],"name":"setBaseURI","outputs":[],"stateMutability":"nonpayable","type":"function"},{"inputs":[{"internalType":"bytes32","name":"_freemintRoot","type":"bytes32"}],"name":"setFreeMintRoot","outputs":[],"stateMutability":"nonpayable","type":"function"},{"inputs":[{"internalType":"uint256","name":"_mintLimit","type":"uint256"}],"name":"setMintLimit","outputs":[],"stateMutability":"nonpayable","type":"function"},{"inputs":[{"internalType":"bytes32","name":"_presaleRoot","type":"bytes32"}],"name":"setPreSaleRoot","outputs":[],"stateMutability":"nonpayable","type":"function"},{"inputs":[],"name":"setPreSaleStatus","outputs":[],"stateMutability":"nonpayable","type":"function"},{"inputs":[{"internalType":"uint256","name":"_wlPrice","type":"uint256"}],"name":"setPresalePrice","outputs":[],"stateMutability":"nonpayable","type":"function"},{"inputs":[{"internalType":"uint256","name":"_publicPrice","type":"uint256"}],"name":"setPublicPrice","outputs":[],"stateMutability":"nonpayable","type":"function"},{"inputs":[],"name":"setPublicSaleStatus","outputs":[],"stateMutability":"nonpayable","type":"function"},{"inputs":[{"internalType":"address","name":"_signer","type":"address"}],"name":"setSigner","outputs":[],"stateMutability":"nonpayable","type":"function"},{"inputs":[{"internalType":"uint256","name":"_transactionLimit","type":"uint256"}],"name":"setTransactionLimit","outputs":[],"stateMutability":"nonpayable","type":"function"},{"inputs":[{"internalType":"bytes4","name":"interfaceId","type":"bytes4"}],"name":"supportsInterface","outputs":[{"internalType":"bool","name":"","type":"bool"}],"stateMutability":"view","type":"function"},{"inputs":[],"name":"symbol","outputs":[{"internalType":"string","name":"","type":"string"}],"stateMutability":"view","type":"function"},{"inputs":[{"internalType":"uint256","name":"tokenId","type":"uint256"}],"name":"tokenURI","outputs":[{"internalType":"string","name":"","type":"string"}],"stateMutability":"view","type":"function"},{"inputs":[{"internalType":"address","name":"owner","type":"address"}],"name":"tokensOfOwner","outputs":[{"internalType":"uint256[]","name":"","type":"uint256[]"}],"stateMutability":"view","type":"function"},{"inputs":[{"internalType":"address","name":"owner","type":"address"},{"internalType":"uint256","name":"start","type":"uint256"},{"internalType":"uint256","name":"stop","type":"uint256"}],"name":"tokensOfOwnerIn","outputs":[{"internalType":"uint256[]","name":"","type":"uint256[]"}],"stateMutability":"view","type":"function"},{"inputs":[],"name":"totalSupply","outputs":[{"internalType":"uint256","name":"","type":"uint256"}],"stateMutability":"view","type":"function"},{"inputs":[{"internalType":"address","name":"from","type":"address"},{"internalType":"address","name":"to","type":"address"},{"internalType":"uint256","name":"tokenId","type":"uint256"}],"name":"transferFrom","outputs":[],"stateMutability":"payable","type":"function"},{"inputs":[{"internalType":"address","name":"newOwner","type":"address"}],"name":"transferOwnership","outputs":[],"stateMutability":"nonpayable","type":"function"},{"inputs":[{"internalType":"bytes32","name":"","type":"bytes32"}],"name":"usedDigests","outputs":[{"internalType":"bool","name":"","type":"bool"}],"stateMutability":"view","type":"function"},{"inputs":[{"internalType":"address","name":"","type":"address"}],"name":"userPurchase","outputs":[{"internalType":"uint256","name":"presaleMinted","type":"uint256"},{"internalType":"uint256","name":"freeMinted","type":"uint256"}],"stateMutability":"view","type":"function"},{"inputs":[],"name":"withdraw","outputs":[],"stateMutability":"nonpayable","type":"function"}],"evm":{"bytecode":{"linkReferences":{},"object":"608060405234801561001057600080fd5b50613fb4806100206000396000f3fe60806040526004361061031a5760003560e01c806370c42575116101ab578063b3754e86116100f7578063d39c4de711610095578063e985e9c51161006f578063e985e9c51461090d578063f2fde38b1461092d578063fe042d491461094d578063ff633d551461096d57600080fd5b8063d39c4de714610895578063dc33e681146108c5578063de97536b146108e557600080fd5b8063b88d4fde116100d1578063b88d4fde14610815578063c23dc68f14610828578063c627525514610855578063c87b56dd1461087557600080fd5b8063b3754e86146107a3578063b484eff7146107b6578063b6fd509b146107ff57600080fd5b806395d89b41116101645780639e6a1d7d1161013e5780639e6a1d7d1461071b578063a101ff6d1461073b578063a22cb4651461075b578063b08da3421461077b57600080fd5b806395d89b41146106c657806398e52f9a146106db57806399a2557a146106fb57600080fd5b806370c425751461061c578063715018a61461063c5780637dfed9fe146106515780638129fc1c146106665780638462151c1461067b5780638da5cb5b146106a857600080fd5b80633549345e1161026a5780635bbb2177116102235780636352211e116101fd5780636352211e1461059c57806364bfa546146105bc5780636c19e783146105dc57806370a08231146105fc57600080fd5b80635bbb21771461053a57806360d938dc14610567578063611f3f101461058657600080fd5b80633549345e146104aa5780633c18c3da146104ca5780633ccfd60b146104dd5780633e07ac02146104f257806342842e0e1461050757806355f804b31461051a57600080fd5b806318160ddd116102d75780632446548f116102b15780632446548f1461043e57806331c3c7a01461045e57806332cb6b0c1461047457806334837ad31461048a57600080fd5b806318160ddd146103fc5780631e84c4131461041157806323b872dd1461042b57600080fd5b806301ffc9a71461031f578063027752401461035457806303eaebec1461037857806306fdde031461038f578063081812fc146103b1578063095ea7b3146103e9575b600080fd5b34801561032b57600080fd5b5061033f61033a366004613318565b61098d565b60405190151581526020015b60405180910390f35b34801561036057600080fd5b5061036a60685481565b60405190815260200161034b565b34801561038457600080fd5b5061038d6109df565b005b34801561039b57600080fd5b506103a4610a30565b60405161034b9190613394565b3480156103bd57600080fd5b506103d16103cc3660046133a7565b610acb565b6040516001600160a01b03909116815260200161034b565b61038d6103f73660046133d7565b610b0f565b34801561040857600080fd5b5061036a610b1f565b34801561041d57600080fd5b50606a5461033f9060ff1681565b61038d610439366004613401565b610b3e565b34801561044a57600080fd5b5061038d610459366004613511565b610c93565b34801561046a57600080fd5b5061036a60665481565b34801561048057600080fd5b5061036a60655481565b34801561049657600080fd5b5061038d6104a53660046135d0565b610db3565b3480156104b657600080fd5b5061038d6104c53660046133a7565b611057565b61038d6104d83660046135d0565b611064565b3480156104e957600080fd5b5061038d611337565b3480156104fe57600080fd5b5061038d611420565b61038d610515366004613401565b611445565b34801561052657600080fd5b5061038d6105353660046136b1565b61158f565b34801561054657600080fd5b5061055a6105553660046136f2565b6115a8565b60405161034b91906137a2565b34801561057357600080fd5b50606a5461033f90610100900460ff1681565b34801561059257600080fd5b5061036a60675481565b3480156105a857600080fd5b506103d16105b73660046133a7565b6115f4565b3480156105c857600080fd5b5061038d6105d73660046133a7565b6115ff565b3480156105e857600080fd5b5061038d6105f73660046137e4565b61160c565b34801561060857600080fd5b5061036a6106173660046137e4565b611636565b34801561062857600080fd5b5061038d6106373660046133a7565b611695565b34801561064857600080fd5b5061038d6116a2565b34801561065d57600080fd5b5061038d6116b4565b34801561067257600080fd5b5061038d6116d0565b34801561068757600080fd5b5061069b6106963660046137e4565b611989565b60405161034b91906137ff565b3480156106b457600080fd5b506033546001600160a01b03166103d1565b3480156106d257600080fd5b506103a46119b7565b3480156106e757600080fd5b5061038d6106f63660046133a7565b6119cf565b34801561070757600080fd5b5061069b610716366004613837565b611a24565b34801561072757600080fd5b5061038d6107363660046133a7565b611a31565b34801561074757600080fd5b5061038d610756366004613878565b611a3e565b34801561076757600080fd5b5061038d6107763660046138cc565b611a67565b34801561078757600080fd5b506103d173779e3847551fa09d15a0ae2ae86b60a912ea00ad81565b61038d6107b1366004613972565b611ae4565b3480156107c257600080fd5b506107ea6107d13660046137e4565b606e602052600090815260409020805460019091015482565b6040805192835260208301919091520161034b565b34801561080b57600080fd5b5061036a60695481565b61038d6108233660046139d3565b611e21565b34801561083457600080fd5b506108486108433660046133a7565b611f79565b60405161034b9190613a3a565b34801561086157600080fd5b5061038d6108703660046133a7565b611fd4565b34801561088157600080fd5b506103a46108903660046133a7565b611fe1565b3480156108a157600080fd5b5061033f6108b03660046133a7565b60716020526000908152604090205460ff1681565b3480156108d157600080fd5b5061036a6108e03660046137e4565b612039565b3480156108f157600080fd5b506103d173188a3c584f0de9ee0eabe04316a94a41f0867c0c81565b34801561091957600080fd5b5061033f610928366004613a48565b612044565b34801561093957600080fd5b5061038d6109483660046137e4565b612081565b34801561095957600080fd5b5061038d6109683660046133a7565b6120f7565b34801561097957600080fd5b5061038d6109883660046138cc565b612104565b60006301ffc9a760e01b6001600160e01b0319831614806109be57506380ac58cd60e01b6001600160e01b03198316145b806109d95750635b5e139f60e01b6001600160e01b03198316145b92915050565b600054610100900460ff16610a0f5760405162461bcd60e51b8152600401610a0690613a7b565b60405180910390fd5b610a2e733cc6cdda760b79bafa08df41ecfa224f810dceb66001612104565b565b6060610a3a61228d565b6002018054610a4890613ac6565b80601f0160208091040260200160405190810160405280929190818152602001828054610a7490613ac6565b8015610ac15780601f10610a9657610100808354040283529160200191610ac1565b820191906000526020600020905b815481529060010190602001808311610aa457829003601f168201915b5050505050905090565b6000610ad6826122b1565b610aea57610aea6333d1c03960e21b612307565b610af261228d565b60009283526006016020525060409020546001600160a01b031690565b610b1b82826001612311565b5050565b600080610b2a61228d565b60010154610b3661228d565b540303919050565b826daaeb6d7670e522a718067333cd4e3b15610c8257336001600160a01b03821603610b7457610b6f8484846123c2565b610c8d565b604051633185c44d60e21b81526daaeb6d7670e522a718067333cd4e9063c617113490610ba79030903390600401613b00565b602060405180830381865afa158015610bc4573d6000803e3d6000fd5b505050506040513d601f19601f82011682018060405250810190610be89190613b1a565b8015610c635750604051633185c44d60e21b81526daaeb6d7670e522a718067333cd4e9063c617113490610c229030908590600401613b00565b602060405180830381865afa158015610c3f573d6000803e3d6000fd5b505050506040513d601f19601f82011682018060405250810190610c639190613b1a565b610c8257604051633b79c77360e21b8152336004820152602401610a06565b610c8d8484846123c2565b50505050565b610c9b612585565b8051825114610cdf5760405162461bcd60e51b815260206004820152601060248201526f57524f4e475f504152414d455445525360801b6044820152606401610a06565b6000805b8251811015610d2557828181518110610cfe57610cfe613b37565b602002602001015182610d119190613b63565b915080610d1d81613b7b565b915050610ce3565b50606554610d31610b1f565b610d3b9083613b63565b1115610d595760405162461bcd60e51b8152600401610a0690613b94565b60005b8351811015610c8d57610da1848281518110610d7a57610d7a613b37565b6020026020010151848381518110610d9457610d94613b37565b60200260200101516125df565b80610dab81613b7b565b915050610d5c565b336000908152606f60205260409020546003904211610de45760405162461bcd60e51b8152600401610a0690613bbf565b323314610e035760405162461bcd60e51b8152600401610a0690613bf6565b8060ff16600103610e3057606a5460ff16610e305760405162461bcd60e51b8152600401610a0690613c2d565b8060ff16600203610e6257606a54610100900460ff16610e625760405162461bcd60e51b8152600401610a0690613c64565b8060ff16600303610e9457606a54610100900460ff16610e945760405162461bcd60e51b8152600401610a0690613c9b565b82606554610ea0610b1f565b610eaa9083613b63565b1115610ec85760405162461bcd60e51b8152600401610a0690613b94565b606854610ed433612039565b610ede9083613b63565b1115610efc5760405162461bcd60e51b8152600401610a0690613cd2565b606954811115610f1e5760405162461bcd60e51b8152600401610a0690613cfd565b6040516001600160601b03193360601b16602082015260348101849052600090605401604051602081830303815290604052805190602001209050610f6686606d54836125f9565b610fa25760405162461bcd60e51b815260206004820152600d60248201526c141493d3d197d2539590531251609a1b6044820152606401610a06565b336000908152606e60205260409020600101548490610fc2908790613b63565b11156110105760405162461bcd60e51b815260206004820152601b60248201527f4558434545445f414c4c4f43415445445f4d494e545f4c494d495400000000006044820152606401610a06565b336000908152606f60209081526040808320429055606e9091528120600101805487929061103f908490613b63565b9091555061104f9050338661260f565b505050505050565b61105f612585565b606655565b336000908152606f602052604090205460029042116110955760405162461bcd60e51b8152600401610a0690613bbf565b3233146110b45760405162461bcd60e51b8152600401610a0690613bf6565b8060ff166001036110e157606a5460ff166110e15760405162461bcd60e51b8152600401610a0690613c2d565b8060ff1660020361111357606a54610100900460ff166111135760405162461bcd60e51b8152600401610a0690613c64565b8060ff1660030361114557606a54610100900460ff166111455760405162461bcd60e51b8152600401610a0690613c9b565b82606554611151610b1f565b61115b9083613b63565b11156111795760405162461bcd60e51b8152600401610a0690613b94565b60685461118533612039565b61118f9083613b63565b11156111ad5760405162461bcd60e51b8152600401610a0690613cd2565b6069548111156111cf5760405162461bcd60e51b8152600401610a0690613cfd565b6040516001600160601b03193360601b1660208201526034810184905260009060540160405160208183030381529060405280519060200120905061121786606c54836125f9565b6112535760405162461bcd60e51b815260206004820152600d60248201526c141493d3d197d2539590531251609a1b6044820152606401610a06565b336000908152606e60205260409020548490611270908790613b63565b11156112be5760405162461bcd60e51b815260206004820152601b60248201527f4558434545445f414c4c4f43415445445f4d494e545f4c494d495400000000006044820152606401610a06565b846066546112cc9190613d45565b341461130b5760405162461bcd60e51b815260206004820152600e60248201526d1253959053125117d05353d5539560921b6044820152606401610a06565b336000908152606f60209081526040808320429055606e9091528120805487929061103f908490613b63565b61133f612585565b47806113865760405162461bcd60e51b81526020600482015260166024820152754e6f2062616c616e636520746f20776974686472617760501b6044820152606401610a06565b73188a3c584f0de9ee0eabe04316a94a41f0867c0c6108fc6127106113ad846102bc613d45565b6113b79190613d7a565b6040518115909202916000818181858888f193505050501580156113df573d6000803e3d6000fd5b5060405173779e3847551fa09d15a0ae2ae86b60a912ea00ad904780156108fc02916000818181858888f19350505050158015610b1b573d6000803e3d6000fd5b611428612585565b606a805461ff001981166101009182900460ff1615909102179055565b826daaeb6d7670e522a718067333cd4e3b1561158457336001600160a01b0382160361147657610b6f848484612703565b604051633185c44d60e21b81526daaeb6d7670e522a718067333cd4e9063c6171134906114a99030903390600401613b00565b602060405180830381865afa1580156114c6573d6000803e3d6000fd5b505050506040513d601f19601f820116820180604052508101906114ea9190613b1a565b80156115655750604051633185c44d60e21b81526daaeb6d7670e522a718067333cd4e9063c6171134906115249030908590600401613b00565b602060405180830381865afa158015611541573d6000803e3d6000fd5b505050506040513d601f19601f820116820180604052508101906115659190613b1a565b61158457604051633b79c77360e21b8152336004820152602401610a06565b610c8d848484612703565b611597612585565b6115a3606b83836131f5565b505050565b60408051828152600583901b8082016020019092526060915b80156115ec57601f19808201918601013560006115dd82611f79565b84840160200152506115c19050565b509392505050565b60006109d98261271e565b611607612585565b606955565b611614612585565b607080546001600160a01b0319166001600160a01b0392909216919091179055565b60006001600160a01b038216611656576116566323d3ad8160e21b612307565b6001600160401b0361166661228d565b6005016000846001600160a01b03166001600160a01b0316815260200190815260200160002054169050919050565b61169d612585565b606d55565b6116aa612585565b610a2e60006127d8565b6116bc612585565b606a805460ff19811660ff90911615179055565b600080516020613f5f83398151915254610100900460ff1661170557600080516020613f5f8339815191525460ff1615611709565b303b155b61177b5760405162461bcd60e51b815260206004820152603760248201527f455243373231415f5f496e697469616c697a61626c653a20636f6e747261637460448201527f20697320616c726561647920696e697469616c697a65640000000000000000006064820152608401610a06565b600080516020613f5f83398151915254610100900460ff161580156117b757600080516020613f5f833981519152805461ffff19166101011790555b600054610100900460ff16158080156117d75750600054600160ff909116105b806117f15750303b1580156117f1575060005460ff166001145b6118545760405162461bcd60e51b815260206004820152602e60248201527f496e697469616c697a61626c653a20636f6e747261637420697320616c72656160448201526d191e481a5b9a5d1a585b1a5e995960921b6064820152608401610a06565b6000805460ff191660011790558015611877576000805461ff0019166101001790555b6118c56040518060400160405280600a8152602001694452495652535041535360b01b8152506040518060400160405280600a8152602001694452495652535041535360b01b81525061282a565b6118cd612868565b6118d56109df565b6122b8606555661550f7dca70000606681905560675560016068819055606955606a805462ffffff1916905560408051602081019182905260009081905261191f91606b91613279565b508015611966576000805461ff0019169055604051600181527f7f26b83ff96e1f2b6a682f133852f6798a09c465da95921460cefb38474024989060200160405180910390a15b50801561198657600080516020613f5f833981519152805461ff00191690555b50565b6060600080611996612897565b905060608183146119af576119ac8584846128a7565b90505b949350505050565b60606119c161228d565b6003018054610a4890613ac6565b6119d7612585565b6065548110611a1f5760405162461bcd60e51b815260206004820152601460248201527343414e545f494e4352454153455f535550504c5960601b6044820152606401610a06565b606555565b60606119af8484846128a7565b611a39612585565b606855565b611a46612585565b606a805462ff000019166201000085151502179055610c8d606b83836131f5565b80611a7061228d565b336000818152600792909201602090815260408084206001600160a01b03881680865290835293819020805460ff19169515159590951790945592518415158152919290917f17307eab39ab6107e8899845ad3d59bd9653f200f220920489ca2b5937696c31910160405180910390a35050565b336000908152606f60205260409020546001904211611b155760405162461bcd60e51b8152600401610a0690613bbf565b323314611b345760405162461bcd60e51b8152600401610a0690613bf6565b8060ff16600103611b6157606a5460ff16611b615760405162461bcd60e51b8152600401610a0690613c2d565b8060ff16600203611b9357606a54610100900460ff16611b935760405162461bcd60e51b8152600401610a0690613c64565b8060ff16600303611bc557606a54610100900460ff16611bc55760405162461bcd60e51b8152600401610a0690613c9b565b83606554611bd1610b1f565b611bdb9083613b63565b1115611bf95760405162461bcd60e51b8152600401610a0690613b94565b606854611c0533612039565b611c0f9083613b63565b1115611c2d5760405162461bcd60e51b8152600401610a0690613cd2565b606954811115611c4f5760405162461bcd60e51b8152600401610a0690613cfd565b6040516001600160601b03193360601b1660208201526001600160c01b031960c086901b166034820152603c8101869052600090605c01604051602081830303815290604052805190602001209050611ca884826129a1565b611cf45760405162461bcd60e51b815260206004820152601960248201527f434f4e54524143545f4d494e545f4e4f545f414c4c4f574544000000000000006044820152606401610a06565b846001600160401b0316421115611d415760405162461bcd60e51b8152602060048201526011602482015270455850495245445f5349474e415455524560781b6044820152606401610a06565b60008181526071602052604090205460ff1615611da05760405162461bcd60e51b815260206004820152601d60248201527f5349474e41545552455f4c4f4f50494e475f4e4f545f414c4c4f5745440000006044820152606401610a06565b85606754611dae9190613d45565b3414611ded5760405162461bcd60e51b815260206004820152600e60248201526d1253959053125117d05353d5539560921b6044820152606401610a06565b336000818152606f6020908152604080832042905584835260719091529020805460ff1916600117905561104f908761260f565b836daaeb6d7670e522a718067333cd4e3b15611f6657336001600160a01b03821603611e5857611e53858585856129cb565b611f72565b604051633185c44d60e21b81526daaeb6d7670e522a718067333cd4e9063c617113490611e8b9030903390600401613b00565b602060405180830381865afa158015611ea8573d6000803e3d6000fd5b505050506040513d601f19601f82011682018060405250810190611ecc9190613b1a565b8015611f475750604051633185c44d60e21b81526daaeb6d7670e522a718067333cd4e9063c617113490611f069030908590600401613b00565b602060405180830381865afa158015611f23573d6000803e3d6000fd5b505050506040513d601f19601f82011682018060405250810190611f479190613b1a565b611f6657604051633b79c77360e21b8152336004820152602401610a06565b611f72858585856129cb565b5050505050565b604080516080810182526000808252602082018190529181018290526060810191909152611fa5612897565b821015611fcf575b611fb682612a06565b611fc65760001990910190611fad565b6109d982612a26565b919050565b611fdc612585565b606755565b606a5460609062010000900460ff161561202757606b61200083612aaf565b604051602001612011929190613e27565b6040516020818303038152906040529050919050565b606b6040516020016120119190613e4c565b60006109d982612baf565b600061204e61228d565b6001600160a01b039384166000908152600791909101602090815260408083209490951682529290925250205460ff1690565b612089612585565b6001600160a01b0381166120ee5760405162461bcd60e51b815260206004820152602660248201527f4f776e61626c653a206e6577206f776e657220697320746865207a65726f206160448201526564647265737360d01b6064820152608401610a06565b611986816127d8565b6120ff612585565b606c55565b600054610100900460ff1661212b5760405162461bcd60e51b8152600401610a0690613a7b565b6daaeb6d7670e522a718067333cd4e3b15610b1b5760405163c3c5a54760e01b81523060048201526daaeb6d7670e522a718067333cd4e9063c3c5a547906024016020604051808303816000875af115801561218b573d6000803e3d6000fd5b505050506040513d601f19601f820116820180604052508101906121af9190613b1a565b610b1b57801561221a57604051633e9f1edf60e11b81526daaeb6d7670e522a718067333cd4e90637d3e3dbe906121ec9030908690600401613b00565b600060405180830381600087803b15801561220657600080fd5b505af115801561104f573d6000803e3d6000fd5b6001600160a01b0382161561225c5760405163a0af290360e01b81526daaeb6d7670e522a718067333cd4e9063a0af2903906121ec9030908690600401613b00565b604051632210724360e11b81523060048201526daaeb6d7670e522a718067333cd4e90634420e486906024016121ec565b7f2569078dfb4b0305704d3008e7403993ae9601b85f7ae5e742de3de8f8011c4090565b60006122bb61228d565b54821015611fcf5760005b6122ce61228d565b6000848152600491909101602052604081205491508190036122fa576122f383613e58565b92506122c6565b600160e01b161592915050565b8060005260046000fd5b600061231c836115f4565b90508180156123345750336001600160a01b03821614155b15612357576123438133612044565b612357576123576367d9dca160e11b612307565b8361236061228d565b6000858152600691909101602052604080822080546001600160a01b0319166001600160a01b0394851617905551859287811692908516917f8c5be1e5ebec7d5bd14f71427d1e84f3dd0314c0f7b2291e5b200ac8c7c3b9259190a450505050565b60006123cd8261271e565b6001600160a01b0394851694909150811684146123f3576123f362a1148160e81b612307565b6000806123ff84612bf4565b91509150612424818761240f3390565b6001600160a01b039081169116811491141790565b612446576124328633612044565b61244657612446632ce44b5f60e11b612307565b801561245157600082555b61245961228d565b6001600160a01b038716600090815260059190910160205260409020805460001901905561248561228d565b6001600160a01b03861660008181526005929092016020526040909120805460010190554260a01b17600160e11b176124bc61228d565b60008681526004919091016020526040812091909155600160e11b8416900361253257600184016124eb61228d565b6000828152600491909101602052604081205490036125305761250c61228d565b548114612530578361251c61228d565b600083815260049190910160205260409020555b505b6001600160a01b0385168481887fddf252ad1be2c89b69c2b068fc378daa952ba7f163c4a11628f55a4df523b3ef600080a48060000361257c5761257c633a954ecd60e21b612307565b50505050505050565b6033546001600160a01b03163314610a2e5760405162461bcd60e51b815260206004820181905260248201527f4f776e61626c653a2063616c6c6572206973206e6f7420746865206f776e65726044820152606401610a06565b610b1b828260405180602001604052806000815250612c1c565b6000826126068584612c8e565b14949350505050565b600061261961228d565b54905060008290036126355761263563b562e8dd60e01b612307565b6001600160a01b0383164260a01b6001841460e11b171761265461228d565b6000838152600491909101602052604090205568010000000000000001820261267b61228d565b6001600160a01b03851660008181526005929092016020526040822080549093019092558190036126b5576126b5622e076360e81b612307565b818301825b808360007fddf252ad1be2c89b69c2b068fc378daa952ba7f163c4a11628f55a4df523b3ef600080a48181600101915081036126ba57816126f961228d565b55506115a3915050565b6115a383838360405180602001604052806000815250611e21565b600061272861228d565b6000838152600491909101602052604081205491508190036127b55761274c61228d565b54821061276357612763636f96cda160e11b612307565b61276b61228d565b60001990920160008181526004939093016020526040909220549050801561276357600160e01b81166000036127a057919050565b6127b0636f96cda160e11b612307565b612763565b600160e01b81166000036127c857919050565b611fcf636f96cda160e11b612307565b603380546001600160a01b038381166001600160a01b0319831681179093556040519116919082907f8be0079c531659141344cd1fd0a4f28419497f9722a3daafe3b4186f6b6457e090600090a35050565b600080516020613f5f83398151915254610100900460ff1661285e5760405162461bcd60e51b8152600401610a0690613e6f565b610b1b8282612cfa565b600054610100900460ff1661288f5760405162461bcd60e51b8152600401610a0690613a7b565b610a2e612d7d565b60006128a161228d565b54919050565b60608183106128c0576128c0631960ccad60e11b612307565b60006128ca612897565b90508083106128d7578092505b606060006128e487611636565b858710908102915081156129955781878703116129015786860391505b60405192506001820160051b8301604052600061291d88611f79565b90506000816040015161292e575080515b60005b61293a8a612a26565b92506040830151600081146129525760009250612977565b83511561295e57835192505b8b831860601b612977576001820191508a8260051b8801525b5060018a019950888a148061298b57508481145b1561293157855250505b50909695505050505050565b6070546000906001600160a01b03166129ba8385612dad565b6001600160a01b0316149392505050565b6129d6848484610b3e565b6001600160a01b0383163b15610c8d576129f284848484612dc9565b610c8d57610c8d6368d2bf6b60e11b612307565b6000612a1061228d565b6000928352600401602052506040902054151590565b6040805160808101825260008082526020820181905291810182905260608101919091526109d9612a5561228d565b60008481526004919091016020526040902054604080516080810182526001600160a01b038316815260a083901c6001600160401b03166020820152600160e01b831615159181019190915260e89190911c606082015290565b606081600003612ad65750506040805180820190915260018152600360fc1b602082015290565b8160005b8115612b005780612aea81613b7b565b9150612af99050600a83613d7a565b9150612ada565b6000816001600160401b03811115612b1a57612b1a61343d565b6040519080825280601f01601f191660200182016040528015612b44576020820181803683370190505b5090505b84156119af57612b59600183613ec3565b9150612b66600a86613eda565b612b71906030613b63565b60f81b818381518110612b8657612b86613b37565b60200101906001600160f81b031916908160001a905350612ba8600a86613d7a565b9450612b48565b60006001600160401b036040612bc361228d565b6005016000856001600160a01b03166001600160a01b0316815260200190815260200160002054901c169050919050565b6000806000612c0161228d565b60009485526006016020525050604090912080549092909150565b612c26838361260f565b6001600160a01b0383163b156115a3576000612c4061228d565b5490508281035b612c5a6000868380600101945086612dc9565b612c6e57612c6e6368d2bf6b60e11b612307565b818110612c475781612c7e61228d565b5414611f7257611f726000612307565b600081815b84518110156115ec576000858281518110612cb057612cb0613b37565b60200260200101519050808311612cd65760008381526020829052604090209250612ce7565b600081815260208490526040902092505b5080612cf281613b7b565b915050612c93565b600080516020613f5f83398151915254610100900460ff16612d2e5760405162461bcd60e51b8152600401610a0690613e6f565b81612d3761228d565b6002019080519060200190612d4d929190613279565b5080612d5761228d565b6003019080519060200190612d6d929190613279565b506000612d7861228d565b555050565b600054610100900460ff16612da45760405162461bcd60e51b8152600401610a0690613a7b565b610a2e336127d8565b6000806000612dbc8585612eab565b915091506115ec81612f19565b604051630a85bd0160e11b81526000906001600160a01b0385169063150b7a0290612dfe903390899088908890600401613eee565b6020604051808303816000875af1925050508015612e39575060408051601f3d908101601f19168201909252612e3691810190613f2b565b60015b612e8e573d808015612e67576040519150601f19603f3d011682016040523d82523d6000602084013e612e6c565b606091505b508051600003612e8657612e866368d2bf6b60e11b612307565b805181602001fd5b6001600160e01b031916630a85bd0160e11b149050949350505050565b6000808251604103612ee15760208301516040840151606085015160001a612ed5878285856130cf565b94509450505050612f12565b8251604003612f0a5760208301516040840151612eff8683836131bc565b935093505050612f12565b506000905060025b9250929050565b6000816004811115612f2d57612f2d613f48565b03612f355750565b6001816004811115612f4957612f49613f48565b03612f965760405162461bcd60e51b815260206004820152601860248201527f45434453413a20696e76616c6964207369676e617475726500000000000000006044820152606401610a06565b6002816004811115612faa57612faa613f48565b03612ff75760405162461bcd60e51b815260206004820152601f60248201527f45434453413a20696e76616c6964207369676e6174757265206c656e677468006044820152606401610a06565b600381600481111561300b5761300b613f48565b036130635760405162461bcd60e51b815260206004820152602260248201527f45434453413a20696e76616c6964207369676e6174757265202773272076616c604482015261756560f01b6064820152608401610a06565b600481600481111561307757613077613f48565b036119865760405162461bcd60e51b815260206004820152602260248201527f45434453413a20696e76616c6964207369676e6174757265202776272076616c604482015261756560f01b6064820152608401610a06565b6000807f7fffffffffffffffffffffffffffffff5d576e7357a4501ddfe92f46681b20a083111561310657506000905060036131b3565b8460ff16601b1415801561311e57508460ff16601c14155b1561312f57506000905060046131b3565b6040805160008082526020820180845289905260ff881692820192909252606081018690526080810185905260019060a0016020604051602081039080840390855afa158015613183573d6000803e3d6000fd5b5050604051601f1901519150506001600160a01b0381166131ac576000600192509250506131b3565b9150600090505b94509492505050565b6000806001600160ff1b038316816131d960ff86901c601b613b63565b90506131e7878288856130cf565b935093505050935093915050565b82805461320190613ac6565b90600052602060002090601f0160209004810192826132235760008555613269565b82601f1061323c5782800160ff19823516178555613269565b82800160010185558215613269579182015b8281111561326957823582559160200191906001019061324e565b506132759291506132ed565b5090565b82805461328590613ac6565b90600052602060002090601f0160209004810192826132a75760008555613269565b82601f106132c057805160ff1916838001178555613269565b82800160010185558215613269579182015b828111156132695782518255916020019190600101906132d2565b5b8082111561327557600081556001016132ee565b6001600160e01b03198116811461198657600080fd5b60006020828403121561332a57600080fd5b813561333581613302565b9392505050565b60005b8381101561335757818101518382015260200161333f565b83811115610c8d5750506000910152565b6000815180845261338081602086016020860161333c565b601f01601f19169290920160200192915050565b6020815260006133356020830184613368565b6000602082840312156133b957600080fd5b5035919050565b80356001600160a01b0381168114611fcf57600080fd5b600080604083850312156133ea57600080fd5b6133f3836133c0565b946020939093013593505050565b60008060006060848603121561341657600080fd5b61341f846133c0565b925061342d602085016133c0565b9150604084013590509250925092565b634e487b7160e01b600052604160045260246000fd5b604051601f8201601f191681016001600160401b038111828210171561347b5761347b61343d565b604052919050565b60006001600160401b0382111561349c5761349c61343d565b5060051b60200190565b600082601f8301126134b757600080fd5b813560206134cc6134c783613483565b613453565b82815260059290921b840181019181810190868411156134eb57600080fd5b8286015b8481101561350657803583529183019183016134ef565b509695505050505050565b6000806040838503121561352457600080fd5b82356001600160401b038082111561353b57600080fd5b818501915085601f83011261354f57600080fd5b8135602061355f6134c783613483565b82815260059290921b8401810191818101908984111561357e57600080fd5b948201945b838610156135a357613594866133c0565b82529482019490820190613583565b965050860135925050808211156135b957600080fd5b506135c6858286016134a6565b9150509250929050565b6000806000606084860312156135e557600080fd5b83356001600160401b038111156135fb57600080fd5b8401601f8101861361360c57600080fd5b8035602061361c6134c783613483565b82815260059290921b8301810191818101908984111561363b57600080fd5b938201935b8385101561365957843582529382019390820190613640565b999188013598505060409096013595945050505050565b60008083601f84011261368257600080fd5b5081356001600160401b0381111561369957600080fd5b602083019150836020828501011115612f1257600080fd5b600080602083850312156136c457600080fd5b82356001600160401b038111156136da57600080fd5b6136e685828601613670565b90969095509350505050565b6000806020838503121561370557600080fd5b82356001600160401b038082111561371c57600080fd5b818501915085601f83011261373057600080fd5b81358181111561373f57600080fd5b8660208260051b850101111561375457600080fd5b60209290920196919550909350505050565b80516001600160a01b031682526020808201516001600160401b03169083015260408082015115159083015260609081015162ffffff16910152565b6020808252825182820181905260009190848201906040850190845b81811015612995576137d1838551613766565b92840192608092909201916001016137be565b6000602082840312156137f657600080fd5b613335826133c0565b6020808252825182820181905260009190848201906040850190845b818110156129955783518352928401929184019160010161381b565b60008060006060848603121561384c57600080fd5b613855846133c0565b95602085013595506040909401359392505050565b801515811461198657600080fd5b60008060006040848603121561388d57600080fd5b83356138988161386a565b925060208401356001600160401b038111156138b357600080fd5b6138bf86828701613670565b9497909650939450505050565b600080604083850312156138df57600080fd5b6138e8836133c0565b915060208301356138f88161386a565b809150509250929050565b600082601f83011261391457600080fd5b81356001600160401b0381111561392d5761392d61343d565b613940601f8201601f1916602001613453565b81815284602083860101111561395557600080fd5b816020850160208301376000918101602001919091529392505050565b60008060006060848603121561398757600080fd5b8335925060208401356001600160401b0380821682146139a657600080fd5b909250604085013590808211156139bc57600080fd5b506139c986828701613903565b9150509250925092565b600080600080608085870312156139e957600080fd5b6139f2856133c0565b9350613a00602086016133c0565b92506040850135915060608501356001600160401b03811115613a2257600080fd5b613a2e87828801613903565b91505092959194509250565b608081016109d98284613766565b60008060408385031215613a5b57600080fd5b613a64836133c0565b9150613a72602084016133c0565b90509250929050565b6020808252602b908201527f496e697469616c697a61626c653a20636f6e7472616374206973206e6f74206960408201526a6e697469616c697a696e6760a81b606082015260800190565b600181811c90821680613ada57607f821691505b602082108103613afa57634e487b7160e01b600052602260045260246000fd5b50919050565b6001600160a01b0392831681529116602082015260400190565b600060208284031215613b2c57600080fd5b81516133358161386a565b634e487b7160e01b600052603260045260246000fd5b634e487b7160e01b600052601160045260246000fd5b60008219821115613b7657613b76613b4d565b500190565b600060018201613b8d57613b8d613b4d565b5060010190565b6020808252601190820152704e4f545f454e4f5547485f535550504c5960781b604082015260600190565b6020808252601d908201527f43414e4e4f545f4d494e545f4f4e5f5448455f53414d455f424c4f434b000000604082015260600190565b6020808252601d908201527f434f4e5452414354535f4e4f545f414c4c4f5745445f544f5f4d494e54000000604082015260600190565b6020808252601d908201527f5055424c49435f4d494e545f49535f4e4f545f5945545f414354495645000000604082015260600190565b6020808252601e908201527f50524553414c455f4d494e545f49535f4e4f545f5945545f4143544956450000604082015260600190565b6020808252601b908201527f465245455f4d494e545f49535f4e4f545f5945545f4143544956450000000000604082015260600190565b602080825260119082015270115610d1515117d352539517d312535255607a1b604082015260600190565b60208082526028908201527f455843454544494e475f4d4158494d554d5f414d4f554e545f5045525f5452416040820152672729a0a1aa24a7a760c11b606082015260800190565b6000816000190483118215151615613d5f57613d5f613b4d565b500290565b634e487b7160e01b600052601260045260246000fd5b600082613d8957613d89613d64565b500490565b8054600090600181811c9080831680613da857607f831692505b60208084108203613dc957634e487b7160e01b600052602260045260246000fd5b818015613ddd5760018114613dee57613e1b565b60ff19861689528489019650613e1b565b60008881526020902060005b86811015613e135781548b820152908501908301613dfa565b505084890196505b50505050505092915050565b6000613e338285613d8e565b8351613e4381836020880161333c565b01949350505050565b60006133358284613d8e565b600081613e6757613e67613b4d565b506000190190565b60208082526034908201527f455243373231415f5f496e697469616c697a61626c653a20636f6e7472616374604082015273206973206e6f7420696e697469616c697a696e6760601b606082015260800190565b600082821015613ed557613ed5613b4d565b500390565b600082613ee957613ee9613d64565b500690565b6001600160a01b0385811682528416602082015260408101839052608060608201819052600090613f2190830184613368565b9695505050505050565b600060208284031215613f3d57600080fd5b815161333581613302565b634e487b7160e01b600052602160045260246000fdfeee151c8401928dc223602bb187aff91b9a56c7cae5476ef1b3287b085a16c85fa26469706673582212206e6a2202fc4933e1c573253c067f479b4f5dd5625f2c681569e9caba1db12cb364736f6c634300080d0033","opcodes":"PUSH1 0x80 PUSH1 0x40 MSTORE CALLVALUE DUP1 ISZERO PUSH2 0x10 JUMPI PUSH1 0x0 DUP1 REVERT JUMPDEST POP PUSH2 0x3FB4 DUP1 PUSH2 0x20 PUSH1 0x0 CODECOPY PUSH1 0x0 RETURN INVALID PUSH1 0x80 PUSH1 0x40 MSTORE PUSH1 0x4 CALLDATASIZE LT PUSH2 0x31A JUMPI PUSH1 0x0 CALLDATALOAD PUSH1 0xE0 SHR DUP1 PUSH4 0x70C42575 GT PUSH2 0x1AB JUMPI DUP1 PUSH4 0xB3754E86 GT PUSH2 0xF7 JUMPI DUP1 PUSH4 0xD39C4DE7 GT PUSH2 0x95 JUMPI DUP1 PUSH4 0xE985E9C5 GT PUSH2 0x6F JUMPI DUP1 PUSH4 0xE985E9C5 EQ PUSH2 0x90D JUMPI DUP1 PUSH4 0xF2FDE38B EQ PUSH2 0x92D JUMPI DUP1 PUSH4 0xFE042D49 EQ PUSH2 0x94D JUMPI DUP1 PUSH4 0xFF633D55 EQ PUSH2 0x96D JUMPI PUSH1 0x0 DUP1 REVERT JUMPDEST DUP1 PUSH4 0xD39C4DE7 EQ PUSH2 0x895 JUMPI DUP1 PUSH4 0xDC33E681 EQ PUSH2 0x8C5 JUMPI DUP1 PUSH4 0xDE97536B EQ PUSH2 0x8E5 JUMPI PUSH1 0x0 DUP1 REVERT JUMPDEST DUP1 PUSH4 0xB88D4FDE GT PUSH2 0xD1 JUMPI DUP1 PUSH4 0xB88D4FDE EQ PUSH2 0x815 JUMPI DUP1 PUSH4 0xC23DC68F EQ PUSH2 0x828 JUMPI DUP1 PUSH4 0xC6275255 EQ PUSH2 0x855 JUMPI DUP1 PUSH4 0xC87B56DD EQ PUSH2 0x875 JUMPI PUSH1 0x0 DUP1 REVERT JUMPDEST DUP1 PUSH4 0xB3754E86 EQ PUSH2 0x7A3 JUMPI DUP1 PUSH4 0xB484EFF7 EQ PUSH2 0x7B6 JUMPI DUP1 PUSH4 0xB6FD509B EQ PUSH2 0x7FF JUMPI PUSH1 0x0 DUP1 REVERT JUMPDEST DUP1 PUSH4 0x95D89B41 GT PUSH2 0x164 JUMPI DUP1 PUSH4 0x9E6A1D7D GT PUSH2 0x13E JUMPI DUP1 PUSH4 0x9E6A1D7D EQ PUSH2 0x71B JUMPI DUP1 PUSH4 0xA101FF6D EQ PUSH2 0x73B JUMPI DUP1 PUSH4 0xA22CB465 EQ PUSH2 0x75B JUMPI DUP1 PUSH4 0xB08DA342 EQ PUSH2 0x77B JUMPI PUSH1 0x0 DUP1 REVERT JUMPDEST DUP1 PUSH4 0x95D89B41 EQ PUSH2 0x6C6 JUMPI DUP1 PUSH4 0x98E52F9A EQ PUSH2 0x6DB JUMPI DUP1 PUSH4 0x99A2557A EQ PUSH2 0x6FB JUMPI PUSH1 0x0 DUP1 REVERT JUMPDEST DUP1 PUSH4 0x70C42575 EQ PUSH2 0x61C JUMPI DUP1 PUSH4 0x715018A6 EQ PUSH2 0x63C JUMPI DUP1 PUSH4 0x7DFED9FE EQ PUSH2 0x651 JUMPI DUP1 PUSH4 0x8129FC1C EQ PUSH2 0x666 JUMPI DUP1 PUSH4 0x8462151C EQ PUSH2 0x67B JUMPI DUP1 PUSH4 0x8DA5CB5B EQ PUSH2 0x6A8 JUMPI PUSH1 0x0 DUP1 REVERT JUMPDEST DUP1 PUSH4 0x3549345E GT PUSH2 0x26A JUMPI DUP1 PUSH4 0x5BBB2177 GT PUSH2 0x223 JUMPI DUP1 PUSH4 0x6352211E GT PUSH2 0x1FD JUMPI DUP1 PUSH4 0x6352211E EQ PUSH2 0x59C JUMPI DUP1 PUSH4 0x64BFA546 EQ PUSH2 0x5BC JUMPI DUP1 PUSH4 0x6C19E783 EQ PUSH2 0x5DC JUMPI DUP1 PUSH4 0x70A08231 EQ PUSH2 0x5FC JUMPI PUSH1 0x0 DUP1 REVERT JUMPDEST DUP1 PUSH4 0x5BBB2177 EQ PUSH2 0x53A JUMPI DUP1 PUSH4 0x60D938DC EQ PUSH2 0x567 JUMPI DUP1 PUSH4 0x611F3F10 EQ PUSH2 0x586 JUMPI PUSH1 0x0 DUP1 REVERT JUMPDEST DUP1 PUSH4 0x3549345E EQ PUSH2 0x4AA JUMPI DUP1 PUSH4 0x3C18C3DA EQ PUSH2 0x4CA JUMPI DUP1 PUSH4 0x3CCFD60B EQ PUSH2 0x4DD JUMPI DUP1 PUSH4 0x3E07AC02 EQ PUSH2 0x4F2 JUMPI DUP1 PUSH4 0x42842E0E EQ PUSH2 0x507 JUMPI DUP1 PUSH4 0x55F804B3 EQ PUSH2 0x51A JUMPI PUSH1 0x0 DUP1 REVERT JUMPDEST DUP1 PUSH4 0x18160DDD GT PUSH2 0x2D7 JUMPI DUP1 PUSH4 0x2446548F GT PUSH2 0x2B1 JUMPI DUP1 PUSH4 0x2446548F EQ PUSH2 0x43E JUMPI DUP1 PUSH4 0x31C3C7A0 EQ PUSH2 0x45E JUMPI DUP1 PUSH4 0x32CB6B0C EQ PUSH2 0x474 JUMPI DUP1 PUSH4 0x34837AD3 EQ PUSH2 0x48A JUMPI PUSH1 0x0 DUP1 REVERT JUMPDEST DUP1 PUSH4 0x18160DDD EQ PUSH2 0x3FC JUMPI DUP1 PUSH4 0x1E84C413 EQ PUSH2 0x411 JUMPI DUP1 PUSH4 0x23B872DD EQ PUSH2 0x42B JUMPI PUSH1 0x0 DUP1 REVERT JUMPDEST DUP1 PUSH4 0x1FFC9A7 EQ PUSH2 0x31F JUMPI DUP1 PUSH4 0x2775240 EQ PUSH2 0x354 JUMPI DUP1 PUSH4 0x3EAEBEC EQ PUSH2 0x378 JUMPI DUP1 PUSH4 0x6FDDE03 EQ PUSH2 0x38F JUMPI DUP1 PUSH4 0x81812FC EQ PUSH2 0x3B1 JUMPI DUP1 PUSH4 0x95EA7B3 EQ PUSH2 0x3E9 JUMPI JUMPDEST PUSH1 0x0 DUP1 REVERT JUMPDEST CALLVALUE DUP1 ISZERO PUSH2 0x32B JUMPI PUSH1 0x0 DUP1 REVERT JUMPDEST POP PUSH2 0x33F PUSH2 0x33A CALLDATASIZE PUSH1 0x4 PUSH2 0x3318 JUMP JUMPDEST PUSH2 0x98D JUMP JUMPDEST PUSH1 0x40 MLOAD SWAP1 ISZERO ISZERO DUP2 MSTORE PUSH1 0x20 ADD JUMPDEST PUSH1 0x40 MLOAD DUP1 SWAP2 SUB SWAP1 RETURN JUMPDEST CALLVALUE DUP1 ISZERO PUSH2 0x360 JUMPI PUSH1 0x0 DUP1 REVERT JUMPDEST POP PUSH2 0x36A PUSH1 0x68 SLOAD DUP2 JUMP JUMPDEST PUSH1 0x40 MLOAD SWAP1 DUP2 MSTORE PUSH1 0x20 ADD PUSH2 0x34B JUMP JUMPDEST CALLVALUE DUP1 ISZERO PUSH2 0x384 JUMPI PUSH1 0x0 DUP1 REVERT JUMPDEST POP PUSH2 0x38D PUSH2 0x9DF JUMP JUMPDEST STOP JUMPDEST CALLVALUE DUP1 ISZERO PUSH2 0x39B JUMPI PUSH1 0x0 DUP1 REVERT JUMPDEST POP PUSH2 0x3A4 PUSH2 0xA30 JUMP JUMPDEST PUSH1 0x40 MLOAD PUSH2 0x34B SWAP2 SWAP1 PUSH2 0x3394 JUMP JUMPDEST CALLVALUE DUP1 ISZERO PUSH2 0x3BD JUMPI PUSH1 0x0 DUP1 REVERT JUMPDEST POP PUSH2 0x3D1 PUSH2 0x3CC CALLDATASIZE PUSH1 0x4 PUSH2 0x33A7 JUMP JUMPDEST PUSH2 0xACB JUMP JUMPDEST PUSH1 0x40 MLOAD PUSH1 0x1 PUSH1 0x1 PUSH1 0xA0 SHL SUB SWAP1 SWAP2 AND DUP2 MSTORE PUSH1 0x20 ADD PUSH2 0x34B JUMP JUMPDEST PUSH2 0x38D PUSH2 0x3F7 CALLDATASIZE PUSH1 0x4 PUSH2 0x33D7 JUMP JUMPDEST PUSH2 0xB0F JUMP JUMPDEST CALLVALUE DUP1 ISZERO PUSH2 0x408 JUMPI PUSH1 0x0 DUP1 REVERT JUMPDEST POP PUSH2 0x36A PUSH2 0xB1F JUMP JUMPDEST CALLVALUE DUP1 ISZERO PUSH2 0x41D JUMPI PUSH1 0x0 DUP1 REVERT JUMPDEST POP PUSH1 0x6A SLOAD PUSH2 0x33F SWAP1 PUSH1 0xFF AND DUP2 JUMP JUMPDEST PUSH2 0x38D PUSH2 0x439 CALLDATASIZE PUSH1 0x4 PUSH2 0x3401 JUMP JUMPDEST PUSH2 0xB3E JUMP JUMPDEST CALLVALUE DUP1 ISZERO PUSH2 0x44A JUMPI PUSH1 0x0 DUP1 REVERT JUMPDEST POP PUSH2 0x38D PUSH2 0x459 CALLDATASIZE PUSH1 0x4 PUSH2 0x3511 JUMP JUMPDEST PUSH2 0xC93 JUMP JUMPDEST CALLVALUE DUP1 ISZERO PUSH2 0x46A JUMPI PUSH1 0x0 DUP1 REVERT JUMPDEST POP PUSH2 0x36A PUSH1 0x66 SLOAD DUP2 JUMP JUMPDEST CALLVALUE DUP1 ISZERO PUSH2 0x480 JUMPI PUSH1 0x0 DUP1 REVERT JUMPDEST POP PUSH2 0x36A PUSH1 0x65 SLOAD DUP2 JUMP JUMPDEST CALLVALUE DUP1 ISZERO PUSH2 0x496 JUMPI PUSH1 0x0 DUP1 REVERT JUMPDEST POP PUSH2 0x38D PUSH2 0x4A5 CALLDATASIZE PUSH1 0x4 PUSH2 0x35D0 JUMP JUMPDEST PUSH2 0xDB3 JUMP JUMPDEST CALLVALUE DUP1 ISZERO PUSH2 0x4B6 JUMPI PUSH1 0x0 DUP1 REVERT JUMPDEST POP PUSH2 0x38D PUSH2 0x4C5 CALLDATASIZE PUSH1 0x4 PUSH2 0x33A7 JUMP JUMPDEST PUSH2 0x1057 JUMP JUMPDEST PUSH2 0x38D PUSH2 0x4D8 CALLDATASIZE PUSH1 0x4 PUSH2 0x35D0 JUMP JUMPDEST PUSH2 0x1064 JUMP JUMPDEST CALLVALUE DUP1 ISZERO PUSH2 0x4E9 JUMPI PUSH1 0x0 DUP1 REVERT JUMPDEST POP PUSH2 0x38D PUSH2 0x1337 JUMP JUMPDEST CALLVALUE DUP1 ISZERO PUSH2 0x4FE JUMPI PUSH1 0x0 DUP1 REVERT JUMPDEST POP PUSH2 0x38D PUSH2 0x1420 JUMP JUMPDEST PUSH2 0x38D PUSH2 0x515 CALLDATASIZE PUSH1 0x4 PUSH2 0x3401 JUMP JUMPDEST PUSH2 0x1445 JUMP JUMPDEST CALLVALUE DUP1 ISZERO PUSH2 0x526 JUMPI PUSH1 0x0 DUP1 REVERT JUMPDEST POP PUSH2 0x38D PUSH2 0x535 CALLDATASIZE PUSH1 0x4 PUSH2 0x36B1 JUMP JUMPDEST PUSH2 0x158F JUMP JUMPDEST CALLVALUE DUP1 ISZERO PUSH2 0x546 JUMPI PUSH1 0x0 DUP1 REVERT JUMPDEST POP PUSH2 0x55A PUSH2 0x555 CALLDATASIZE PUSH1 0x4 PUSH2 0x36F2 JUMP JUMPDEST PUSH2 0x15A8 JUMP JUMPDEST PUSH1 0x40 MLOAD PUSH2 0x34B SWAP2 SWAP1 PUSH2 0x37A2 JUMP JUMPDEST CALLVALUE DUP1 ISZERO PUSH2 0x573 JUMPI PUSH1 0x0 DUP1 REVERT JUMPDEST POP PUSH1 0x6A SLOAD PUSH2 0x33F SWAP1 PUSH2 0x100 SWAP1 DIV PUSH1 0xFF AND DUP2 JUMP JUMPDEST CALLVALUE DUP1 ISZERO PUSH2 0x592 JUMPI PUSH1 0x0 DUP1 REVERT JUMPDEST POP PUSH2 0x36A PUSH1 0x67 SLOAD DUP2 JUMP JUMPDEST CALLVALUE DUP1 ISZERO PUSH2 0x5A8 JUMPI PUSH1 0x0 DUP1 REVERT JUMPDEST POP PUSH2 0x3D1 PUSH2 0x5B7 CALLDATASIZE PUSH1 0x4 PUSH2 0x33A7 JUMP JUMPDEST PUSH2 0x15F4 JUMP JUMPDEST CALLVALUE DUP1 ISZERO PUSH2 0x5C8 JUMPI PUSH1 0x0 DUP1 REVERT JUMPDEST POP PUSH2 0x38D PUSH2 0x5D7 CALLDATASIZE PUSH1 0x4 PUSH2 0x33A7 JUMP JUMPDEST PUSH2 0x15FF JUMP JUMPDEST CALLVALUE DUP1 ISZERO PUSH2 0x5E8 JUMPI PUSH1 0x0 DUP1 REVERT JUMPDEST POP PUSH2 0x38D PUSH2 0x5F7 CALLDATASIZE PUSH1 0x4 PUSH2 0x37E4 JUMP JUMPDEST PUSH2 0x160C JUMP JUMPDEST CALLVALUE DUP1 ISZERO PUSH2 0x608 JUMPI PUSH1 0x0 DUP1 REVERT JUMPDEST POP PUSH2 0x36A PUSH2 0x617 CALLDATASIZE PUSH1 0x4 PUSH2 0x37E4 JUMP JUMPDEST PUSH2 0x1636 JUMP JUMPDEST CALLVALUE DUP1 ISZERO PUSH2 0x628 JUMPI PUSH1 0x0 DUP1 REVERT JUMPDEST POP PUSH2 0x38D PUSH2 0x637 CALLDATASIZE PUSH1 0x4 PUSH2 0x33A7 JUMP JUMPDEST PUSH2 0x1695 JUMP JUMPDEST CALLVALUE DUP1 ISZERO PUSH2 0x648 JUMPI PUSH1 0x0 DUP1 REVERT JUMPDEST POP PUSH2 0x38D PUSH2 0x16A2 JUMP JUMPDEST CALLVALUE DUP1 ISZERO PUSH2 0x65D JUMPI PUSH1 0x0 DUP1 REVERT JUMPDEST POP PUSH2 0x38D PUSH2 0x16B4 JUMP JUMPDEST CALLVALUE DUP1 ISZERO PUSH2 0x672 JUMPI PUSH1 0x0 DUP1 REVERT JUMPDEST POP PUSH2 0x38D PUSH2 0x16D0 JUMP JUMPDEST CALLVALUE DUP1 ISZERO PUSH2 0x687 JUMPI PUSH1 0x0 DUP1 REVERT JUMPDEST POP PUSH2 0x69B PUSH2 0x696 CALLDATASIZE PUSH1 0x4 PUSH2 0x37E4 JUMP JUMPDEST PUSH2 0x1989 JUMP JUMPDEST PUSH1 0x40 MLOAD PUSH2 0x34B SWAP2 SWAP1 PUSH2 0x37FF JUMP JUMPDEST CALLVALUE DUP1 ISZERO PUSH2 0x6B4 JUMPI PUSH1 0x0 DUP1 REVERT JUMPDEST POP PUSH1 0x33 SLOAD PUSH1 0x1 PUSH1 0x1 PUSH1 0xA0 SHL SUB AND PUSH2 0x3D1 JUMP JUMPDEST CALLVALUE DUP1 ISZERO PUSH2 0x6D2 JUMPI PUSH1 0x0 DUP1 REVERT JUMPDEST POP PUSH2 0x3A4 PUSH2 0x19B7 JUMP JUMPDEST CALLVALUE DUP1 ISZERO PUSH2 0x6E7 JUMPI PUSH1 0x0 DUP1 REVERT JUMPDEST POP PUSH2 0x38D PUSH2 0x6F6 CALLDATASIZE PUSH1 0x4 PUSH2 0x33A7 JUMP JUMPDEST PUSH2 0x19CF JUMP JUMPDEST CALLVALUE DUP1 ISZERO PUSH2 0x707 JUMPI PUSH1 0x0 DUP1 REVERT JUMPDEST POP PUSH2 0x69B PUSH2 0x716 CALLDATASIZE PUSH1 0x4 PUSH2 0x3837 JUMP JUMPDEST PUSH2 0x1A24 JUMP JUMPDEST CALLVALUE DUP1 ISZERO PUSH2 0x727 JUMPI PUSH1 0x0 DUP1 REVERT JUMPDEST POP PUSH2 0x38D PUSH2 0x736 CALLDATASIZE PUSH1 0x4 PUSH2 0x33A7 JUMP JUMPDEST PUSH2 0x1A31 JUMP JUMPDEST CALLVALUE DUP1 ISZERO PUSH2 0x747 JUMPI PUSH1 0x0 DUP1 REVERT JUMPDEST POP PUSH2 0x38D PUSH2 0x756 CALLDATASIZE PUSH1 0x4 PUSH2 0x3878 JUMP JUMPDEST PUSH2 0x1A3E JUMP JUMPDEST CALLVALUE DUP1 ISZERO PUSH2 0x767 JUMPI PUSH1 0x0 DUP1 REVERT JUMPDEST POP PUSH2 0x38D PUSH2 0x776 CALLDATASIZE PUSH1 0x4 PUSH2 0x38CC JUMP JUMPDEST PUSH2 0x1A67 JUMP JUMPDEST CALLVALUE DUP1 ISZERO PUSH2 0x787 JUMPI PUSH1 0x0 DUP1 REVERT JUMPDEST POP PUSH2 0x3D1 PUSH20 0x779E3847551FA09D15A0AE2AE86B60A912EA00AD DUP2 JUMP JUMPDEST PUSH2 0x38D PUSH2 0x7B1 CALLDATASIZE PUSH1 0x4 PUSH2 0x3972 JUMP JUMPDEST PUSH2 0x1AE4 JUMP JUMPDEST CALLVALUE DUP1 ISZERO PUSH2 0x7C2 JUMPI PUSH1 0x0 DUP1 REVERT JUMPDEST POP PUSH2 0x7EA PUSH2 0x7D1 CALLDATASIZE PUSH1 0x4 PUSH2 0x37E4 JUMP JUMPDEST PUSH1 0x6E PUSH1 0x20 MSTORE PUSH1 0x0 SWAP1 DUP2 MSTORE PUSH1 0x40 SWAP1 KECCAK256 DUP1 SLOAD PUSH1 0x1 SWAP1 SWAP2 ADD SLOAD DUP3 JUMP JUMPDEST PUSH1 0x40 DUP1 MLOAD SWAP3 DUP4 MSTORE PUSH1 0x20 DUP4 ADD SWAP2 SWAP1 SWAP2 MSTORE ADD PUSH2 0x34B JUMP JUMPDEST CALLVALUE DUP1 ISZERO PUSH2 0x80B JUMPI PUSH1 0x0 DUP1 REVERT JUMPDEST POP PUSH2 0x36A PUSH1 0x69 SLOAD DUP2 JUMP JUMPDEST PUSH2 0x38D PUSH2 0x823 CALLDATASIZE PUSH1 0x4 PUSH2 0x39D3 JUMP JUMPDEST PUSH2 0x1E21 JUMP JUMPDEST CALLVALUE DUP1 ISZERO PUSH2 0x834 JUMPI PUSH1 0x0 DUP1 REVERT JUMPDEST POP PUSH2 0x848 PUSH2 0x843 CALLDATASIZE PUSH1 0x4 PUSH2 0x33A7 JUMP JUMPDEST PUSH2 0x1F79 JUMP JUMPDEST PUSH1 0x40 MLOAD PUSH2 0x34B SWAP2 SWAP1 PUSH2 0x3A3A JUMP JUMPDEST CALLVALUE DUP1 ISZERO PUSH2 0x861 JUMPI PUSH1 0x0 DUP1 REVERT JUMPDEST POP PUSH2 0x38D PUSH2 0x870 CALLDATASIZE PUSH1 0x4 PUSH2 0x33A7 JUMP JUMPDEST PUSH2 0x1FD4 JUMP JUMPDEST CALLVALUE DUP1 ISZERO PUSH2 0x881 JUMPI PUSH1 0x0 DUP1 REVERT JUMPDEST POP PUSH2 0x3A4 PUSH2 0x890 CALLDATASIZE PUSH1 0x4 PUSH2 0x33A7 JUMP JUMPDEST PUSH2 0x1FE1 JUMP JUMPDEST CALLVALUE DUP1 ISZERO PUSH2 0x8A1 JUMPI PUSH1 0x0 DUP1 REVERT JUMPDEST POP PUSH2 0x33F PUSH2 0x8B0 CALLDATASIZE PUSH1 0x4 PUSH2 0x33A7 JUMP JUMPDEST PUSH1 0x71 PUSH1 0x20 MSTORE PUSH1 0x0 SWAP1 DUP2 MSTORE PUSH1 0x40 SWAP1 KECCAK256 SLOAD PUSH1 0xFF AND DUP2 JUMP JUMPDEST CALLVALUE DUP1 ISZERO PUSH2 0x8D1 JUMPI PUSH1 0x0 DUP1 REVERT JUMPDEST POP PUSH2 0x36A PUSH2 0x8E0 CALLDATASIZE PUSH1 0x4 PUSH2 0x37E4 JUMP JUMPDEST PUSH2 0x2039 JUMP JUMPDEST CALLVALUE DUP1 ISZERO PUSH2 0x8F1 JUMPI PUSH1 0x0 DUP1 REVERT JUMPDEST POP PUSH2 0x3D1 PUSH20 0x188A3C584F0DE9EE0EABE04316A94A41F0867C0C DUP2 JUMP JUMPDEST CALLVALUE DUP1 ISZERO PUSH2 0x919 JUMPI PUSH1 0x0 DUP1 REVERT JUMPDEST POP PUSH2 0x33F PUSH2 0x928 CALLDATASIZE PUSH1 0x4 PUSH2 0x3A48 JUMP JUMPDEST PUSH2 0x2044 JUMP JUMPDEST CALLVALUE DUP1 ISZERO PUSH2 0x939 JUMPI PUSH1 0x0 DUP1 REVERT JUMPDEST POP PUSH2 0x38D PUSH2 0x948 CALLDATASIZE PUSH1 0x4 PUSH2 0x37E4 JUMP JUMPDEST PUSH2 0x2081 JUMP JUMPDEST CALLVALUE DUP1 ISZERO PUSH2 0x959 JUMPI PUSH1 0x0 DUP1 REVERT JUMPDEST POP PUSH2 0x38D PUSH2 0x968 CALLDATASIZE PUSH1 0x4 PUSH2 0x33A7 JUMP JUMPDEST PUSH2 0x20F7 JUMP JUMPDEST CALLVALUE DUP1 ISZERO PUSH2 0x979 JUMPI PUSH1 0x0 DUP1 REVERT JUMPDEST POP PUSH2 0x38D PUSH2 0x988 CALLDATASIZE PUSH1 0x4 PUSH2 0x38CC JUMP JUMPDEST PUSH2 0x2104 JUMP JUMPDEST PUSH1 0x0 PUSH4 0x1FFC9A7 PUSH1 0xE0 SHL PUSH1 0x1 PUSH1 0x1 PUSH1 0xE0 SHL SUB NOT DUP4 AND EQ DUP1 PUSH2 0x9BE JUMPI POP PUSH4 0x80AC58CD PUSH1 0xE0 SHL PUSH1 0x1 PUSH1 0x1 PUSH1 0xE0 SHL SUB NOT DUP4 AND EQ JUMPDEST DUP1 PUSH2 0x9D9 JUMPI POP PUSH4 0x5B5E139F PUSH1 0xE0 SHL PUSH1 0x1 PUSH1 0x1 PUSH1 0xE0 SHL SUB NOT DUP4 AND EQ JUMPDEST SWAP3 SWAP2 POP POP JUMP JUMPDEST PUSH1 0x0 SLOAD PUSH2 0x100 SWAP1 DIV PUSH1 0xFF AND PUSH2 0xA0F JUMPI PUSH1 0x40 MLOAD PUSH3 0x461BCD PUSH1 0xE5 SHL DUP2 MSTORE PUSH1 0x4 ADD PUSH2 0xA06 SWAP1 PUSH2 0x3A7B JUMP JUMPDEST PUSH1 0x40 MLOAD DUP1 SWAP2 SUB SWAP1 REVERT JUMPDEST PUSH2 0xA2E PUSH20 0x3CC6CDDA760B79BAFA08DF41ECFA224F810DCEB6 PUSH1 0x1 PUSH2 0x2104 JUMP JUMPDEST JUMP JUMPDEST PUSH1 0x60 PUSH2 0xA3A PUSH2 0x228D JUMP JUMPDEST PUSH1 0x2 ADD DUP1 SLOAD PUSH2 0xA48 SWAP1 PUSH2 0x3AC6 JUMP JUMPDEST DUP1 PUSH1 0x1F ADD PUSH1 0x20 DUP1 SWAP2 DIV MUL PUSH1 0x20 ADD PUSH1 0x40 MLOAD SWAP1 DUP2 ADD PUSH1 0x40 MSTORE DUP1 SWAP3 SWAP2 SWAP1 DUP2 DUP2 MSTORE PUSH1 0x20 ADD DUP3 DUP1 SLOAD PUSH2 0xA74 SWAP1 PUSH2 0x3AC6 JUMP JUMPDEST DUP1 ISZERO PUSH2 0xAC1 JUMPI DUP1 PUSH1 0x1F LT PUSH2 0xA96 JUMPI PUSH2 0x100 DUP1 DUP4 SLOAD DIV MUL DUP4 MSTORE SWAP2 PUSH1 0x20 ADD SWAP2 PUSH2 0xAC1 JUMP JUMPDEST DUP3 ADD SWAP2 SWAP1 PUSH1 0x0 MSTORE PUSH1 0x20 PUSH1 0x0 KECCAK256 SWAP1 JUMPDEST DUP2 SLOAD DUP2 MSTORE SWAP1 PUSH1 0x1 ADD SWAP1 PUSH1 0x20 ADD DUP1 DUP4 GT PUSH2 0xAA4 JUMPI DUP3 SWAP1 SUB PUSH1 0x1F AND DUP3 ADD SWAP2 JUMPDEST POP POP POP POP POP SWAP1 POP SWAP1 JUMP JUMPDEST PUSH1 0x0 PUSH2 0xAD6 DUP3 PUSH2 0x22B1 JUMP JUMPDEST PUSH2 0xAEA JUMPI PUSH2 0xAEA PUSH4 0x33D1C039 PUSH1 0xE2 SHL PUSH2 0x2307 JUMP JUMPDEST PUSH2 0xAF2 PUSH2 0x228D JUMP JUMPDEST PUSH1 0x0 SWAP3 DUP4 MSTORE PUSH1 0x6 ADD PUSH1 0x20 MSTORE POP PUSH1 0x40 SWAP1 KECCAK256 SLOAD PUSH1 0x1 PUSH1 0x1 PUSH1 0xA0 SHL SUB AND SWAP1 JUMP JUMPDEST PUSH2 0xB1B DUP3 DUP3 PUSH1 0x1 PUSH2 0x2311 JUMP JUMPDEST POP POP JUMP JUMPDEST PUSH1 0x0 DUP1 PUSH2 0xB2A PUSH2 0x228D JUMP JUMPDEST PUSH1 0x1 ADD SLOAD PUSH2 0xB36 PUSH2 0x228D JUMP JUMPDEST SLOAD SUB SUB SWAP2 SWAP1 POP JUMP JUMPDEST DUP3 PUSH14 0xAAEB6D7670E522A718067333CD4E EXTCODESIZE ISZERO PUSH2 0xC82 JUMPI CALLER PUSH1 0x1 PUSH1 0x1 PUSH1 0xA0 SHL SUB DUP3 AND SUB PUSH2 0xB74 JUMPI PUSH2 0xB6F DUP5 DUP5 DUP5 PUSH2 0x23C2 JUMP JUMPDEST PUSH2 0xC8D JUMP JUMPDEST PUSH1 0x40 MLOAD PUSH4 0x3185C44D PUSH1 0xE2 SHL DUP2 MSTORE PUSH14 0xAAEB6D7670E522A718067333CD4E SWAP1 PUSH4 0xC6171134 SWAP1 PUSH2 0xBA7 SWAP1 ADDRESS SWAP1 CALLER SWAP1 PUSH1 0x4 ADD PUSH2 0x3B00 JUMP JUMPDEST PUSH1 0x20 PUSH1 0x40 MLOAD DUP1 DUP4 SUB DUP2 DUP7 GAS STATICCALL ISZERO DUP1 ISZERO PUSH2 0xBC4 JUMPI RETURNDATASIZE PUSH1 0x0 DUP1 RETURNDATACOPY RETURNDATASIZE PUSH1 0x0 REVERT JUMPDEST POP POP POP POP PUSH1 0x40 MLOAD RETURNDATASIZE PUSH1 0x1F NOT PUSH1 0x1F DUP3 ADD AND DUP3 ADD DUP1 PUSH1 0x40 MSTORE POP DUP2 ADD SWAP1 PUSH2 0xBE8 SWAP2 SWAP1 PUSH2 0x3B1A JUMP JUMPDEST DUP1 ISZERO PUSH2 0xC63 JUMPI POP PUSH1 0x40 MLOAD PUSH4 0x3185C44D PUSH1 0xE2 SHL DUP2 MSTORE PUSH14 0xAAEB6D7670E522A718067333CD4E SWAP1 PUSH4 0xC6171134 SWAP1 PUSH2 0xC22 SWAP1 ADDRESS SWAP1 DUP6 SWAP1 PUSH1 0x4 ADD PUSH2 0x3B00 JUMP JUMPDEST PUSH1 0x20 PUSH1 0x40 MLOAD DUP1 DUP4 SUB DUP2 DUP7 GAS STATICCALL ISZERO DUP1 ISZERO PUSH2 0xC3F JUMPI RETURNDATASIZE PUSH1 0x0 DUP1 RETURNDATACOPY RETURNDATASIZE PUSH1 0x0 REVERT JUMPDEST POP POP POP POP PUSH1 0x40 MLOAD RETURNDATASIZE PUSH1 0x1F NOT PUSH1 0x1F DUP3 ADD AND DUP3 ADD DUP1 PUSH1 0x40 MSTORE POP DUP2 ADD SWAP1 PUSH2 0xC63 SWAP2 SWAP1 PUSH2 0x3B1A JUMP JUMPDEST PUSH2 0xC82 JUMPI PUSH1 0x40 MLOAD PUSH4 0x3B79C773 PUSH1 0xE2 SHL DUP2 MSTORE CALLER PUSH1 0x4 DUP3 ADD MSTORE PUSH1 0x24 ADD PUSH2 0xA06 JUMP JUMPDEST PUSH2 0xC8D DUP5 DUP5 DUP5 PUSH2 0x23C2 JUMP JUMPDEST POP POP POP POP JUMP JUMPDEST PUSH2 0xC9B PUSH2 0x2585 JUMP JUMPDEST DUP1 MLOAD DUP3 MLOAD EQ PUSH2 0xCDF JUMPI PUSH1 0x40 MLOAD PUSH3 0x461BCD PUSH1 0xE5 SHL DUP2 MSTORE PUSH1 0x20 PUSH1 0x4 DUP3 ADD MSTORE PUSH1 0x10 PUSH1 0x24 DUP3 ADD MSTORE PUSH16 0x57524F4E475F504152414D4554455253 PUSH1 0x80 SHL PUSH1 0x44 DUP3 ADD MSTORE PUSH1 0x64 ADD PUSH2 0xA06 JUMP JUMPDEST PUSH1 0x0 DUP1 JUMPDEST DUP3 MLOAD DUP2 LT ISZERO PUSH2 0xD25 JUMPI DUP3 DUP2 DUP2 MLOAD DUP2 LT PUSH2 0xCFE JUMPI PUSH2 0xCFE PUSH2 0x3B37 JUMP JUMPDEST PUSH1 0x20 MUL PUSH1 0x20 ADD ADD MLOAD DUP3 PUSH2 0xD11 SWAP2 SWAP1 PUSH2 0x3B63 JUMP JUMPDEST SWAP2 POP DUP1 PUSH2 0xD1D DUP2 PUSH2 0x3B7B JUMP JUMPDEST SWAP2 POP POP PUSH2 0xCE3 JUMP JUMPDEST POP PUSH1 0x65 SLOAD PUSH2 0xD31 PUSH2 0xB1F JUMP JUMPDEST PUSH2 0xD3B SWAP1 DUP4 PUSH2 0x3B63 JUMP JUMPDEST GT ISZERO PUSH2 0xD59 JUMPI PUSH1 0x40 MLOAD PUSH3 0x461BCD PUSH1 0xE5 SHL DUP2 MSTORE PUSH1 0x4 ADD PUSH2 0xA06 SWAP1 PUSH2 0x3B94 JUMP JUMPDEST PUSH1 0x0 JUMPDEST DUP4 MLOAD DUP2 LT ISZERO PUSH2 0xC8D JUMPI PUSH2 0xDA1 DUP5 DUP3 DUP2 MLOAD DUP2 LT PUSH2 0xD7A JUMPI PUSH2 0xD7A PUSH2 0x3B37 JUMP JUMPDEST PUSH1 0x20 MUL PUSH1 0x20 ADD ADD MLOAD DUP5 DUP4 DUP2 MLOAD DUP2 LT PUSH2 0xD94 JUMPI PUSH2 0xD94 PUSH2 0x3B37 JUMP JUMPDEST PUSH1 0x20 MUL PUSH1 0x20 ADD ADD MLOAD PUSH2 0x25DF JUMP JUMPDEST DUP1 PUSH2 0xDAB DUP2 PUSH2 0x3B7B JUMP JUMPDEST SWAP2 POP POP PUSH2 0xD5C JUMP JUMPDEST CALLER PUSH1 0x0 SWAP1 DUP2 MSTORE PUSH1 0x6F PUSH1 0x20 MSTORE PUSH1 0x40 SWAP1 KECCAK256 SLOAD PUSH1 0x3 SWAP1 TIMESTAMP GT PUSH2 0xDE4 JUMPI PUSH1 0x40 MLOAD PUSH3 0x461BCD PUSH1 0xE5 SHL DUP2 MSTORE PUSH1 0x4 ADD PUSH2 0xA06 SWAP1 PUSH2 0x3BBF JUMP JUMPDEST ORIGIN CALLER EQ PUSH2 0xE03 JUMPI PUSH1 0x40 MLOAD PUSH3 0x461BCD PUSH1 0xE5 SHL DUP2 MSTORE PUSH1 0x4 ADD PUSH2 0xA06 SWAP1 PUSH2 0x3BF6 JUMP JUMPDEST DUP1 PUSH1 0xFF AND PUSH1 0x1 SUB PUSH2 0xE30 JUMPI PUSH1 0x6A SLOAD PUSH1 0xFF AND PUSH2 0xE30 JUMPI PUSH1 0x40 MLOAD PUSH3 0x461BCD PUSH1 0xE5 SHL DUP2 MSTORE PUSH1 0x4 ADD PUSH2 0xA06 SWAP1 PUSH2 0x3C2D JUMP JUMPDEST DUP1 PUSH1 0xFF AND PUSH1 0x2 SUB PUSH2 0xE62 JUMPI PUSH1 0x6A SLOAD PUSH2 0x100 SWAP1 DIV PUSH1 0xFF AND PUSH2 0xE62 JUMPI PUSH1 0x40 MLOAD PUSH3 0x461BCD PUSH1 0xE5 SHL DUP2 MSTORE PUSH1 0x4 ADD PUSH2 0xA06 SWAP1 PUSH2 0x3C64 JUMP JUMPDEST DUP1 PUSH1 0xFF AND PUSH1 0x3 SUB PUSH2 0xE94 JUMPI PUSH1 0x6A SLOAD PUSH2 0x100 SWAP1 DIV PUSH1 0xFF AND PUSH2 0xE94 JUMPI PUSH1 0x40 MLOAD PUSH3 0x461BCD PUSH1 0xE5 SHL DUP2 MSTORE PUSH1 0x4 ADD PUSH2 0xA06 SWAP1 PUSH2 0x3C9B JUMP JUMPDEST DUP3 PUSH1 0x65 SLOAD PUSH2 0xEA0 PUSH2 0xB1F JUMP JUMPDEST PUSH2 0xEAA SWAP1 DUP4 PUSH2 0x3B63 JUMP JUMPDEST GT ISZERO PUSH2 0xEC8 JUMPI PUSH1 0x40 MLOAD PUSH3 0x461BCD PUSH1 0xE5 SHL DUP2 MSTORE PUSH1 0x4 ADD PUSH2 0xA06 SWAP1 PUSH2 0x3B94 JUMP JUMPDEST PUSH1 0x68 SLOAD PUSH2 0xED4 CALLER PUSH2 0x2039 JUMP JUMPDEST PUSH2 0xEDE SWAP1 DUP4 PUSH2 0x3B63 JUMP JUMPDEST GT ISZERO PUSH2 0xEFC JUMPI PUSH1 0x40 MLOAD PUSH3 0x461BCD PUSH1 0xE5 SHL DUP2 MSTORE PUSH1 0x4 ADD PUSH2 0xA06 SWAP1 PUSH2 0x3CD2 JUMP JUMPDEST PUSH1 0x69 SLOAD DUP2 GT ISZERO PUSH2 0xF1E JUMPI PUSH1 0x40 MLOAD PUSH3 0x461BCD PUSH1 0xE5 SHL DUP2 MSTORE PUSH1 0x4 ADD PUSH2 0xA06 SWAP1 PUSH2 0x3CFD JUMP JUMPDEST PUSH1 0x40 MLOAD PUSH1 0x1 PUSH1 0x1 PUSH1 0x60 SHL SUB NOT CALLER PUSH1 0x60 SHL AND PUSH1 0x20 DUP3 ADD MSTORE PUSH1 0x34 DUP2 ADD DUP5 SWAP1 MSTORE PUSH1 0x0 SWAP1 PUSH1 0x54 ADD PUSH1 0x40 MLOAD PUSH1 0x20 DUP2 DUP4 SUB SUB DUP2 MSTORE SWAP1 PUSH1 0x40 MSTORE DUP1 MLOAD SWAP1 PUSH1 0x20 ADD KECCAK256 SWAP1 POP PUSH2 0xF66 DUP7 PUSH1 0x6D SLOAD DUP4 PUSH2 0x25F9 JUMP JUMPDEST PUSH2 0xFA2 JUMPI PUSH1 0x40 MLOAD PUSH3 0x461BCD PUSH1 0xE5 SHL DUP2 MSTORE PUSH1 0x20 PUSH1 0x4 DUP3 ADD MSTORE PUSH1 0xD PUSH1 0x24 DUP3 ADD MSTORE PUSH13 0x141493D3D197D2539590531251 PUSH1 0x9A SHL PUSH1 0x44 DUP3 ADD MSTORE PUSH1 0x64 ADD PUSH2 0xA06 JUMP JUMPDEST CALLER PUSH1 0x0 SWAP1 DUP2 MSTORE PUSH1 0x6E PUSH1 0x20 MSTORE PUSH1 0x40 SWAP1 KECCAK256 PUSH1 0x1 ADD SLOAD DUP5 SWAP1 PUSH2 0xFC2 SWAP1 DUP8 SWAP1 PUSH2 0x3B63 JUMP JUMPDEST GT ISZERO PUSH2 0x1010 JUMPI PUSH1 0x40 MLOAD PUSH3 0x461BCD PUSH1 0xE5 SHL DUP2 MSTORE PUSH1 0x20 PUSH1 0x4 DUP3 ADD MSTORE PUSH1 0x1B PUSH1 0x24 DUP3 ADD MSTORE PUSH32 0x4558434545445F414C4C4F43415445445F4D494E545F4C494D49540000000000 PUSH1 0x44 DUP3 ADD MSTORE PUSH1 0x64 ADD PUSH2 0xA06 JUMP JUMPDEST CALLER PUSH1 0x0 SWAP1 DUP2 MSTORE PUSH1 0x6F PUSH1 0x20 SWAP1 DUP2 MSTORE PUSH1 0x40 DUP1 DUP4 KECCAK256 TIMESTAMP SWAP1 SSTORE PUSH1 0x6E SWAP1 SWAP2 MSTORE DUP2 KECCAK256 PUSH1 0x1 ADD DUP1 SLOAD DUP8 SWAP3 SWAP1 PUSH2 0x103F SWAP1 DUP5 SWAP1 PUSH2 0x3B63 JUMP JUMPDEST SWAP1 SWAP2 SSTORE POP PUSH2 0x104F SWAP1 POP CALLER DUP7 PUSH2 0x260F JUMP JUMPDEST POP POP POP POP POP POP JUMP JUMPDEST PUSH2 0x105F PUSH2 0x2585 JUMP JUMPDEST PUSH1 0x66 SSTORE JUMP JUMPDEST CALLER PUSH1 0x0 SWAP1 DUP2 MSTORE PUSH1 0x6F PUSH1 0x20 MSTORE PUSH1 0x40 SWAP1 KECCAK256 SLOAD PUSH1 0x2 SWAP1 TIMESTAMP GT PUSH2 0x1095 JUMPI PUSH1 0x40 MLOAD PUSH3 0x461BCD PUSH1 0xE5 SHL DUP2 MSTORE PUSH1 0x4 ADD PUSH2 0xA06 SWAP1 PUSH2 0x3BBF JUMP JUMPDEST ORIGIN CALLER EQ PUSH2 0x10B4 JUMPI PUSH1 0x40 MLOAD PUSH3 0x461BCD PUSH1 0xE5 SHL DUP2 MSTORE PUSH1 0x4 ADD PUSH2 0xA06 SWAP1 PUSH2 0x3BF6 JUMP JUMPDEST DUP1 PUSH1 0xFF AND PUSH1 0x1 SUB PUSH2 0x10E1 JUMPI PUSH1 0x6A SLOAD PUSH1 0xFF AND PUSH2 0x10E1 JUMPI PUSH1 0x40 MLOAD PUSH3 0x461BCD PUSH1 0xE5 SHL DUP2 MSTORE PUSH1 0x4 ADD PUSH2 0xA06 SWAP1 PUSH2 0x3C2D JUMP JUMPDEST DUP1 PUSH1 0xFF AND PUSH1 0x2 SUB PUSH2 0x1113 JUMPI PUSH1 0x6A SLOAD PUSH2 0x100 SWAP1 DIV PUSH1 0xFF AND PUSH2 0x1113 JUMPI PUSH1 0x40 MLOAD PUSH3 0x461BCD PUSH1 0xE5 SHL DUP2 MSTORE PUSH1 0x4 ADD PUSH2 0xA06 SWAP1 PUSH2 0x3C64 JUMP JUMPDEST DUP1 PUSH1 0xFF AND PUSH1 0x3 SUB PUSH2 0x1145 JUMPI PUSH1 0x6A SLOAD PUSH2 0x100 SWAP1 DIV PUSH1 0xFF AND PUSH2 0x1145 JUMPI PUSH1 0x40 MLOAD PUSH3 0x461BCD PUSH1 0xE5 SHL DUP2 MSTORE PUSH1 0x4 ADD PUSH2 0xA06 SWAP1 PUSH2 0x3C9B JUMP JUMPDEST DUP3 PUSH1 0x65 SLOAD PUSH2 0x1151 PUSH2 0xB1F JUMP JUMPDEST PUSH2 0x115B SWAP1 DUP4 PUSH2 0x3B63 JUMP JUMPDEST GT ISZERO PUSH2 0x1179 JUMPI PUSH1 0x40 MLOAD PUSH3 0x461BCD PUSH1 0xE5 SHL DUP2 MSTORE PUSH1 0x4 ADD PUSH2 0xA06 SWAP1 PUSH2 0x3B94 JUMP JUMPDEST PUSH1 0x68 SLOAD PUSH2 0x1185 CALLER PUSH2 0x2039 JUMP JUMPDEST PUSH2 0x118F SWAP1 DUP4 PUSH2 0x3B63 JUMP JUMPDEST GT ISZERO PUSH2 0x11AD JUMPI PUSH1 0x40 MLOAD PUSH3 0x461BCD PUSH1 0xE5 SHL DUP2 MSTORE PUSH1 0x4 ADD PUSH2 0xA06 SWAP1 PUSH2 0x3CD2 JUMP JUMPDEST PUSH1 0x69 SLOAD DUP2 GT ISZERO PUSH2 0x11CF JUMPI PUSH1 0x40 MLOAD PUSH3 0x461BCD PUSH1 0xE5 SHL DUP2 MSTORE PUSH1 0x4 ADD PUSH2 0xA06 SWAP1 PUSH2 0x3CFD JUMP JUMPDEST PUSH1 0x40 MLOAD PUSH1 0x1 PUSH1 0x1 PUSH1 0x60 SHL SUB NOT CALLER PUSH1 0x60 SHL AND PUSH1 0x20 DUP3 ADD MSTORE PUSH1 0x34 DUP2 ADD DUP5 SWAP1 MSTORE PUSH1 0x0 SWAP1 PUSH1 0x54 ADD PUSH1 0x40 MLOAD PUSH1 0x20 DUP2 DUP4 SUB SUB DUP2 MSTORE SWAP1 PUSH1 0x40 MSTORE DUP1 MLOAD SWAP1 PUSH1 0x20 ADD KECCAK256 SWAP1 POP PUSH2 0x1217 DUP7 PUSH1 0x6C SLOAD DUP4 PUSH2 0x25F9 JUMP JUMPDEST PUSH2 0x1253 JUMPI PUSH1 0x40 MLOAD PUSH3 0x461BCD PUSH1 0xE5 SHL DUP2 MSTORE PUSH1 0x20 PUSH1 0x4 DUP3 ADD MSTORE PUSH1 0xD PUSH1 0x24 DUP3 ADD MSTORE PUSH13 0x141493D3D197D2539590531251 PUSH1 0x9A SHL PUSH1 0x44 DUP3 ADD MSTORE PUSH1 0x64 ADD PUSH2 0xA06 JUMP JUMPDEST CALLER PUSH1 0x0 SWAP1 DUP2 MSTORE PUSH1 0x6E PUSH1 0x20 MSTORE PUSH1 0x40 SWAP1 KECCAK256 SLOAD DUP5 SWAP1 PUSH2 0x1270 SWAP1 DUP8 SWAP1 PUSH2 0x3B63 JUMP JUMPDEST GT ISZERO PUSH2 0x12BE JUMPI PUSH1 0x40 MLOAD PUSH3 0x461BCD PUSH1 0xE5 SHL DUP2 MSTORE PUSH1 0x20 PUSH1 0x4 DUP3 ADD MSTORE PUSH1 0x1B PUSH1 0x24 DUP3 ADD MSTORE PUSH32 0x4558434545445F414C4C4F43415445445F4D494E545F4C494D49540000000000 PUSH1 0x44 DUP3 ADD MSTORE PUSH1 0x64 ADD PUSH2 0xA06 JUMP JUMPDEST DUP5 PUSH1 0x66 SLOAD PUSH2 0x12CC SWAP2 SWAP1 PUSH2 0x3D45 JUMP JUMPDEST CALLVALUE EQ PUSH2 0x130B JUMPI PUSH1 0x40 MLOAD PUSH3 0x461BCD PUSH1 0xE5 SHL DUP2 MSTORE PUSH1 0x20 PUSH1 0x4 DUP3 ADD MSTORE PUSH1 0xE PUSH1 0x24 DUP3 ADD MSTORE PUSH14 0x1253959053125117D05353D55395 PUSH1 0x92 SHL PUSH1 0x44 DUP3 ADD MSTORE PUSH1 0x64 ADD PUSH2 0xA06 JUMP JUMPDEST CALLER PUSH1 0x0 SWAP1 DUP2 MSTORE PUSH1 0x6F PUSH1 0x20 SWAP1 DUP2 MSTORE PUSH1 0x40 DUP1 DUP4 KECCAK256 TIMESTAMP SWAP1 SSTORE PUSH1 0x6E SWAP1 SWAP2 MSTORE DUP2 KECCAK256 DUP1 SLOAD DUP8 SWAP3 SWAP1 PUSH2 0x103F SWAP1 DUP5 SWAP1 PUSH2 0x3B63 JUMP JUMPDEST PUSH2 0x133F PUSH2 0x2585 JUMP JUMPDEST SELFBALANCE DUP1 PUSH2 0x1386 JUMPI PUSH1 0x40 MLOAD PUSH3 0x461BCD PUSH1 0xE5 SHL DUP2 MSTORE PUSH1 0x20 PUSH1 0x4 DUP3 ADD MSTORE PUSH1 0x16 PUSH1 0x24 DUP3 ADD MSTORE PUSH22 0x4E6F2062616C616E636520746F207769746864726177 PUSH1 0x50 SHL PUSH1 0x44 DUP3 ADD MSTORE PUSH1 0x64 ADD PUSH2 0xA06 JUMP JUMPDEST PUSH20 0x188A3C584F0DE9EE0EABE04316A94A41F0867C0C PUSH2 0x8FC PUSH2 0x2710 PUSH2 0x13AD DUP5 PUSH2 0x2BC PUSH2 0x3D45 JUMP JUMPDEST PUSH2 0x13B7 SWAP2 SWAP1 PUSH2 0x3D7A JUMP JUMPDEST PUSH1 0x40 MLOAD DUP2 ISZERO SWAP1 SWAP3 MUL SWAP2 PUSH1 0x0 DUP2 DUP2 DUP2 DUP6 DUP9 DUP9 CALL SWAP4 POP POP POP POP ISZERO DUP1 ISZERO PUSH2 0x13DF JUMPI RETURNDATASIZE PUSH1 0x0 DUP1 RETURNDATACOPY RETURNDATASIZE PUSH1 0x0 REVERT JUMPDEST POP PUSH1 0x40 MLOAD PUSH20 0x779E3847551FA09D15A0AE2AE86B60A912EA00AD SWAP1 SELFBALANCE DUP1 ISZERO PUSH2 0x8FC MUL SWAP2 PUSH1 0x0 DUP2 DUP2 DUP2 DUP6 DUP9 DUP9 CALL SWAP4 POP POP POP POP ISZERO DUP1 ISZERO PUSH2 0xB1B JUMPI RETURNDATASIZE PUSH1 0x0 DUP1 RETURNDATACOPY RETURNDATASIZE PUSH1 0x0 REVERT JUMPDEST PUSH2 0x1428 PUSH2 0x2585 JUMP JUMPDEST PUSH1 0x6A DUP1 SLOAD PUSH2 0xFF00 NOT DUP2 AND PUSH2 0x100 SWAP2 DUP3 SWAP1 DIV PUSH1 0xFF AND ISZERO SWAP1 SWAP2 MUL OR SWAP1 SSTORE JUMP JUMPDEST DUP3 PUSH14 0xAAEB6D7670E522A718067333CD4E EXTCODESIZE ISZERO PUSH2 0x1584 JUMPI CALLER PUSH1 0x1 PUSH1 0x1 PUSH1 0xA0 SHL SUB DUP3 AND SUB PUSH2 0x1476 JUMPI PUSH2 0xB6F DUP5 DUP5 DUP5 PUSH2 0x2703 JUMP JUMPDEST PUSH1 0x40 MLOAD PUSH4 0x3185C44D PUSH1 0xE2 SHL DUP2 MSTORE PUSH14 0xAAEB6D7670E522A718067333CD4E SWAP1 PUSH4 0xC6171134 SWAP1 PUSH2 0x14A9 SWAP1 ADDRESS SWAP1 CALLER SWAP1 PUSH1 0x4 ADD PUSH2 0x3B00 JUMP JUMPDEST PUSH1 0x20 PUSH1 0x40 MLOAD DUP1 DUP4 SUB DUP2 DUP7 GAS STATICCALL ISZERO DUP1 ISZERO PUSH2 0x14C6 JUMPI RETURNDATASIZE PUSH1 0x0 DUP1 RETURNDATACOPY RETURNDATASIZE PUSH1 0x0 REVERT JUMPDEST POP POP POP POP PUSH1 0x40 MLOAD RETURNDATASIZE PUSH1 0x1F NOT PUSH1 0x1F DUP3 ADD AND DUP3 ADD DUP1 PUSH1 0x40 MSTORE POP DUP2 ADD SWAP1 PUSH2 0x14EA SWAP2 SWAP1 PUSH2 0x3B1A JUMP JUMPDEST DUP1 ISZERO PUSH2 0x1565 JUMPI POP PUSH1 0x40 MLOAD PUSH4 0x3185C44D PUSH1 0xE2 SHL DUP2 MSTORE PUSH14 0xAAEB6D7670E522A718067333CD4E SWAP1 PUSH4 0xC6171134 SWAP1 PUSH2 0x1524 SWAP1 ADDRESS SWAP1 DUP6 SWAP1 PUSH1 0x4 ADD PUSH2 0x3B00 JUMP JUMPDEST PUSH1 0x20 PUSH1 0x40 MLOAD DUP1 DUP4 SUB DUP2 DUP7 GAS STATICCALL ISZERO DUP1 ISZERO PUSH2 0x1541 JUMPI RETURNDATASIZE PUSH1 0x0 DUP1 RETURNDATACOPY RETURNDATASIZE PUSH1 0x0 REVERT JUMPDEST POP POP POP POP PUSH1 0x40 MLOAD RETURNDATASIZE PUSH1 0x1F NOT PUSH1 0x1F DUP3 ADD AND DUP3 ADD DUP1 PUSH1 0x40 MSTORE POP DUP2 ADD SWAP1 PUSH2 0x1565 SWAP2 SWAP1 PUSH2 0x3B1A JUMP JUMPDEST PUSH2 0x1584 JUMPI PUSH1 0x40 MLOAD PUSH4 0x3B79C773 PUSH1 0xE2 SHL DUP2 MSTORE CALLER PUSH1 0x4 DUP3 ADD MSTORE PUSH1 0x24 ADD PUSH2 0xA06 JUMP JUMPDEST PUSH2 0xC8D DUP5 DUP5 DUP5 PUSH2 0x2703 JUMP JUMPDEST PUSH2 0x1597 PUSH2 0x2585 JUMP JUMPDEST PUSH2 0x15A3 PUSH1 0x6B DUP4 DUP4 PUSH2 0x31F5 JUMP JUMPDEST POP POP POP JUMP JUMPDEST PUSH1 0x40 DUP1 MLOAD DUP3 DUP2 MSTORE PUSH1 0x5 DUP4 SWAP1 SHL DUP1 DUP3 ADD PUSH1 0x20 ADD SWAP1 SWAP3 MSTORE PUSH1 0x60 SWAP2 JUMPDEST DUP1 ISZERO PUSH2 0x15EC JUMPI PUSH1 0x1F NOT DUP1 DUP3 ADD SWAP2 DUP7 ADD ADD CALLDATALOAD PUSH1 0x0 PUSH2 0x15DD DUP3 PUSH2 0x1F79 JUMP JUMPDEST DUP5 DUP5 ADD PUSH1 0x20 ADD MSTORE POP PUSH2 0x15C1 SWAP1 POP JUMP JUMPDEST POP SWAP4 SWAP3 POP POP POP JUMP JUMPDEST PUSH1 0x0 PUSH2 0x9D9 DUP3 PUSH2 0x271E JUMP JUMPDEST PUSH2 0x1607 PUSH2 0x2585 JUMP JUMPDEST PUSH1 0x69 SSTORE JUMP JUMPDEST PUSH2 0x1614 PUSH2 0x2585 JUMP JUMPDEST PUSH1 0x70 DUP1 SLOAD PUSH1 0x1 PUSH1 0x1 PUSH1 0xA0 SHL SUB NOT AND PUSH1 0x1 PUSH1 0x1 PUSH1 0xA0 SHL SUB SWAP3 SWAP1 SWAP3 AND SWAP2 SWAP1 SWAP2 OR SWAP1 SSTORE JUMP JUMPDEST PUSH1 0x0 PUSH1 0x1 PUSH1 0x1 PUSH1 0xA0 SHL SUB DUP3 AND PUSH2 0x1656 JUMPI PUSH2 0x1656 PUSH4 0x23D3AD81 PUSH1 0xE2 SHL PUSH2 0x2307 JUMP JUMPDEST PUSH1 0x1 PUSH1 0x1 PUSH1 0x40 SHL SUB PUSH2 0x1666 PUSH2 0x228D JUMP JUMPDEST PUSH1 0x5 ADD PUSH1 0x0 DUP5 PUSH1 0x1 PUSH1 0x1 PUSH1 0xA0 SHL SUB AND PUSH1 0x1 PUSH1 0x1 PUSH1 0xA0 SHL SUB AND DUP2 MSTORE PUSH1 0x20 ADD SWAP1 DUP2 MSTORE PUSH1 0x20 ADD PUSH1 0x0 KECCAK256 SLOAD AND SWAP1 POP SWAP2 SWAP1 POP JUMP JUMPDEST PUSH2 0x169D PUSH2 0x2585 JUMP JUMPDEST PUSH1 0x6D SSTORE JUMP JUMPDEST PUSH2 0x16AA PUSH2 0x2585 JUMP JUMPDEST PUSH2 0xA2E PUSH1 0x0 PUSH2 0x27D8 JUMP JUMPDEST PUSH2 0x16BC PUSH2 0x2585 JUMP JUMPDEST PUSH1 0x6A DUP1 SLOAD PUSH1 0xFF NOT DUP2 AND PUSH1 0xFF SWAP1 SWAP2 AND ISZERO OR SWAP1 SSTORE JUMP JUMPDEST PUSH1 0x0 DUP1 MLOAD PUSH1 0x20 PUSH2 0x3F5F DUP4 CODECOPY DUP2 MLOAD SWAP2 MSTORE SLOAD PUSH2 0x100 SWAP1 DIV PUSH1 0xFF AND PUSH2 0x1705 JUMPI PUSH1 0x0 DUP1 MLOAD PUSH1 0x20 PUSH2 0x3F5F DUP4 CODECOPY DUP2 MLOAD SWAP2 MSTORE SLOAD PUSH1 0xFF AND ISZERO PUSH2 0x1709 JUMP JUMPDEST ADDRESS EXTCODESIZE ISZERO JUMPDEST PUSH2 0x177B JUMPI PUSH1 0x40 MLOAD PUSH3 0x461BCD PUSH1 0xE5 SHL DUP2 MSTORE PUSH1 0x20 PUSH1 0x4 DUP3 ADD MSTORE PUSH1 0x37 PUSH1 0x24 DUP3 ADD MSTORE PUSH32 0x455243373231415F5F496E697469616C697A61626C653A20636F6E7472616374 PUSH1 0x44 DUP3 ADD MSTORE PUSH32 0x20697320616C726561647920696E697469616C697A6564000000000000000000 PUSH1 0x64 DUP3 ADD MSTORE PUSH1 0x84 ADD PUSH2 0xA06 JUMP JUMPDEST PUSH1 0x0 DUP1 MLOAD PUSH1 0x20 PUSH2 0x3F5F DUP4 CODECOPY DUP2 MLOAD SWAP2 MSTORE SLOAD PUSH2 0x100 SWAP1 DIV PUSH1 0xFF AND ISZERO DUP1 ISZERO PUSH2 0x17B7 JUMPI PUSH1 0x0 DUP1 MLOAD PUSH1 0x20 PUSH2 0x3F5F DUP4 CODECOPY DUP2 MLOAD SWAP2 MSTORE DUP1 SLOAD PUSH2 0xFFFF NOT AND PUSH2 0x101 OR SWAP1 SSTORE JUMPDEST PUSH1 0x0 SLOAD PUSH2 0x100 SWAP1 DIV PUSH1 0xFF AND ISZERO DUP1 DUP1 ISZERO PUSH2 0x17D7 JUMPI POP PUSH1 0x0 SLOAD PUSH1 0x1 PUSH1 0xFF SWAP1 SWAP2 AND LT JUMPDEST DUP1 PUSH2 0x17F1 JUMPI POP ADDRESS EXTCODESIZE ISZERO DUP1 ISZERO PUSH2 0x17F1 JUMPI POP PUSH1 0x0 SLOAD PUSH1 0xFF AND PUSH1 0x1 EQ JUMPDEST PUSH2 0x1854 JUMPI PUSH1 0x40 MLOAD PUSH3 0x461BCD PUSH1 0xE5 SHL DUP2 MSTORE PUSH1 0x20 PUSH1 0x4 DUP3 ADD MSTORE PUSH1 0x2E PUSH1 0x24 DUP3 ADD MSTORE PUSH32 0x496E697469616C697A61626C653A20636F6E747261637420697320616C726561 PUSH1 0x44 DUP3 ADD MSTORE PUSH14 0x191E481A5B9A5D1A585B1A5E9959 PUSH1 0x92 SHL PUSH1 0x64 DUP3 ADD MSTORE PUSH1 0x84 ADD PUSH2 0xA06 JUMP JUMPDEST PUSH1 0x0 DUP1 SLOAD PUSH1 0xFF NOT AND PUSH1 0x1 OR SWAP1 SSTORE DUP1 ISZERO PUSH2 0x1877 JUMPI PUSH1 0x0 DUP1 SLOAD PUSH2 0xFF00 NOT AND PUSH2 0x100 OR SWAP1 SSTORE JUMPDEST PUSH2 0x18C5 PUSH1 0x40 MLOAD DUP1 PUSH1 0x40 ADD PUSH1 0x40 MSTORE DUP1 PUSH1 0xA DUP2 MSTORE PUSH1 0x20 ADD PUSH10 0x44524956525350415353 PUSH1 0xB0 SHL DUP2 MSTORE POP PUSH1 0x40 MLOAD DUP1 PUSH1 0x40 ADD PUSH1 0x40 MSTORE DUP1 PUSH1 0xA DUP2 MSTORE PUSH1 0x20 ADD PUSH10 0x44524956525350415353 PUSH1 0xB0 SHL DUP2 MSTORE POP PUSH2 0x282A JUMP JUMPDEST PUSH2 0x18CD PUSH2 0x2868 JUMP JUMPDEST PUSH2 0x18D5 PUSH2 0x9DF JUMP JUMPDEST PUSH2 0x22B8 PUSH1 0x65 SSTORE PUSH7 0x1550F7DCA70000 PUSH1 0x66 DUP2 SWAP1 SSTORE PUSH1 0x67 SSTORE PUSH1 0x1 PUSH1 0x68 DUP2 SWAP1 SSTORE PUSH1 0x69 SSTORE PUSH1 0x6A DUP1 SLOAD PUSH3 0xFFFFFF NOT AND SWAP1 SSTORE PUSH1 0x40 DUP1 MLOAD PUSH1 0x20 DUP2 ADD SWAP2 DUP3 SWAP1 MSTORE PUSH1 0x0 SWAP1 DUP2 SWAP1 MSTORE PUSH2 0x191F SWAP2 PUSH1 0x6B SWAP2 PUSH2 0x3279 JUMP JUMPDEST POP DUP1 ISZERO PUSH2 0x1966 JUMPI PUSH1 0x0 DUP1 SLOAD PUSH2 0xFF00 NOT AND SWAP1 SSTORE PUSH1 0x40 MLOAD PUSH1 0x1 DUP2 MSTORE PUSH32 0x7F26B83FF96E1F2B6A682F133852F6798A09C465DA95921460CEFB3847402498 SWAP1 PUSH1 0x20 ADD PUSH1 0x40 MLOAD DUP1 SWAP2 SUB SWAP1 LOG1 JUMPDEST POP DUP1 ISZERO PUSH2 0x1986 JUMPI PUSH1 0x0 DUP1 MLOAD PUSH1 0x20 PUSH2 0x3F5F DUP4 CODECOPY DUP2 MLOAD SWAP2 MSTORE DUP1 SLOAD PUSH2 0xFF00 NOT AND SWAP1 SSTORE JUMPDEST POP JUMP JUMPDEST PUSH1 0x60 PUSH1 0x0 DUP1 PUSH2 0x1996 PUSH2 0x2897 JUMP JUMPDEST SWAP1 POP PUSH1 0x60 DUP2 DUP4 EQ PUSH2 0x19AF JUMPI PUSH2 0x19AC DUP6 DUP5 DUP5 PUSH2 0x28A7 JUMP JUMPDEST SWAP1 POP JUMPDEST SWAP5 SWAP4 POP POP POP POP JUMP JUMPDEST PUSH1 0x60 PUSH2 0x19C1 PUSH2 0x228D JUMP JUMPDEST PUSH1 0x3 ADD DUP1 SLOAD PUSH2 0xA48 SWAP1 PUSH2 0x3AC6 JUMP JUMPDEST PUSH2 0x19D7 PUSH2 0x2585 JUMP JUMPDEST PUSH1 0x65 SLOAD DUP2 LT PUSH2 0x1A1F JUMPI PUSH1 0x40 MLOAD PUSH3 0x461BCD PUSH1 0xE5 SHL DUP2 MSTORE PUSH1 0x20 PUSH1 0x4 DUP3 ADD MSTORE PUSH1 0x14 PUSH1 0x24 DUP3 ADD MSTORE PUSH20 0x43414E545F494E4352454153455F535550504C59 PUSH1 0x60 SHL PUSH1 0x44 DUP3 ADD MSTORE PUSH1 0x64 ADD PUSH2 0xA06 JUMP JUMPDEST PUSH1 0x65 SSTORE JUMP JUMPDEST PUSH1 0x60 PUSH2 0x19AF DUP5 DUP5 DUP5 PUSH2 0x28A7 JUMP JUMPDEST PUSH2 0x1A39 PUSH2 0x2585 JUMP JUMPDEST PUSH1 0x68 SSTORE JUMP JUMPDEST PUSH2 0x1A46 PUSH2 0x2585 JUMP JUMPDEST PUSH1 0x6A DUP1 SLOAD PUSH3 0xFF0000 NOT AND PUSH3 0x10000 DUP6 ISZERO ISZERO MUL OR SWAP1 SSTORE PUSH2 0xC8D PUSH1 0x6B DUP4 DUP4 PUSH2 0x31F5 JUMP JUMPDEST DUP1 PUSH2 0x1A70 PUSH2 0x228D JUMP JUMPDEST CALLER PUSH1 0x0 DUP2 DUP2 MSTORE PUSH1 0x7 SWAP3 SWAP1 SWAP3 ADD PUSH1 0x20 SWAP1 DUP2 MSTORE PUSH1 0x40 DUP1 DUP5 KECCAK256 PUSH1 0x1 PUSH1 0x1 PUSH1 0xA0 SHL SUB DUP9 AND DUP1 DUP7 MSTORE SWAP1 DUP4 MSTORE SWAP4 DUP2 SWAP1 KECCAK256 DUP1 SLOAD PUSH1 0xFF NOT AND SWAP6 ISZERO ISZERO SWAP6 SWAP1 SWAP6 OR SWAP1 SWAP5 SSTORE SWAP3 MLOAD DUP5 ISZERO ISZERO DUP2 MSTORE SWAP2 SWAP3 SWAP1 SWAP2 PUSH32 0x17307EAB39AB6107E8899845AD3D59BD9653F200F220920489CA2B5937696C31 SWAP2 ADD PUSH1 0x40 MLOAD DUP1 SWAP2 SUB SWAP1 LOG3 POP POP JUMP JUMPDEST CALLER PUSH1 0x0 SWAP1 DUP2 MSTORE PUSH1 0x6F PUSH1 0x20 MSTORE PUSH1 0x40 SWAP1 KECCAK256 SLOAD PUSH1 0x1 SWAP1 TIMESTAMP GT PUSH2 0x1B15 JUMPI PUSH1 0x40 MLOAD PUSH3 0x461BCD PUSH1 0xE5 SHL DUP2 MSTORE PUSH1 0x4 ADD PUSH2 0xA06 SWAP1 PUSH2 0x3BBF JUMP JUMPDEST ORIGIN CALLER EQ PUSH2 0x1B34 JUMPI PUSH1 0x40 MLOAD PUSH3 0x461BCD PUSH1 0xE5 SHL DUP2 MSTORE PUSH1 0x4 ADD PUSH2 0xA06 SWAP1 PUSH2 0x3BF6 JUMP JUMPDEST DUP1 PUSH1 0xFF AND PUSH1 0x1 SUB PUSH2 0x1B61 JUMPI PUSH1 0x6A SLOAD PUSH1 0xFF AND PUSH2 0x1B61 JUMPI PUSH1 0x40 MLOAD PUSH3 0x461BCD PUSH1 0xE5 SHL DUP2 MSTORE PUSH1 0x4 ADD PUSH2 0xA06 SWAP1 PUSH2 0x3C2D JUMP JUMPDEST DUP1 PUSH1 0xFF AND PUSH1 0x2 SUB PUSH2 0x1B93 JUMPI PUSH1 0x6A SLOAD PUSH2 0x100 SWAP1 DIV PUSH1 0xFF AND PUSH2 0x1B93 JUMPI PUSH1 0x40 MLOAD PUSH3 0x461BCD PUSH1 0xE5 SHL DUP2 MSTORE PUSH1 0x4 ADD PUSH2 0xA06 SWAP1 PUSH2 0x3C64 JUMP JUMPDEST DUP1 PUSH1 0xFF AND PUSH1 0x3 SUB PUSH2 0x1BC5 JUMPI PUSH1 0x6A SLOAD PUSH2 0x100 SWAP1 DIV PUSH1 0xFF AND PUSH2 0x1BC5 JUMPI PUSH1 0x40 MLOAD PUSH3 0x461BCD PUSH1 0xE5 SHL DUP2 MSTORE PUSH1 0x4 ADD PUSH2 0xA06 SWAP1 PUSH2 0x3C9B JUMP JUMPDEST DUP4 PUSH1 0x65 SLOAD PUSH2 0x1BD1 PUSH2 0xB1F JUMP JUMPDEST PUSH2 0x1BDB SWAP1 DUP4 PUSH2 0x3B63 JUMP JUMPDEST GT ISZERO PUSH2 0x1BF9 JUMPI PUSH1 0x40 MLOAD PUSH3 0x461BCD PUSH1 0xE5 SHL DUP2 MSTORE PUSH1 0x4 ADD PUSH2 0xA06 SWAP1 PUSH2 0x3B94 JUMP JUMPDEST PUSH1 0x68 SLOAD PUSH2 0x1C05 CALLER PUSH2 0x2039 JUMP JUMPDEST PUSH2 0x1C0F SWAP1 DUP4 PUSH2 0x3B63 JUMP JUMPDEST GT ISZERO PUSH2 0x1C2D JUMPI PUSH1 0x40 MLOAD PUSH3 0x461BCD PUSH1 0xE5 SHL DUP2 MSTORE PUSH1 0x4 ADD PUSH2 0xA06 SWAP1 PUSH2 0x3CD2 JUMP JUMPDEST PUSH1 0x69 SLOAD DUP2 GT ISZERO PUSH2 0x1C4F JUMPI PUSH1 0x40 MLOAD PUSH3 0x461BCD PUSH1 0xE5 SHL DUP2 MSTORE PUSH1 0x4 ADD PUSH2 0xA06 SWAP1 PUSH2 0x3CFD JUMP JUMPDEST PUSH1 0x40 MLOAD PUSH1 0x1 PUSH1 0x1 PUSH1 0x60 SHL SUB NOT CALLER PUSH1 0x60 SHL AND PUSH1 0x20 DUP3 ADD MSTORE PUSH1 0x1 PUSH1 0x1 PUSH1 0xC0 SHL SUB NOT PUSH1 0xC0 DUP7 SWAP1 SHL AND PUSH1 0x34 DUP3 ADD MSTORE PUSH1 0x3C DUP2 ADD DUP7 SWAP1 MSTORE PUSH1 0x0 SWAP1 PUSH1 0x5C ADD PUSH1 0x40 MLOAD PUSH1 0x20 DUP2 DUP4 SUB SUB DUP2 MSTORE SWAP1 PUSH1 0x40 MSTORE DUP1 MLOAD SWAP1 PUSH1 0x20 ADD KECCAK256 SWAP1 POP PUSH2 0x1CA8 DUP5 DUP3 PUSH2 0x29A1 JUMP JUMPDEST PUSH2 0x1CF4 JUMPI PUSH1 0x40 MLOAD PUSH3 0x461BCD PUSH1 0xE5 SHL DUP2 MSTORE PUSH1 0x20 PUSH1 0x4 DUP3 ADD MSTORE PUSH1 0x19 PUSH1 0x24 DUP3 ADD MSTORE PUSH32 0x434F4E54524143545F4D494E545F4E4F545F414C4C4F57454400000000000000 PUSH1 0x44 DUP3 ADD MSTORE PUSH1 0x64 ADD PUSH2 0xA06 JUMP JUMPDEST DUP5 PUSH1 0x1 PUSH1 0x1 PUSH1 0x40 SHL SUB AND TIMESTAMP GT ISZERO PUSH2 0x1D41 JUMPI PUSH1 0x40 MLOAD PUSH3 0x461BCD PUSH1 0xE5 SHL DUP2 MSTORE PUSH1 0x20 PUSH1 0x4 DUP3 ADD MSTORE PUSH1 0x11 PUSH1 0x24 DUP3 ADD MSTORE PUSH17 0x455850495245445F5349474E4154555245 PUSH1 0x78 SHL PUSH1 0x44 DUP3 ADD MSTORE PUSH1 0x64 ADD PUSH2 0xA06 JUMP JUMPDEST PUSH1 0x0 DUP2 DUP2 MSTORE PUSH1 0x71 PUSH1 0x20 MSTORE PUSH1 0x40 SWAP1 KECCAK256 SLOAD PUSH1 0xFF AND ISZERO PUSH2 0x1DA0 JUMPI PUSH1 0x40 MLOAD PUSH3 0x461BCD PUSH1 0xE5 SHL DUP2 MSTORE PUSH1 0x20 PUSH1 0x4 DUP3 ADD MSTORE PUSH1 0x1D PUSH1 0x24 DUP3 ADD MSTORE PUSH32 0x5349474E41545552455F4C4F4F50494E475F4E4F545F414C4C4F574544000000 PUSH1 0x44 DUP3 ADD MSTORE PUSH1 0x64 ADD PUSH2 0xA06 JUMP JUMPDEST DUP6 PUSH1 0x67 SLOAD PUSH2 0x1DAE SWAP2 SWAP1 PUSH2 0x3D45 JUMP JUMPDEST CALLVALUE EQ PUSH2 0x1DED JUMPI PUSH1 0x40 MLOAD PUSH3 0x461BCD PUSH1 0xE5 SHL DUP2 MSTORE PUSH1 0x20 PUSH1 0x4 DUP3 ADD MSTORE PUSH1 0xE PUSH1 0x24 DUP3 ADD MSTORE PUSH14 0x1253959053125117D05353D55395 PUSH1 0x92 SHL PUSH1 0x44 DUP3 ADD MSTORE PUSH1 0x64 ADD PUSH2 0xA06 JUMP JUMPDEST CALLER PUSH1 0x0 DUP2 DUP2 MSTORE PUSH1 0x6F PUSH1 0x20 SWAP1 DUP2 MSTORE PUSH1 0x40 DUP1 DUP4 KECCAK256 TIMESTAMP SWAP1 SSTORE DUP5 DUP4 MSTORE PUSH1 0x71 SWAP1 SWAP2 MSTORE SWAP1 KECCAK256 DUP1 SLOAD PUSH1 0xFF NOT AND PUSH1 0x1 OR SWAP1 SSTORE PUSH2 0x104F SWAP1 DUP8 PUSH2 0x260F JUMP JUMPDEST DUP4 PUSH14 0xAAEB6D7670E522A718067333CD4E EXTCODESIZE ISZERO PUSH2 0x1F66 JUMPI CALLER PUSH1 0x1 PUSH1 0x1 PUSH1 0xA0 SHL SUB DUP3 AND SUB PUSH2 0x1E58 JUMPI PUSH2 0x1E53 DUP6 DUP6 DUP6 DUP6 PUSH2 0x29CB JUMP JUMPDEST PUSH2 0x1F72 JUMP JUMPDEST PUSH1 0x40 MLOAD PUSH4 0x3185C44D PUSH1 0xE2 SHL DUP2 MSTORE PUSH14 0xAAEB6D7670E522A718067333CD4E SWAP1 PUSH4 0xC6171134 SWAP1 PUSH2 0x1E8B SWAP1 ADDRESS SWAP1 CALLER SWAP1 PUSH1 0x4 ADD PUSH2 0x3B00 JUMP JUMPDEST PUSH1 0x20 PUSH1 0x40 MLOAD DUP1 DUP4 SUB DUP2 DUP7 GAS STATICCALL ISZERO DUP1 ISZERO PUSH2 0x1EA8 JUMPI RETURNDATASIZE PUSH1 0x0 DUP1 RETURNDATACOPY RETURNDATASIZE PUSH1 0x0 REVERT JUMPDEST POP POP POP POP PUSH1 0x40 MLOAD RETURNDATASIZE PUSH1 0x1F NOT PUSH1 0x1F DUP3 ADD AND DUP3 ADD DUP1 PUSH1 0x40 MSTORE POP DUP2 ADD SWAP1 PUSH2 0x1ECC SWAP2 SWAP1 PUSH2 0x3B1A JUMP JUMPDEST DUP1 ISZERO PUSH2 0x1F47 JUMPI POP PUSH1 0x40 MLOAD PUSH4 0x3185C44D PUSH1 0xE2 SHL DUP2 MSTORE PUSH14 0xAAEB6D7670E522A718067333CD4E SWAP1 PUSH4 0xC6171134 SWAP1 PUSH2 0x1F06 SWAP1 ADDRESS SWAP1 DUP6 SWAP1 PUSH1 0x4 ADD PUSH2 0x3B00 JUMP JUMPDEST PUSH1 0x20 PUSH1 0x40 MLOAD DUP1 DUP4 SUB DUP2 DUP7 GAS STATICCALL ISZERO DUP1 ISZERO PUSH2 0x1F23 JUMPI RETURNDATASIZE PUSH1 0x0 DUP1 RETURNDATACOPY RETURNDATASIZE PUSH1 0x0 REVERT JUMPDEST POP POP POP POP PUSH1 0x40 MLOAD RETURNDATASIZE PUSH1 0x1F NOT PUSH1 0x1F DUP3 ADD AND DUP3 ADD DUP1 PUSH1 0x40 MSTORE POP DUP2 ADD SWAP1 PUSH2 0x1F47 SWAP2 SWAP1 PUSH2 0x3B1A JUMP JUMPDEST PUSH2 0x1F66 JUMPI PUSH1 0x40 MLOAD PUSH4 0x3B79C773 PUSH1 0xE2 SHL DUP2 MSTORE CALLER PUSH1 0x4 DUP3 ADD MSTORE PUSH1 0x24 ADD PUSH2 0xA06 JUMP JUMPDEST PUSH2 0x1F72 DUP6 DUP6 DUP6 DUP6 PUSH2 0x29CB JUMP JUMPDEST POP POP POP POP POP JUMP JUMPDEST PUSH1 0x40 DUP1 MLOAD PUSH1 0x80 DUP2 ADD DUP3 MSTORE PUSH1 0x0 DUP1 DUP3 MSTORE PUSH1 0x20 DUP3 ADD DUP2 SWAP1 MSTORE SWAP2 DUP2 ADD DUP3 SWAP1 MSTORE PUSH1 0x60 DUP2 ADD SWAP2 SWAP1 SWAP2 MSTORE PUSH2 0x1FA5 PUSH2 0x2897 JUMP JUMPDEST DUP3 LT ISZERO PUSH2 0x1FCF JUMPI JUMPDEST PUSH2 0x1FB6 DUP3 PUSH2 0x2A06 JUMP JUMPDEST PUSH2 0x1FC6 JUMPI PUSH1 0x0 NOT SWAP1 SWAP2 ADD SWAP1 PUSH2 0x1FAD JUMP JUMPDEST PUSH2 0x9D9 DUP3 PUSH2 0x2A26 JUMP JUMPDEST SWAP2 SWAP1 POP JUMP JUMPDEST PUSH2 0x1FDC PUSH2 0x2585 JUMP JUMPDEST PUSH1 0x67 SSTORE JUMP JUMPDEST PUSH1 0x6A SLOAD PUSH1 0x60 SWAP1 PUSH3 0x10000 SWAP1 DIV PUSH1 0xFF AND ISZERO PUSH2 0x2027 JUMPI PUSH1 0x6B PUSH2 0x2000 DUP4 PUSH2 0x2AAF JUMP JUMPDEST PUSH1 0x40 MLOAD PUSH1 0x20 ADD PUSH2 0x2011 SWAP3 SWAP2 SWAP1 PUSH2 0x3E27 JUMP JUMPDEST PUSH1 0x40 MLOAD PUSH1 0x20 DUP2 DUP4 SUB SUB DUP2 MSTORE SWAP1 PUSH1 0x40 MSTORE SWAP1 POP SWAP2 SWAP1 POP JUMP JUMPDEST PUSH1 0x6B PUSH1 0x40 MLOAD PUSH1 0x20 ADD PUSH2 0x2011 SWAP2 SWAP1 PUSH2 0x3E4C JUMP JUMPDEST PUSH1 0x0 PUSH2 0x9D9 DUP3 PUSH2 0x2BAF JUMP JUMPDEST PUSH1 0x0 PUSH2 0x204E PUSH2 0x228D JUMP JUMPDEST PUSH1 0x1 PUSH1 0x1 PUSH1 0xA0 SHL SUB SWAP4 DUP5 AND PUSH1 0x0 SWAP1 DUP2 MSTORE PUSH1 0x7 SWAP2 SWAP1 SWAP2 ADD PUSH1 0x20 SWAP1 DUP2 MSTORE PUSH1 0x40 DUP1 DUP4 KECCAK256 SWAP5 SWAP1 SWAP6 AND DUP3 MSTORE SWAP3 SWAP1 SWAP3 MSTORE POP KECCAK256 SLOAD PUSH1 0xFF AND SWAP1 JUMP JUMPDEST PUSH2 0x2089 PUSH2 0x2585 JUMP JUMPDEST PUSH1 0x1 PUSH1 0x1 PUSH1 0xA0 SHL SUB DUP2 AND PUSH2 0x20EE JUMPI PUSH1 0x40 MLOAD PUSH3 0x461BCD PUSH1 0xE5 SHL DUP2 MSTORE PUSH1 0x20 PUSH1 0x4 DUP3 ADD MSTORE PUSH1 0x26 PUSH1 0x24 DUP3 ADD MSTORE PUSH32 0x4F776E61626C653A206E6577206F776E657220697320746865207A65726F2061 PUSH1 0x44 DUP3 ADD MSTORE PUSH6 0x646472657373 PUSH1 0xD0 SHL PUSH1 0x64 DUP3 ADD MSTORE PUSH1 0x84 ADD PUSH2 0xA06 JUMP JUMPDEST PUSH2 0x1986 DUP2 PUSH2 0x27D8 JUMP JUMPDEST PUSH2 0x20FF PUSH2 0x2585 JUMP JUMPDEST PUSH1 0x6C SSTORE JUMP JUMPDEST PUSH1 0x0 SLOAD PUSH2 0x100 SWAP1 DIV PUSH1 0xFF AND PUSH2 0x212B JUMPI PUSH1 0x40 MLOAD PUSH3 0x461BCD PUSH1 0xE5 SHL DUP2 MSTORE PUSH1 0x4 ADD PUSH2 0xA06 SWAP1 PUSH2 0x3A7B JUMP JUMPDEST PUSH14 0xAAEB6D7670E522A718067333CD4E EXTCODESIZE ISZERO PUSH2 0xB1B JUMPI PUSH1 0x40 MLOAD PUSH4 0xC3C5A547 PUSH1 0xE0 SHL DUP2 MSTORE ADDRESS PUSH1 0x4 DUP3 ADD MSTORE PUSH14 0xAAEB6D7670E522A718067333CD4E SWAP1 PUSH4 0xC3C5A547 SWAP1 PUSH1 0x24 ADD PUSH1 0x20 PUSH1 0x40 MLOAD DUP1 DUP4 SUB DUP2 PUSH1 0x0 DUP8 GAS CALL ISZERO DUP1 ISZERO PUSH2 0x218B JUMPI RETURNDATASIZE PUSH1 0x0 DUP1 RETURNDATACOPY RETURNDATASIZE PUSH1 0x0 REVERT JUMPDEST POP POP POP POP PUSH1 0x40 MLOAD RETURNDATASIZE PUSH1 0x1F NOT PUSH1 0x1F DUP3 ADD AND DUP3 ADD DUP1 PUSH1 0x40 MSTORE POP DUP2 ADD SWAP1 PUSH2 0x21AF SWAP2 SWAP1 PUSH2 0x3B1A JUMP JUMPDEST PUSH2 0xB1B JUMPI DUP1 ISZERO PUSH2 0x221A JUMPI PUSH1 0x40 MLOAD PUSH4 0x3E9F1EDF PUSH1 0xE1 SHL DUP2 MSTORE PUSH14 0xAAEB6D7670E522A718067333CD4E SWAP1 PUSH4 0x7D3E3DBE SWAP1 PUSH2 0x21EC SWAP1 ADDRESS SWAP1 DUP7 SWAP1 PUSH1 0x4 ADD PUSH2 0x3B00 JUMP JUMPDEST PUSH1 0x0 PUSH1 0x40 MLOAD DUP1 DUP4 SUB DUP2 PUSH1 0x0 DUP8 DUP1 EXTCODESIZE ISZERO DUP1 ISZERO PUSH2 0x2206 JUMPI PUSH1 0x0 DUP1 REVERT JUMPDEST POP GAS CALL ISZERO DUP1 ISZERO PUSH2 0x104F JUMPI RETURNDATASIZE PUSH1 0x0 DUP1 RETURNDATACOPY RETURNDATASIZE PUSH1 0x0 REVERT JUMPDEST PUSH1 0x1 PUSH1 0x1 PUSH1 0xA0 SHL SUB DUP3 AND ISZERO PUSH2 0x225C JUMPI PUSH1 0x40 MLOAD PUSH4 0xA0AF2903 PUSH1 0xE0 SHL DUP2 MSTORE PUSH14 0xAAEB6D7670E522A718067333CD4E SWAP1 PUSH4 0xA0AF2903 SWAP1 PUSH2 0x21EC SWAP1 ADDRESS SWAP1 DUP7 SWAP1 PUSH1 0x4 ADD PUSH2 0x3B00 JUMP JUMPDEST PUSH1 0x40 MLOAD PUSH4 0x22107243 PUSH1 0xE1 SHL DUP2 MSTORE ADDRESS PUSH1 0x4 DUP3 ADD MSTORE PUSH14 0xAAEB6D7670E522A718067333CD4E SWAP1 PUSH4 0x4420E486 SWAP1 PUSH1 0x24 ADD PUSH2 0x21EC JUMP JUMPDEST PUSH32 0x2569078DFB4B0305704D3008E7403993AE9601B85F7AE5E742DE3DE8F8011C40 SWAP1 JUMP JUMPDEST PUSH1 0x0 PUSH2 0x22BB PUSH2 0x228D JUMP JUMPDEST SLOAD DUP3 LT ISZERO PUSH2 0x1FCF JUMPI PUSH1 0x0 JUMPDEST PUSH2 0x22CE PUSH2 0x228D JUMP JUMPDEST PUSH1 0x0 DUP5 DUP2 MSTORE PUSH1 0x4 SWAP2 SWAP1 SWAP2 ADD PUSH1 0x20 MSTORE PUSH1 0x40 DUP2 KECCAK256 SLOAD SWAP2 POP DUP2 SWAP1 SUB PUSH2 0x22FA JUMPI PUSH2 0x22F3 DUP4 PUSH2 0x3E58 JUMP JUMPDEST SWAP3 POP PUSH2 0x22C6 JUMP JUMPDEST PUSH1 0x1 PUSH1 0xE0 SHL AND ISZERO SWAP3 SWAP2 POP POP JUMP JUMPDEST DUP1 PUSH1 0x0 MSTORE PUSH1 0x4 PUSH1 0x0 REVERT JUMPDEST PUSH1 0x0 PUSH2 0x231C DUP4 PUSH2 0x15F4 JUMP JUMPDEST SWAP1 POP DUP2 DUP1 ISZERO PUSH2 0x2334 JUMPI POP CALLER PUSH1 0x1 PUSH1 0x1 PUSH1 0xA0 SHL SUB DUP3 AND EQ ISZERO JUMPDEST ISZERO PUSH2 0x2357 JUMPI PUSH2 0x2343 DUP2 CALLER PUSH2 0x2044 JUMP JUMPDEST PUSH2 0x2357 JUMPI PUSH2 0x2357 PUSH4 0x67D9DCA1 PUSH1 0xE1 SHL PUSH2 0x2307 JUMP JUMPDEST DUP4 PUSH2 0x2360 PUSH2 0x228D JUMP JUMPDEST PUSH1 0x0 DUP6 DUP2 MSTORE PUSH1 0x6 SWAP2 SWAP1 SWAP2 ADD PUSH1 0x20 MSTORE PUSH1 0x40 DUP1 DUP3 KECCAK256 DUP1 SLOAD PUSH1 0x1 PUSH1 0x1 PUSH1 0xA0 SHL SUB NOT AND PUSH1 0x1 PUSH1 0x1 PUSH1 0xA0 SHL SUB SWAP5 DUP6 AND OR SWAP1 SSTORE MLOAD DUP6 SWAP3 DUP8 DUP2 AND SWAP3 SWAP1 DUP6 AND SWAP2 PUSH32 0x8C5BE1E5EBEC7D5BD14F71427D1E84F3DD0314C0F7B2291E5B200AC8C7C3B925 SWAP2 SWAP1 LOG4 POP POP POP POP JUMP JUMPDEST PUSH1 0x0 PUSH2 0x23CD DUP3 PUSH2 0x271E JUMP JUMPDEST PUSH1 0x1 PUSH1 0x1 PUSH1 0xA0 SHL SUB SWAP5 DUP6 AND SWAP5 SWAP1 SWAP2 POP DUP2 AND DUP5 EQ PUSH2 0x23F3 JUMPI PUSH2 0x23F3 PUSH3 0xA11481 PUSH1 0xE8 SHL PUSH2 0x2307 JUMP JUMPDEST PUSH1 0x0 DUP1 PUSH2 0x23FF DUP5 PUSH2 0x2BF4 JUMP JUMPDEST SWAP2 POP SWAP2 POP PUSH2 0x2424 DUP2 DUP8 PUSH2 0x240F CALLER SWAP1 JUMP JUMPDEST PUSH1 0x1 PUSH1 0x1 PUSH1 0xA0 SHL SUB SWAP1 DUP2 AND SWAP2 AND DUP2 EQ SWAP2 EQ OR SWAP1 JUMP JUMPDEST PUSH2 0x2446 JUMPI PUSH2 0x2432 DUP7 CALLER PUSH2 0x2044 JUMP JUMPDEST PUSH2 0x2446 JUMPI PUSH2 0x2446 PUSH4 0x2CE44B5F PUSH1 0xE1 SHL PUSH2 0x2307 JUMP JUMPDEST DUP1 ISZERO PUSH2 0x2451 JUMPI PUSH1 0x0 DUP3 SSTORE JUMPDEST PUSH2 0x2459 PUSH2 0x228D JUMP JUMPDEST PUSH1 0x1 PUSH1 0x1 PUSH1 0xA0 SHL SUB DUP8 AND PUSH1 0x0 SWAP1 DUP2 MSTORE PUSH1 0x5 SWAP2 SWAP1 SWAP2 ADD PUSH1 0x20 MSTORE PUSH1 0x40 SWAP1 KECCAK256 DUP1 SLOAD PUSH1 0x0 NOT ADD SWAP1 SSTORE PUSH2 0x2485 PUSH2 0x228D JUMP JUMPDEST PUSH1 0x1 PUSH1 0x1 PUSH1 0xA0 SHL SUB DUP7 AND PUSH1 0x0 DUP2 DUP2 MSTORE PUSH1 0x5 SWAP3 SWAP1 SWAP3 ADD PUSH1 0x20 MSTORE PUSH1 0x40 SWAP1 SWAP2 KECCAK256 DUP1 SLOAD PUSH1 0x1 ADD SWAP1 SSTORE TIMESTAMP PUSH1 0xA0 SHL OR PUSH1 0x1 PUSH1 0xE1 SHL OR PUSH2 0x24BC PUSH2 0x228D JUMP JUMPDEST PUSH1 0x0 DUP7 DUP2 MSTORE PUSH1 0x4 SWAP2 SWAP1 SWAP2 ADD PUSH1 0x20 MSTORE PUSH1 0x40 DUP2 KECCAK256 SWAP2 SWAP1 SWAP2 SSTORE PUSH1 0x1 PUSH1 0xE1 SHL DUP5 AND SWAP1 SUB PUSH2 0x2532 JUMPI PUSH1 0x1 DUP5 ADD PUSH2 0x24EB PUSH2 0x228D JUMP JUMPDEST PUSH1 0x0 DUP3 DUP2 MSTORE PUSH1 0x4 SWAP2 SWAP1 SWAP2 ADD PUSH1 0x20 MSTORE PUSH1 0x40 DUP2 KECCAK256 SLOAD SWAP1 SUB PUSH2 0x2530 JUMPI PUSH2 0x250C PUSH2 0x228D JUMP JUMPDEST SLOAD DUP2 EQ PUSH2 0x2530 JUMPI DUP4 PUSH2 0x251C PUSH2 0x228D JUMP JUMPDEST PUSH1 0x0 DUP4 DUP2 MSTORE PUSH1 0x4 SWAP2 SWAP1 SWAP2 ADD PUSH1 0x20 MSTORE PUSH1 0x40 SWAP1 KECCAK256 SSTORE JUMPDEST POP JUMPDEST PUSH1 0x1 PUSH1 0x1 PUSH1 0xA0 SHL SUB DUP6 AND DUP5 DUP2 DUP9 PUSH32 0xDDF252AD1BE2C89B69C2B068FC378DAA952BA7F163C4A11628F55A4DF523B3EF PUSH1 0x0 DUP1 LOG4 DUP1 PUSH1 0x0 SUB PUSH2 0x257C JUMPI PUSH2 0x257C PUSH4 0x3A954ECD PUSH1 0xE2 SHL PUSH2 0x2307 JUMP JUMPDEST POP POP POP POP POP POP POP JUMP JUMPDEST PUSH1 0x33 SLOAD PUSH1 0x1 PUSH1 0x1 PUSH1 0xA0 SHL SUB AND CALLER EQ PUSH2 0xA2E JUMPI PUSH1 0x40 MLOAD PUSH3 0x461BCD PUSH1 0xE5 SHL DUP2 MSTORE PUSH1 0x20 PUSH1 0x4 DUP3 ADD DUP2 SWAP1 MSTORE PUSH1 0x24 DUP3 ADD MSTORE PUSH32 0x4F776E61626C653A2063616C6C6572206973206E6F7420746865206F776E6572 PUSH1 0x44 DUP3 ADD MSTORE PUSH1 0x64 ADD PUSH2 0xA06 JUMP JUMPDEST PUSH2 0xB1B DUP3 DUP3 PUSH1 0x40 MLOAD DUP1 PUSH1 0x20 ADD PUSH1 0x40 MSTORE DUP1 PUSH1 0x0 DUP2 MSTORE POP PUSH2 0x2C1C JUMP JUMPDEST PUSH1 0x0 DUP3 PUSH2 0x2606 DUP6 DUP5 PUSH2 0x2C8E JUMP JUMPDEST EQ SWAP5 SWAP4 POP POP POP POP JUMP JUMPDEST PUSH1 0x0 PUSH2 0x2619 PUSH2 0x228D JUMP JUMPDEST SLOAD SWAP1 POP PUSH1 0x0 DUP3 SWAP1 SUB PUSH2 0x2635 JUMPI PUSH2 0x2635 PUSH4 0xB562E8DD PUSH1 0xE0 SHL PUSH2 0x2307 JUMP JUMPDEST PUSH1 0x1 PUSH1 0x1 PUSH1 0xA0 SHL SUB DUP4 AND TIMESTAMP PUSH1 0xA0 SHL PUSH1 0x1 DUP5 EQ PUSH1 0xE1 SHL OR OR PUSH2 0x2654 PUSH2 0x228D JUMP JUMPDEST PUSH1 0x0 DUP4 DUP2 MSTORE PUSH1 0x4 SWAP2 SWAP1 SWAP2 ADD PUSH1 0x20 MSTORE PUSH1 0x40 SWAP1 KECCAK256 SSTORE PUSH9 0x10000000000000001 DUP3 MUL PUSH2 0x267B PUSH2 0x228D JUMP JUMPDEST PUSH1 0x1 PUSH1 0x1 PUSH1 0xA0 SHL SUB DUP6 AND PUSH1 0x0 DUP2 DUP2 MSTORE PUSH1 0x5 SWAP3 SWAP1 SWAP3 ADD PUSH1 0x20 MSTORE PUSH1 0x40 DUP3 KECCAK256 DUP1 SLOAD SWAP1 SWAP4 ADD SWAP1 SWAP3 SSTORE DUP2 SWAP1 SUB PUSH2 0x26B5 JUMPI PUSH2 0x26B5 PUSH3 0x2E0763 PUSH1 0xE8 SHL PUSH2 0x2307 JUMP JUMPDEST DUP2 DUP4 ADD DUP3 JUMPDEST DUP1 DUP4 PUSH1 0x0 PUSH32 0xDDF252AD1BE2C89B69C2B068FC378DAA952BA7F163C4A11628F55A4DF523B3EF PUSH1 0x0 DUP1 LOG4 DUP2 DUP2 PUSH1 0x1 ADD SWAP2 POP DUP2 SUB PUSH2 0x26BA JUMPI DUP2 PUSH2 0x26F9 PUSH2 0x228D JUMP JUMPDEST SSTORE POP PUSH2 0x15A3 SWAP2 POP POP JUMP JUMPDEST PUSH2 0x15A3 DUP4 DUP4 DUP4 PUSH1 0x40 MLOAD DUP1 PUSH1 0x20 ADD PUSH1 0x40 MSTORE DUP1 PUSH1 0x0 DUP2 MSTORE POP PUSH2 0x1E21 JUMP JUMPDEST PUSH1 0x0 PUSH2 0x2728 PUSH2 0x228D JUMP JUMPDEST PUSH1 0x0 DUP4 DUP2 MSTORE PUSH1 0x4 SWAP2 SWAP1 SWAP2 ADD PUSH1 0x20 MSTORE PUSH1 0x40 DUP2 KECCAK256 SLOAD SWAP2 POP DUP2 SWAP1 SUB PUSH2 0x27B5 JUMPI PUSH2 0x274C PUSH2 0x228D JUMP JUMPDEST SLOAD DUP3 LT PUSH2 0x2763 JUMPI PUSH2 0x2763 PUSH4 0x6F96CDA1 PUSH1 0xE1 SHL PUSH2 0x2307 JUMP JUMPDEST PUSH2 0x276B PUSH2 0x228D JUMP JUMPDEST PUSH1 0x0 NOT SWAP1 SWAP3 ADD PUSH1 0x0 DUP2 DUP2 MSTORE PUSH1 0x4 SWAP4 SWAP1 SWAP4 ADD PUSH1 0x20 MSTORE PUSH1 0x40 SWAP1 SWAP3 KECCAK256 SLOAD SWAP1 POP DUP1 ISZERO PUSH2 0x2763 JUMPI PUSH1 0x1 PUSH1 0xE0 SHL DUP2 AND PUSH1 0x0 SUB PUSH2 0x27A0 JUMPI SWAP2 SWAP1 POP JUMP JUMPDEST PUSH2 0x27B0 PUSH4 0x6F96CDA1 PUSH1 0xE1 SHL PUSH2 0x2307 JUMP JUMPDEST PUSH2 0x2763 JUMP JUMPDEST PUSH1 0x1 PUSH1 0xE0 SHL DUP2 AND PUSH1 0x0 SUB PUSH2 0x27C8 JUMPI SWAP2 SWAP1 POP JUMP JUMPDEST PUSH2 0x1FCF PUSH4 0x6F96CDA1 PUSH1 0xE1 SHL PUSH2 0x2307 JUMP JUMPDEST PUSH1 0x33 DUP1 SLOAD PUSH1 0x1 PUSH1 0x1 PUSH1 0xA0 SHL SUB DUP4 DUP2 AND PUSH1 0x1 PUSH1 0x1 PUSH1 0xA0 SHL SUB NOT DUP4 AND DUP2 OR SWAP1 SWAP4 SSTORE PUSH1 0x40 MLOAD SWAP2 AND SWAP2 SWAP1 DUP3 SWAP1 PUSH32 0x8BE0079C531659141344CD1FD0A4F28419497F9722A3DAAFE3B4186F6B6457E0 SWAP1 PUSH1 0x0 SWAP1 LOG3 POP POP JUMP JUMPDEST PUSH1 0x0 DUP1 MLOAD PUSH1 0x20 PUSH2 0x3F5F DUP4 CODECOPY DUP2 MLOAD SWAP2 MSTORE SLOAD PUSH2 0x100 SWAP1 DIV PUSH1 0xFF AND PUSH2 0x285E JUMPI PUSH1 0x40 MLOAD PUSH3 0x461BCD PUSH1 0xE5 SHL DUP2 MSTORE PUSH1 0x4 ADD PUSH2 0xA06 SWAP1 PUSH2 0x3E6F JUMP JUMPDEST PUSH2 0xB1B DUP3 DUP3 PUSH2 0x2CFA JUMP JUMPDEST PUSH1 0x0 SLOAD PUSH2 0x100 SWAP1 DIV PUSH1 0xFF AND PUSH2 0x288F JUMPI PUSH1 0x40 MLOAD PUSH3 0x461BCD PUSH1 0xE5 SHL DUP2 MSTORE PUSH1 0x4 ADD PUSH2 0xA06 SWAP1 PUSH2 0x3A7B JUMP JUMPDEST PUSH2 0xA2E PUSH2 0x2D7D JUMP JUMPDEST PUSH1 0x0 PUSH2 0x28A1 PUSH2 0x228D JUMP JUMPDEST SLOAD SWAP2 SWAP1 POP JUMP JUMPDEST PUSH1 0x60 DUP2 DUP4 LT PUSH2 0x28C0 JUMPI PUSH2 0x28C0 PUSH4 0x1960CCAD PUSH1 0xE1 SHL PUSH2 0x2307 JUMP JUMPDEST PUSH1 0x0 PUSH2 0x28CA PUSH2 0x2897 JUMP JUMPDEST SWAP1 POP DUP1 DUP4 LT PUSH2 0x28D7 JUMPI DUP1 SWAP3 POP JUMPDEST PUSH1 0x60 PUSH1 0x0 PUSH2 0x28E4 DUP8 PUSH2 0x1636 JUMP JUMPDEST DUP6 DUP8 LT SWAP1 DUP2 MUL SWAP2 POP DUP2 ISZERO PUSH2 0x2995 JUMPI DUP2 DUP8 DUP8 SUB GT PUSH2 0x2901 JUMPI DUP7 DUP7 SUB SWAP2 POP JUMPDEST PUSH1 0x40 MLOAD SWAP3 POP PUSH1 0x1 DUP3 ADD PUSH1 0x5 SHL DUP4 ADD PUSH1 0x40 MSTORE PUSH1 0x0 PUSH2 0x291D DUP9 PUSH2 0x1F79 JUMP JUMPDEST SWAP1 POP PUSH1 0x0 DUP2 PUSH1 0x40 ADD MLOAD PUSH2 0x292E JUMPI POP DUP1 MLOAD JUMPDEST PUSH1 0x0 JUMPDEST PUSH2 0x293A DUP11 PUSH2 0x2A26 JUMP JUMPDEST SWAP3 POP PUSH1 0x40 DUP4 ADD MLOAD PUSH1 0x0 DUP2 EQ PUSH2 0x2952 JUMPI PUSH1 0x0 SWAP3 POP PUSH2 0x2977 JUMP JUMPDEST DUP4 MLOAD ISZERO PUSH2 0x295E JUMPI DUP4 MLOAD SWAP3 POP JUMPDEST DUP12 DUP4 XOR PUSH1 0x60 SHL PUSH2 0x2977 JUMPI PUSH1 0x1 DUP3 ADD SWAP2 POP DUP11 DUP3 PUSH1 0x5 SHL DUP9 ADD MSTORE JUMPDEST POP PUSH1 0x1 DUP11 ADD SWAP10 POP DUP9 DUP11 EQ DUP1 PUSH2 0x298B JUMPI POP DUP5 DUP2 EQ JUMPDEST ISZERO PUSH2 0x2931 JUMPI DUP6 MSTORE POP POP JUMPDEST POP SWAP1 SWAP7 SWAP6 POP POP POP POP POP POP JUMP JUMPDEST PUSH1 0x70 SLOAD PUSH1 0x0 SWAP1 PUSH1 0x1 PUSH1 0x1 PUSH1 0xA0 SHL SUB AND PUSH2 0x29BA DUP4 DUP6 PUSH2 0x2DAD JUMP JUMPDEST PUSH1 0x1 PUSH1 0x1 PUSH1 0xA0 SHL SUB AND EQ SWAP4 SWAP3 POP POP POP JUMP JUMPDEST PUSH2 0x29D6 DUP5 DUP5 DUP5 PUSH2 0xB3E JUMP JUMPDEST PUSH1 0x1 PUSH1 0x1 PUSH1 0xA0 SHL SUB DUP4 AND EXTCODESIZE ISZERO PUSH2 0xC8D JUMPI PUSH2 0x29F2 DUP5 DUP5 DUP5 DUP5 PUSH2 0x2DC9 JUMP JUMPDEST PUSH2 0xC8D JUMPI PUSH2 0xC8D PUSH4 0x68D2BF6B PUSH1 0xE1 SHL PUSH2 0x2307 JUMP JUMPDEST PUSH1 0x0 PUSH2 0x2A10 PUSH2 0x228D JUMP JUMPDEST PUSH1 0x0 SWAP3 DUP4 MSTORE PUSH1 0x4 ADD PUSH1 0x20 MSTORE POP PUSH1 0x40 SWAP1 KECCAK256 SLOAD ISZERO ISZERO SWAP1 JUMP JUMPDEST PUSH1 0x40 DUP1 MLOAD PUSH1 0x80 DUP2 ADD DUP3 MSTORE PUSH1 0x0 DUP1 DUP3 MSTORE PUSH1 0x20 DUP3 ADD DUP2 SWAP1 MSTORE SWAP2 DUP2 ADD DUP3 SWAP1 MSTORE PUSH1 0x60 DUP2 ADD SWAP2 SWAP1 SWAP2 MSTORE PUSH2 0x9D9 PUSH2 0x2A55 PUSH2 0x228D JUMP JUMPDEST PUSH1 0x0 DUP5 DUP2 MSTORE PUSH1 0x4 SWAP2 SWAP1 SWAP2 ADD PUSH1 0x20 MSTORE PUSH1 0x40 SWAP1 KECCAK256 SLOAD PUSH1 0x40 DUP1 MLOAD PUSH1 0x80 DUP2 ADD DUP3 MSTORE PUSH1 0x1 PUSH1 0x1 PUSH1 0xA0 SHL SUB DUP4 AND DUP2 MSTORE PUSH1 0xA0 DUP4 SWAP1 SHR PUSH1 0x1 PUSH1 0x1 PUSH1 0x40 SHL SUB AND PUSH1 0x20 DUP3 ADD MSTORE PUSH1 0x1 PUSH1 0xE0 SHL DUP4 AND ISZERO ISZERO SWAP2 DUP2 ADD SWAP2 SWAP1 SWAP2 MSTORE PUSH1 0xE8 SWAP2 SWAP1 SWAP2 SHR PUSH1 0x60 DUP3 ADD MSTORE SWAP1 JUMP JUMPDEST PUSH1 0x60 DUP2 PUSH1 0x0 SUB PUSH2 0x2AD6 JUMPI POP POP PUSH1 0x40 DUP1 MLOAD DUP1 DUP3 ADD SWAP1 SWAP2 MSTORE PUSH1 0x1 DUP2 MSTORE PUSH1 0x3 PUSH1 0xFC SHL PUSH1 0x20 DUP3 ADD MSTORE SWAP1 JUMP JUMPDEST DUP2 PUSH1 0x0 JUMPDEST DUP2 ISZERO PUSH2 0x2B00 JUMPI DUP1 PUSH2 0x2AEA DUP2 PUSH2 0x3B7B JUMP JUMPDEST SWAP2 POP PUSH2 0x2AF9 SWAP1 POP PUSH1 0xA DUP4 PUSH2 0x3D7A JUMP JUMPDEST SWAP2 POP PUSH2 0x2ADA JUMP JUMPDEST PUSH1 0x0 DUP2 PUSH1 0x1 PUSH1 0x1 PUSH1 0x40 SHL SUB DUP2 GT ISZERO PUSH2 0x2B1A JUMPI PUSH2 0x2B1A PUSH2 0x343D JUMP JUMPDEST PUSH1 0x40 MLOAD SWAP1 DUP1 DUP3 MSTORE DUP1 PUSH1 0x1F ADD PUSH1 0x1F NOT AND PUSH1 0x20 ADD DUP3 ADD PUSH1 0x40 MSTORE DUP1 ISZERO PUSH2 0x2B44 JUMPI PUSH1 0x20 DUP3 ADD DUP2 DUP1 CALLDATASIZE DUP4 CALLDATACOPY ADD SWAP1 POP JUMPDEST POP SWAP1 POP JUMPDEST DUP5 ISZERO PUSH2 0x19AF JUMPI PUSH2 0x2B59 PUSH1 0x1 DUP4 PUSH2 0x3EC3 JUMP JUMPDEST SWAP2 POP PUSH2 0x2B66 PUSH1 0xA DUP7 PUSH2 0x3EDA JUMP JUMPDEST PUSH2 0x2B71 SWAP1 PUSH1 0x30 PUSH2 0x3B63 JUMP JUMPDEST PUSH1 0xF8 SHL DUP2 DUP4 DUP2 MLOAD DUP2 LT PUSH2 0x2B86 JUMPI PUSH2 0x2B86 PUSH2 0x3B37 JUMP JUMPDEST PUSH1 0x20 ADD ADD SWAP1 PUSH1 0x1 PUSH1 0x1 PUSH1 0xF8 SHL SUB NOT AND SWAP1 DUP2 PUSH1 0x0 BYTE SWAP1 MSTORE8 POP PUSH2 0x2BA8 PUSH1 0xA DUP7 PUSH2 0x3D7A JUMP JUMPDEST SWAP5 POP PUSH2 0x2B48 JUMP JUMPDEST PUSH1 0x0 PUSH1 0x1 PUSH1 0x1 PUSH1 0x40 SHL SUB PUSH1 0x40 PUSH2 0x2BC3 PUSH2 0x228D JUMP JUMPDEST PUSH1 0x5 ADD PUSH1 0x0 DUP6 PUSH1 0x1 PUSH1 0x1 PUSH1 0xA0 SHL SUB AND PUSH1 0x1 PUSH1 0x1 PUSH1 0xA0 SHL SUB AND DUP2 MSTORE PUSH1 0x20 ADD SWAP1 DUP2 MSTORE PUSH1 0x20 ADD PUSH1 0x0 KECCAK256 SLOAD SWAP1 SHR AND SWAP1 POP SWAP2 SWAP1 POP JUMP JUMPDEST PUSH1 0x0 DUP1 PUSH1 0x0 PUSH2 0x2C01 PUSH2 0x228D JUMP JUMPDEST PUSH1 0x0 SWAP5 DUP6 MSTORE PUSH1 0x6 ADD PUSH1 0x20 MSTORE POP POP PUSH1 0x40 SWAP1 SWAP2 KECCAK256 DUP1 SLOAD SWAP1 SWAP3 SWAP1 SWAP2 POP JUMP JUMPDEST PUSH2 0x2C26 DUP4 DUP4 PUSH2 0x260F JUMP JUMPDEST PUSH1 0x1 PUSH1 0x1 PUSH1 0xA0 SHL SUB DUP4 AND EXTCODESIZE ISZERO PUSH2 0x15A3 JUMPI PUSH1 0x0 PUSH2 0x2C40 PUSH2 0x228D JUMP JUMPDEST SLOAD SWAP1 POP DUP3 DUP2 SUB JUMPDEST PUSH2 0x2C5A PUSH1 0x0 DUP7 DUP4 DUP1 PUSH1 0x1 ADD SWAP5 POP DUP7 PUSH2 0x2DC9 JUMP JUMPDEST PUSH2 0x2C6E JUMPI PUSH2 0x2C6E PUSH4 0x68D2BF6B PUSH1 0xE1 SHL PUSH2 0x2307 JUMP JUMPDEST DUP2 DUP2 LT PUSH2 0x2C47 JUMPI DUP2 PUSH2 0x2C7E PUSH2 0x228D JUMP JUMPDEST SLOAD EQ PUSH2 0x1F72 JUMPI PUSH2 0x1F72 PUSH1 0x0 PUSH2 0x2307 JUMP JUMPDEST PUSH1 0x0 DUP2 DUP2 JUMPDEST DUP5 MLOAD DUP2 LT ISZERO PUSH2 0x15EC JUMPI PUSH1 0x0 DUP6 DUP3 DUP2 MLOAD DUP2 LT PUSH2 0x2CB0 JUMPI PUSH2 0x2CB0 PUSH2 0x3B37 JUMP JUMPDEST PUSH1 0x20 MUL PUSH1 0x20 ADD ADD MLOAD SWAP1 POP DUP1 DUP4 GT PUSH2 0x2CD6 JUMPI PUSH1 0x0 DUP4 DUP2 MSTORE PUSH1 0x20 DUP3 SWAP1 MSTORE PUSH1 0x40 SWAP1 KECCAK256 SWAP3 POP PUSH2 0x2CE7 JUMP JUMPDEST PUSH1 0x0 DUP2 DUP2 MSTORE PUSH1 0x20 DUP5 SWAP1 MSTORE PUSH1 0x40 SWAP1 KECCAK256 SWAP3 POP JUMPDEST POP DUP1 PUSH2 0x2CF2 DUP2 PUSH2 0x3B7B JUMP JUMPDEST SWAP2 POP POP PUSH2 0x2C93 JUMP JUMPDEST PUSH1 0x0 DUP1 MLOAD PUSH1 0x20 PUSH2 0x3F5F DUP4 CODECOPY DUP2 MLOAD SWAP2 MSTORE SLOAD PUSH2 0x100 SWAP1 DIV PUSH1 0xFF AND PUSH2 0x2D2E JUMPI PUSH1 0x40 MLOAD PUSH3 0x461BCD PUSH1 0xE5 SHL DUP2 MSTORE PUSH1 0x4 ADD PUSH2 0xA06 SWAP1 PUSH2 0x3E6F JUMP JUMPDEST DUP2 PUSH2 0x2D37 PUSH2 0x228D JUMP JUMPDEST PUSH1 0x2 ADD SWAP1 DUP1 MLOAD SWAP1 PUSH1 0x20 ADD SWAP1 PUSH2 0x2D4D SWAP3 SWAP2 SWAP1 PUSH2 0x3279 JUMP JUMPDEST POP DUP1 PUSH2 0x2D57 PUSH2 0x228D JUMP JUMPDEST PUSH1 0x3 ADD SWAP1 DUP1 MLOAD SWAP1 PUSH1 0x20 ADD SWAP1 PUSH2 0x2D6D SWAP3 SWAP2 SWAP1 PUSH2 0x3279 JUMP JUMPDEST POP PUSH1 0x0 PUSH2 0x2D78 PUSH2 0x228D JUMP JUMPDEST SSTORE POP POP JUMP JUMPDEST PUSH1 0x0 SLOAD PUSH2 0x100 SWAP1 DIV PUSH1 0xFF AND PUSH2 0x2DA4 JUMPI PUSH1 0x40 MLOAD PUSH3 0x461BCD PUSH1 0xE5 SHL DUP2 MSTORE PUSH1 0x4 ADD PUSH2 0xA06 SWAP1 PUSH2 0x3A7B JUMP JUMPDEST PUSH2 0xA2E CALLER PUSH2 0x27D8 JUMP JUMPDEST PUSH1 0x0 DUP1 PUSH1 0x0 PUSH2 0x2DBC DUP6 DUP6 PUSH2 0x2EAB JUMP JUMPDEST SWAP2 POP SWAP2 POP PUSH2 0x15EC DUP2 PUSH2 0x2F19 JUMP JUMPDEST PUSH1 0x40 MLOAD PUSH4 0xA85BD01 PUSH1 0xE1 SHL DUP2 MSTORE PUSH1 0x0 SWAP1 PUSH1 0x1 PUSH1 0x1 PUSH1 0xA0 SHL SUB DUP6 AND SWAP1 PUSH4 0x150B7A02 SWAP1 PUSH2 0x2DFE SWAP1 CALLER SWAP1 DUP10 SWAP1 DUP9 SWAP1 DUP9 SWAP1 PUSH1 0x4 ADD PUSH2 0x3EEE JUMP JUMPDEST PUSH1 0x20 PUSH1 0x40 MLOAD DUP1 DUP4 SUB DUP2 PUSH1 0x0 DUP8 GAS CALL SWAP3 POP POP POP DUP1 ISZERO PUSH2 0x2E39 JUMPI POP PUSH1 0x40 DUP1 MLOAD PUSH1 0x1F RETURNDATASIZE SWAP1 DUP2 ADD PUSH1 0x1F NOT AND DUP3 ADD SWAP1 SWAP3 MSTORE PUSH2 0x2E36 SWAP2 DUP2 ADD SWAP1 PUSH2 0x3F2B JUMP JUMPDEST PUSH1 0x1 JUMPDEST PUSH2 0x2E8E JUMPI RETURNDATASIZE DUP1 DUP1 ISZERO PUSH2 0x2E67 JUMPI PUSH1 0x40 MLOAD SWAP2 POP PUSH1 0x1F NOT PUSH1 0x3F RETURNDATASIZE ADD AND DUP3 ADD PUSH1 0x40 MSTORE RETURNDATASIZE DUP3 MSTORE RETURNDATASIZE PUSH1 0x0 PUSH1 0x20 DUP5 ADD RETURNDATACOPY PUSH2 0x2E6C JUMP JUMPDEST PUSH1 0x60 SWAP2 POP JUMPDEST POP DUP1 MLOAD PUSH1 0x0 SUB PUSH2 0x2E86 JUMPI PUSH2 0x2E86 PUSH4 0x68D2BF6B PUSH1 0xE1 SHL PUSH2 0x2307 JUMP JUMPDEST DUP1 MLOAD DUP2 PUSH1 0x20 ADD REVERT JUMPDEST PUSH1 0x1 PUSH1 0x1 PUSH1 0xE0 SHL SUB NOT AND PUSH4 0xA85BD01 PUSH1 0xE1 SHL EQ SWAP1 POP SWAP5 SWAP4 POP POP POP POP JUMP JUMPDEST PUSH1 0x0 DUP1 DUP3 MLOAD PUSH1 0x41 SUB PUSH2 0x2EE1 JUMPI PUSH1 0x20 DUP4 ADD MLOAD PUSH1 0x40 DUP5 ADD MLOAD PUSH1 0x60 DUP6 ADD MLOAD PUSH1 0x0 BYTE PUSH2 0x2ED5 DUP8 DUP3 DUP6 DUP6 PUSH2 0x30CF JUMP JUMPDEST SWAP5 POP SWAP5 POP POP POP POP PUSH2 0x2F12 JUMP JUMPDEST DUP3 MLOAD PUSH1 0x40 SUB PUSH2 0x2F0A JUMPI PUSH1 0x20 DUP4 ADD MLOAD PUSH1 0x40 DUP5 ADD MLOAD PUSH2 0x2EFF DUP7 DUP4 DUP4 PUSH2 0x31BC JUMP JUMPDEST SWAP4 POP SWAP4 POP POP POP PUSH2 0x2F12 JUMP JUMPDEST POP PUSH1 0x0 SWAP1 POP PUSH1 0x2 JUMPDEST SWAP3 POP SWAP3 SWAP1 POP JUMP JUMPDEST PUSH1 0x0 DUP2 PUSH1 0x4 DUP2 GT ISZERO PUSH2 0x2F2D JUMPI PUSH2 0x2F2D PUSH2 0x3F48 JUMP JUMPDEST SUB PUSH2 0x2F35 JUMPI POP JUMP JUMPDEST PUSH1 0x1 DUP2 PUSH1 0x4 DUP2 GT ISZERO PUSH2 0x2F49 JUMPI PUSH2 0x2F49 PUSH2 0x3F48 JUMP JUMPDEST SUB PUSH2 0x2F96 JUMPI PUSH1 0x40 MLOAD PUSH3 0x461BCD PUSH1 0xE5 SHL DUP2 MSTORE PUSH1 0x20 PUSH1 0x4 DUP3 ADD MSTORE PUSH1 0x18 PUSH1 0x24 DUP3 ADD MSTORE PUSH32 0x45434453413A20696E76616C6964207369676E61747572650000000000000000 PUSH1 0x44 DUP3 ADD MSTORE PUSH1 0x64 ADD PUSH2 0xA06 JUMP JUMPDEST PUSH1 0x2 DUP2 PUSH1 0x4 DUP2 GT ISZERO PUSH2 0x2FAA JUMPI PUSH2 0x2FAA PUSH2 0x3F48 JUMP JUMPDEST SUB PUSH2 0x2FF7 JUMPI PUSH1 0x40 MLOAD PUSH3 0x461BCD PUSH1 0xE5 SHL DUP2 MSTORE PUSH1 0x20 PUSH1 0x4 DUP3 ADD MSTORE PUSH1 0x1F PUSH1 0x24 DUP3 ADD MSTORE PUSH32 0x45434453413A20696E76616C6964207369676E6174757265206C656E67746800 PUSH1 0x44 DUP3 ADD MSTORE PUSH1 0x64 ADD PUSH2 0xA06 JUMP JUMPDEST PUSH1 0x3 DUP2 PUSH1 0x4 DUP2 GT ISZERO PUSH2 0x300B JUMPI PUSH2 0x300B PUSH2 0x3F48 JUMP JUMPDEST SUB PUSH2 0x3063 JUMPI PUSH1 0x40 MLOAD PUSH3 0x461BCD PUSH1 0xE5 SHL DUP2 MSTORE PUSH1 0x20 PUSH1 0x4 DUP3 ADD MSTORE PUSH1 0x22 PUSH1 0x24 DUP3 ADD MSTORE PUSH32 0x45434453413A20696E76616C6964207369676E6174757265202773272076616C PUSH1 0x44 DUP3 ADD MSTORE PUSH2 0x7565 PUSH1 0xF0 SHL PUSH1 0x64 DUP3 ADD MSTORE PUSH1 0x84 ADD PUSH2 0xA06 JUMP JUMPDEST PUSH1 0x4 DUP2 PUSH1 0x4 DUP2 GT ISZERO PUSH2 0x3077 JUMPI PUSH2 0x3077 PUSH2 0x3F48 JUMP JUMPDEST SUB PUSH2 0x1986 JUMPI PUSH1 0x40 MLOAD PUSH3 0x461BCD PUSH1 0xE5 SHL DUP2 MSTORE PUSH1 0x20 PUSH1 0x4 DUP3 ADD MSTORE PUSH1 0x22 PUSH1 0x24 DUP3 ADD MSTORE PUSH32 0x45434453413A20696E76616C6964207369676E6174757265202776272076616C PUSH1 0x44 DUP3 ADD MSTORE PUSH2 0x7565 PUSH1 0xF0 SHL PUSH1 0x64 DUP3 ADD MSTORE PUSH1 0x84 ADD PUSH2 0xA06 JUMP JUMPDEST PUSH1 0x0 DUP1 PUSH32 0x7FFFFFFFFFFFFFFFFFFFFFFFFFFFFFFF5D576E7357A4501DDFE92F46681B20A0 DUP4 GT ISZERO PUSH2 0x3106 JUMPI POP PUSH1 0x0 SWAP1 POP PUSH1 0x3 PUSH2 0x31B3 JUMP JUMPDEST DUP5 PUSH1 0xFF AND PUSH1 0x1B EQ ISZERO DUP1 ISZERO PUSH2 0x311E JUMPI POP DUP5 PUSH1 0xFF AND PUSH1 0x1C EQ ISZERO JUMPDEST ISZERO PUSH2 0x312F JUMPI POP PUSH1 0x0 SWAP1 POP PUSH1 0x4 PUSH2 0x31B3 JUMP JUMPDEST PUSH1 0x40 DUP1 MLOAD PUSH1 0x0 DUP1 DUP3 MSTORE PUSH1 0x20 DUP3 ADD DUP1 DUP5 MSTORE DUP10 SWAP1 MSTORE PUSH1 0xFF DUP9 AND SWAP3 DUP3 ADD SWAP3 SWAP1 SWAP3 MSTORE PUSH1 0x60 DUP2 ADD DUP7 SWAP1 MSTORE PUSH1 0x80 DUP2 ADD DUP6 SWAP1 MSTORE PUSH1 0x1 SWAP1 PUSH1 0xA0 ADD PUSH1 0x20 PUSH1 0x40 MLOAD PUSH1 0x20 DUP2 SUB SWAP1 DUP1 DUP5 SUB SWAP1 DUP6 GAS STATICCALL ISZERO DUP1 ISZERO PUSH2 0x3183 JUMPI RETURNDATASIZE PUSH1 0x0 DUP1 RETURNDATACOPY RETURNDATASIZE PUSH1 0x0 REVERT JUMPDEST POP POP PUSH1 0x40 MLOAD PUSH1 0x1F NOT ADD MLOAD SWAP2 POP POP PUSH1 0x1 PUSH1 0x1 PUSH1 0xA0 SHL SUB DUP2 AND PUSH2 0x31AC JUMPI PUSH1 0x0 PUSH1 0x1 SWAP3 POP SWAP3 POP POP PUSH2 0x31B3 JUMP JUMPDEST SWAP2 POP PUSH1 0x0 SWAP1 POP JUMPDEST SWAP5 POP SWAP5 SWAP3 POP POP POP JUMP JUMPDEST PUSH1 0x0 DUP1 PUSH1 0x1 PUSH1 0x1 PUSH1 0xFF SHL SUB DUP4 AND DUP2 PUSH2 0x31D9 PUSH1 0xFF DUP7 SWAP1 SHR PUSH1 0x1B PUSH2 0x3B63 JUMP JUMPDEST SWAP1 POP PUSH2 0x31E7 DUP8 DUP3 DUP9 DUP6 PUSH2 0x30CF JUMP JUMPDEST SWAP4 POP SWAP4 POP POP POP SWAP4 POP SWAP4 SWAP2 POP POP JUMP JUMPDEST DUP3 DUP1 SLOAD PUSH2 0x3201 SWAP1 PUSH2 0x3AC6 JUMP JUMPDEST SWAP1 PUSH1 0x0 MSTORE PUSH1 0x20 PUSH1 0x0 KECCAK256 SWAP1 PUSH1 0x1F ADD PUSH1 0x20 SWAP1 DIV DUP2 ADD SWAP3 DUP3 PUSH2 0x3223 JUMPI PUSH1 0x0 DUP6 SSTORE PUSH2 0x3269 JUMP JUMPDEST DUP3 PUSH1 0x1F LT PUSH2 0x323C JUMPI DUP3 DUP1 ADD PUSH1 0xFF NOT DUP3 CALLDATALOAD AND OR DUP6 SSTORE PUSH2 0x3269 JUMP JUMPDEST DUP3 DUP1 ADD PUSH1 0x1 ADD DUP6 SSTORE DUP3 ISZERO PUSH2 0x3269 JUMPI SWAP2 DUP3 ADD JUMPDEST DUP3 DUP2 GT ISZERO PUSH2 0x3269 JUMPI DUP3 CALLDATALOAD DUP3 SSTORE SWAP2 PUSH1 0x20 ADD SWAP2 SWAP1 PUSH1 0x1 ADD SWAP1 PUSH2 0x324E JUMP JUMPDEST POP PUSH2 0x3275 SWAP3 SWAP2 POP PUSH2 0x32ED JUMP JUMPDEST POP SWAP1 JUMP JUMPDEST DUP3 DUP1 SLOAD PUSH2 0x3285 SWAP1 PUSH2 0x3AC6 JUMP JUMPDEST SWAP1 PUSH1 0x0 MSTORE PUSH1 0x20 PUSH1 0x0 KECCAK256 SWAP1 PUSH1 0x1F ADD PUSH1 0x20 SWAP1 DIV DUP2 ADD SWAP3 DUP3 PUSH2 0x32A7 JUMPI PUSH1 0x0 DUP6 SSTORE PUSH2 0x3269 JUMP JUMPDEST DUP3 PUSH1 0x1F LT PUSH2 0x32C0 JUMPI DUP1 MLOAD PUSH1 0xFF NOT AND DUP4 DUP1 ADD OR DUP6 SSTORE PUSH2 0x3269 JUMP JUMPDEST DUP3 DUP1 ADD PUSH1 0x1 ADD DUP6 SSTORE DUP3 ISZERO PUSH2 0x3269 JUMPI SWAP2 DUP3 ADD JUMPDEST DUP3 DUP2 GT ISZERO PUSH2 0x3269 JUMPI DUP3 MLOAD DUP3 SSTORE SWAP2 PUSH1 0x20 ADD SWAP2 SWAP1 PUSH1 0x1 ADD SWAP1 PUSH2 0x32D2 JUMP JUMPDEST JUMPDEST DUP1 DUP3 GT ISZERO PUSH2 0x3275 JUMPI PUSH1 0x0 DUP2 SSTORE PUSH1 0x1 ADD PUSH2 0x32EE JUMP JUMPDEST PUSH1 0x1 PUSH1 0x1 PUSH1 0xE0 SHL SUB NOT DUP2 AND DUP2 EQ PUSH2 0x1986 JUMPI PUSH1 0x0 DUP1 REVERT JUMPDEST PUSH1 0x0 PUSH1 0x20 DUP3 DUP5 SUB SLT ISZERO PUSH2 0x332A JUMPI PUSH1 0x0 DUP1 REVERT JUMPDEST DUP2 CALLDATALOAD PUSH2 0x3335 DUP2 PUSH2 0x3302 JUMP JUMPDEST SWAP4 SWAP3 POP POP POP JUMP JUMPDEST PUSH1 0x0 JUMPDEST DUP4 DUP2 LT ISZERO PUSH2 0x3357 JUMPI DUP2 DUP2 ADD MLOAD DUP4 DUP3 ADD MSTORE PUSH1 0x20 ADD PUSH2 0x333F JUMP JUMPDEST DUP4 DUP2 GT ISZERO PUSH2 0xC8D JUMPI POP POP PUSH1 0x0 SWAP2 ADD MSTORE JUMP JUMPDEST PUSH1 0x0 DUP2 MLOAD DUP1 DUP5 MSTORE PUSH2 0x3380 DUP2 PUSH1 0x20 DUP7 ADD PUSH1 0x20 DUP7 ADD PUSH2 0x333C JUMP JUMPDEST PUSH1 0x1F ADD PUSH1 0x1F NOT AND SWAP3 SWAP1 SWAP3 ADD PUSH1 0x20 ADD SWAP3 SWAP2 POP POP JUMP JUMPDEST PUSH1 0x20 DUP2 MSTORE PUSH1 0x0 PUSH2 0x3335 PUSH1 0x20 DUP4 ADD DUP5 PUSH2 0x3368 JUMP JUMPDEST PUSH1 0x0 PUSH1 0x20 DUP3 DUP5 SUB SLT ISZERO PUSH2 0x33B9 JUMPI PUSH1 0x0 DUP1 REVERT JUMPDEST POP CALLDATALOAD SWAP2 SWAP1 POP JUMP JUMPDEST DUP1 CALLDATALOAD PUSH1 0x1 PUSH1 0x1 PUSH1 0xA0 SHL SUB DUP2 AND DUP2 EQ PUSH2 0x1FCF JUMPI PUSH1 0x0 DUP1 REVERT JUMPDEST PUSH1 0x0 DUP1 PUSH1 0x40 DUP4 DUP6 SUB SLT ISZERO PUSH2 0x33EA JUMPI PUSH1 0x0 DUP1 REVERT JUMPDEST PUSH2 0x33F3 DUP4 PUSH2 0x33C0 JUMP JUMPDEST SWAP5 PUSH1 0x20 SWAP4 SWAP1 SWAP4 ADD CALLDATALOAD SWAP4 POP POP POP JUMP JUMPDEST PUSH1 0x0 DUP1 PUSH1 0x0 PUSH1 0x60 DUP5 DUP7 SUB SLT ISZERO PUSH2 0x3416 JUMPI PUSH1 0x0 DUP1 REVERT JUMPDEST PUSH2 0x341F DUP5 PUSH2 0x33C0 JUMP JUMPDEST SWAP3 POP PUSH2 0x342D PUSH1 0x20 DUP6 ADD PUSH2 0x33C0 JUMP JUMPDEST SWAP2 POP PUSH1 0x40 DUP5 ADD CALLDATALOAD SWAP1 POP SWAP3 POP SWAP3 POP SWAP3 JUMP JUMPDEST PUSH4 0x4E487B71 PUSH1 0xE0 SHL PUSH1 0x0 MSTORE PUSH1 0x41 PUSH1 0x4 MSTORE PUSH1 0x24 PUSH1 0x0 REVERT JUMPDEST PUSH1 0x40 MLOAD PUSH1 0x1F DUP3 ADD PUSH1 0x1F NOT AND DUP2 ADD PUSH1 0x1 PUSH1 0x1 PUSH1 0x40 SHL SUB DUP2 GT DUP3 DUP3 LT OR ISZERO PUSH2 0x347B JUMPI PUSH2 0x347B PUSH2 0x343D JUMP JUMPDEST PUSH1 0x40 MSTORE SWAP2 SWAP1 POP JUMP JUMPDEST PUSH1 0x0 PUSH1 0x1 PUSH1 0x1 PUSH1 0x40 SHL SUB DUP3 GT ISZERO PUSH2 0x349C JUMPI PUSH2 0x349C PUSH2 0x343D JUMP JUMPDEST POP PUSH1 0x5 SHL PUSH1 0x20 ADD SWAP1 JUMP JUMPDEST PUSH1 0x0 DUP3 PUSH1 0x1F DUP4 ADD SLT PUSH2 0x34B7 JUMPI PUSH1 0x0 DUP1 REVERT JUMPDEST DUP2 CALLDATALOAD PUSH1 0x20 PUSH2 0x34CC PUSH2 0x34C7 DUP4 PUSH2 0x3483 JUMP JUMPDEST PUSH2 0x3453 JUMP JUMPDEST DUP3 DUP2 MSTORE PUSH1 0x5 SWAP3 SWAP1 SWAP3 SHL DUP5 ADD DUP2 ADD SWAP2 DUP2 DUP2 ADD SWAP1 DUP7 DUP5 GT ISZERO PUSH2 0x34EB JUMPI PUSH1 0x0 DUP1 REVERT JUMPDEST DUP3 DUP7 ADD JUMPDEST DUP5 DUP2 LT ISZERO PUSH2 0x3506 JUMPI DUP1 CALLDATALOAD DUP4 MSTORE SWAP2 DUP4 ADD SWAP2 DUP4 ADD PUSH2 0x34EF JUMP JUMPDEST POP SWAP7 SWAP6 POP POP POP POP POP POP JUMP JUMPDEST PUSH1 0x0 DUP1 PUSH1 0x40 DUP4 DUP6 SUB SLT ISZERO PUSH2 0x3524 JUMPI PUSH1 0x0 DUP1 REVERT JUMPDEST DUP3 CALLDATALOAD PUSH1 0x1 PUSH1 0x1 PUSH1 0x40 SHL SUB DUP1 DUP3 GT ISZERO PUSH2 0x353B JUMPI PUSH1 0x0 DUP1 REVERT JUMPDEST DUP2 DUP6 ADD SWAP2 POP DUP6 PUSH1 0x1F DUP4 ADD SLT PUSH2 0x354F JUMPI PUSH1 0x0 DUP1 REVERT JUMPDEST DUP2 CALLDATALOAD PUSH1 0x20 PUSH2 0x355F PUSH2 0x34C7 DUP4 PUSH2 0x3483 JUMP JUMPDEST DUP3 DUP2 MSTORE PUSH1 0x5 SWAP3 SWAP1 SWAP3 SHL DUP5 ADD DUP2 ADD SWAP2 DUP2 DUP2 ADD SWAP1 DUP10 DUP5 GT ISZERO PUSH2 0x357E JUMPI PUSH1 0x0 DUP1 REVERT JUMPDEST SWAP5 DUP3 ADD SWAP5 JUMPDEST DUP4 DUP7 LT ISZERO PUSH2 0x35A3 JUMPI PUSH2 0x3594 DUP7 PUSH2 0x33C0 JUMP JUMPDEST DUP3 MSTORE SWAP5 DUP3 ADD SWAP5 SWAP1 DUP3 ADD SWAP1 PUSH2 0x3583 JUMP JUMPDEST SWAP7 POP POP DUP7 ADD CALLDATALOAD SWAP3 POP POP DUP1 DUP3 GT ISZERO PUSH2 0x35B9 JUMPI PUSH1 0x0 DUP1 REVERT JUMPDEST POP PUSH2 0x35C6 DUP6 DUP3 DUP7 ADD PUSH2 0x34A6 JUMP JUMPDEST SWAP2 POP POP SWAP3 POP SWAP3 SWAP1 POP JUMP JUMPDEST PUSH1 0x0 DUP1 PUSH1 0x0 PUSH1 0x60 DUP5 DUP7 SUB SLT ISZERO PUSH2 0x35E5 JUMPI PUSH1 0x0 DUP1 REVERT JUMPDEST DUP4 CALLDATALOAD PUSH1 0x1 PUSH1 0x1 PUSH1 0x40 SHL SUB DUP2 GT ISZERO PUSH2 0x35FB JUMPI PUSH1 0x0 DUP1 REVERT JUMPDEST DUP5 ADD PUSH1 0x1F DUP2 ADD DUP7 SGT PUSH2 0x360C JUMPI PUSH1 0x0 DUP1 REVERT JUMPDEST DUP1 CALLDATALOAD PUSH1 0x20 PUSH2 0x361C PUSH2 0x34C7 DUP4 PUSH2 0x3483 JUMP JUMPDEST DUP3 DUP2 MSTORE PUSH1 0x5 SWAP3 SWAP1 SWAP3 SHL DUP4 ADD DUP2 ADD SWAP2 DUP2 DUP2 ADD SWAP1 DUP10 DUP5 GT ISZERO PUSH2 0x363B JUMPI PUSH1 0x0 DUP1 REVERT JUMPDEST SWAP4 DUP3 ADD SWAP4 JUMPDEST DUP4 DUP6 LT ISZERO PUSH2 0x3659 JUMPI DUP5 CALLDATALOAD DUP3 MSTORE SWAP4 DUP3 ADD SWAP4 SWAP1 DUP3 ADD SWAP1 PUSH2 0x3640 JUMP JUMPDEST SWAP10 SWAP2 DUP9 ADD CALLDATALOAD SWAP9 POP POP PUSH1 0x40 SWAP1 SWAP7 ADD CALLDATALOAD SWAP6 SWAP5 POP POP POP POP POP JUMP JUMPDEST PUSH1 0x0 DUP1 DUP4 PUSH1 0x1F DUP5 ADD SLT PUSH2 0x3682 JUMPI PUSH1 0x0 DUP1 REVERT JUMPDEST POP DUP2 CALLDATALOAD PUSH1 0x1 PUSH1 0x1 PUSH1 0x40 SHL SUB DUP2 GT ISZERO PUSH2 0x3699 JUMPI PUSH1 0x0 DUP1 REVERT JUMPDEST PUSH1 0x20 DUP4 ADD SWAP2 POP DUP4 PUSH1 0x20 DUP3 DUP6 ADD ADD GT ISZERO PUSH2 0x2F12 JUMPI PUSH1 0x0 DUP1 REVERT JUMPDEST PUSH1 0x0 DUP1 PUSH1 0x20 DUP4 DUP6 SUB SLT ISZERO PUSH2 0x36C4 JUMPI PUSH1 0x0 DUP1 REVERT JUMPDEST DUP3 CALLDATALOAD PUSH1 0x1 PUSH1 0x1 PUSH1 0x40 SHL SUB DUP2 GT ISZERO PUSH2 0x36DA JUMPI PUSH1 0x0 DUP1 REVERT JUMPDEST PUSH2 0x36E6 DUP6 DUP3 DUP7 ADD PUSH2 0x3670 JUMP JUMPDEST SWAP1 SWAP7 SWAP1 SWAP6 POP SWAP4 POP POP POP POP JUMP JUMPDEST PUSH1 0x0 DUP1 PUSH1 0x20 DUP4 DUP6 SUB SLT ISZERO PUSH2 0x3705 JUMPI PUSH1 0x0 DUP1 REVERT JUMPDEST DUP3 CALLDATALOAD PUSH1 0x1 PUSH1 0x1 PUSH1 0x40 SHL SUB DUP1 DUP3 GT ISZERO PUSH2 0x371C JUMPI PUSH1 0x0 DUP1 REVERT JUMPDEST DUP2 DUP6 ADD SWAP2 POP DUP6 PUSH1 0x1F DUP4 ADD SLT PUSH2 0x3730 JUMPI PUSH1 0x0 DUP1 REVERT JUMPDEST DUP2 CALLDATALOAD DUP2 DUP2 GT ISZERO PUSH2 0x373F JUMPI PUSH1 0x0 DUP1 REVERT JUMPDEST DUP7 PUSH1 0x20 DUP3 PUSH1 0x5 SHL DUP6 ADD ADD GT ISZERO PUSH2 0x3754 JUMPI PUSH1 0x0 DUP1 REVERT JUMPDEST PUSH1 0x20 SWAP3 SWAP1 SWAP3 ADD SWAP7 SWAP2 SWAP6 POP SWAP1 SWAP4 POP POP POP POP JUMP JUMPDEST DUP1 MLOAD PUSH1 0x1 PUSH1 0x1 PUSH1 0xA0 SHL SUB AND DUP3 MSTORE PUSH1 0x20 DUP1 DUP3 ADD MLOAD PUSH1 0x1 PUSH1 0x1 PUSH1 0x40 SHL SUB AND SWAP1 DUP4 ADD MSTORE PUSH1 0x40 DUP1 DUP3 ADD MLOAD ISZERO ISZERO SWAP1 DUP4 ADD MSTORE PUSH1 0x60 SWAP1 DUP2 ADD MLOAD PUSH3 0xFFFFFF AND SWAP2 ADD MSTORE JUMP JUMPDEST PUSH1 0x20 DUP1 DUP3 MSTORE DUP3 MLOAD DUP3 DUP3 ADD DUP2 SWAP1 MSTORE PUSH1 0x0 SWAP2 SWAP1 DUP5 DUP3 ADD SWAP1 PUSH1 0x40 DUP6 ADD SWAP1 DUP5 JUMPDEST DUP2 DUP2 LT ISZERO PUSH2 0x2995 JUMPI PUSH2 0x37D1 DUP4 DUP6 MLOAD PUSH2 0x3766 JUMP JUMPDEST SWAP3 DUP5 ADD SWAP3 PUSH1 0x80 SWAP3 SWAP1 SWAP3 ADD SWAP2 PUSH1 0x1 ADD PUSH2 0x37BE JUMP JUMPDEST PUSH1 0x0 PUSH1 0x20 DUP3 DUP5 SUB SLT ISZERO PUSH2 0x37F6 JUMPI PUSH1 0x0 DUP1 REVERT JUMPDEST PUSH2 0x3335 DUP3 PUSH2 0x33C0 JUMP JUMPDEST PUSH1 0x20 DUP1 DUP3 MSTORE DUP3 MLOAD DUP3 DUP3 ADD DUP2 SWAP1 MSTORE PUSH1 0x0 SWAP2 SWAP1 DUP5 DUP3 ADD SWAP1 PUSH1 0x40 DUP6 ADD SWAP1 DUP5 JUMPDEST DUP2 DUP2 LT ISZERO PUSH2 0x2995 JUMPI DUP4 MLOAD DUP4 MSTORE SWAP3 DUP5 ADD SWAP3 SWAP2 DUP5 ADD SWAP2 PUSH1 0x1 ADD PUSH2 0x381B JUMP JUMPDEST PUSH1 0x0 DUP1 PUSH1 0x0 PUSH1 0x60 DUP5 DUP7 SUB SLT ISZERO PUSH2 0x384C JUMPI PUSH1 0x0 DUP1 REVERT JUMPDEST PUSH2 0x3855 DUP5 PUSH2 0x33C0 JUMP JUMPDEST SWAP6 PUSH1 0x20 DUP6 ADD CALLDATALOAD SWAP6 POP PUSH1 0x40 SWAP1 SWAP5 ADD CALLDATALOAD SWAP4 SWAP3 POP POP POP JUMP JUMPDEST DUP1 ISZERO ISZERO DUP2 EQ PUSH2 0x1986 JUMPI PUSH1 0x0 DUP1 REVERT JUMPDEST PUSH1 0x0 DUP1 PUSH1 0x0 PUSH1 0x40 DUP5 DUP7 SUB SLT ISZERO PUSH2 0x388D JUMPI PUSH1 0x0 DUP1 REVERT JUMPDEST DUP4 CALLDATALOAD PUSH2 0x3898 DUP2 PUSH2 0x386A JUMP JUMPDEST SWAP3 POP PUSH1 0x20 DUP5 ADD CALLDATALOAD PUSH1 0x1 PUSH1 0x1 PUSH1 0x40 SHL SUB DUP2 GT ISZERO PUSH2 0x38B3 JUMPI PUSH1 0x0 DUP1 REVERT JUMPDEST PUSH2 0x38BF DUP7 DUP3 DUP8 ADD PUSH2 0x3670 JUMP JUMPDEST SWAP5 SWAP8 SWAP1 SWAP7 POP SWAP4 SWAP5 POP POP POP POP JUMP JUMPDEST PUSH1 0x0 DUP1 PUSH1 0x40 DUP4 DUP6 SUB SLT ISZERO PUSH2 0x38DF JUMPI PUSH1 0x0 DUP1 REVERT JUMPDEST PUSH2 0x38E8 DUP4 PUSH2 0x33C0 JUMP JUMPDEST SWAP2 POP PUSH1 0x20 DUP4 ADD CALLDATALOAD PUSH2 0x38F8 DUP2 PUSH2 0x386A JUMP JUMPDEST DUP1 SWAP2 POP POP SWAP3 POP SWAP3 SWAP1 POP JUMP JUMPDEST PUSH1 0x0 DUP3 PUSH1 0x1F DUP4 ADD SLT PUSH2 0x3914 JUMPI PUSH1 0x0 DUP1 REVERT JUMPDEST DUP2 CALLDATALOAD PUSH1 0x1 PUSH1 0x1 PUSH1 0x40 SHL SUB DUP2 GT ISZERO PUSH2 0x392D JUMPI PUSH2 0x392D PUSH2 0x343D JUMP JUMPDEST PUSH2 0x3940 PUSH1 0x1F DUP3 ADD PUSH1 0x1F NOT AND PUSH1 0x20 ADD PUSH2 0x3453 JUMP JUMPDEST DUP2 DUP2 MSTORE DUP5 PUSH1 0x20 DUP4 DUP7 ADD ADD GT ISZERO PUSH2 0x3955 JUMPI PUSH1 0x0 DUP1 REVERT JUMPDEST DUP2 PUSH1 0x20 DUP6 ADD PUSH1 0x20 DUP4 ADD CALLDATACOPY PUSH1 0x0 SWAP2 DUP2 ADD PUSH1 0x20 ADD SWAP2 SWAP1 SWAP2 MSTORE SWAP4 SWAP3 POP POP POP JUMP JUMPDEST PUSH1 0x0 DUP1 PUSH1 0x0 PUSH1 0x60 DUP5 DUP7 SUB SLT ISZERO PUSH2 0x3987 JUMPI PUSH1 0x0 DUP1 REVERT JUMPDEST DUP4 CALLDATALOAD SWAP3 POP PUSH1 0x20 DUP5 ADD CALLDATALOAD PUSH1 0x1 PUSH1 0x1 PUSH1 0x40 SHL SUB DUP1 DUP3 AND DUP3 EQ PUSH2 0x39A6 JUMPI PUSH1 0x0 DUP1 REVERT JUMPDEST SWAP1 SWAP3 POP PUSH1 0x40 DUP6 ADD CALLDATALOAD SWAP1 DUP1 DUP3 GT ISZERO PUSH2 0x39BC JUMPI PUSH1 0x0 DUP1 REVERT JUMPDEST POP PUSH2 0x39C9 DUP7 DUP3 DUP8 ADD PUSH2 0x3903 JUMP JUMPDEST SWAP2 POP POP SWAP3 POP SWAP3 POP SWAP3 JUMP JUMPDEST PUSH1 0x0 DUP1 PUSH1 0x0 DUP1 PUSH1 0x80 DUP6 DUP8 SUB SLT ISZERO PUSH2 0x39E9 JUMPI PUSH1 0x0 DUP1 REVERT JUMPDEST PUSH2 0x39F2 DUP6 PUSH2 0x33C0 JUMP JUMPDEST SWAP4 POP PUSH2 0x3A00 PUSH1 0x20 DUP7 ADD PUSH2 0x33C0 JUMP JUMPDEST SWAP3 POP PUSH1 0x40 DUP6 ADD CALLDATALOAD SWAP2 POP PUSH1 0x60 DUP6 ADD CALLDATALOAD PUSH1 0x1 PUSH1 0x1 PUSH1 0x40 SHL SUB DUP2 GT ISZERO PUSH2 0x3A22 JUMPI PUSH1 0x0 DUP1 REVERT JUMPDEST PUSH2 0x3A2E DUP8 DUP3 DUP9 ADD PUSH2 0x3903 JUMP JUMPDEST SWAP2 POP POP SWAP3 SWAP6 SWAP2 SWAP5 POP SWAP3 POP JUMP JUMPDEST PUSH1 0x80 DUP2 ADD PUSH2 0x9D9 DUP3 DUP5 PUSH2 0x3766 JUMP JUMPDEST PUSH1 0x0 DUP1 PUSH1 0x40 DUP4 DUP6 SUB SLT ISZERO PUSH2 0x3A5B JUMPI PUSH1 0x0 DUP1 REVERT JUMPDEST PUSH2 0x3A64 DUP4 PUSH2 0x33C0 JUMP JUMPDEST SWAP2 POP PUSH2 0x3A72 PUSH1 0x20 DUP5 ADD PUSH2 0x33C0 JUMP JUMPDEST SWAP1 POP SWAP3 POP SWAP3 SWAP1 POP JUMP JUMPDEST PUSH1 0x20 DUP1 DUP3 MSTORE PUSH1 0x2B SWAP1 DUP3 ADD MSTORE PUSH32 0x496E697469616C697A61626C653A20636F6E7472616374206973206E6F742069 PUSH1 0x40 DUP3 ADD MSTORE PUSH11 0x6E697469616C697A696E67 PUSH1 0xA8 SHL PUSH1 0x60 DUP3 ADD MSTORE PUSH1 0x80 ADD SWAP1 JUMP JUMPDEST PUSH1 0x1 DUP2 DUP2 SHR SWAP1 DUP3 AND DUP1 PUSH2 0x3ADA JUMPI PUSH1 0x7F DUP3 AND SWAP2 POP JUMPDEST PUSH1 0x20 DUP3 LT DUP2 SUB PUSH2 0x3AFA JUMPI PUSH4 0x4E487B71 PUSH1 0xE0 SHL PUSH1 0x0 MSTORE PUSH1 0x22 PUSH1 0x4 MSTORE PUSH1 0x24 PUSH1 0x0 REVERT JUMPDEST POP SWAP2 SWAP1 POP JUMP JUMPDEST PUSH1 0x1 PUSH1 0x1 PUSH1 0xA0 SHL SUB SWAP3 DUP4 AND DUP2 MSTORE SWAP2 AND PUSH1 0x20 DUP3 ADD MSTORE PUSH1 0x40 ADD SWAP1 JUMP JUMPDEST PUSH1 0x0 PUSH1 0x20 DUP3 DUP5 SUB SLT ISZERO PUSH2 0x3B2C JUMPI PUSH1 0x0 DUP1 REVERT JUMPDEST DUP2 MLOAD PUSH2 0x3335 DUP2 PUSH2 0x386A JUMP JUMPDEST PUSH4 0x4E487B71 PUSH1 0xE0 SHL PUSH1 0x0 MSTORE PUSH1 0x32 PUSH1 0x4 MSTORE PUSH1 0x24 PUSH1 0x0 REVERT JUMPDEST PUSH4 0x4E487B71 PUSH1 0xE0 SHL PUSH1 0x0 MSTORE PUSH1 0x11 PUSH1 0x4 MSTORE PUSH1 0x24 PUSH1 0x0 REVERT JUMPDEST PUSH1 0x0 DUP3 NOT DUP3 GT ISZERO PUSH2 0x3B76 JUMPI PUSH2 0x3B76 PUSH2 0x3B4D JUMP JUMPDEST POP ADD SWAP1 JUMP JUMPDEST PUSH1 0x0 PUSH1 0x1 DUP3 ADD PUSH2 0x3B8D JUMPI PUSH2 0x3B8D PUSH2 0x3B4D JUMP JUMPDEST POP PUSH1 0x1 ADD SWAP1 JUMP JUMPDEST PUSH1 0x20 DUP1 DUP3 MSTORE PUSH1 0x11 SWAP1 DUP3 ADD MSTORE PUSH17 0x4E4F545F454E4F5547485F535550504C59 PUSH1 0x78 SHL PUSH1 0x40 DUP3 ADD MSTORE PUSH1 0x60 ADD SWAP1 JUMP JUMPDEST PUSH1 0x20 DUP1 DUP3 MSTORE PUSH1 0x1D SWAP1 DUP3 ADD MSTORE PUSH32 0x43414E4E4F545F4D494E545F4F4E5F5448455F53414D455F424C4F434B000000 PUSH1 0x40 DUP3 ADD MSTORE PUSH1 0x60 ADD SWAP1 JUMP JUMPDEST PUSH1 0x20 DUP1 DUP3 MSTORE PUSH1 0x1D SWAP1 DUP3 ADD MSTORE PUSH32 0x434F4E5452414354535F4E4F545F414C4C4F5745445F544F5F4D494E54000000 PUSH1 0x40 DUP3 ADD MSTORE PUSH1 0x60 ADD SWAP1 JUMP JUMPDEST PUSH1 0x20 DUP1 DUP3 MSTORE PUSH1 0x1D SWAP1 DUP3 ADD MSTORE PUSH32 0x5055424C49435F4D494E545F49535F4E4F545F5945545F414354495645000000 PUSH1 0x40 DUP3 ADD MSTORE PUSH1 0x60 ADD SWAP1 JUMP JUMPDEST PUSH1 0x20 DUP1 DUP3 MSTORE PUSH1 0x1E SWAP1 DUP3 ADD MSTORE PUSH32 0x50524553414C455F4D494E545F49535F4E4F545F5945545F4143544956450000 PUSH1 0x40 DUP3 ADD MSTORE PUSH1 0x60 ADD SWAP1 JUMP JUMPDEST PUSH1 0x20 DUP1 DUP3 MSTORE PUSH1 0x1B SWAP1 DUP3 ADD MSTORE PUSH32 0x465245455F4D494E545F49535F4E4F545F5945545F4143544956450000000000 PUSH1 0x40 DUP3 ADD MSTORE PUSH1 0x60 ADD SWAP1 JUMP JUMPDEST PUSH1 0x20 DUP1 DUP3 MSTORE PUSH1 0x11 SWAP1 DUP3 ADD MSTORE PUSH17 0x115610D1515117D352539517D312535255 PUSH1 0x7A SHL PUSH1 0x40 DUP3 ADD MSTORE PUSH1 0x60 ADD SWAP1 JUMP JUMPDEST PUSH1 0x20 DUP1 DUP3 MSTORE PUSH1 0x28 SWAP1 DUP3 ADD MSTORE PUSH32 0x455843454544494E475F4D4158494D554D5F414D4F554E545F5045525F545241 PUSH1 0x40 DUP3 ADD MSTORE PUSH8 0x2729A0A1AA24A7A7 PUSH1 0xC1 SHL PUSH1 0x60 DUP3 ADD MSTORE PUSH1 0x80 ADD SWAP1 JUMP JUMPDEST PUSH1 0x0 DUP2 PUSH1 0x0 NOT DIV DUP4 GT DUP3 ISZERO ISZERO AND ISZERO PUSH2 0x3D5F JUMPI PUSH2 0x3D5F PUSH2 0x3B4D JUMP JUMPDEST POP MUL SWAP1 JUMP JUMPDEST PUSH4 0x4E487B71 PUSH1 0xE0 SHL PUSH1 0x0 MSTORE PUSH1 0x12 PUSH1 0x4 MSTORE PUSH1 0x24 PUSH1 0x0 REVERT JUMPDEST PUSH1 0x0 DUP3 PUSH2 0x3D89 JUMPI PUSH2 0x3D89 PUSH2 0x3D64 JUMP JUMPDEST POP DIV SWAP1 JUMP JUMPDEST DUP1 SLOAD PUSH1 0x0 SWAP1 PUSH1 0x1 DUP2 DUP2 SHR SWAP1 DUP1 DUP4 AND DUP1 PUSH2 0x3DA8 JUMPI PUSH1 0x7F DUP4 AND SWAP3 POP JUMPDEST PUSH1 0x20 DUP1 DUP5 LT DUP3 SUB PUSH2 0x3DC9 JUMPI PUSH4 0x4E487B71 PUSH1 0xE0 SHL PUSH1 0x0 MSTORE PUSH1 0x22 PUSH1 0x4 MSTORE PUSH1 0x24 PUSH1 0x0 REVERT JUMPDEST DUP2 DUP1 ISZERO PUSH2 0x3DDD JUMPI PUSH1 0x1 DUP2 EQ PUSH2 0x3DEE JUMPI PUSH2 0x3E1B JUMP JUMPDEST PUSH1 0xFF NOT DUP7 AND DUP10 MSTORE DUP5 DUP10 ADD SWAP7 POP PUSH2 0x3E1B JUMP JUMPDEST PUSH1 0x0 DUP9 DUP2 MSTORE PUSH1 0x20 SWAP1 KECCAK256 PUSH1 0x0 JUMPDEST DUP7 DUP2 LT ISZERO PUSH2 0x3E13 JUMPI DUP2 SLOAD DUP12 DUP3 ADD MSTORE SWAP1 DUP6 ADD SWAP1 DUP4 ADD PUSH2 0x3DFA JUMP JUMPDEST POP POP DUP5 DUP10 ADD SWAP7 POP JUMPDEST POP POP POP POP POP POP SWAP3 SWAP2 POP POP JUMP JUMPDEST PUSH1 0x0 PUSH2 0x3E33 DUP3 DUP6 PUSH2 0x3D8E JUMP JUMPDEST DUP4 MLOAD PUSH2 0x3E43 DUP2 DUP4 PUSH1 0x20 DUP9 ADD PUSH2 0x333C JUMP JUMPDEST ADD SWAP5 SWAP4 POP POP POP POP JUMP JUMPDEST PUSH1 0x0 PUSH2 0x3335 DUP3 DUP5 PUSH2 0x3D8E JUMP JUMPDEST PUSH1 0x0 DUP2 PUSH2 0x3E67 JUMPI PUSH2 0x3E67 PUSH2 0x3B4D JUMP JUMPDEST POP PUSH1 0x0 NOT ADD SWAP1 JUMP JUMPDEST PUSH1 0x20 DUP1 DUP3 MSTORE PUSH1 0x34 SWAP1 DUP3 ADD MSTORE PUSH32 0x455243373231415F5F496E697469616C697A61626C653A20636F6E7472616374 PUSH1 0x40 DUP3 ADD MSTORE PUSH20 0x206973206E6F7420696E697469616C697A696E67 PUSH1 0x60 SHL PUSH1 0x60 DUP3 ADD MSTORE PUSH1 0x80 ADD SWAP1 JUMP JUMPDEST PUSH1 0x0 DUP3 DUP3 LT ISZERO PUSH2 0x3ED5 JUMPI PUSH2 0x3ED5 PUSH2 0x3B4D JUMP JUMPDEST POP SUB SWAP1 JUMP JUMPDEST PUSH1 0x0 DUP3 PUSH2 0x3EE9 JUMPI PUSH2 0x3EE9 PUSH2 0x3D64 JUMP JUMPDEST POP MOD SWAP1 JUMP JUMPDEST PUSH1 0x1 PUSH1 0x1 PUSH1 0xA0 SHL SUB DUP6 DUP2 AND DUP3 MSTORE DUP5 AND PUSH1 0x20 DUP3 ADD MSTORE PUSH1 0x40 DUP2 ADD DUP4 SWAP1 MSTORE PUSH1 0x80 PUSH1 0x60 DUP3 ADD DUP2 SWAP1 MSTORE PUSH1 0x0 SWAP1 PUSH2 0x3F21 SWAP1 DUP4 ADD DUP5 PUSH2 0x3368 JUMP JUMPDEST SWAP7 SWAP6 POP POP POP POP POP POP JUMP JUMPDEST PUSH1 0x0 PUSH1 0x20 DUP3 DUP5 SUB SLT ISZERO PUSH2 0x3F3D JUMPI PUSH1 0x0 DUP1 REVERT JUMPDEST DUP2 MLOAD PUSH2 0x3335 DUP2 PUSH2 0x3302 JUMP JUMPDEST PUSH4 0x4E487B71 PUSH1 0xE0 SHL PUSH1 0x0 MSTORE PUSH1 0x21 PUSH1 0x4 MSTORE PUSH1 0x24 PUSH1 0x0 REVERT INVALID 0xEE ISZERO SHR DUP5 ADD SWAP3 DUP14 0xC2 0x23 PUSH1 0x2B 0xB1 DUP8 0xAF 0xF9 SHL SWAP11 JUMP 0xC7 0xCA 0xE5 SELFBALANCE PUSH15 0xF1B3287B085A16C85FA26469706673 PC 0x22 SLT KECCAK256 PUSH15 0x6A2202FC4933E1C573253C067F479B 0x4F 0x5D 0xD5 PUSH3 0x5F2C68 ISZERO PUSH10 0xE9CABA1DB12CB364736F PUSH13 0x634300080D0033000000000000 "},"methodIdentifiers":{"ADDRESS_1()":"b08da342","ADDRESS_2()":"de97536b","MAX_SUPPLY()":"32cb6b0c","MINT_LIMIT()":"02775240","PUBLIC_PRICE()":"611f3f10","TRANSACTION_LIMIT()":"b6fd509b","WL_PRICE()":"31c3c7a0","__DefaultOperatorFilterer_init()":"03eaebec","__OperatorFilterer_init(address,bool)":"ff633d55","approve(address,uint256)":"095ea7b3","balanceOf(address)":"70a08231","decreaseSupply(uint256)":"98e52f9a","devMint(address[],uint256[])":"2446548f","explicitOwnershipOf(uint256)":"c23dc68f","explicitOwnershipsOf(uint256[])":"5bbb2177","freeMint(bytes32[],uint256,uint256)":"34837ad3","getApproved(uint256)":"081812fc","initialize()":"8129fc1c","isApprovedForAll(address,address)":"e985e9c5","isPresaleActive()":"60d938dc","isPublicSaleActive()":"1e84c413","mint(uint256,uint64,bytes)":"b3754e86","name()":"06fdde03","numberMinted(address)":"dc33e681","owner()":"8da5cb5b","ownerOf(uint256)":"6352211e","presaleMint(bytes32[],uint256,uint256)":"3c18c3da","renounceOwnership()":"715018a6","reveal(bool,string)":"a101ff6d","safeTransferFrom(address,address,uint256)":"42842e0e","safeTransferFrom(address,address,uint256,bytes)":"b88d4fde","setApprovalForAll(address,bool)":"a22cb465","setBaseURI(string)":"55f804b3","setFreeMintRoot(bytes32)":"70c42575","setMintLimit(uint256)":"9e6a1d7d","setPreSaleRoot(bytes32)":"fe042d49","setPreSaleStatus()":"3e07ac02","setPresalePrice(uint256)":"3549345e","setPublicPrice(uint256)":"c6275255","setPublicSaleStatus()":"7dfed9fe","setSigner(address)":"6c19e783","setTransactionLimit(uint256)":"64bfa546","supportsInterface(bytes4)":"01ffc9a7","symbol()":"95d89b41","tokenURI(uint256)":"c87b56dd","tokensOfOwner(address)":"8462151c","tokensOfOwnerIn(address,uint256,uint256)":"99a2557a","totalSupply()":"18160ddd","transferFrom(address,address,uint256)":"23b872dd","transferOwnership(address)":"f2fde38b","usedDigests(bytes32)":"d39c4de7","userPurchase(address)":"b484eff7","withdraw()":"3ccfd60b"}},"storageLayout":{"storage":[{"astId":138,"contract":"contracts/Drivrs.sol:Drivrs","label":"_initialized","offset":0,"slot":"0","type":"t_uint8"},{"astId":141,"contract":"contracts/Drivrs.sol:Drivrs","label":"_initializing","offset":1,"slot":"0","type":"t_bool"},{"astId":625,"contract":"contracts/Drivrs.sol:Drivrs","label":"__gap","offset":0,"slot":"1","type":"t_array(t_uint256)50_storage"},{"astId":10,"contract":"contracts/Drivrs.sol:Drivrs","label":"_owner","offset":0,"slot":"51","type":"t_address"},{"astId":130,"contract":"contracts/Drivrs.sol:Drivrs","label":"__gap","offset":0,"slot":"52","type":"t_array(t_uint256)49_storage"},{"astId":1473,"contract":"contracts/Drivrs.sol:Drivrs","label":"MAX_SUPPLY","offset":0,"slot":"101","type":"t_uint256"},{"astId":1475,"contract":"contracts/Drivrs.sol:Drivrs","label":"WL_PRICE","offset":0,"slot":"102","type":"t_uint256"},{"astId":1477,"contract":"contracts/Drivrs.sol:Drivrs","label":"PUBLIC_PRICE","offset":0,"slot":"103","type":"t_uint256"},{"astId":1479,"contract":"contracts/Drivrs.sol:Drivrs","label":"MINT_LIMIT","offset":0,"slot":"104","type":"t_uint256"},{"astId":1481,"contract":"contracts/Drivrs.sol:Drivrs","label":"TRANSACTION_LIMIT","offset":0,"slot":"105","type":"t_uint256"},{"astId":1483,"contract":"contracts/Drivrs.sol:Drivrs","label":"isPublicSaleActive","offset":0,"slot":"106","type":"t_bool"},{"astId":1485,"contract":"contracts/Drivrs.sol:Drivrs","label":"isPresaleActive","offset":1,"slot":"106","type":"t_bool"},{"astId":1487,"contract":"contracts/Drivrs.sol:Drivrs","label":"_revealed","offset":2,"slot":"106","type":"t_bool"},{"astId":1489,"contract":"contracts/Drivrs.sol:Drivrs","label":"baseURI","offset":0,"slot":"107","type":"t_string_storage"},{"astId":1491,"contract":"contracts/Drivrs.sol:Drivrs","label":"presaleRoot","offset":0,"slot":"108","type":"t_bytes32"},{"astId":1493,"contract":"contracts/Drivrs.sol:Drivrs","label":"freemintRoot","offset":0,"slot":"109","type":"t_bytes32"},{"astId":1503,"contract":"contracts/Drivrs.sol:Drivrs","label":"userPurchase","offset":0,"slot":"110","type":"t_mapping(t_address,t_struct(UserPurchaseInfo)1498_storage)"},{"astId":1507,"contract":"contracts/Drivrs.sol:Drivrs","label":"addressBlockBought","offset":0,"slot":"111","type":"t_mapping(t_address,t_uint256)"},{"astId":1515,"contract":"contracts/Drivrs.sol:Drivrs","label":"signer","offset":0,"slot":"112","type":"t_address"},{"astId":1519,"contract":"contracts/Drivrs.sol:Drivrs","label":"usedDigests","offset":0,"slot":"113","type":"t_mapping(t_bytes32,t_bool)"}],"types":{"t_address":{"encoding":"inplace","label":"address","numberOfBytes":"20"},"t_array(t_uint256)49_storage":{"base":"t_uint256","encoding":"inplace","label":"uint256[49]","numberOfBytes":"1568"},"t_array(t_uint256)50_storage":{"base":"t_uint256","encoding":"inplace","label":"uint256[50]","numberOfBytes":"1600"},"t_bool":{"encoding":"inplace","label":"bool","numberOfBytes":"1"},"t_bytes32":{"encoding":"inplace","label":"bytes32","numberOfBytes":"32"},"t_mapping(t_address,t_struct(UserPurchaseInfo)1498_storage)":{"encoding":"mapping","key":"t_address","label":"mapping(address => struct Drivrs.UserPurchaseInfo)","numberOfBytes":"32","value":"t_struct(UserPurchaseInfo)1498_storage"},"t_mapping(t_address,t_uint256)":{"encoding":"mapping","key":"t_address","label":"mapping(address => uint256)","numberOfBytes":"32","value":"t_uint256"},"t_mapping(t_bytes32,t_bool)":{"encoding":"mapping","key":"t_bytes32","label":"mapping(bytes32 => bool)","numberOfBytes":"32","value":"t_bool"},"t_string_storage":{"encoding":"bytes","label":"string","numberOfBytes":"32"},"t_struct(UserPurchaseInfo)1498_storage":{"encoding":"inplace","label":"struct Drivrs.UserPurchaseInfo","members":[{"astId":1495,"contract":"contracts/Drivrs.sol:Drivrs","label":"presaleMinted","offset":0,"slot":"0","type":"t_uint256"},{"astId":1497,"contract":"contracts/Drivrs.sol:Drivrs","label":"freeMinted","offset":0,"slot":"1","type":"t_uint256"}],"numberOfBytes":"64"},"t_uint256":{"encoding":"inplace","label":"uint256","numberOfBytes":"32"},"t_uint8":{"encoding":"inplace","label":"uint8","numberOfBytes":"1"}}}}}}