{
  "_format": "hh-sol-artifact-1",
  "contractName": "RacePermit",
  "sourceName": "contracts/RacePermit.sol",
  "abi": [
    {
      "inputs": [],
      "name": "ApprovalCallerNotOwnerNorApproved",
      "type": "error"
    },
    {
      "inputs": [],
      "name": "ApprovalQueryForNonexistentToken",
      "type": "error"
    },
    {
      "inputs": [],
      "name": "BalanceQueryForZeroAddress",
      "type": "error"
    },
    {
      "inputs": [],
      "name": "InvalidQueryRange",
      "type": "error"
    },
    {
      "inputs": [],
      "name": "MintERC2309QuantityExceedsLimit",
      "type": "error"
    },
    {
      "inputs": [],
      "name": "MintToZeroAddress",
      "type": "error"
    },
    {
      "inputs": [],
      "name": "MintZeroQuantity",
      "type": "error"
    },
    {
      "inputs": [
        {
          "internalType": "address",
          "name": "operator",
          "type": "address"
        }
      ],
      "name": "OperatorNotAllowed",
      "type": "error"
    },
    {
      "inputs": [],
      "name": "OwnerQueryForNonexistentToken",
      "type": "error"
    },
    {
      "inputs": [],
      "name": "OwnershipNotInitializedForExtraData",
      "type": "error"
    },
    {
      "inputs": [],
      "name": "TransferCallerNotOwnerNorApproved",
      "type": "error"
    },
    {
      "inputs": [],
      "name": "TransferFromIncorrectOwner",
      "type": "error"
    },
    {
      "inputs": [],
      "name": "TransferToNonERC721ReceiverImplementer",
      "type": "error"
    },
    {
      "inputs": [],
      "name": "TransferToZeroAddress",
      "type": "error"
    },
    {
      "inputs": [],
      "name": "URIQueryForNonexistentToken",
      "type": "error"
    },
    {
      "anonymous": false,
      "inputs": [
        {
          "indexed": true,
          "internalType": "address",
          "name": "owner",
          "type": "address"
        },
        {
          "indexed": true,
          "internalType": "address",
          "name": "approved",
          "type": "address"
        },
        {
          "indexed": true,
          "internalType": "uint256",
          "name": "tokenId",
          "type": "uint256"
        }
      ],
      "name": "Approval",
      "type": "event"
    },
    {
      "anonymous": false,
      "inputs": [
        {
          "indexed": true,
          "internalType": "address",
          "name": "owner",
          "type": "address"
        },
        {
          "indexed": true,
          "internalType": "address",
          "name": "operator",
          "type": "address"
        },
        {
          "indexed": false,
          "internalType": "bool",
          "name": "approved",
          "type": "bool"
        }
      ],
      "name": "ApprovalForAll",
      "type": "event"
    },
    {
      "anonymous": false,
      "inputs": [
        {
          "indexed": true,
          "internalType": "uint256",
          "name": "fromTokenId",
          "type": "uint256"
        },
        {
          "indexed": false,
          "internalType": "uint256",
          "name": "toTokenId",
          "type": "uint256"
        },
        {
          "indexed": true,
          "internalType": "address",
          "name": "from",
          "type": "address"
        },
        {
          "indexed": true,
          "internalType": "address",
          "name": "to",
          "type": "address"
        }
      ],
      "name": "ConsecutiveTransfer",
      "type": "event"
    },
    {
      "anonymous": false,
      "inputs": [
        {
          "indexed": false,
          "internalType": "uint8",
          "name": "version",
          "type": "uint8"
        }
      ],
      "name": "Initialized",
      "type": "event"
    },
    {
      "anonymous": false,
      "inputs": [
        {
          "indexed": true,
          "internalType": "address",
          "name": "previousOwner",
          "type": "address"
        },
        {
          "indexed": true,
          "internalType": "address",
          "name": "newOwner",
          "type": "address"
        }
      ],
      "name": "OwnershipTransferred",
      "type": "event"
    },
    {
      "anonymous": false,
      "inputs": [
        {
          "indexed": true,
          "internalType": "address",
          "name": "from",
          "type": "address"
        },
        {
          "indexed": true,
          "internalType": "address",
          "name": "to",
          "type": "address"
        },
        {
          "indexed": true,
          "internalType": "uint256",
          "name": "tokenId",
          "type": "uint256"
        }
      ],
      "name": "Transfer",
      "type": "event"
    },
    {
      "inputs": [],
      "name": "Drivrs",
      "outputs": [
        {
          "internalType": "contract iDrivrs",
          "name": "",
          "type": "address"
        }
      ],
      "stateMutability": "view",
      "type": "function"
    },
    {
      "inputs": [],
      "name": "MAX_SUPPLY",
      "outputs": [
        {
          "internalType": "uint256",
          "name": "",
          "type": "uint256"
        }
      ],
      "stateMutability": "view",
      "type": "function"
    },
    {
      "inputs": [],
      "name": "__DefaultOperatorFilterer_init",
      "outputs": [],
      "stateMutability": "nonpayable",
      "type": "function"
    },
    {
      "inputs": [
        {
          "internalType": "address",
          "name": "subscriptionOrRegistrantToCopy",
          "type": "address"
        },
        {
          "internalType": "bool",
          "name": "subscribe",
          "type": "bool"
        }
      ],
      "name": "__OperatorFilterer_init",
      "outputs": [],
      "stateMutability": "nonpayable",
      "type": "function"
    },
    {
      "inputs": [
        {
          "internalType": "address",
          "name": "to",
          "type": "address"
        },
        {
          "internalType": "uint256",
          "name": "tokenId",
          "type": "uint256"
        }
      ],
      "name": "approve",
      "outputs": [],
      "stateMutability": "payable",
      "type": "function"
    },
    {
      "inputs": [
        {
          "internalType": "address",
          "name": "owner",
          "type": "address"
        }
      ],
      "name": "balanceOf",
      "outputs": [
        {
          "internalType": "uint256",
          "name": "",
          "type": "uint256"
        }
      ],
      "stateMutability": "view",
      "type": "function"
    },
    {
      "inputs": [
        {
          "internalType": "uint256",
          "name": "",
          "type": "uint256"
        }
      ],
      "name": "claimed",
      "outputs": [
        {
          "internalType": "bool",
          "name": "",
          "type": "bool"
        }
      ],
      "stateMutability": "view",
      "type": "function"
    },
    {
      "inputs": [
        {
          "internalType": "uint256",
          "name": "",
          "type": "uint256"
        }
      ],
      "name": "claimedIds",
      "outputs": [
        {
          "internalType": "uint256",
          "name": "",
          "type": "uint256"
        }
      ],
      "stateMutability": "view",
      "type": "function"
    },
    {
      "inputs": [
        {
          "internalType": "uint256",
          "name": "_maxSupply",
          "type": "uint256"
        }
      ],
      "name": "decreaseSupply",
      "outputs": [],
      "stateMutability": "nonpayable",
      "type": "function"
    },
    {
      "inputs": [
        {
          "internalType": "address[]",
          "name": "_addresses",
          "type": "address[]"
        },
        {
          "internalType": "uint256[]",
          "name": "quantities",
          "type": "uint256[]"
        }
      ],
      "name": "devMint",
      "outputs": [],
      "stateMutability": "nonpayable",
      "type": "function"
    },
    {
      "inputs": [
        {
          "internalType": "uint256",
          "name": "tokenId",
          "type": "uint256"
        }
      ],
      "name": "explicitOwnershipOf",
      "outputs": [
        {
          "components": [
            {
              "internalType": "address",
              "name": "addr",
              "type": "address"
            },
            {
              "internalType": "uint64",
              "name": "startTimestamp",
              "type": "uint64"
            },
            {
              "internalType": "bool",
              "name": "burned",
              "type": "bool"
            },
            {
              "internalType": "uint24",
              "name": "extraData",
              "type": "uint24"
            }
          ],
          "internalType": "struct IERC721AUpgradeable.TokenOwnership",
          "name": "ownership",
          "type": "tuple"
        }
      ],
      "stateMutability": "view",
      "type": "function"
    },
    {
      "inputs": [
        {
          "internalType": "uint256[]",
          "name": "tokenIds",
          "type": "uint256[]"
        }
      ],
      "name": "explicitOwnershipsOf",
      "outputs": [
        {
          "components": [
            {
              "internalType": "address",
              "name": "addr",
              "type": "address"
            },
            {
              "internalType": "uint64",
              "name": "startTimestamp",
              "type": "uint64"
            },
            {
              "internalType": "bool",
              "name": "burned",
              "type": "bool"
            },
            {
              "internalType": "uint24",
              "name": "extraData",
              "type": "uint24"
            }
          ],
          "internalType": "struct IERC721AUpgradeable.TokenOwnership[]",
          "name": "",
          "type": "tuple[]"
        }
      ],
      "stateMutability": "view",
      "type": "function"
    },
    {
      "inputs": [
        {
          "internalType": "uint256",
          "name": "tokenId",
          "type": "uint256"
        }
      ],
      "name": "getApproved",
      "outputs": [
        {
          "internalType": "address",
          "name": "",
          "type": "address"
        }
      ],
      "stateMutability": "view",
      "type": "function"
    },
    {
      "inputs": [],
      "name": "getClaimed",
      "outputs": [
        {
          "internalType": "uint256[]",
          "name": "",
          "type": "uint256[]"
        }
      ],
      "stateMutability": "view",
      "type": "function"
    },
    {
      "inputs": [
        {
          "internalType": "address",
          "name": "DrivrsAddress",
          "type": "address"
        }
      ],
      "name": "initialize",
      "outputs": [],
      "stateMutability": "nonpayable",
      "type": "function"
    },
    {
      "inputs": [
        {
          "internalType": "address",
          "name": "owner",
          "type": "address"
        },
        {
          "internalType": "address",
          "name": "operator",
          "type": "address"
        }
      ],
      "name": "isApprovedForAll",
      "outputs": [
        {
          "internalType": "bool",
          "name": "",
          "type": "bool"
        }
      ],
      "stateMutability": "view",
      "type": "function"
    },
    {
      "inputs": [],
      "name": "isPresaleActive",
      "outputs": [
        {
          "internalType": "bool",
          "name": "",
          "type": "bool"
        }
      ],
      "stateMutability": "view",
      "type": "function"
    },
    {
      "inputs": [
        {
          "internalType": "uint256[]",
          "name": "tokenIds",
          "type": "uint256[]"
        }
      ],
      "name": "mint",
      "outputs": [],
      "stateMutability": "nonpayable",
      "type": "function"
    },
    {
      "inputs": [],
      "name": "name",
      "outputs": [
        {
          "internalType": "string",
          "name": "",
          "type": "string"
        }
      ],
      "stateMutability": "view",
      "type": "function"
    },
    {
      "inputs": [],
      "name": "owner",
      "outputs": [
        {
          "internalType": "address",
          "name": "",
          "type": "address"
        }
      ],
      "stateMutability": "view",
      "type": "function"
    },
    {
      "inputs": [
        {
          "internalType": "uint256",
          "name": "tokenId",
          "type": "uint256"
        }
      ],
      "name": "ownerOf",
      "outputs": [
        {
          "internalType": "address",
          "name": "",
          "type": "address"
        }
      ],
      "stateMutability": "view",
      "type": "function"
    },
    {
      "inputs": [],
      "name": "renounceOwnership",
      "outputs": [],
      "stateMutability": "nonpayable",
      "type": "function"
    },
    {
      "inputs": [
        {
          "internalType": "bool",
          "name": "revealed",
          "type": "bool"
        },
        {
          "internalType": "string",
          "name": "_baseURI",
          "type": "string"
        }
      ],
      "name": "reveal",
      "outputs": [],
      "stateMutability": "nonpayable",
      "type": "function"
    },
    {
      "inputs": [
        {
          "internalType": "address",
          "name": "from",
          "type": "address"
        },
        {
          "internalType": "address",
          "name": "to",
          "type": "address"
        },
        {
          "internalType": "uint256",
          "name": "tokenId",
          "type": "uint256"
        }
      ],
      "name": "safeTransferFrom",
      "outputs": [],
      "stateMutability": "payable",
      "type": "function"
    },
    {
      "inputs": [
        {
          "internalType": "address",
          "name": "from",
          "type": "address"
        },
        {
          "internalType": "address",
          "name": "to",
          "type": "address"
        },
        {
          "internalType": "uint256",
          "name": "tokenId",
          "type": "uint256"
        },
        {
          "internalType": "bytes",
          "name": "data",
          "type": "bytes"
        }
      ],
      "name": "safeTransferFrom",
      "outputs": [],
      "stateMutability": "payable",
      "type": "function"
    },
    {
      "inputs": [
        {
          "internalType": "address",
          "name": "operator",
          "type": "address"
        },
        {
          "internalType": "bool",
          "name": "approved",
          "type": "bool"
        }
      ],
      "name": "setApprovalForAll",
      "outputs": [],
      "stateMutability": "nonpayable",
      "type": "function"
    },
    {
      "inputs": [
        {
          "internalType": "string",
          "name": "URI",
          "type": "string"
        }
      ],
      "name": "setBaseURI",
      "outputs": [],
      "stateMutability": "nonpayable",
      "type": "function"
    },
    {
      "inputs": [],
      "name": "setPreSaleStatus",
      "outputs": [],
      "stateMutability": "nonpayable",
      "type": "function"
    },
    {
      "inputs": [
        {
          "internalType": "bytes4",
          "name": "interfaceId",
          "type": "bytes4"
        }
      ],
      "name": "supportsInterface",
      "outputs": [
        {
          "internalType": "bool",
          "name": "",
          "type": "bool"
        }
      ],
      "stateMutability": "view",
      "type": "function"
    },
    {
      "inputs": [],
      "name": "symbol",
      "outputs": [
        {
          "internalType": "string",
          "name": "",
          "type": "string"
        }
      ],
      "stateMutability": "view",
      "type": "function"
    },
    {
      "inputs": [
        {
          "internalType": "uint256",
          "name": "tokenId",
          "type": "uint256"
        }
      ],
      "name": "tokenURI",
      "outputs": [
        {
          "internalType": "string",
          "name": "",
          "type": "string"
        }
      ],
      "stateMutability": "view",
      "type": "function"
    },
    {
      "inputs": [
        {
          "internalType": "address",
          "name": "owner",
          "type": "address"
        }
      ],
      "name": "tokensOfOwner",
      "outputs": [
        {
          "internalType": "uint256[]",
          "name": "",
          "type": "uint256[]"
        }
      ],
      "stateMutability": "view",
      "type": "function"
    },
    {
      "inputs": [
        {
          "internalType": "address",
          "name": "owner",
          "type": "address"
        },
        {
          "internalType": "uint256",
          "name": "start",
          "type": "uint256"
        },
        {
          "internalType": "uint256",
          "name": "stop",
          "type": "uint256"
        }
      ],
      "name": "tokensOfOwnerIn",
      "outputs": [
        {
          "internalType": "uint256[]",
          "name": "",
          "type": "uint256[]"
        }
      ],
      "stateMutability": "view",
      "type": "function"
    },
    {
      "inputs": [],
      "name": "totalSupply",
      "outputs": [
        {
          "internalType": "uint256",
          "name": "",
          "type": "uint256"
        }
      ],
      "stateMutability": "view",
      "type": "function"
    },
    {
      "inputs": [
        {
          "internalType": "address",
          "name": "from",
          "type": "address"
        },
        {
          "internalType": "address",
          "name": "to",
          "type": "address"
        },
        {
          "internalType": "uint256",
          "name": "tokenId",
          "type": "uint256"
        }
      ],
      "name": "transferFrom",
      "outputs": [],
      "stateMutability": "payable",
      "type": "function"
    },
    {
      "inputs": [
        {
          "internalType": "address",
          "name": "newOwner",
          "type": "address"
        }
      ],
      "name": "transferOwnership",
      "outputs": [],
      "stateMutability": "nonpayable",
      "type": "function"
    },
    {
      "inputs": [
        {
          "internalType": "bytes32",
          "name": "",
          "type": "bytes32"
        }
      ],
      "name": "usedDigests",
      "outputs": [
        {
          "internalType": "bool",
          "name": "",
          "type": "bool"
        }
      ],
      "stateMutability": "view",
      "type": "function"
    }
  ],
  "bytecode": "0x608060405234801561001057600080fd5b50612fc2806100206000396000f3fe60806040526004361061021a5760003560e01c8063715018a611610123578063b88d4fde116100ab578063dbe7e3bd1161006f578063dbe7e3bd1461060d578063e985e9c51461063d578063f2fde38b1461065d578063f8e93ef91461067d578063ff633d551461069d57600080fd5b8063b88d4fde1461055d578063c23dc68f14610570578063c4d66de81461059d578063c87b56dd146105bd578063d39c4de7146105dd57600080fd5b806398e52f9a116100f257806398e52f9a146104c857806399a2557a146104e8578063a101ff6d14610508578063a22cb46514610528578063ae3bb4601461054857600080fd5b8063715018a6146104535780638462151c146104685780638da5cb5b1461049557806395d89b41146104b357600080fd5b80633e07ac02116101a657806360d938dc1161017557806360d938dc146103b95780636352211e146103d357806369cdcfdc146103f35780636c17dcd81461041357806370a082311461043357600080fd5b80633e07ac021461034457806342842e0e1461035957806355f804b31461036c5780635bbb21771461038c57600080fd5b8063095ea7b3116101ed578063095ea7b3146102c557806318160ddd146102d857806323b872dd146102fb5780632446548f1461030e57806332cb6b0c1461032e57600080fd5b806301ffc9a71461021f57806303eaebec1461025457806306fdde031461026b578063081812fc1461028d575b600080fd5b34801561022b57600080fd5b5061023f61023a3660046125c0565b6106bd565b60405190151581526020015b60405180910390f35b34801561026057600080fd5b5061026961070f565b005b34801561027757600080fd5b50610280610760565b60405161024b919061263c565b34801561029957600080fd5b506102ad6102a836600461264f565b6107fb565b6040516001600160a01b03909116815260200161024b565b6102696102d336600461267d565b61083f565b3480156102e457600080fd5b506102ed61084f565b60405190815260200161024b565b6102696103093660046126a9565b61086e565b34801561031a57600080fd5b506102696103293660046127be565b6109c3565b34801561033a57600080fd5b506102ed60665481565b34801561035057600080fd5b50610269610b07565b6102696103673660046126a9565b610b23565b34801561037857600080fd5b506102696103873660046128c7565b610c6d565b34801561039857600080fd5b506103ac6103a7366004612908565b610c86565b60405161024b91906129b8565b3480156103c557600080fd5b5060675461023f9060ff1681565b3480156103df57600080fd5b506102ad6103ee36600461264f565b610cd2565b3480156103ff57600080fd5b506102ed61040e36600461264f565b610cdd565b34801561041f57600080fd5b506065546102ad906001600160a01b031681565b34801561043f57600080fd5b506102ed61044e3660046129fa565b610cfe565b34801561045f57600080fd5b50610269610d5d565b34801561047457600080fd5b506104886104833660046129fa565b610d6f565b60405161024b9190612a17565b3480156104a157600080fd5b506033546001600160a01b03166102ad565b3480156104bf57600080fd5b50610280610d9d565b3480156104d457600080fd5b506102696104e336600461264f565b610db5565b3480156104f457600080fd5b50610488610503366004612a4f565b610e0a565b34801561051457600080fd5b50610269610523366004612a92565b610e17565b34801561053457600080fd5b50610269610543366004612ae6565b610e3e565b34801561055457600080fd5b50610488610ebb565b61026961056b366004612b1f565b610f12565b34801561057c57600080fd5b5061059061058b36600461264f565b61106a565b60405161024b9190612be2565b3480156105a957600080fd5b506102696105b83660046129fa565b6110c5565b3480156105c957600080fd5b506102806105d836600461264f565b61137e565b3480156105e957600080fd5b5061023f6105f836600461264f565b606c6020526000908152604090205460ff1681565b34801561061957600080fd5b5061023f61062836600461264f565b606a6020526000908152604090205460ff1681565b34801561064957600080fd5b5061023f610658366004612bf0565b6113d5565b34801561066957600080fd5b506102696106783660046129fa565b611412565b34801561068957600080fd5b50610269610698366004612c1e565b61148b565b3480156106a957600080fd5b506102696106b8366004612ae6565b6117fb565b60006301ffc9a760e01b6001600160e01b0319831614806106ee57506380ac58cd60e01b6001600160e01b03198316145b806107095750635b5e139f60e01b6001600160e01b03198316145b92915050565b600054610100900460ff1661073f5760405162461bcd60e51b815260040161073690612c52565b60405180910390fd5b61075e733cc6cdda760b79bafa08df41ecfa224f810dceb660016117fb565b565b606061076a61198c565b600201805461077890612c9d565b80601f01602080910402602001604051908101604052809291908181526020018280546107a490612c9d565b80156107f15780601f106107c6576101008083540402835291602001916107f1565b820191906000526020600020905b8154815290600101906020018083116107d457829003601f168201915b5050505050905090565b6000610806826119b0565b61081a5761081a6333d1c03960e21b611a06565b61082261198c565b60009283526006016020525060409020546001600160a01b031690565b61084b82826001611a10565b5050565b60008061085a61198c565b6001015461086661198c565b540303919050565b826daaeb6d7670e522a718067333cd4e3b156109b257336001600160a01b038216036108a45761089f848484611ac1565b6109bd565b604051633185c44d60e21b81526daaeb6d7670e522a718067333cd4e9063c6171134906108d79030903390600401612cd7565b602060405180830381865afa1580156108f4573d6000803e3d6000fd5b505050506040513d601f19601f820116820180604052508101906109189190612cf1565b80156109935750604051633185c44d60e21b81526daaeb6d7670e522a718067333cd4e9063c6171134906109529030908590600401612cd7565b602060405180830381865afa15801561096f573d6000803e3d6000fd5b505050506040513d601f19601f820116820180604052508101906109939190612cf1565b6109b257604051633b79c77360e21b8152336004820152602401610736565b6109bd848484611ac1565b50505050565b6109cb611c84565b8051825114610a0f5760405162461bcd60e51b815260206004820152601060248201526f57524f4e475f504152414d455445525360801b6044820152606401610736565b6000805b8251811015610a5557828181518110610a2e57610a2e612d0e565b602002602001015182610a419190612d3a565b915080610a4d81612d52565b915050610a13565b50606654610a6161084f565b610a6b9083612d3a565b1115610aad5760405162461bcd60e51b81526020600482015260116024820152704e4f545f454e4f5547485f535550504c5960781b6044820152606401610736565b60005b83518110156109bd57610af5848281518110610ace57610ace612d0e565b6020026020010151848381518110610ae857610ae8612d0e565b6020026020010151611cde565b80610aff81612d52565b915050610ab0565b610b0f611c84565b6067805460ff19811660ff90911615179055565b826daaeb6d7670e522a718067333cd4e3b15610c6257336001600160a01b03821603610b545761089f848484611cf8565b604051633185c44d60e21b81526daaeb6d7670e522a718067333cd4e9063c617113490610b879030903390600401612cd7565b602060405180830381865afa158015610ba4573d6000803e3d6000fd5b505050506040513d601f19601f82011682018060405250810190610bc89190612cf1565b8015610c435750604051633185c44d60e21b81526daaeb6d7670e522a718067333cd4e9063c617113490610c029030908590600401612cd7565b602060405180830381865afa158015610c1f573d6000803e3d6000fd5b505050506040513d601f19601f82011682018060405250810190610c439190612cf1565b610c6257604051633b79c77360e21b8152336004820152602401610736565b6109bd848484611cf8565b610c75611c84565b610c816068838361249d565b505050565b60408051828152600583901b8082016020019092526060915b8015610cca57601f1980820191860101356000610cbb8261106a565b8484016020015250610c9f9050565b509392505050565b600061070982611d13565b606b8181548110610ced57600080fd5b600091825260209091200154905081565b60006001600160a01b038216610d1e57610d1e6323d3ad8160e21b611a06565b6001600160401b03610d2e61198c565b6005016000846001600160a01b03166001600160a01b0316815260200190815260200160002054169050919050565b610d65611c84565b61075e6000611dcd565b6060600080610d7c611e1f565b90506060818314610d9557610d92858484611e2f565b90505b949350505050565b6060610da761198c565b600301805461077890612c9d565b610dbd611c84565b6066548110610e055760405162461bcd60e51b815260206004820152601460248201527343414e545f494e4352454153455f535550504c5960601b6044820152606401610736565b606655565b6060610d95848484611e2f565b610e1f611c84565b6067805461ff001916610100851515021790556109bd6068838361249d565b80610e4761198c565b336000818152600792909201602090815260408084206001600160a01b03881680865290835293819020805460ff19169515159590951790945592518415158152919290917f17307eab39ab6107e8899845ad3d59bd9653f200f220920489ca2b5937696c31910160405180910390a35050565b6060606b8054806020026020016040519081016040528092919081815260200182805480156107f157602002820191906000526020600020905b815481526020019060010190808311610ef5575050505050905090565b836daaeb6d7670e522a718067333cd4e3b1561105757336001600160a01b03821603610f4957610f4485858585611f29565b611063565b604051633185c44d60e21b81526daaeb6d7670e522a718067333cd4e9063c617113490610f7c9030903390600401612cd7565b602060405180830381865afa158015610f99573d6000803e3d6000fd5b505050506040513d601f19601f82011682018060405250810190610fbd9190612cf1565b80156110385750604051633185c44d60e21b81526daaeb6d7670e522a718067333cd4e9063c617113490610ff79030908590600401612cd7565b602060405180830381865afa158015611014573d6000803e3d6000fd5b505050506040513d601f19601f820116820180604052508101906110389190612cf1565b61105757604051633b79c77360e21b8152336004820152602401610736565b61106385858585611f29565b5050505050565b604080516080810182526000808252602082018190529181018290526060810191909152611096611e1f565b8210156110c0575b6110a782611f64565b6110b7576000199091019061109e565b61070982611f84565b919050565b600080516020612f6d83398151915254610100900460ff166110fa57600080516020612f6d8339815191525460ff16156110fe565b303b155b6111705760405162461bcd60e51b815260206004820152603760248201527f455243373231415f5f496e697469616c697a61626c653a20636f6e747261637460448201527f20697320616c726561647920696e697469616c697a65640000000000000000006064820152608401610736565b600080516020612f6d83398151915254610100900460ff161580156111ac57600080516020612f6d833981519152805461ffff19166101011790555b600054610100900460ff16158080156111cc5750600054600160ff909116105b806111e65750303b1580156111e6575060005460ff166001145b6112495760405162461bcd60e51b815260206004820152602e60248201527f496e697469616c697a61626c653a20636f6e747261637420697320616c72656160448201526d191e481a5b9a5d1a585b1a5e995960921b6064820152608401610736565b6000805460ff19166001179055801561126c576000805461ff0019166101001790555b6112ba6040518060400160405280600a8152602001694452495652535041535360b01b8152506040518060400160405280600a8152602001694452495652535041535360b01b81525061200d565b6112c261204b565b606580546001600160a01b0319166001600160a01b0385161790556112e561070f565b610bb86066556067805461ffff1916905560408051602081019182905260009081905261131491606891612521565b50801561135b576000805461ff0019169055604051600181527f7f26b83ff96e1f2b6a682f133852f6798a09c465da95921460cefb38474024989060200160405180910390a15b50801561084b575050600080516020612f6d833981519152805461ff0019169055565b606754606090610100900460ff16156113c357606861139c8361207a565b6040516020016113ad929190612e04565b6040516020818303038152906040529050919050565b60686040516020016113ad9190612e29565b60006113df61198c565b6001600160a01b039384166000908152600791909101602090815260408083209490951682529290925250205460ff1690565b61141a611c84565b6001600160a01b03811661147f5760405162461bcd60e51b815260206004820152602660248201527f4f776e61626c653a206e6577206f776e657220697320746865207a65726f206160448201526564647265737360d01b6064820152608401610736565b61148881611dcd565b50565b3360009081526069602052604090205460039042116114ec5760405162461bcd60e51b815260206004820152601d60248201527f43414e4e4f545f4d494e545f4f4e5f5448455f53414d455f424c4f434b0000006044820152606401610736565b32331461153b5760405162461bcd60e51b815260206004820152601d60248201527f434f4e5452414354535f4e4f545f414c4c4f5745445f544f5f4d494e540000006044820152606401610736565b8060ff166003036115985760675460ff166115985760405162461bcd60e51b815260206004820152601b60248201527f465245455f4d494e545f49535f4e4f545f5945545f41435449564500000000006044820152606401610736565b81516066546115a561084f565b6115af9083612d3a565b11156115f15760405162461bcd60e51b81526020600482015260116024820152704e4f545f454e4f5547485f535550504c5960781b6044820152606401610736565b60005b83518110156117dc57606554845133916001600160a01b031690636352211e9087908590811061162657611626612d0e565b60200260200101516040518263ffffffff1660e01b815260040161164c91815260200190565b602060405180830381865afa158015611669573d6000803e3d6000fd5b505050506040513d601f19601f8201168201806040525081019061168d9190612e35565b6001600160a01b0316146116d95760405162461bcd60e51b81526020600482015260136024820152724d5553545f4f574e5f414c4c5f544f4b454e5360681b6044820152606401610736565b606a60008583815181106116ef576116ef612d0e565b60209081029190910181015182528101919091526040016000205460ff16156117525760405162461bcd60e51b81526020600482015260156024820152741513d2d15397d053149150511657d0d31052535151605a1b6044820152606401610736565b6001606a600086848151811061176a5761176a612d0e565b6020026020010151815260200190815260200160002060006101000a81548160ff021916908315150217905550606b8482815181106117ab576117ab612d0e565b60209081029190910181015182546001810184556000938452919092200155806117d481612d52565b9150506115f4565b503360008181526069602052604090204290558351610c81919061217a565b600054610100900460ff166118225760405162461bcd60e51b815260040161073690612c52565b6daaeb6d7670e522a718067333cd4e3b1561084b5760405163c3c5a54760e01b81523060048201526daaeb6d7670e522a718067333cd4e9063c3c5a547906024016020604051808303816000875af1158015611882573d6000803e3d6000fd5b505050506040513d601f19601f820116820180604052508101906118a69190612cf1565b61084b57801561191957604051633e9f1edf60e11b81526daaeb6d7670e522a718067333cd4e90637d3e3dbe906118e39030908690600401612cd7565b600060405180830381600087803b1580156118fd57600080fd5b505af1158015611911573d6000803e3d6000fd5b505050505050565b6001600160a01b0382161561195b5760405163a0af290360e01b81526daaeb6d7670e522a718067333cd4e9063a0af2903906118e39030908690600401612cd7565b604051632210724360e11b81523060048201526daaeb6d7670e522a718067333cd4e90634420e486906024016118e3565b7f2569078dfb4b0305704d3008e7403993ae9601b85f7ae5e742de3de8f8011c4090565b60006119ba61198c565b548210156110c05760005b6119cd61198c565b6000848152600491909101602052604081205491508190036119f9576119f283612e52565b92506119c5565b600160e01b161592915050565b8060005260046000fd5b6000611a1b83610cd2565b9050818015611a335750336001600160a01b03821614155b15611a5657611a4281336113d5565b611a5657611a566367d9dca160e11b611a06565b83611a5f61198c565b6000858152600691909101602052604080822080546001600160a01b0319166001600160a01b0394851617905551859287811692908516917f8c5be1e5ebec7d5bd14f71427d1e84f3dd0314c0f7b2291e5b200ac8c7c3b9259190a450505050565b6000611acc82611d13565b6001600160a01b039485169490915081168414611af257611af262a1148160e81b611a06565b600080611afe8461226e565b91509150611b238187611b0e3390565b6001600160a01b039081169116811491141790565b611b4557611b3186336113d5565b611b4557611b45632ce44b5f60e11b611a06565b8015611b5057600082555b611b5861198c565b6001600160a01b0387166000908152600591909101602052604090208054600019019055611b8461198c565b6001600160a01b03861660008181526005929092016020526040909120805460010190554260a01b17600160e11b17611bbb61198c565b60008681526004919091016020526040812091909155600160e11b84169003611c315760018401611bea61198c565b600082815260049190910160205260408120549003611c2f57611c0b61198c565b548114611c2f5783611c1b61198c565b600083815260049190910160205260409020555b505b6001600160a01b0385168481887fddf252ad1be2c89b69c2b068fc378daa952ba7f163c4a11628f55a4df523b3ef600080a480600003611c7b57611c7b633a954ecd60e21b611a06565b50505050505050565b6033546001600160a01b0316331461075e5760405162461bcd60e51b815260206004820181905260248201527f4f776e61626c653a2063616c6c6572206973206e6f7420746865206f776e65726044820152606401610736565b61084b828260405180602001604052806000815250612296565b610c8183838360405180602001604052806000815250610f12565b6000611d1d61198c565b600083815260049190910160205260408120549150819003611daa57611d4161198c565b548210611d5857611d58636f96cda160e11b611a06565b611d6061198c565b600019909201600081815260049390930160205260409092205490508015611d5857600160e01b8116600003611d9557919050565b611da5636f96cda160e11b611a06565b611d58565b600160e01b8116600003611dbd57919050565b6110c0636f96cda160e11b611a06565b603380546001600160a01b038381166001600160a01b0319831681179093556040519116919082907f8be0079c531659141344cd1fd0a4f28419497f9722a3daafe3b4186f6b6457e090600090a35050565b6000611e2961198c565b54919050565b6060818310611e4857611e48631960ccad60e11b611a06565b6000611e52611e1f565b9050808310611e5f578092505b60606000611e6c87610cfe565b85871090810291508115611f1d578187870311611e895786860391505b60405192506001820160051b83016040526000611ea58861106a565b905060008160400151611eb6575080515b60005b611ec28a611f84565b9250604083015160008114611eda5760009250611eff565b835115611ee657835192505b8b831860601b611eff576001820191508a8260051b8801525b5060018a019950888a1480611f1357508481145b15611eb957855250505b50909695505050505050565b611f3484848461086e565b6001600160a01b0383163b156109bd57611f5084848484612308565b6109bd576109bd6368d2bf6b60e11b611a06565b6000611f6e61198c565b6000928352600401602052506040902054151590565b604080516080810182526000808252602082018190529181018290526060810191909152610709611fb361198c565b60008481526004919091016020526040902054604080516080810182526001600160a01b038316815260a083901c6001600160401b03166020820152600160e01b831615159181019190915260e89190911c606082015290565b600080516020612f6d83398151915254610100900460ff166120415760405162461bcd60e51b815260040161073690612e69565b61084b82826123ea565b600054610100900460ff166120725760405162461bcd60e51b815260040161073690612c52565b61075e61246d565b6060816000036120a15750506040805180820190915260018152600360fc1b602082015290565b8160005b81156120cb57806120b581612d52565b91506120c49050600a83612ed3565b91506120a5565b6000816001600160401b038111156120e5576120e56126ea565b6040519080825280601f01601f19166020018201604052801561210f576020820181803683370190505b5090505b8415610d9557612124600183612ee7565b9150612131600a86612efe565b61213c906030612d3a565b60f81b81838151811061215157612151612d0e565b60200101906001600160f81b031916908160001a905350612173600a86612ed3565b9450612113565b600061218461198c565b54905060008290036121a0576121a063b562e8dd60e01b611a06565b6001600160a01b0383164260a01b6001841460e11b17176121bf61198c565b600083815260049190910160205260409020556801000000000000000182026121e661198c565b6001600160a01b038516600081815260059290920160205260408220805490930190925581900361222057612220622e076360e81b611a06565b818301825b808360007fddf252ad1be2c89b69c2b068fc378daa952ba7f163c4a11628f55a4df523b3ef600080a4818160010191508103612225578161226461198c565b5550610c81915050565b600080600061227b61198c565b60009485526006016020525050604090912080549092909150565b6122a0838361217a565b6001600160a01b0383163b15610c815760006122ba61198c565b5490508281035b6122d46000868380600101945086612308565b6122e8576122e86368d2bf6b60e11b611a06565b8181106122c157816122f861198c565b5414611063576110636000611a06565b604051630a85bd0160e11b81526000906001600160a01b0385169063150b7a029061233d903390899088908890600401612f12565b6020604051808303816000875af1925050508015612378575060408051601f3d908101601f1916820190925261237591810190612f4f565b60015b6123cd573d8080156123a6576040519150601f19603f3d011682016040523d82523d6000602084013e6123ab565b606091505b5080516000036123c5576123c56368d2bf6b60e11b611a06565b805181602001fd5b6001600160e01b031916630a85bd0160e11b149050949350505050565b600080516020612f6d83398151915254610100900460ff1661241e5760405162461bcd60e51b815260040161073690612e69565b8161242761198c565b600201908051906020019061243d929190612521565b508061244761198c565b600301908051906020019061245d929190612521565b50600061246861198c565b555050565b600054610100900460ff166124945760405162461bcd60e51b815260040161073690612c52565b61075e33611dcd565b8280546124a990612c9d565b90600052602060002090601f0160209004810192826124cb5760008555612511565b82601f106124e45782800160ff19823516178555612511565b82800160010185558215612511579182015b828111156125115782358255916020019190600101906124f6565b5061251d929150612595565b5090565b82805461252d90612c9d565b90600052602060002090601f01602090048101928261254f5760008555612511565b82601f1061256857805160ff1916838001178555612511565b82800160010185558215612511579182015b8281111561251157825182559160200191906001019061257a565b5b8082111561251d5760008155600101612596565b6001600160e01b03198116811461148857600080fd5b6000602082840312156125d257600080fd5b81356125dd816125aa565b9392505050565b60005b838110156125ff5781810151838201526020016125e7565b838111156109bd5750506000910152565b600081518084526126288160208601602086016125e4565b601f01601f19169290920160200192915050565b6020815260006125dd6020830184612610565b60006020828403121561266157600080fd5b5035919050565b6001600160a01b038116811461148857600080fd5b6000806040838503121561269057600080fd5b823561269b81612668565b946020939093013593505050565b6000806000606084860312156126be57600080fd5b83356126c981612668565b925060208401356126d981612668565b929592945050506040919091013590565b634e487b7160e01b600052604160045260246000fd5b604051601f8201601f191681016001600160401b0381118282101715612728576127286126ea565b604052919050565b60006001600160401b03821115612749576127496126ea565b5060051b60200190565b600082601f83011261276457600080fd5b8135602061277961277483612730565b612700565b82815260059290921b8401810191818101908684111561279857600080fd5b8286015b848110156127b3578035835291830191830161279c565b509695505050505050565b600080604083850312156127d157600080fd5b82356001600160401b03808211156127e857600080fd5b818501915085601f8301126127fc57600080fd5b8135602061280c61277483612730565b82815260059290921b8401810191818101908984111561282b57600080fd5b948201945b8386101561285257853561284381612668565b82529482019490820190612830565b9650508601359250508082111561286857600080fd5b5061287585828601612753565b9150509250929050565b60008083601f84011261289157600080fd5b5081356001600160401b038111156128a857600080fd5b6020830191508360208285010111156128c057600080fd5b9250929050565b600080602083850312156128da57600080fd5b82356001600160401b038111156128f057600080fd5b6128fc8582860161287f565b90969095509350505050565b6000806020838503121561291b57600080fd5b82356001600160401b038082111561293257600080fd5b818501915085601f83011261294657600080fd5b81358181111561295557600080fd5b8660208260051b850101111561296a57600080fd5b60209290920196919550909350505050565b80516001600160a01b031682526020808201516001600160401b03169083015260408082015115159083015260609081015162ffffff16910152565b6020808252825182820181905260009190848201906040850190845b81811015611f1d576129e783855161297c565b92840192608092909201916001016129d4565b600060208284031215612a0c57600080fd5b81356125dd81612668565b6020808252825182820181905260009190848201906040850190845b81811015611f1d57835183529284019291840191600101612a33565b600080600060608486031215612a6457600080fd5b8335612a6f81612668565b95602085013595506040909401359392505050565b801515811461148857600080fd5b600080600060408486031215612aa757600080fd5b8335612ab281612a84565b925060208401356001600160401b03811115612acd57600080fd5b612ad98682870161287f565b9497909650939450505050565b60008060408385031215612af957600080fd5b8235612b0481612668565b91506020830135612b1481612a84565b809150509250929050565b60008060008060808587031215612b3557600080fd5b8435612b4081612668565b9350602085810135612b5181612668565b93506040860135925060608601356001600160401b0380821115612b7457600080fd5b818801915088601f830112612b8857600080fd5b813581811115612b9a57612b9a6126ea565b612bac601f8201601f19168501612700565b91508082528984828501011115612bc257600080fd5b808484018584013760008482840101525080935050505092959194509250565b60808101610709828461297c565b60008060408385031215612c0357600080fd5b8235612c0e81612668565b91506020830135612b1481612668565b600060208284031215612c3057600080fd5b81356001600160401b03811115612c4657600080fd5b610d9584828501612753565b6020808252602b908201527f496e697469616c697a61626c653a20636f6e7472616374206973206e6f74206960408201526a6e697469616c697a696e6760a81b606082015260800190565b600181811c90821680612cb157607f821691505b602082108103612cd157634e487b7160e01b600052602260045260246000fd5b50919050565b6001600160a01b0392831681529116602082015260400190565b600060208284031215612d0357600080fd5b81516125dd81612a84565b634e487b7160e01b600052603260045260246000fd5b634e487b7160e01b600052601160045260246000fd5b60008219821115612d4d57612d4d612d24565b500190565b600060018201612d6457612d64612d24565b5060010190565b8054600090600181811c9080831680612d8557607f831692505b60208084108203612da657634e487b7160e01b600052602260045260246000fd5b818015612dba5760018114612dcb57612df8565b60ff19861689528489019650612df8565b60008881526020902060005b86811015612df05781548b820152908501908301612dd7565b505084890196505b50505050505092915050565b6000612e108285612d6b565b8351612e208183602088016125e4565b01949350505050565b60006125dd8284612d6b565b600060208284031215612e4757600080fd5b81516125dd81612668565b600081612e6157612e61612d24565b506000190190565b60208082526034908201527f455243373231415f5f496e697469616c697a61626c653a20636f6e7472616374604082015273206973206e6f7420696e697469616c697a696e6760601b606082015260800190565b634e487b7160e01b600052601260045260246000fd5b600082612ee257612ee2612ebd565b500490565b600082821015612ef957612ef9612d24565b500390565b600082612f0d57612f0d612ebd565b500690565b6001600160a01b0385811682528416602082015260408101839052608060608201819052600090612f4590830184612610565b9695505050505050565b600060208284031215612f6157600080fd5b81516125dd816125aa56feee151c8401928dc223602bb187aff91b9a56c7cae5476ef1b3287b085a16c85fa26469706673582212205c72b98bec9fa1d14b3c4c7647cad2f69617a397e811a4d3ce8ebb1d917c94a764736f6c634300080d0033",
  "linkReferences": {},
  "deployedLinkReferences": {}
}