{
  "_format": "hh-sol-artifact-1",
  "contractName": "RacePermit",
  "sourceName": "contracts/RacePermit.sol",
  "abi": [
    {
      "inputs": [],
      "name": "ApprovalCallerNotOwnerNorApproved",
      "type": "error"
    },
    {
      "inputs": [],
      "name": "ApprovalQueryForNonexistentToken",
      "type": "error"
    },
    {
      "inputs": [],
      "name": "BalanceQueryForZeroAddress",
      "type": "error"
    },
    {
      "inputs": [],
      "name": "InvalidQueryRange",
      "type": "error"
    },
    {
      "inputs": [],
      "name": "MintERC2309QuantityExceedsLimit",
      "type": "error"
    },
    {
      "inputs": [],
      "name": "MintToZeroAddress",
      "type": "error"
    },
    {
      "inputs": [],
      "name": "MintZeroQuantity",
      "type": "error"
    },
    {
      "inputs": [
        {
          "internalType": "address",
          "name": "operator",
          "type": "address"
        }
      ],
      "name": "OperatorNotAllowed",
      "type": "error"
    },
    {
      "inputs": [],
      "name": "OwnerQueryForNonexistentToken",
      "type": "error"
    },
    {
      "inputs": [],
      "name": "OwnershipNotInitializedForExtraData",
      "type": "error"
    },
    {
      "inputs": [],
      "name": "TransferCallerNotOwnerNorApproved",
      "type": "error"
    },
    {
      "inputs": [],
      "name": "TransferFromIncorrectOwner",
      "type": "error"
    },
    {
      "inputs": [],
      "name": "TransferToNonERC721ReceiverImplementer",
      "type": "error"
    },
    {
      "inputs": [],
      "name": "TransferToZeroAddress",
      "type": "error"
    },
    {
      "inputs": [],
      "name": "URIQueryForNonexistentToken",
      "type": "error"
    },
    {
      "anonymous": false,
      "inputs": [
        {
          "indexed": true,
          "internalType": "address",
          "name": "owner",
          "type": "address"
        },
        {
          "indexed": true,
          "internalType": "address",
          "name": "approved",
          "type": "address"
        },
        {
          "indexed": true,
          "internalType": "uint256",
          "name": "tokenId",
          "type": "uint256"
        }
      ],
      "name": "Approval",
      "type": "event"
    },
    {
      "anonymous": false,
      "inputs": [
        {
          "indexed": true,
          "internalType": "address",
          "name": "owner",
          "type": "address"
        },
        {
          "indexed": true,
          "internalType": "address",
          "name": "operator",
          "type": "address"
        },
        {
          "indexed": false,
          "internalType": "bool",
          "name": "approved",
          "type": "bool"
        }
      ],
      "name": "ApprovalForAll",
      "type": "event"
    },
    {
      "anonymous": false,
      "inputs": [
        {
          "indexed": true,
          "internalType": "uint256",
          "name": "fromTokenId",
          "type": "uint256"
        },
        {
          "indexed": false,
          "internalType": "uint256",
          "name": "toTokenId",
          "type": "uint256"
        },
        {
          "indexed": true,
          "internalType": "address",
          "name": "from",
          "type": "address"
        },
        {
          "indexed": true,
          "internalType": "address",
          "name": "to",
          "type": "address"
        }
      ],
      "name": "ConsecutiveTransfer",
      "type": "event"
    },
    {
      "anonymous": false,
      "inputs": [
        {
          "indexed": false,
          "internalType": "uint8",
          "name": "version",
          "type": "uint8"
        }
      ],
      "name": "Initialized",
      "type": "event"
    },
    {
      "anonymous": false,
      "inputs": [
        {
          "indexed": true,
          "internalType": "address",
          "name": "previousOwner",
          "type": "address"
        },
        {
          "indexed": true,
          "internalType": "address",
          "name": "newOwner",
          "type": "address"
        }
      ],
      "name": "OwnershipTransferred",
      "type": "event"
    },
    {
      "anonymous": false,
      "inputs": [
        {
          "indexed": true,
          "internalType": "address",
          "name": "from",
          "type": "address"
        },
        {
          "indexed": true,
          "internalType": "address",
          "name": "to",
          "type": "address"
        },
        {
          "indexed": true,
          "internalType": "uint256",
          "name": "tokenId",
          "type": "uint256"
        }
      ],
      "name": "Transfer",
      "type": "event"
    },
    {
      "inputs": [],
      "name": "Drivrs",
      "outputs": [
        {
          "internalType": "contract iDrivrs",
          "name": "",
          "type": "address"
        }
      ],
      "stateMutability": "view",
      "type": "function"
    },
    {
      "inputs": [],
      "name": "MAX_SUPPLY",
      "outputs": [
        {
          "internalType": "uint256",
          "name": "",
          "type": "uint256"
        }
      ],
      "stateMutability": "view",
      "type": "function"
    },
    {
      "inputs": [],
      "name": "__DefaultOperatorFilterer_init",
      "outputs": [],
      "stateMutability": "nonpayable",
      "type": "function"
    },
    {
      "inputs": [
        {
          "internalType": "address",
          "name": "subscriptionOrRegistrantToCopy",
          "type": "address"
        },
        {
          "internalType": "bool",
          "name": "subscribe",
          "type": "bool"
        }
      ],
      "name": "__OperatorFilterer_init",
      "outputs": [],
      "stateMutability": "nonpayable",
      "type": "function"
    },
    {
      "inputs": [
        {
          "internalType": "address",
          "name": "to",
          "type": "address"
        },
        {
          "internalType": "uint256",
          "name": "tokenId",
          "type": "uint256"
        }
      ],
      "name": "approve",
      "outputs": [],
      "stateMutability": "payable",
      "type": "function"
    },
    {
      "inputs": [
        {
          "internalType": "address",
          "name": "owner",
          "type": "address"
        }
      ],
      "name": "balanceOf",
      "outputs": [
        {
          "internalType": "uint256",
          "name": "",
          "type": "uint256"
        }
      ],
      "stateMutability": "view",
      "type": "function"
    },
    {
      "inputs": [
        {
          "internalType": "uint256",
          "name": "",
          "type": "uint256"
        }
      ],
      "name": "claimed",
      "outputs": [
        {
          "internalType": "bool",
          "name": "",
          "type": "bool"
        }
      ],
      "stateMutability": "view",
      "type": "function"
    },
    {
      "inputs": [
        {
          "internalType": "uint256",
          "name": "_maxSupply",
          "type": "uint256"
        }
      ],
      "name": "decreaseSupply",
      "outputs": [],
      "stateMutability": "nonpayable",
      "type": "function"
    },
    {
      "inputs": [
        {
          "internalType": "address[]",
          "name": "_addresses",
          "type": "address[]"
        },
        {
          "internalType": "uint256[]",
          "name": "quantities",
          "type": "uint256[]"
        }
      ],
      "name": "devMint",
      "outputs": [],
      "stateMutability": "nonpayable",
      "type": "function"
    },
    {
      "inputs": [
        {
          "internalType": "uint256",
          "name": "tokenId",
          "type": "uint256"
        }
      ],
      "name": "explicitOwnershipOf",
      "outputs": [
        {
          "components": [
            {
              "internalType": "address",
              "name": "addr",
              "type": "address"
            },
            {
              "internalType": "uint64",
              "name": "startTimestamp",
              "type": "uint64"
            },
            {
              "internalType": "bool",
              "name": "burned",
              "type": "bool"
            },
            {
              "internalType": "uint24",
              "name": "extraData",
              "type": "uint24"
            }
          ],
          "internalType": "struct IERC721AUpgradeable.TokenOwnership",
          "name": "ownership",
          "type": "tuple"
        }
      ],
      "stateMutability": "view",
      "type": "function"
    },
    {
      "inputs": [
        {
          "internalType": "uint256[]",
          "name": "tokenIds",
          "type": "uint256[]"
        }
      ],
      "name": "explicitOwnershipsOf",
      "outputs": [
        {
          "components": [
            {
              "internalType": "address",
              "name": "addr",
              "type": "address"
            },
            {
              "internalType": "uint64",
              "name": "startTimestamp",
              "type": "uint64"
            },
            {
              "internalType": "bool",
              "name": "burned",
              "type": "bool"
            },
            {
              "internalType": "uint24",
              "name": "extraData",
              "type": "uint24"
            }
          ],
          "internalType": "struct IERC721AUpgradeable.TokenOwnership[]",
          "name": "",
          "type": "tuple[]"
        }
      ],
      "stateMutability": "view",
      "type": "function"
    },
    {
      "inputs": [
        {
          "internalType": "uint256",
          "name": "tokenId",
          "type": "uint256"
        }
      ],
      "name": "getApproved",
      "outputs": [
        {
          "internalType": "address",
          "name": "",
          "type": "address"
        }
      ],
      "stateMutability": "view",
      "type": "function"
    },
    {
      "inputs": [
        {
          "internalType": "uint256",
          "name": "start",
          "type": "uint256"
        },
        {
          "internalType": "uint256",
          "name": "batchSize",
          "type": "uint256"
        }
      ],
      "name": "getClaimed",
      "outputs": [
        {
          "internalType": "uint256[]",
          "name": "",
          "type": "uint256[]"
        }
      ],
      "stateMutability": "view",
      "type": "function"
    },
    {
      "inputs": [
        {
          "internalType": "address",
          "name": "DrivrsAddress",
          "type": "address"
        }
      ],
      "name": "initialize",
      "outputs": [],
      "stateMutability": "nonpayable",
      "type": "function"
    },
    {
      "inputs": [
        {
          "internalType": "address",
          "name": "owner",
          "type": "address"
        },
        {
          "internalType": "address",
          "name": "operator",
          "type": "address"
        }
      ],
      "name": "isApprovedForAll",
      "outputs": [
        {
          "internalType": "bool",
          "name": "",
          "type": "bool"
        }
      ],
      "stateMutability": "view",
      "type": "function"
    },
    {
      "inputs": [],
      "name": "isPresaleActive",
      "outputs": [
        {
          "internalType": "bool",
          "name": "",
          "type": "bool"
        }
      ],
      "stateMutability": "view",
      "type": "function"
    },
    {
      "inputs": [
        {
          "internalType": "uint256[]",
          "name": "tokenIds",
          "type": "uint256[]"
        }
      ],
      "name": "mint",
      "outputs": [],
      "stateMutability": "nonpayable",
      "type": "function"
    },
    {
      "inputs": [],
      "name": "name",
      "outputs": [
        {
          "internalType": "string",
          "name": "",
          "type": "string"
        }
      ],
      "stateMutability": "view",
      "type": "function"
    },
    {
      "inputs": [],
      "name": "owner",
      "outputs": [
        {
          "internalType": "address",
          "name": "",
          "type": "address"
        }
      ],
      "stateMutability": "view",
      "type": "function"
    },
    {
      "inputs": [
        {
          "internalType": "uint256",
          "name": "tokenId",
          "type": "uint256"
        }
      ],
      "name": "ownerOf",
      "outputs": [
        {
          "internalType": "address",
          "name": "",
          "type": "address"
        }
      ],
      "stateMutability": "view",
      "type": "function"
    },
    {
      "inputs": [],
      "name": "renounceOwnership",
      "outputs": [],
      "stateMutability": "nonpayable",
      "type": "function"
    },
    {
      "inputs": [
        {
          "internalType": "bool",
          "name": "revealed",
          "type": "bool"
        },
        {
          "internalType": "string",
          "name": "_baseURI",
          "type": "string"
        }
      ],
      "name": "reveal",
      "outputs": [],
      "stateMutability": "nonpayable",
      "type": "function"
    },
    {
      "inputs": [
        {
          "internalType": "address",
          "name": "from",
          "type": "address"
        },
        {
          "internalType": "address",
          "name": "to",
          "type": "address"
        },
        {
          "internalType": "uint256",
          "name": "tokenId",
          "type": "uint256"
        }
      ],
      "name": "safeTransferFrom",
      "outputs": [],
      "stateMutability": "payable",
      "type": "function"
    },
    {
      "inputs": [
        {
          "internalType": "address",
          "name": "from",
          "type": "address"
        },
        {
          "internalType": "address",
          "name": "to",
          "type": "address"
        },
        {
          "internalType": "uint256",
          "name": "tokenId",
          "type": "uint256"
        },
        {
          "internalType": "bytes",
          "name": "data",
          "type": "bytes"
        }
      ],
      "name": "safeTransferFrom",
      "outputs": [],
      "stateMutability": "payable",
      "type": "function"
    },
    {
      "inputs": [
        {
          "internalType": "address",
          "name": "operator",
          "type": "address"
        },
        {
          "internalType": "bool",
          "name": "approved",
          "type": "bool"
        }
      ],
      "name": "setApprovalForAll",
      "outputs": [],
      "stateMutability": "nonpayable",
      "type": "function"
    },
    {
      "inputs": [
        {
          "internalType": "string",
          "name": "URI",
          "type": "string"
        }
      ],
      "name": "setBaseURI",
      "outputs": [],
      "stateMutability": "nonpayable",
      "type": "function"
    },
    {
      "inputs": [],
      "name": "setPreSaleStatus",
      "outputs": [],
      "stateMutability": "nonpayable",
      "type": "function"
    },
    {
      "inputs": [
        {
          "internalType": "bytes4",
          "name": "interfaceId",
          "type": "bytes4"
        }
      ],
      "name": "supportsInterface",
      "outputs": [
        {
          "internalType": "bool",
          "name": "",
          "type": "bool"
        }
      ],
      "stateMutability": "view",
      "type": "function"
    },
    {
      "inputs": [],
      "name": "symbol",
      "outputs": [
        {
          "internalType": "string",
          "name": "",
          "type": "string"
        }
      ],
      "stateMutability": "view",
      "type": "function"
    },
    {
      "inputs": [
        {
          "internalType": "uint256",
          "name": "tokenId",
          "type": "uint256"
        }
      ],
      "name": "tokenURI",
      "outputs": [
        {
          "internalType": "string",
          "name": "",
          "type": "string"
        }
      ],
      "stateMutability": "view",
      "type": "function"
    },
    {
      "inputs": [
        {
          "internalType": "address",
          "name": "owner",
          "type": "address"
        }
      ],
      "name": "tokensOfOwner",
      "outputs": [
        {
          "internalType": "uint256[]",
          "name": "",
          "type": "uint256[]"
        }
      ],
      "stateMutability": "view",
      "type": "function"
    },
    {
      "inputs": [
        {
          "internalType": "address",
          "name": "owner",
          "type": "address"
        },
        {
          "internalType": "uint256",
          "name": "start",
          "type": "uint256"
        },
        {
          "internalType": "uint256",
          "name": "stop",
          "type": "uint256"
        }
      ],
      "name": "tokensOfOwnerIn",
      "outputs": [
        {
          "internalType": "uint256[]",
          "name": "",
          "type": "uint256[]"
        }
      ],
      "stateMutability": "view",
      "type": "function"
    },
    {
      "inputs": [],
      "name": "totalSupply",
      "outputs": [
        {
          "internalType": "uint256",
          "name": "",
          "type": "uint256"
        }
      ],
      "stateMutability": "view",
      "type": "function"
    },
    {
      "inputs": [
        {
          "internalType": "address",
          "name": "from",
          "type": "address"
        },
        {
          "internalType": "address",
          "name": "to",
          "type": "address"
        },
        {
          "internalType": "uint256",
          "name": "tokenId",
          "type": "uint256"
        }
      ],
      "name": "transferFrom",
      "outputs": [],
      "stateMutability": "payable",
      "type": "function"
    },
    {
      "inputs": [
        {
          "internalType": "address",
          "name": "newOwner",
          "type": "address"
        }
      ],
      "name": "transferOwnership",
      "outputs": [],
      "stateMutability": "nonpayable",
      "type": "function"
    },
    {
      "inputs": [
        {
          "internalType": "bytes32",
          "name": "",
          "type": "bytes32"
        }
      ],
      "name": "usedDigests",
      "outputs": [
        {
          "internalType": "bool",
          "name": "",
          "type": "bool"
        }
      ],
      "stateMutability": "view",
      "type": "function"
    }
  ],
  "bytecode": "0x608060405234801561001057600080fd5b50613082806100206000396000f3fe60806040526004361061020f5760003560e01c806375726f6411610118578063c23dc68f116100a0578063dbe7e3bd1161006f578063dbe7e3bd146105ed578063e985e9c51461061d578063f2fde38b1461063d578063f8e93ef91461065d578063ff633d551461067d57600080fd5b8063c23dc68f14610550578063c4d66de81461057d578063c87b56dd1461059d578063d39c4de7146105bd57600080fd5b806398e52f9a116100e757806398e52f9a146104bd57806399a2557a146104dd578063a101ff6d146104fd578063a22cb4651461051d578063b88d4fde1461053d57600080fd5b806375726f641461043d5780638462151c1461046a5780638da5cb5b1461048a57806395d89b41146104a857600080fd5b80633e07ac021161019b57806360d938dc1161016a57806360d938dc146103ae5780636352211e146103c85780636c17dcd8146103e857806370a0823114610408578063715018a61461042857600080fd5b80633e07ac021461033957806342842e0e1461034e57806355f804b3146103615780635bbb21771461038157600080fd5b8063095ea7b3116101e2578063095ea7b3146102ba57806318160ddd146102cd57806323b872dd146102f05780632446548f1461030357806332cb6b0c1461032357600080fd5b806301ffc9a71461021457806303eaebec1461024957806306fdde0314610260578063081812fc14610282575b600080fd5b34801561022057600080fd5b5061023461022f36600461265e565b61069d565b60405190151581526020015b60405180910390f35b34801561025557600080fd5b5061025e6106ef565b005b34801561026c57600080fd5b50610275610740565b60405161024091906126da565b34801561028e57600080fd5b506102a261029d3660046126ed565b6107db565b6040516001600160a01b039091168152602001610240565b61025e6102c836600461271b565b61081f565b3480156102d957600080fd5b506102e261082f565b604051908152602001610240565b61025e6102fe366004612747565b61084e565b34801561030f57600080fd5b5061025e61031e36600461285c565b6109a3565b34801561032f57600080fd5b506102e260665481565b34801561034557600080fd5b5061025e610ae7565b61025e61035c366004612747565b610b03565b34801561036d57600080fd5b5061025e61037c366004612965565b610c4d565b34801561038d57600080fd5b506103a161039c3660046129a6565b610c66565b6040516102409190612a56565b3480156103ba57600080fd5b506067546102349060ff1681565b3480156103d457600080fd5b506102a26103e33660046126ed565b610cb2565b3480156103f457600080fd5b506065546102a2906001600160a01b031681565b34801561041457600080fd5b506102e2610423366004612a98565b610cbd565b34801561043457600080fd5b5061025e610d1c565b34801561044957600080fd5b5061045d610458366004612ab5565b610d2e565b6040516102409190612ad7565b34801561047657600080fd5b5061045d610485366004612a98565b610e96565b34801561049657600080fd5b506033546001600160a01b03166102a2565b3480156104b457600080fd5b50610275610ec4565b3480156104c957600080fd5b5061025e6104d83660046126ed565b610edc565b3480156104e957600080fd5b5061045d6104f8366004612b0f565b610f31565b34801561050957600080fd5b5061025e610518366004612b52565b610f3e565b34801561052957600080fd5b5061025e610538366004612ba6565b610f65565b61025e61054b366004612bdf565b610fe2565b34801561055c57600080fd5b5061057061056b3660046126ed565b61113a565b6040516102409190612ca2565b34801561058957600080fd5b5061025e610598366004612a98565b611195565b3480156105a957600080fd5b506102756105b83660046126ed565b61144e565b3480156105c957600080fd5b506102346105d83660046126ed565b606b6020526000908152604090205460ff1681565b3480156105f957600080fd5b506102346106083660046126ed565b606a6020526000908152604090205460ff1681565b34801561062957600080fd5b50610234610638366004612cb0565b6114a5565b34801561064957600080fd5b5061025e610658366004612a98565b6114e2565b34801561066957600080fd5b5061025e610678366004612cde565b61155b565b34801561068957600080fd5b5061025e610698366004612ba6565b611899565b60006301ffc9a760e01b6001600160e01b0319831614806106ce57506380ac58cd60e01b6001600160e01b03198316145b806106e95750635b5e139f60e01b6001600160e01b03198316145b92915050565b600054610100900460ff1661071f5760405162461bcd60e51b815260040161071690612d12565b60405180910390fd5b61073e733cc6cdda760b79bafa08df41ecfa224f810dceb66001611899565b565b606061074a611a2a565b600201805461075890612d5d565b80601f016020809104026020016040519081016040528092919081815260200182805461078490612d5d565b80156107d15780601f106107a6576101008083540402835291602001916107d1565b820191906000526020600020905b8154815290600101906020018083116107b457829003601f168201915b5050505050905090565b60006107e682611a4e565b6107fa576107fa6333d1c03960e21b611aa4565b610802611a2a565b60009283526006016020525060409020546001600160a01b031690565b61082b82826001611aae565b5050565b60008061083a611a2a565b60010154610846611a2a565b540303919050565b826daaeb6d7670e522a718067333cd4e3b1561099257336001600160a01b038216036108845761087f848484611b5f565b61099d565b604051633185c44d60e21b81526daaeb6d7670e522a718067333cd4e9063c6171134906108b79030903390600401612d97565b602060405180830381865afa1580156108d4573d6000803e3d6000fd5b505050506040513d601f19601f820116820180604052508101906108f89190612db1565b80156109735750604051633185c44d60e21b81526daaeb6d7670e522a718067333cd4e9063c6171134906109329030908590600401612d97565b602060405180830381865afa15801561094f573d6000803e3d6000fd5b505050506040513d601f19601f820116820180604052508101906109739190612db1565b61099257604051633b79c77360e21b8152336004820152602401610716565b61099d848484611b5f565b50505050565b6109ab611d22565b80518251146109ef5760405162461bcd60e51b815260206004820152601060248201526f57524f4e475f504152414d455445525360801b6044820152606401610716565b6000805b8251811015610a3557828181518110610a0e57610a0e612dce565b602002602001015182610a219190612dfa565b915080610a2d81612e12565b9150506109f3565b50606654610a4161082f565b610a4b9083612dfa565b1115610a8d5760405162461bcd60e51b81526020600482015260116024820152704e4f545f454e4f5547485f535550504c5960781b6044820152606401610716565b60005b835181101561099d57610ad5848281518110610aae57610aae612dce565b6020026020010151848381518110610ac857610ac8612dce565b6020026020010151611d7c565b80610adf81612e12565b915050610a90565b610aef611d22565b6067805460ff19811660ff90911615179055565b826daaeb6d7670e522a718067333cd4e3b15610c4257336001600160a01b03821603610b345761087f848484611d96565b604051633185c44d60e21b81526daaeb6d7670e522a718067333cd4e9063c617113490610b679030903390600401612d97565b602060405180830381865afa158015610b84573d6000803e3d6000fd5b505050506040513d601f19601f82011682018060405250810190610ba89190612db1565b8015610c235750604051633185c44d60e21b81526daaeb6d7670e522a718067333cd4e9063c617113490610be29030908590600401612d97565b602060405180830381865afa158015610bff573d6000803e3d6000fd5b505050506040513d601f19601f82011682018060405250810190610c239190612db1565b610c4257604051633b79c77360e21b8152336004820152602401610716565b61099d848484611d96565b610c55611d22565b610c616068838361253b565b505050565b60408051828152600583901b8082016020019092526060915b8015610caa57601f1980820191860101356000610c9b8261113a565b8484016020015250610c7f9050565b509392505050565b60006106e982611db1565b60006001600160a01b038216610cdd57610cdd6323d3ad8160e21b611aa4565b6001600160401b03610ced611a2a565b6005016000846001600160a01b03166001600160a01b0316815260200190815260200160002054169050919050565b610d24611d22565b61073e6000611e6b565b60606000826001600160401b03811115610d4a57610d4a612788565b604051908082528060200260200182016040528015610d73578160200160208202803683370190505b5090506000845b610d848587612dfa565b81108015610d93575060665481105b15610df1576000818152606a602052604090205460ff161515600103610ddf5780838381518110610dc657610dc6612dce565b602090810291909101015281610ddb81612e12565b9250505b80610de981612e12565b915050610d7a565b506000816001600160401b03811115610e0c57610e0c612788565b604051908082528060200260200182016040528015610e35578160200160208202803683370190505b50905060005b82811015610e8c57838181518110610e5557610e55612dce565b6020026020010151828281518110610e6f57610e6f612dce565b602090810291909101015280610e8481612e12565b915050610e3b565b5095945050505050565b6060600080610ea3611ebd565b90506060818314610ebc57610eb9858484611ecd565b90505b949350505050565b6060610ece611a2a565b600301805461075890612d5d565b610ee4611d22565b6066548110610f2c5760405162461bcd60e51b815260206004820152601460248201527343414e545f494e4352454153455f535550504c5960601b6044820152606401610716565b606655565b6060610ebc848484611ecd565b610f46611d22565b6067805461ff0019166101008515150217905561099d6068838361253b565b80610f6e611a2a565b336000818152600792909201602090815260408084206001600160a01b03881680865290835293819020805460ff19169515159590951790945592518415158152919290917f17307eab39ab6107e8899845ad3d59bd9653f200f220920489ca2b5937696c31910160405180910390a35050565b836daaeb6d7670e522a718067333cd4e3b1561112757336001600160a01b038216036110195761101485858585611fc7565b611133565b604051633185c44d60e21b81526daaeb6d7670e522a718067333cd4e9063c61711349061104c9030903390600401612d97565b602060405180830381865afa158015611069573d6000803e3d6000fd5b505050506040513d601f19601f8201168201806040525081019061108d9190612db1565b80156111085750604051633185c44d60e21b81526daaeb6d7670e522a718067333cd4e9063c6171134906110c79030908590600401612d97565b602060405180830381865afa1580156110e4573d6000803e3d6000fd5b505050506040513d601f19601f820116820180604052508101906111089190612db1565b61112757604051633b79c77360e21b8152336004820152602401610716565b61113385858585611fc7565b5050505050565b604080516080810182526000808252602082018190529181018290526060810191909152611166611ebd565b821015611190575b61117782612002565b611187576000199091019061116e565b6106e982612022565b919050565b60008051602061302d83398151915254610100900460ff166111ca5760008051602061302d8339815191525460ff16156111ce565b303b155b6112405760405162461bcd60e51b815260206004820152603760248201527f455243373231415f5f496e697469616c697a61626c653a20636f6e747261637460448201527f20697320616c726561647920696e697469616c697a65640000000000000000006064820152608401610716565b60008051602061302d83398151915254610100900460ff1615801561127c5760008051602061302d833981519152805461ffff19166101011790555b600054610100900460ff161580801561129c5750600054600160ff909116105b806112b65750303b1580156112b6575060005460ff166001145b6113195760405162461bcd60e51b815260206004820152602e60248201527f496e697469616c697a61626c653a20636f6e747261637420697320616c72656160448201526d191e481a5b9a5d1a585b1a5e995960921b6064820152608401610716565b6000805460ff19166001179055801561133c576000805461ff0019166101001790555b61138a6040518060400160405280600a8152602001694452495652535041535360b01b8152506040518060400160405280600a8152602001694452495652535041535360b01b8152506120ab565b6113926120e9565b606580546001600160a01b0319166001600160a01b0385161790556113b56106ef565b610bb86066556067805461ffff191690556040805160208101918290526000908190526113e4916068916125bf565b50801561142b576000805461ff0019169055604051600181527f7f26b83ff96e1f2b6a682f133852f6798a09c465da95921460cefb38474024989060200160405180910390a15b50801561082b57505060008051602061302d833981519152805461ff0019169055565b606754606090610100900460ff161561149357606861146c83612118565b60405160200161147d929190612ec4565b6040516020818303038152906040529050919050565b606860405160200161147d9190612ee9565b60006114af611a2a565b6001600160a01b039384166000908152600791909101602090815260408083209490951682529290925250205460ff1690565b6114ea611d22565b6001600160a01b03811661154f5760405162461bcd60e51b815260206004820152602660248201527f4f776e61626c653a206e6577206f776e657220697320746865207a65726f206160448201526564647265737360d01b6064820152608401610716565b61155881611e6b565b50565b3360009081526069602052604090205460039042116115bc5760405162461bcd60e51b815260206004820152601d60248201527f43414e4e4f545f4d494e545f4f4e5f5448455f53414d455f424c4f434b0000006044820152606401610716565b32331461160b5760405162461bcd60e51b815260206004820152601d60248201527f434f4e5452414354535f4e4f545f414c4c4f5745445f544f5f4d494e540000006044820152606401610716565b8060ff166003036116685760675460ff166116685760405162461bcd60e51b815260206004820152601b60248201527f465245455f4d494e545f49535f4e4f545f5945545f41435449564500000000006044820152606401610716565b815160665461167561082f565b61167f9083612dfa565b11156116c15760405162461bcd60e51b81526020600482015260116024820152704e4f545f454e4f5547485f535550504c5960781b6044820152606401610716565b60005b835181101561187a57606554845133916001600160a01b031690636352211e908790859081106116f6576116f6612dce565b60200260200101516040518263ffffffff1660e01b815260040161171c91815260200190565b602060405180830381865afa158015611739573d6000803e3d6000fd5b505050506040513d601f19601f8201168201806040525081019061175d9190612ef5565b6001600160a01b0316146117a95760405162461bcd60e51b81526020600482015260136024820152724d5553545f4f574e5f414c4c5f544f4b454e5360681b6044820152606401610716565b606a60008583815181106117bf576117bf612dce565b60209081029190910181015182528101919091526040016000205460ff16156118225760405162461bcd60e51b81526020600482015260156024820152741513d2d15397d053149150511657d0d31052535151605a1b6044820152606401610716565b6001606a600086848151811061183a5761183a612dce565b6020026020010151815260200190815260200160002060006101000a81548160ff021916908315150217905550808061187290612e12565b9150506116c4565b503360008181526069602052604090204290558351610c619190612218565b600054610100900460ff166118c05760405162461bcd60e51b815260040161071690612d12565b6daaeb6d7670e522a718067333cd4e3b1561082b5760405163c3c5a54760e01b81523060048201526daaeb6d7670e522a718067333cd4e9063c3c5a547906024016020604051808303816000875af1158015611920573d6000803e3d6000fd5b505050506040513d601f19601f820116820180604052508101906119449190612db1565b61082b5780156119b757604051633e9f1edf60e11b81526daaeb6d7670e522a718067333cd4e90637d3e3dbe906119819030908690600401612d97565b600060405180830381600087803b15801561199b57600080fd5b505af11580156119af573d6000803e3d6000fd5b505050505050565b6001600160a01b038216156119f95760405163a0af290360e01b81526daaeb6d7670e522a718067333cd4e9063a0af2903906119819030908690600401612d97565b604051632210724360e11b81523060048201526daaeb6d7670e522a718067333cd4e90634420e48690602401611981565b7f2569078dfb4b0305704d3008e7403993ae9601b85f7ae5e742de3de8f8011c4090565b6000611a58611a2a565b548210156111905760005b611a6b611a2a565b600084815260049190910160205260408120549150819003611a9757611a9083612f12565b9250611a63565b600160e01b161592915050565b8060005260046000fd5b6000611ab983610cb2565b9050818015611ad15750336001600160a01b03821614155b15611af457611ae081336114a5565b611af457611af46367d9dca160e11b611aa4565b83611afd611a2a565b6000858152600691909101602052604080822080546001600160a01b0319166001600160a01b0394851617905551859287811692908516917f8c5be1e5ebec7d5bd14f71427d1e84f3dd0314c0f7b2291e5b200ac8c7c3b9259190a450505050565b6000611b6a82611db1565b6001600160a01b039485169490915081168414611b9057611b9062a1148160e81b611aa4565b600080611b9c8461230c565b91509150611bc18187611bac3390565b6001600160a01b039081169116811491141790565b611be357611bcf86336114a5565b611be357611be3632ce44b5f60e11b611aa4565b8015611bee57600082555b611bf6611a2a565b6001600160a01b0387166000908152600591909101602052604090208054600019019055611c22611a2a565b6001600160a01b03861660008181526005929092016020526040909120805460010190554260a01b17600160e11b17611c59611a2a565b60008681526004919091016020526040812091909155600160e11b84169003611ccf5760018401611c88611a2a565b600082815260049190910160205260408120549003611ccd57611ca9611a2a565b548114611ccd5783611cb9611a2a565b600083815260049190910160205260409020555b505b6001600160a01b0385168481887fddf252ad1be2c89b69c2b068fc378daa952ba7f163c4a11628f55a4df523b3ef600080a480600003611d1957611d19633a954ecd60e21b611aa4565b50505050505050565b6033546001600160a01b0316331461073e5760405162461bcd60e51b815260206004820181905260248201527f4f776e61626c653a2063616c6c6572206973206e6f7420746865206f776e65726044820152606401610716565b61082b828260405180602001604052806000815250612334565b610c6183838360405180602001604052806000815250610fe2565b6000611dbb611a2a565b600083815260049190910160205260408120549150819003611e4857611ddf611a2a565b548210611df657611df6636f96cda160e11b611aa4565b611dfe611a2a565b600019909201600081815260049390930160205260409092205490508015611df657600160e01b8116600003611e3357919050565b611e43636f96cda160e11b611aa4565b611df6565b600160e01b8116600003611e5b57919050565b611190636f96cda160e11b611aa4565b603380546001600160a01b038381166001600160a01b0319831681179093556040519116919082907f8be0079c531659141344cd1fd0a4f28419497f9722a3daafe3b4186f6b6457e090600090a35050565b6000611ec7611a2a565b54919050565b6060818310611ee657611ee6631960ccad60e11b611aa4565b6000611ef0611ebd565b9050808310611efd578092505b60606000611f0a87610cbd565b85871090810291508115611fbb578187870311611f275786860391505b60405192506001820160051b83016040526000611f438861113a565b905060008160400151611f54575080515b60005b611f608a612022565b9250604083015160008114611f785760009250611f9d565b835115611f8457835192505b8b831860601b611f9d576001820191508a8260051b8801525b5060018a019950888a1480611fb157508481145b15611f5757855250505b50909695505050505050565b611fd284848461084e565b6001600160a01b0383163b1561099d57611fee848484846123a6565b61099d5761099d6368d2bf6b60e11b611aa4565b600061200c611a2a565b6000928352600401602052506040902054151590565b6040805160808101825260008082526020820181905291810182905260608101919091526106e9612051611a2a565b60008481526004919091016020526040902054604080516080810182526001600160a01b038316815260a083901c6001600160401b03166020820152600160e01b831615159181019190915260e89190911c606082015290565b60008051602061302d83398151915254610100900460ff166120df5760405162461bcd60e51b815260040161071690612f29565b61082b8282612488565b600054610100900460ff166121105760405162461bcd60e51b815260040161071690612d12565b61073e61250b565b60608160000361213f5750506040805180820190915260018152600360fc1b602082015290565b8160005b8115612169578061215381612e12565b91506121629050600a83612f93565b9150612143565b6000816001600160401b0381111561218357612183612788565b6040519080825280601f01601f1916602001820160405280156121ad576020820181803683370190505b5090505b8415610ebc576121c2600183612fa7565b91506121cf600a86612fbe565b6121da906030612dfa565b60f81b8183815181106121ef576121ef612dce565b60200101906001600160f81b031916908160001a905350612211600a86612f93565b94506121b1565b6000612222611a2a565b549050600082900361223e5761223e63b562e8dd60e01b611aa4565b6001600160a01b0383164260a01b6001841460e11b171761225d611a2a565b60008381526004919091016020526040902055680100000000000000018202612284611a2a565b6001600160a01b03851660008181526005929092016020526040822080549093019092558190036122be576122be622e076360e81b611aa4565b818301825b808360007fddf252ad1be2c89b69c2b068fc378daa952ba7f163c4a11628f55a4df523b3ef600080a48181600101915081036122c35781612302611a2a565b5550610c61915050565b6000806000612319611a2a565b60009485526006016020525050604090912080549092909150565b61233e8383612218565b6001600160a01b0383163b15610c61576000612358611a2a565b5490508281035b61237260008683806001019450866123a6565b612386576123866368d2bf6b60e11b611aa4565b81811061235f5781612396611a2a565b5414611133576111336000611aa4565b604051630a85bd0160e11b81526000906001600160a01b0385169063150b7a02906123db903390899088908890600401612fd2565b6020604051808303816000875af1925050508015612416575060408051601f3d908101601f191682019092526124139181019061300f565b60015b61246b573d808015612444576040519150601f19603f3d011682016040523d82523d6000602084013e612449565b606091505b508051600003612463576124636368d2bf6b60e11b611aa4565b805181602001fd5b6001600160e01b031916630a85bd0160e11b149050949350505050565b60008051602061302d83398151915254610100900460ff166124bc5760405162461bcd60e51b815260040161071690612f29565b816124c5611a2a565b60020190805190602001906124db9291906125bf565b50806124e5611a2a565b60030190805190602001906124fb9291906125bf565b506000612506611a2a565b555050565b600054610100900460ff166125325760405162461bcd60e51b815260040161071690612d12565b61073e33611e6b565b82805461254790612d5d565b90600052602060002090601f01602090048101928261256957600085556125af565b82601f106125825782800160ff198235161785556125af565b828001600101855582156125af579182015b828111156125af578235825591602001919060010190612594565b506125bb929150612633565b5090565b8280546125cb90612d5d565b90600052602060002090601f0160209004810192826125ed57600085556125af565b82601f1061260657805160ff19168380011785556125af565b828001600101855582156125af579182015b828111156125af578251825591602001919060010190612618565b5b808211156125bb5760008155600101612634565b6001600160e01b03198116811461155857600080fd5b60006020828403121561267057600080fd5b813561267b81612648565b9392505050565b60005b8381101561269d578181015183820152602001612685565b8381111561099d5750506000910152565b600081518084526126c6816020860160208601612682565b601f01601f19169290920160200192915050565b60208152600061267b60208301846126ae565b6000602082840312156126ff57600080fd5b5035919050565b6001600160a01b038116811461155857600080fd5b6000806040838503121561272e57600080fd5b823561273981612706565b946020939093013593505050565b60008060006060848603121561275c57600080fd5b833561276781612706565b9250602084013561277781612706565b929592945050506040919091013590565b634e487b7160e01b600052604160045260246000fd5b604051601f8201601f191681016001600160401b03811182821017156127c6576127c6612788565b604052919050565b60006001600160401b038211156127e7576127e7612788565b5060051b60200190565b600082601f83011261280257600080fd5b81356020612817612812836127ce565b61279e565b82815260059290921b8401810191818101908684111561283657600080fd5b8286015b84811015612851578035835291830191830161283a565b509695505050505050565b6000806040838503121561286f57600080fd5b82356001600160401b038082111561288657600080fd5b818501915085601f83011261289a57600080fd5b813560206128aa612812836127ce565b82815260059290921b840181019181810190898411156128c957600080fd5b948201945b838610156128f05785356128e181612706565b825294820194908201906128ce565b9650508601359250508082111561290657600080fd5b50612913858286016127f1565b9150509250929050565b60008083601f84011261292f57600080fd5b5081356001600160401b0381111561294657600080fd5b60208301915083602082850101111561295e57600080fd5b9250929050565b6000806020838503121561297857600080fd5b82356001600160401b0381111561298e57600080fd5b61299a8582860161291d565b90969095509350505050565b600080602083850312156129b957600080fd5b82356001600160401b03808211156129d057600080fd5b818501915085601f8301126129e457600080fd5b8135818111156129f357600080fd5b8660208260051b8501011115612a0857600080fd5b60209290920196919550909350505050565b80516001600160a01b031682526020808201516001600160401b03169083015260408082015115159083015260609081015162ffffff16910152565b6020808252825182820181905260009190848201906040850190845b81811015611fbb57612a85838551612a1a565b9284019260809290920191600101612a72565b600060208284031215612aaa57600080fd5b813561267b81612706565b60008060408385031215612ac857600080fd5b50508035926020909101359150565b6020808252825182820181905260009190848201906040850190845b81811015611fbb57835183529284019291840191600101612af3565b600080600060608486031215612b2457600080fd5b8335612b2f81612706565b95602085013595506040909401359392505050565b801515811461155857600080fd5b600080600060408486031215612b6757600080fd5b8335612b7281612b44565b925060208401356001600160401b03811115612b8d57600080fd5b612b998682870161291d565b9497909650939450505050565b60008060408385031215612bb957600080fd5b8235612bc481612706565b91506020830135612bd481612b44565b809150509250929050565b60008060008060808587031215612bf557600080fd5b8435612c0081612706565b9350602085810135612c1181612706565b93506040860135925060608601356001600160401b0380821115612c3457600080fd5b818801915088601f830112612c4857600080fd5b813581811115612c5a57612c5a612788565b612c6c601f8201601f1916850161279e565b91508082528984828501011115612c8257600080fd5b808484018584013760008482840101525080935050505092959194509250565b608081016106e98284612a1a565b60008060408385031215612cc357600080fd5b8235612cce81612706565b91506020830135612bd481612706565b600060208284031215612cf057600080fd5b81356001600160401b03811115612d0657600080fd5b610ebc848285016127f1565b6020808252602b908201527f496e697469616c697a61626c653a20636f6e7472616374206973206e6f74206960408201526a6e697469616c697a696e6760a81b606082015260800190565b600181811c90821680612d7157607f821691505b602082108103612d9157634e487b7160e01b600052602260045260246000fd5b50919050565b6001600160a01b0392831681529116602082015260400190565b600060208284031215612dc357600080fd5b815161267b81612b44565b634e487b7160e01b600052603260045260246000fd5b634e487b7160e01b600052601160045260246000fd5b60008219821115612e0d57612e0d612de4565b500190565b600060018201612e2457612e24612de4565b5060010190565b8054600090600181811c9080831680612e4557607f831692505b60208084108203612e6657634e487b7160e01b600052602260045260246000fd5b818015612e7a5760018114612e8b57612eb8565b60ff19861689528489019650612eb8565b60008881526020902060005b86811015612eb05781548b820152908501908301612e97565b505084890196505b50505050505092915050565b6000612ed08285612e2b565b8351612ee0818360208801612682565b01949350505050565b600061267b8284612e2b565b600060208284031215612f0757600080fd5b815161267b81612706565b600081612f2157612f21612de4565b506000190190565b60208082526034908201527f455243373231415f5f496e697469616c697a61626c653a20636f6e7472616374604082015273206973206e6f7420696e697469616c697a696e6760601b606082015260800190565b634e487b7160e01b600052601260045260246000fd5b600082612fa257612fa2612f7d565b500490565b600082821015612fb957612fb9612de4565b500390565b600082612fcd57612fcd612f7d565b500690565b6001600160a01b0385811682528416602082015260408101839052608060608201819052600090613005908301846126ae565b9695505050505050565b60006020828403121561302157600080fd5b815161267b8161264856feee151c8401928dc223602bb187aff91b9a56c7cae5476ef1b3287b085a16c85fa264697066735822122061da67e6bfd483ef85978831b791b092c8c0606449dda1a1b9cf524821eef37364736f6c634300080d0033",
  "linkReferences": {},
  "deployedLinkReferences": {}
}