{
  "_format": "hh-sol-artifact-1",
  "contractName": "Drivrs",
  "sourceName": "contracts/Drivrs.sol",
  "abi": [
    {
      "inputs": [],
      "name": "ApprovalCallerNotOwnerNorApproved",
      "type": "error"
    },
    {
      "inputs": [],
      "name": "ApprovalQueryForNonexistentToken",
      "type": "error"
    },
    {
      "inputs": [],
      "name": "BalanceQueryForZeroAddress",
      "type": "error"
    },
    {
      "inputs": [],
      "name": "InvalidQueryRange",
      "type": "error"
    },
    {
      "inputs": [],
      "name": "MintERC2309QuantityExceedsLimit",
      "type": "error"
    },
    {
      "inputs": [],
      "name": "MintToZeroAddress",
      "type": "error"
    },
    {
      "inputs": [],
      "name": "MintZeroQuantity",
      "type": "error"
    },
    {
      "inputs": [
        {
          "internalType": "address",
          "name": "operator",
          "type": "address"
        }
      ],
      "name": "OperatorNotAllowed",
      "type": "error"
    },
    {
      "inputs": [],
      "name": "OwnerQueryForNonexistentToken",
      "type": "error"
    },
    {
      "inputs": [],
      "name": "OwnershipNotInitializedForExtraData",
      "type": "error"
    },
    {
      "inputs": [],
      "name": "TransferCallerNotOwnerNorApproved",
      "type": "error"
    },
    {
      "inputs": [],
      "name": "TransferFromIncorrectOwner",
      "type": "error"
    },
    {
      "inputs": [],
      "name": "TransferToNonERC721ReceiverImplementer",
      "type": "error"
    },
    {
      "inputs": [],
      "name": "TransferToZeroAddress",
      "type": "error"
    },
    {
      "inputs": [],
      "name": "URIQueryForNonexistentToken",
      "type": "error"
    },
    {
      "anonymous": false,
      "inputs": [
        {
          "indexed": true,
          "internalType": "address",
          "name": "owner",
          "type": "address"
        },
        {
          "indexed": true,
          "internalType": "address",
          "name": "approved",
          "type": "address"
        },
        {
          "indexed": true,
          "internalType": "uint256",
          "name": "tokenId",
          "type": "uint256"
        }
      ],
      "name": "Approval",
      "type": "event"
    },
    {
      "anonymous": false,
      "inputs": [
        {
          "indexed": true,
          "internalType": "address",
          "name": "owner",
          "type": "address"
        },
        {
          "indexed": true,
          "internalType": "address",
          "name": "operator",
          "type": "address"
        },
        {
          "indexed": false,
          "internalType": "bool",
          "name": "approved",
          "type": "bool"
        }
      ],
      "name": "ApprovalForAll",
      "type": "event"
    },
    {
      "anonymous": false,
      "inputs": [
        {
          "indexed": true,
          "internalType": "uint256",
          "name": "fromTokenId",
          "type": "uint256"
        },
        {
          "indexed": false,
          "internalType": "uint256",
          "name": "toTokenId",
          "type": "uint256"
        },
        {
          "indexed": true,
          "internalType": "address",
          "name": "from",
          "type": "address"
        },
        {
          "indexed": true,
          "internalType": "address",
          "name": "to",
          "type": "address"
        }
      ],
      "name": "ConsecutiveTransfer",
      "type": "event"
    },
    {
      "anonymous": false,
      "inputs": [
        {
          "indexed": false,
          "internalType": "uint8",
          "name": "version",
          "type": "uint8"
        }
      ],
      "name": "Initialized",
      "type": "event"
    },
    {
      "anonymous": false,
      "inputs": [
        {
          "indexed": true,
          "internalType": "address",
          "name": "previousOwner",
          "type": "address"
        },
        {
          "indexed": true,
          "internalType": "address",
          "name": "newOwner",
          "type": "address"
        }
      ],
      "name": "OwnershipTransferred",
      "type": "event"
    },
    {
      "anonymous": false,
      "inputs": [
        {
          "indexed": true,
          "internalType": "address",
          "name": "from",
          "type": "address"
        },
        {
          "indexed": true,
          "internalType": "address",
          "name": "to",
          "type": "address"
        },
        {
          "indexed": true,
          "internalType": "uint256",
          "name": "tokenId",
          "type": "uint256"
        }
      ],
      "name": "Transfer",
      "type": "event"
    },
    {
      "inputs": [],
      "name": "ADDRESS_1",
      "outputs": [
        {
          "internalType": "address",
          "name": "",
          "type": "address"
        }
      ],
      "stateMutability": "view",
      "type": "function"
    },
    {
      "inputs": [],
      "name": "ADDRESS_2",
      "outputs": [
        {
          "internalType": "address",
          "name": "",
          "type": "address"
        }
      ],
      "stateMutability": "view",
      "type": "function"
    },
    {
      "inputs": [],
      "name": "MAX_SUPPLY",
      "outputs": [
        {
          "internalType": "uint256",
          "name": "",
          "type": "uint256"
        }
      ],
      "stateMutability": "view",
      "type": "function"
    },
    {
      "inputs": [],
      "name": "MINT_LIMIT",
      "outputs": [
        {
          "internalType": "uint256",
          "name": "",
          "type": "uint256"
        }
      ],
      "stateMutability": "view",
      "type": "function"
    },
    {
      "inputs": [],
      "name": "PUBLIC_PRICE",
      "outputs": [
        {
          "internalType": "uint256",
          "name": "",
          "type": "uint256"
        }
      ],
      "stateMutability": "view",
      "type": "function"
    },
    {
      "inputs": [],
      "name": "TRANSACTION_LIMIT",
      "outputs": [
        {
          "internalType": "uint256",
          "name": "",
          "type": "uint256"
        }
      ],
      "stateMutability": "view",
      "type": "function"
    },
    {
      "inputs": [],
      "name": "WL_PRICE",
      "outputs": [
        {
          "internalType": "uint256",
          "name": "",
          "type": "uint256"
        }
      ],
      "stateMutability": "view",
      "type": "function"
    },
    {
      "inputs": [],
      "name": "__DefaultOperatorFilterer_init",
      "outputs": [],
      "stateMutability": "nonpayable",
      "type": "function"
    },
    {
      "inputs": [
        {
          "internalType": "address",
          "name": "subscriptionOrRegistrantToCopy",
          "type": "address"
        },
        {
          "internalType": "bool",
          "name": "subscribe",
          "type": "bool"
        }
      ],
      "name": "__OperatorFilterer_init",
      "outputs": [],
      "stateMutability": "nonpayable",
      "type": "function"
    },
    {
      "inputs": [
        {
          "internalType": "address",
          "name": "to",
          "type": "address"
        },
        {
          "internalType": "uint256",
          "name": "tokenId",
          "type": "uint256"
        }
      ],
      "name": "approve",
      "outputs": [],
      "stateMutability": "payable",
      "type": "function"
    },
    {
      "inputs": [
        {
          "internalType": "address",
          "name": "owner",
          "type": "address"
        }
      ],
      "name": "balanceOf",
      "outputs": [
        {
          "internalType": "uint256",
          "name": "",
          "type": "uint256"
        }
      ],
      "stateMutability": "view",
      "type": "function"
    },
    {
      "inputs": [
        {
          "internalType": "uint256",
          "name": "_maxSupply",
          "type": "uint256"
        }
      ],
      "name": "decreaseSupply",
      "outputs": [],
      "stateMutability": "nonpayable",
      "type": "function"
    },
    {
      "inputs": [
        {
          "internalType": "address[]",
          "name": "_addresses",
          "type": "address[]"
        },
        {
          "internalType": "uint256[]",
          "name": "quantities",
          "type": "uint256[]"
        }
      ],
      "name": "devMint",
      "outputs": [],
      "stateMutability": "nonpayable",
      "type": "function"
    },
    {
      "inputs": [
        {
          "internalType": "uint256",
          "name": "tokenId",
          "type": "uint256"
        }
      ],
      "name": "explicitOwnershipOf",
      "outputs": [
        {
          "components": [
            {
              "internalType": "address",
              "name": "addr",
              "type": "address"
            },
            {
              "internalType": "uint64",
              "name": "startTimestamp",
              "type": "uint64"
            },
            {
              "internalType": "bool",
              "name": "burned",
              "type": "bool"
            },
            {
              "internalType": "uint24",
              "name": "extraData",
              "type": "uint24"
            }
          ],
          "internalType": "struct IERC721AUpgradeable.TokenOwnership",
          "name": "ownership",
          "type": "tuple"
        }
      ],
      "stateMutability": "view",
      "type": "function"
    },
    {
      "inputs": [
        {
          "internalType": "uint256[]",
          "name": "tokenIds",
          "type": "uint256[]"
        }
      ],
      "name": "explicitOwnershipsOf",
      "outputs": [
        {
          "components": [
            {
              "internalType": "address",
              "name": "addr",
              "type": "address"
            },
            {
              "internalType": "uint64",
              "name": "startTimestamp",
              "type": "uint64"
            },
            {
              "internalType": "bool",
              "name": "burned",
              "type": "bool"
            },
            {
              "internalType": "uint24",
              "name": "extraData",
              "type": "uint24"
            }
          ],
          "internalType": "struct IERC721AUpgradeable.TokenOwnership[]",
          "name": "",
          "type": "tuple[]"
        }
      ],
      "stateMutability": "view",
      "type": "function"
    },
    {
      "inputs": [
        {
          "internalType": "bytes32[]",
          "name": "proof",
          "type": "bytes32[]"
        },
        {
          "internalType": "uint256",
          "name": "numberOfTokens",
          "type": "uint256"
        },
        {
          "internalType": "uint256",
          "name": "maxMint",
          "type": "uint256"
        }
      ],
      "name": "freeMint",
      "outputs": [],
      "stateMutability": "nonpayable",
      "type": "function"
    },
    {
      "inputs": [
        {
          "internalType": "uint256",
          "name": "tokenId",
          "type": "uint256"
        }
      ],
      "name": "getApproved",
      "outputs": [
        {
          "internalType": "address",
          "name": "",
          "type": "address"
        }
      ],
      "stateMutability": "view",
      "type": "function"
    },
    {
      "inputs": [],
      "name": "initialize",
      "outputs": [],
      "stateMutability": "nonpayable",
      "type": "function"
    },
    {
      "inputs": [
        {
          "internalType": "address",
          "name": "owner",
          "type": "address"
        },
        {
          "internalType": "address",
          "name": "operator",
          "type": "address"
        }
      ],
      "name": "isApprovedForAll",
      "outputs": [
        {
          "internalType": "bool",
          "name": "",
          "type": "bool"
        }
      ],
      "stateMutability": "view",
      "type": "function"
    },
    {
      "inputs": [],
      "name": "isPresaleActive",
      "outputs": [
        {
          "internalType": "bool",
          "name": "",
          "type": "bool"
        }
      ],
      "stateMutability": "view",
      "type": "function"
    },
    {
      "inputs": [],
      "name": "isPublicSaleActive",
      "outputs": [
        {
          "internalType": "bool",
          "name": "",
          "type": "bool"
        }
      ],
      "stateMutability": "view",
      "type": "function"
    },
    {
      "inputs": [
        {
          "internalType": "uint256",
          "name": "numberOfTokens",
          "type": "uint256"
        },
        {
          "internalType": "uint64",
          "name": "expireTime",
          "type": "uint64"
        },
        {
          "internalType": "bytes",
          "name": "sig",
          "type": "bytes"
        }
      ],
      "name": "mint",
      "outputs": [],
      "stateMutability": "payable",
      "type": "function"
    },
    {
      "inputs": [],
      "name": "name",
      "outputs": [
        {
          "internalType": "string",
          "name": "",
          "type": "string"
        }
      ],
      "stateMutability": "view",
      "type": "function"
    },
    {
      "inputs": [
        {
          "internalType": "address",
          "name": "owner",
          "type": "address"
        }
      ],
      "name": "numberMinted",
      "outputs": [
        {
          "internalType": "uint256",
          "name": "",
          "type": "uint256"
        }
      ],
      "stateMutability": "view",
      "type": "function"
    },
    {
      "inputs": [],
      "name": "owner",
      "outputs": [
        {
          "internalType": "address",
          "name": "",
          "type": "address"
        }
      ],
      "stateMutability": "view",
      "type": "function"
    },
    {
      "inputs": [
        {
          "internalType": "uint256",
          "name": "tokenId",
          "type": "uint256"
        }
      ],
      "name": "ownerOf",
      "outputs": [
        {
          "internalType": "address",
          "name": "",
          "type": "address"
        }
      ],
      "stateMutability": "view",
      "type": "function"
    },
    {
      "inputs": [
        {
          "internalType": "bytes32[]",
          "name": "proof",
          "type": "bytes32[]"
        },
        {
          "internalType": "uint256",
          "name": "numberOfTokens",
          "type": "uint256"
        },
        {
          "internalType": "uint256",
          "name": "maxMint",
          "type": "uint256"
        }
      ],
      "name": "presaleMint",
      "outputs": [],
      "stateMutability": "payable",
      "type": "function"
    },
    {
      "inputs": [],
      "name": "renounceOwnership",
      "outputs": [],
      "stateMutability": "nonpayable",
      "type": "function"
    },
    {
      "inputs": [
        {
          "internalType": "bool",
          "name": "revealed",
          "type": "bool"
        },
        {
          "internalType": "string",
          "name": "_baseURI",
          "type": "string"
        }
      ],
      "name": "reveal",
      "outputs": [],
      "stateMutability": "nonpayable",
      "type": "function"
    },
    {
      "inputs": [
        {
          "internalType": "address",
          "name": "from",
          "type": "address"
        },
        {
          "internalType": "address",
          "name": "to",
          "type": "address"
        },
        {
          "internalType": "uint256",
          "name": "tokenId",
          "type": "uint256"
        }
      ],
      "name": "safeTransferFrom",
      "outputs": [],
      "stateMutability": "payable",
      "type": "function"
    },
    {
      "inputs": [
        {
          "internalType": "address",
          "name": "from",
          "type": "address"
        },
        {
          "internalType": "address",
          "name": "to",
          "type": "address"
        },
        {
          "internalType": "uint256",
          "name": "tokenId",
          "type": "uint256"
        },
        {
          "internalType": "bytes",
          "name": "data",
          "type": "bytes"
        }
      ],
      "name": "safeTransferFrom",
      "outputs": [],
      "stateMutability": "payable",
      "type": "function"
    },
    {
      "inputs": [
        {
          "internalType": "address",
          "name": "operator",
          "type": "address"
        },
        {
          "internalType": "bool",
          "name": "approved",
          "type": "bool"
        }
      ],
      "name": "setApprovalForAll",
      "outputs": [],
      "stateMutability": "nonpayable",
      "type": "function"
    },
    {
      "inputs": [
        {
          "internalType": "string",
          "name": "URI",
          "type": "string"
        }
      ],
      "name": "setBaseURI",
      "outputs": [],
      "stateMutability": "nonpayable",
      "type": "function"
    },
    {
      "inputs": [
        {
          "internalType": "bytes32",
          "name": "_freemintRoot",
          "type": "bytes32"
        }
      ],
      "name": "setFreeMintRoot",
      "outputs": [],
      "stateMutability": "nonpayable",
      "type": "function"
    },
    {
      "inputs": [
        {
          "internalType": "uint256",
          "name": "_mintLimit",
          "type": "uint256"
        }
      ],
      "name": "setMintLimit",
      "outputs": [],
      "stateMutability": "nonpayable",
      "type": "function"
    },
    {
      "inputs": [
        {
          "internalType": "bytes32",
          "name": "_presaleRoot",
          "type": "bytes32"
        }
      ],
      "name": "setPreSaleRoot",
      "outputs": [],
      "stateMutability": "nonpayable",
      "type": "function"
    },
    {
      "inputs": [],
      "name": "setPreSaleStatus",
      "outputs": [],
      "stateMutability": "nonpayable",
      "type": "function"
    },
    {
      "inputs": [
        {
          "internalType": "uint256",
          "name": "_wlPrice",
          "type": "uint256"
        }
      ],
      "name": "setPresalePrice",
      "outputs": [],
      "stateMutability": "nonpayable",
      "type": "function"
    },
    {
      "inputs": [
        {
          "internalType": "uint256",
          "name": "_publicPrice",
          "type": "uint256"
        }
      ],
      "name": "setPublicPrice",
      "outputs": [],
      "stateMutability": "nonpayable",
      "type": "function"
    },
    {
      "inputs": [],
      "name": "setPublicSaleStatus",
      "outputs": [],
      "stateMutability": "nonpayable",
      "type": "function"
    },
    {
      "inputs": [
        {
          "internalType": "address",
          "name": "_signer",
          "type": "address"
        }
      ],
      "name": "setSigner",
      "outputs": [],
      "stateMutability": "nonpayable",
      "type": "function"
    },
    {
      "inputs": [
        {
          "internalType": "uint256",
          "name": "_transactionLimit",
          "type": "uint256"
        }
      ],
      "name": "setTransactionLimit",
      "outputs": [],
      "stateMutability": "nonpayable",
      "type": "function"
    },
    {
      "inputs": [
        {
          "internalType": "bytes4",
          "name": "interfaceId",
          "type": "bytes4"
        }
      ],
      "name": "supportsInterface",
      "outputs": [
        {
          "internalType": "bool",
          "name": "",
          "type": "bool"
        }
      ],
      "stateMutability": "view",
      "type": "function"
    },
    {
      "inputs": [],
      "name": "symbol",
      "outputs": [
        {
          "internalType": "string",
          "name": "",
          "type": "string"
        }
      ],
      "stateMutability": "view",
      "type": "function"
    },
    {
      "inputs": [
        {
          "internalType": "uint256",
          "name": "tokenId",
          "type": "uint256"
        }
      ],
      "name": "tokenURI",
      "outputs": [
        {
          "internalType": "string",
          "name": "",
          "type": "string"
        }
      ],
      "stateMutability": "view",
      "type": "function"
    },
    {
      "inputs": [
        {
          "internalType": "address",
          "name": "owner",
          "type": "address"
        }
      ],
      "name": "tokensOfOwner",
      "outputs": [
        {
          "internalType": "uint256[]",
          "name": "",
          "type": "uint256[]"
        }
      ],
      "stateMutability": "view",
      "type": "function"
    },
    {
      "inputs": [
        {
          "internalType": "address",
          "name": "owner",
          "type": "address"
        },
        {
          "internalType": "uint256",
          "name": "start",
          "type": "uint256"
        },
        {
          "internalType": "uint256",
          "name": "stop",
          "type": "uint256"
        }
      ],
      "name": "tokensOfOwnerIn",
      "outputs": [
        {
          "internalType": "uint256[]",
          "name": "",
          "type": "uint256[]"
        }
      ],
      "stateMutability": "view",
      "type": "function"
    },
    {
      "inputs": [],
      "name": "totalSupply",
      "outputs": [
        {
          "internalType": "uint256",
          "name": "",
          "type": "uint256"
        }
      ],
      "stateMutability": "view",
      "type": "function"
    },
    {
      "inputs": [
        {
          "internalType": "address",
          "name": "from",
          "type": "address"
        },
        {
          "internalType": "address",
          "name": "to",
          "type": "address"
        },
        {
          "internalType": "uint256",
          "name": "tokenId",
          "type": "uint256"
        }
      ],
      "name": "transferFrom",
      "outputs": [],
      "stateMutability": "payable",
      "type": "function"
    },
    {
      "inputs": [
        {
          "internalType": "address",
          "name": "newOwner",
          "type": "address"
        }
      ],
      "name": "transferOwnership",
      "outputs": [],
      "stateMutability": "nonpayable",
      "type": "function"
    },
    {
      "inputs": [
        {
          "internalType": "bytes32",
          "name": "",
          "type": "bytes32"
        }
      ],
      "name": "usedDigests",
      "outputs": [
        {
          "internalType": "bool",
          "name": "",
          "type": "bool"
        }
      ],
      "stateMutability": "view",
      "type": "function"
    },
    {
      "inputs": [
        {
          "internalType": "address",
          "name": "",
          "type": "address"
        }
      ],
      "name": "userPurchase",
      "outputs": [
        {
          "internalType": "uint256",
          "name": "presaleMinted",
          "type": "uint256"
        },
        {
          "internalType": "uint256",
          "name": "freeMinted",
          "type": "uint256"
        }
      ],
      "stateMutability": "view",
      "type": "function"
    },
    {
      "inputs": [],
      "name": "withdraw",
      "outputs": [],
      "stateMutability": "nonpayable",
      "type": "function"
    }
  ],
  "bytecode": "0x608060405234801561001057600080fd5b50613fb4806100206000396000f3fe60806040526004361061031a5760003560e01c806370c42575116101ab578063b3754e86116100f7578063d39c4de711610095578063e985e9c51161006f578063e985e9c51461090d578063f2fde38b1461092d578063fe042d491461094d578063ff633d551461096d57600080fd5b8063d39c4de714610895578063dc33e681146108c5578063de97536b146108e557600080fd5b8063b88d4fde116100d1578063b88d4fde14610815578063c23dc68f14610828578063c627525514610855578063c87b56dd1461087557600080fd5b8063b3754e86146107a3578063b484eff7146107b6578063b6fd509b146107ff57600080fd5b806395d89b41116101645780639e6a1d7d1161013e5780639e6a1d7d1461071b578063a101ff6d1461073b578063a22cb4651461075b578063b08da3421461077b57600080fd5b806395d89b41146106c657806398e52f9a146106db57806399a2557a146106fb57600080fd5b806370c425751461061c578063715018a61461063c5780637dfed9fe146106515780638129fc1c146106665780638462151c1461067b5780638da5cb5b146106a857600080fd5b80633549345e1161026a5780635bbb2177116102235780636352211e116101fd5780636352211e1461059c57806364bfa546146105bc5780636c19e783146105dc57806370a08231146105fc57600080fd5b80635bbb21771461053a57806360d938dc14610567578063611f3f101461058657600080fd5b80633549345e146104aa5780633c18c3da146104ca5780633ccfd60b146104dd5780633e07ac02146104f257806342842e0e1461050757806355f804b31461051a57600080fd5b806318160ddd116102d75780632446548f116102b15780632446548f1461043e57806331c3c7a01461045e57806332cb6b0c1461047457806334837ad31461048a57600080fd5b806318160ddd146103fc5780631e84c4131461041157806323b872dd1461042b57600080fd5b806301ffc9a71461031f578063027752401461035457806303eaebec1461037857806306fdde031461038f578063081812fc146103b1578063095ea7b3146103e9575b600080fd5b34801561032b57600080fd5b5061033f61033a366004613318565b61098d565b60405190151581526020015b60405180910390f35b34801561036057600080fd5b5061036a60685481565b60405190815260200161034b565b34801561038457600080fd5b5061038d6109df565b005b34801561039b57600080fd5b506103a4610a30565b60405161034b9190613394565b3480156103bd57600080fd5b506103d16103cc3660046133a7565b610acb565b6040516001600160a01b03909116815260200161034b565b61038d6103f73660046133d7565b610b0f565b34801561040857600080fd5b5061036a610b1f565b34801561041d57600080fd5b50606a5461033f9060ff1681565b61038d610439366004613401565b610b3e565b34801561044a57600080fd5b5061038d610459366004613511565b610c93565b34801561046a57600080fd5b5061036a60665481565b34801561048057600080fd5b5061036a60655481565b34801561049657600080fd5b5061038d6104a53660046135d0565b610db3565b3480156104b657600080fd5b5061038d6104c53660046133a7565b611057565b61038d6104d83660046135d0565b611064565b3480156104e957600080fd5b5061038d611337565b3480156104fe57600080fd5b5061038d611420565b61038d610515366004613401565b611445565b34801561052657600080fd5b5061038d6105353660046136b1565b61158f565b34801561054657600080fd5b5061055a6105553660046136f2565b6115a8565b60405161034b91906137a2565b34801561057357600080fd5b50606a5461033f90610100900460ff1681565b34801561059257600080fd5b5061036a60675481565b3480156105a857600080fd5b506103d16105b73660046133a7565b6115f4565b3480156105c857600080fd5b5061038d6105d73660046133a7565b6115ff565b3480156105e857600080fd5b5061038d6105f73660046137e4565b61160c565b34801561060857600080fd5b5061036a6106173660046137e4565b611636565b34801561062857600080fd5b5061038d6106373660046133a7565b611695565b34801561064857600080fd5b5061038d6116a2565b34801561065d57600080fd5b5061038d6116b4565b34801561067257600080fd5b5061038d6116d0565b34801561068757600080fd5b5061069b6106963660046137e4565b611989565b60405161034b91906137ff565b3480156106b457600080fd5b506033546001600160a01b03166103d1565b3480156106d257600080fd5b506103a46119b7565b3480156106e757600080fd5b5061038d6106f63660046133a7565b6119cf565b34801561070757600080fd5b5061069b610716366004613837565b611a24565b34801561072757600080fd5b5061038d6107363660046133a7565b611a31565b34801561074757600080fd5b5061038d610756366004613878565b611a3e565b34801561076757600080fd5b5061038d6107763660046138cc565b611a67565b34801561078757600080fd5b506103d173779e3847551fa09d15a0ae2ae86b60a912ea00ad81565b61038d6107b1366004613972565b611ae4565b3480156107c257600080fd5b506107ea6107d13660046137e4565b606e602052600090815260409020805460019091015482565b6040805192835260208301919091520161034b565b34801561080b57600080fd5b5061036a60695481565b61038d6108233660046139d3565b611e21565b34801561083457600080fd5b506108486108433660046133a7565b611f79565b60405161034b9190613a3a565b34801561086157600080fd5b5061038d6108703660046133a7565b611fd4565b34801561088157600080fd5b506103a46108903660046133a7565b611fe1565b3480156108a157600080fd5b5061033f6108b03660046133a7565b60716020526000908152604090205460ff1681565b3480156108d157600080fd5b5061036a6108e03660046137e4565b612039565b3480156108f157600080fd5b506103d173188a3c584f0de9ee0eabe04316a94a41f0867c0c81565b34801561091957600080fd5b5061033f610928366004613a48565b612044565b34801561093957600080fd5b5061038d6109483660046137e4565b612081565b34801561095957600080fd5b5061038d6109683660046133a7565b6120f7565b34801561097957600080fd5b5061038d6109883660046138cc565b612104565b60006301ffc9a760e01b6001600160e01b0319831614806109be57506380ac58cd60e01b6001600160e01b03198316145b806109d95750635b5e139f60e01b6001600160e01b03198316145b92915050565b600054610100900460ff16610a0f5760405162461bcd60e51b8152600401610a0690613a7b565b60405180910390fd5b610a2e733cc6cdda760b79bafa08df41ecfa224f810dceb66001612104565b565b6060610a3a61228d565b6002018054610a4890613ac6565b80601f0160208091040260200160405190810160405280929190818152602001828054610a7490613ac6565b8015610ac15780601f10610a9657610100808354040283529160200191610ac1565b820191906000526020600020905b815481529060010190602001808311610aa457829003601f168201915b5050505050905090565b6000610ad6826122b1565b610aea57610aea6333d1c03960e21b612307565b610af261228d565b60009283526006016020525060409020546001600160a01b031690565b610b1b82826001612311565b5050565b600080610b2a61228d565b60010154610b3661228d565b540303919050565b826daaeb6d7670e522a718067333cd4e3b15610c8257336001600160a01b03821603610b7457610b6f8484846123c2565b610c8d565b604051633185c44d60e21b81526daaeb6d7670e522a718067333cd4e9063c617113490610ba79030903390600401613b00565b602060405180830381865afa158015610bc4573d6000803e3d6000fd5b505050506040513d601f19601f82011682018060405250810190610be89190613b1a565b8015610c635750604051633185c44d60e21b81526daaeb6d7670e522a718067333cd4e9063c617113490610c229030908590600401613b00565b602060405180830381865afa158015610c3f573d6000803e3d6000fd5b505050506040513d601f19601f82011682018060405250810190610c639190613b1a565b610c8257604051633b79c77360e21b8152336004820152602401610a06565b610c8d8484846123c2565b50505050565b610c9b612585565b8051825114610cdf5760405162461bcd60e51b815260206004820152601060248201526f57524f4e475f504152414d455445525360801b6044820152606401610a06565b6000805b8251811015610d2557828181518110610cfe57610cfe613b37565b602002602001015182610d119190613b63565b915080610d1d81613b7b565b915050610ce3565b50606554610d31610b1f565b610d3b9083613b63565b1115610d595760405162461bcd60e51b8152600401610a0690613b94565b60005b8351811015610c8d57610da1848281518110610d7a57610d7a613b37565b6020026020010151848381518110610d9457610d94613b37565b60200260200101516125df565b80610dab81613b7b565b915050610d5c565b336000908152606f60205260409020546003904211610de45760405162461bcd60e51b8152600401610a0690613bbf565b323314610e035760405162461bcd60e51b8152600401610a0690613bf6565b8060ff16600103610e3057606a5460ff16610e305760405162461bcd60e51b8152600401610a0690613c2d565b8060ff16600203610e6257606a54610100900460ff16610e625760405162461bcd60e51b8152600401610a0690613c64565b8060ff16600303610e9457606a54610100900460ff16610e945760405162461bcd60e51b8152600401610a0690613c9b565b82606554610ea0610b1f565b610eaa9083613b63565b1115610ec85760405162461bcd60e51b8152600401610a0690613b94565b606854610ed433612039565b610ede9083613b63565b1115610efc5760405162461bcd60e51b8152600401610a0690613cd2565b606954811115610f1e5760405162461bcd60e51b8152600401610a0690613cfd565b6040516001600160601b03193360601b16602082015260348101849052600090605401604051602081830303815290604052805190602001209050610f6686606d54836125f9565b610fa25760405162461bcd60e51b815260206004820152600d60248201526c141493d3d197d2539590531251609a1b6044820152606401610a06565b336000908152606e60205260409020600101548490610fc2908790613b63565b11156110105760405162461bcd60e51b815260206004820152601b60248201527f4558434545445f414c4c4f43415445445f4d494e545f4c494d495400000000006044820152606401610a06565b336000908152606f60209081526040808320429055606e9091528120600101805487929061103f908490613b63565b9091555061104f9050338661260f565b505050505050565b61105f612585565b606655565b336000908152606f602052604090205460029042116110955760405162461bcd60e51b8152600401610a0690613bbf565b3233146110b45760405162461bcd60e51b8152600401610a0690613bf6565b8060ff166001036110e157606a5460ff166110e15760405162461bcd60e51b8152600401610a0690613c2d565b8060ff1660020361111357606a54610100900460ff166111135760405162461bcd60e51b8152600401610a0690613c64565b8060ff1660030361114557606a54610100900460ff166111455760405162461bcd60e51b8152600401610a0690613c9b565b82606554611151610b1f565b61115b9083613b63565b11156111795760405162461bcd60e51b8152600401610a0690613b94565b60685461118533612039565b61118f9083613b63565b11156111ad5760405162461bcd60e51b8152600401610a0690613cd2565b6069548111156111cf5760405162461bcd60e51b8152600401610a0690613cfd565b6040516001600160601b03193360601b1660208201526034810184905260009060540160405160208183030381529060405280519060200120905061121786606c54836125f9565b6112535760405162461bcd60e51b815260206004820152600d60248201526c141493d3d197d2539590531251609a1b6044820152606401610a06565b336000908152606e60205260409020548490611270908790613b63565b11156112be5760405162461bcd60e51b815260206004820152601b60248201527f4558434545445f414c4c4f43415445445f4d494e545f4c494d495400000000006044820152606401610a06565b846066546112cc9190613d45565b341461130b5760405162461bcd60e51b815260206004820152600e60248201526d1253959053125117d05353d5539560921b6044820152606401610a06565b336000908152606f60209081526040808320429055606e9091528120805487929061103f908490613b63565b61133f612585565b47806113865760405162461bcd60e51b81526020600482015260166024820152754e6f2062616c616e636520746f20776974686472617760501b6044820152606401610a06565b73188a3c584f0de9ee0eabe04316a94a41f0867c0c6108fc6127106113ad846102bc613d45565b6113b79190613d7a565b6040518115909202916000818181858888f193505050501580156113df573d6000803e3d6000fd5b5060405173779e3847551fa09d15a0ae2ae86b60a912ea00ad904780156108fc02916000818181858888f19350505050158015610b1b573d6000803e3d6000fd5b611428612585565b606a805461ff001981166101009182900460ff1615909102179055565b826daaeb6d7670e522a718067333cd4e3b1561158457336001600160a01b0382160361147657610b6f848484612703565b604051633185c44d60e21b81526daaeb6d7670e522a718067333cd4e9063c6171134906114a99030903390600401613b00565b602060405180830381865afa1580156114c6573d6000803e3d6000fd5b505050506040513d601f19601f820116820180604052508101906114ea9190613b1a565b80156115655750604051633185c44d60e21b81526daaeb6d7670e522a718067333cd4e9063c6171134906115249030908590600401613b00565b602060405180830381865afa158015611541573d6000803e3d6000fd5b505050506040513d601f19601f820116820180604052508101906115659190613b1a565b61158457604051633b79c77360e21b8152336004820152602401610a06565b610c8d848484612703565b611597612585565b6115a3606b83836131f5565b505050565b60408051828152600583901b8082016020019092526060915b80156115ec57601f19808201918601013560006115dd82611f79565b84840160200152506115c19050565b509392505050565b60006109d98261271e565b611607612585565b606955565b611614612585565b607080546001600160a01b0319166001600160a01b0392909216919091179055565b60006001600160a01b038216611656576116566323d3ad8160e21b612307565b6001600160401b0361166661228d565b6005016000846001600160a01b03166001600160a01b0316815260200190815260200160002054169050919050565b61169d612585565b606d55565b6116aa612585565b610a2e60006127d8565b6116bc612585565b606a805460ff19811660ff90911615179055565b600080516020613f5f83398151915254610100900460ff1661170557600080516020613f5f8339815191525460ff1615611709565b303b155b61177b5760405162461bcd60e51b815260206004820152603760248201527f455243373231415f5f496e697469616c697a61626c653a20636f6e747261637460448201527f20697320616c726561647920696e697469616c697a65640000000000000000006064820152608401610a06565b600080516020613f5f83398151915254610100900460ff161580156117b757600080516020613f5f833981519152805461ffff19166101011790555b600054610100900460ff16158080156117d75750600054600160ff909116105b806117f15750303b1580156117f1575060005460ff166001145b6118545760405162461bcd60e51b815260206004820152602e60248201527f496e697469616c697a61626c653a20636f6e747261637420697320616c72656160448201526d191e481a5b9a5d1a585b1a5e995960921b6064820152608401610a06565b6000805460ff191660011790558015611877576000805461ff0019166101001790555b6118c56040518060400160405280600a8152602001694452495652535041535360b01b8152506040518060400160405280600a8152602001694452495652535041535360b01b81525061282a565b6118cd612868565b6118d56109df565b6122b8606555661550f7dca70000606681905560675560016068819055606955606a805462ffffff1916905560408051602081019182905260009081905261191f91606b91613279565b508015611966576000805461ff0019169055604051600181527f7f26b83ff96e1f2b6a682f133852f6798a09c465da95921460cefb38474024989060200160405180910390a15b50801561198657600080516020613f5f833981519152805461ff00191690555b50565b6060600080611996612897565b905060608183146119af576119ac8584846128a7565b90505b949350505050565b60606119c161228d565b6003018054610a4890613ac6565b6119d7612585565b6065548110611a1f5760405162461bcd60e51b815260206004820152601460248201527343414e545f494e4352454153455f535550504c5960601b6044820152606401610a06565b606555565b60606119af8484846128a7565b611a39612585565b606855565b611a46612585565b606a805462ff000019166201000085151502179055610c8d606b83836131f5565b80611a7061228d565b336000818152600792909201602090815260408084206001600160a01b03881680865290835293819020805460ff19169515159590951790945592518415158152919290917f17307eab39ab6107e8899845ad3d59bd9653f200f220920489ca2b5937696c31910160405180910390a35050565b336000908152606f60205260409020546001904211611b155760405162461bcd60e51b8152600401610a0690613bbf565b323314611b345760405162461bcd60e51b8152600401610a0690613bf6565b8060ff16600103611b6157606a5460ff16611b615760405162461bcd60e51b8152600401610a0690613c2d565b8060ff16600203611b9357606a54610100900460ff16611b935760405162461bcd60e51b8152600401610a0690613c64565b8060ff16600303611bc557606a54610100900460ff16611bc55760405162461bcd60e51b8152600401610a0690613c9b565b83606554611bd1610b1f565b611bdb9083613b63565b1115611bf95760405162461bcd60e51b8152600401610a0690613b94565b606854611c0533612039565b611c0f9083613b63565b1115611c2d5760405162461bcd60e51b8152600401610a0690613cd2565b606954811115611c4f5760405162461bcd60e51b8152600401610a0690613cfd565b6040516001600160601b03193360601b1660208201526001600160c01b031960c086901b166034820152603c8101869052600090605c01604051602081830303815290604052805190602001209050611ca884826129a1565b611cf45760405162461bcd60e51b815260206004820152601960248201527f434f4e54524143545f4d494e545f4e4f545f414c4c4f574544000000000000006044820152606401610a06565b846001600160401b0316421115611d415760405162461bcd60e51b8152602060048201526011602482015270455850495245445f5349474e415455524560781b6044820152606401610a06565b60008181526071602052604090205460ff1615611da05760405162461bcd60e51b815260206004820152601d60248201527f5349474e41545552455f4c4f4f50494e475f4e4f545f414c4c4f5745440000006044820152606401610a06565b85606754611dae9190613d45565b3414611ded5760405162461bcd60e51b815260206004820152600e60248201526d1253959053125117d05353d5539560921b6044820152606401610a06565b336000818152606f6020908152604080832042905584835260719091529020805460ff1916600117905561104f908761260f565b836daaeb6d7670e522a718067333cd4e3b15611f6657336001600160a01b03821603611e5857611e53858585856129cb565b611f72565b604051633185c44d60e21b81526daaeb6d7670e522a718067333cd4e9063c617113490611e8b9030903390600401613b00565b602060405180830381865afa158015611ea8573d6000803e3d6000fd5b505050506040513d601f19601f82011682018060405250810190611ecc9190613b1a565b8015611f475750604051633185c44d60e21b81526daaeb6d7670e522a718067333cd4e9063c617113490611f069030908590600401613b00565b602060405180830381865afa158015611f23573d6000803e3d6000fd5b505050506040513d601f19601f82011682018060405250810190611f479190613b1a565b611f6657604051633b79c77360e21b8152336004820152602401610a06565b611f72858585856129cb565b5050505050565b604080516080810182526000808252602082018190529181018290526060810191909152611fa5612897565b821015611fcf575b611fb682612a06565b611fc65760001990910190611fad565b6109d982612a26565b919050565b611fdc612585565b606755565b606a5460609062010000900460ff161561202757606b61200083612aaf565b604051602001612011929190613e27565b6040516020818303038152906040529050919050565b606b6040516020016120119190613e4c565b60006109d982612baf565b600061204e61228d565b6001600160a01b039384166000908152600791909101602090815260408083209490951682529290925250205460ff1690565b612089612585565b6001600160a01b0381166120ee5760405162461bcd60e51b815260206004820152602660248201527f4f776e61626c653a206e6577206f776e657220697320746865207a65726f206160448201526564647265737360d01b6064820152608401610a06565b611986816127d8565b6120ff612585565b606c55565b600054610100900460ff1661212b5760405162461bcd60e51b8152600401610a0690613a7b565b6daaeb6d7670e522a718067333cd4e3b15610b1b5760405163c3c5a54760e01b81523060048201526daaeb6d7670e522a718067333cd4e9063c3c5a547906024016020604051808303816000875af115801561218b573d6000803e3d6000fd5b505050506040513d601f19601f820116820180604052508101906121af9190613b1a565b610b1b57801561221a57604051633e9f1edf60e11b81526daaeb6d7670e522a718067333cd4e90637d3e3dbe906121ec9030908690600401613b00565b600060405180830381600087803b15801561220657600080fd5b505af115801561104f573d6000803e3d6000fd5b6001600160a01b0382161561225c5760405163a0af290360e01b81526daaeb6d7670e522a718067333cd4e9063a0af2903906121ec9030908690600401613b00565b604051632210724360e11b81523060048201526daaeb6d7670e522a718067333cd4e90634420e486906024016121ec565b7f2569078dfb4b0305704d3008e7403993ae9601b85f7ae5e742de3de8f8011c4090565b60006122bb61228d565b54821015611fcf5760005b6122ce61228d565b6000848152600491909101602052604081205491508190036122fa576122f383613e58565b92506122c6565b600160e01b161592915050565b8060005260046000fd5b600061231c836115f4565b90508180156123345750336001600160a01b03821614155b15612357576123438133612044565b612357576123576367d9dca160e11b612307565b8361236061228d565b6000858152600691909101602052604080822080546001600160a01b0319166001600160a01b0394851617905551859287811692908516917f8c5be1e5ebec7d5bd14f71427d1e84f3dd0314c0f7b2291e5b200ac8c7c3b9259190a450505050565b60006123cd8261271e565b6001600160a01b0394851694909150811684146123f3576123f362a1148160e81b612307565b6000806123ff84612bf4565b91509150612424818761240f3390565b6001600160a01b039081169116811491141790565b612446576124328633612044565b61244657612446632ce44b5f60e11b612307565b801561245157600082555b61245961228d565b6001600160a01b038716600090815260059190910160205260409020805460001901905561248561228d565b6001600160a01b03861660008181526005929092016020526040909120805460010190554260a01b17600160e11b176124bc61228d565b60008681526004919091016020526040812091909155600160e11b8416900361253257600184016124eb61228d565b6000828152600491909101602052604081205490036125305761250c61228d565b548114612530578361251c61228d565b600083815260049190910160205260409020555b505b6001600160a01b0385168481887fddf252ad1be2c89b69c2b068fc378daa952ba7f163c4a11628f55a4df523b3ef600080a48060000361257c5761257c633a954ecd60e21b612307565b50505050505050565b6033546001600160a01b03163314610a2e5760405162461bcd60e51b815260206004820181905260248201527f4f776e61626c653a2063616c6c6572206973206e6f7420746865206f776e65726044820152606401610a06565b610b1b828260405180602001604052806000815250612c1c565b6000826126068584612c8e565b14949350505050565b600061261961228d565b54905060008290036126355761263563b562e8dd60e01b612307565b6001600160a01b0383164260a01b6001841460e11b171761265461228d565b6000838152600491909101602052604090205568010000000000000001820261267b61228d565b6001600160a01b03851660008181526005929092016020526040822080549093019092558190036126b5576126b5622e076360e81b612307565b818301825b808360007fddf252ad1be2c89b69c2b068fc378daa952ba7f163c4a11628f55a4df523b3ef600080a48181600101915081036126ba57816126f961228d565b55506115a3915050565b6115a383838360405180602001604052806000815250611e21565b600061272861228d565b6000838152600491909101602052604081205491508190036127b55761274c61228d565b54821061276357612763636f96cda160e11b612307565b61276b61228d565b60001990920160008181526004939093016020526040909220549050801561276357600160e01b81166000036127a057919050565b6127b0636f96cda160e11b612307565b612763565b600160e01b81166000036127c857919050565b611fcf636f96cda160e11b612307565b603380546001600160a01b038381166001600160a01b0319831681179093556040519116919082907f8be0079c531659141344cd1fd0a4f28419497f9722a3daafe3b4186f6b6457e090600090a35050565b600080516020613f5f83398151915254610100900460ff1661285e5760405162461bcd60e51b8152600401610a0690613e6f565b610b1b8282612cfa565b600054610100900460ff1661288f5760405162461bcd60e51b8152600401610a0690613a7b565b610a2e612d7d565b60006128a161228d565b54919050565b60608183106128c0576128c0631960ccad60e11b612307565b60006128ca612897565b90508083106128d7578092505b606060006128e487611636565b858710908102915081156129955781878703116129015786860391505b60405192506001820160051b8301604052600061291d88611f79565b90506000816040015161292e575080515b60005b61293a8a612a26565b92506040830151600081146129525760009250612977565b83511561295e57835192505b8b831860601b612977576001820191508a8260051b8801525b5060018a019950888a148061298b57508481145b1561293157855250505b50909695505050505050565b6070546000906001600160a01b03166129ba8385612dad565b6001600160a01b0316149392505050565b6129d6848484610b3e565b6001600160a01b0383163b15610c8d576129f284848484612dc9565b610c8d57610c8d6368d2bf6b60e11b612307565b6000612a1061228d565b6000928352600401602052506040902054151590565b6040805160808101825260008082526020820181905291810182905260608101919091526109d9612a5561228d565b60008481526004919091016020526040902054604080516080810182526001600160a01b038316815260a083901c6001600160401b03166020820152600160e01b831615159181019190915260e89190911c606082015290565b606081600003612ad65750506040805180820190915260018152600360fc1b602082015290565b8160005b8115612b005780612aea81613b7b565b9150612af99050600a83613d7a565b9150612ada565b6000816001600160401b03811115612b1a57612b1a61343d565b6040519080825280601f01601f191660200182016040528015612b44576020820181803683370190505b5090505b84156119af57612b59600183613ec3565b9150612b66600a86613eda565b612b71906030613b63565b60f81b818381518110612b8657612b86613b37565b60200101906001600160f81b031916908160001a905350612ba8600a86613d7a565b9450612b48565b60006001600160401b036040612bc361228d565b6005016000856001600160a01b03166001600160a01b0316815260200190815260200160002054901c169050919050565b6000806000612c0161228d565b60009485526006016020525050604090912080549092909150565b612c26838361260f565b6001600160a01b0383163b156115a3576000612c4061228d565b5490508281035b612c5a6000868380600101945086612dc9565b612c6e57612c6e6368d2bf6b60e11b612307565b818110612c475781612c7e61228d565b5414611f7257611f726000612307565b600081815b84518110156115ec576000858281518110612cb057612cb0613b37565b60200260200101519050808311612cd65760008381526020829052604090209250612ce7565b600081815260208490526040902092505b5080612cf281613b7b565b915050612c93565b600080516020613f5f83398151915254610100900460ff16612d2e5760405162461bcd60e51b8152600401610a0690613e6f565b81612d3761228d565b6002019080519060200190612d4d929190613279565b5080612d5761228d565b6003019080519060200190612d6d929190613279565b506000612d7861228d565b555050565b600054610100900460ff16612da45760405162461bcd60e51b8152600401610a0690613a7b565b610a2e336127d8565b6000806000612dbc8585612eab565b915091506115ec81612f19565b604051630a85bd0160e11b81526000906001600160a01b0385169063150b7a0290612dfe903390899088908890600401613eee565b6020604051808303816000875af1925050508015612e39575060408051601f3d908101601f19168201909252612e3691810190613f2b565b60015b612e8e573d808015612e67576040519150601f19603f3d011682016040523d82523d6000602084013e612e6c565b606091505b508051600003612e8657612e866368d2bf6b60e11b612307565b805181602001fd5b6001600160e01b031916630a85bd0160e11b149050949350505050565b6000808251604103612ee15760208301516040840151606085015160001a612ed5878285856130cf565b94509450505050612f12565b8251604003612f0a5760208301516040840151612eff8683836131bc565b935093505050612f12565b506000905060025b9250929050565b6000816004811115612f2d57612f2d613f48565b03612f355750565b6001816004811115612f4957612f49613f48565b03612f965760405162461bcd60e51b815260206004820152601860248201527f45434453413a20696e76616c6964207369676e617475726500000000000000006044820152606401610a06565b6002816004811115612faa57612faa613f48565b03612ff75760405162461bcd60e51b815260206004820152601f60248201527f45434453413a20696e76616c6964207369676e6174757265206c656e677468006044820152606401610a06565b600381600481111561300b5761300b613f48565b036130635760405162461bcd60e51b815260206004820152602260248201527f45434453413a20696e76616c6964207369676e6174757265202773272076616c604482015261756560f01b6064820152608401610a06565b600481600481111561307757613077613f48565b036119865760405162461bcd60e51b815260206004820152602260248201527f45434453413a20696e76616c6964207369676e6174757265202776272076616c604482015261756560f01b6064820152608401610a06565b6000807f7fffffffffffffffffffffffffffffff5d576e7357a4501ddfe92f46681b20a083111561310657506000905060036131b3565b8460ff16601b1415801561311e57508460ff16601c14155b1561312f57506000905060046131b3565b6040805160008082526020820180845289905260ff881692820192909252606081018690526080810185905260019060a0016020604051602081039080840390855afa158015613183573d6000803e3d6000fd5b5050604051601f1901519150506001600160a01b0381166131ac576000600192509250506131b3565b9150600090505b94509492505050565b6000806001600160ff1b038316816131d960ff86901c601b613b63565b90506131e7878288856130cf565b935093505050935093915050565b82805461320190613ac6565b90600052602060002090601f0160209004810192826132235760008555613269565b82601f1061323c5782800160ff19823516178555613269565b82800160010185558215613269579182015b8281111561326957823582559160200191906001019061324e565b506132759291506132ed565b5090565b82805461328590613ac6565b90600052602060002090601f0160209004810192826132a75760008555613269565b82601f106132c057805160ff1916838001178555613269565b82800160010185558215613269579182015b828111156132695782518255916020019190600101906132d2565b5b8082111561327557600081556001016132ee565b6001600160e01b03198116811461198657600080fd5b60006020828403121561332a57600080fd5b813561333581613302565b9392505050565b60005b8381101561335757818101518382015260200161333f565b83811115610c8d5750506000910152565b6000815180845261338081602086016020860161333c565b601f01601f19169290920160200192915050565b6020815260006133356020830184613368565b6000602082840312156133b957600080fd5b5035919050565b80356001600160a01b0381168114611fcf57600080fd5b600080604083850312156133ea57600080fd5b6133f3836133c0565b946020939093013593505050565b60008060006060848603121561341657600080fd5b61341f846133c0565b925061342d602085016133c0565b9150604084013590509250925092565b634e487b7160e01b600052604160045260246000fd5b604051601f8201601f191681016001600160401b038111828210171561347b5761347b61343d565b604052919050565b60006001600160401b0382111561349c5761349c61343d565b5060051b60200190565b600082601f8301126134b757600080fd5b813560206134cc6134c783613483565b613453565b82815260059290921b840181019181810190868411156134eb57600080fd5b8286015b8481101561350657803583529183019183016134ef565b509695505050505050565b6000806040838503121561352457600080fd5b82356001600160401b038082111561353b57600080fd5b818501915085601f83011261354f57600080fd5b8135602061355f6134c783613483565b82815260059290921b8401810191818101908984111561357e57600080fd5b948201945b838610156135a357613594866133c0565b82529482019490820190613583565b965050860135925050808211156135b957600080fd5b506135c6858286016134a6565b9150509250929050565b6000806000606084860312156135e557600080fd5b83356001600160401b038111156135fb57600080fd5b8401601f8101861361360c57600080fd5b8035602061361c6134c783613483565b82815260059290921b8301810191818101908984111561363b57600080fd5b938201935b8385101561365957843582529382019390820190613640565b999188013598505060409096013595945050505050565b60008083601f84011261368257600080fd5b5081356001600160401b0381111561369957600080fd5b602083019150836020828501011115612f1257600080fd5b600080602083850312156136c457600080fd5b82356001600160401b038111156136da57600080fd5b6136e685828601613670565b90969095509350505050565b6000806020838503121561370557600080fd5b82356001600160401b038082111561371c57600080fd5b818501915085601f83011261373057600080fd5b81358181111561373f57600080fd5b8660208260051b850101111561375457600080fd5b60209290920196919550909350505050565b80516001600160a01b031682526020808201516001600160401b03169083015260408082015115159083015260609081015162ffffff16910152565b6020808252825182820181905260009190848201906040850190845b81811015612995576137d1838551613766565b92840192608092909201916001016137be565b6000602082840312156137f657600080fd5b613335826133c0565b6020808252825182820181905260009190848201906040850190845b818110156129955783518352928401929184019160010161381b565b60008060006060848603121561384c57600080fd5b613855846133c0565b95602085013595506040909401359392505050565b801515811461198657600080fd5b60008060006040848603121561388d57600080fd5b83356138988161386a565b925060208401356001600160401b038111156138b357600080fd5b6138bf86828701613670565b9497909650939450505050565b600080604083850312156138df57600080fd5b6138e8836133c0565b915060208301356138f88161386a565b809150509250929050565b600082601f83011261391457600080fd5b81356001600160401b0381111561392d5761392d61343d565b613940601f8201601f1916602001613453565b81815284602083860101111561395557600080fd5b816020850160208301376000918101602001919091529392505050565b60008060006060848603121561398757600080fd5b8335925060208401356001600160401b0380821682146139a657600080fd5b909250604085013590808211156139bc57600080fd5b506139c986828701613903565b9150509250925092565b600080600080608085870312156139e957600080fd5b6139f2856133c0565b9350613a00602086016133c0565b92506040850135915060608501356001600160401b03811115613a2257600080fd5b613a2e87828801613903565b91505092959194509250565b608081016109d98284613766565b60008060408385031215613a5b57600080fd5b613a64836133c0565b9150613a72602084016133c0565b90509250929050565b6020808252602b908201527f496e697469616c697a61626c653a20636f6e7472616374206973206e6f74206960408201526a6e697469616c697a696e6760a81b606082015260800190565b600181811c90821680613ada57607f821691505b602082108103613afa57634e487b7160e01b600052602260045260246000fd5b50919050565b6001600160a01b0392831681529116602082015260400190565b600060208284031215613b2c57600080fd5b81516133358161386a565b634e487b7160e01b600052603260045260246000fd5b634e487b7160e01b600052601160045260246000fd5b60008219821115613b7657613b76613b4d565b500190565b600060018201613b8d57613b8d613b4d565b5060010190565b6020808252601190820152704e4f545f454e4f5547485f535550504c5960781b604082015260600190565b6020808252601d908201527f43414e4e4f545f4d494e545f4f4e5f5448455f53414d455f424c4f434b000000604082015260600190565b6020808252601d908201527f434f4e5452414354535f4e4f545f414c4c4f5745445f544f5f4d494e54000000604082015260600190565b6020808252601d908201527f5055424c49435f4d494e545f49535f4e4f545f5945545f414354495645000000604082015260600190565b6020808252601e908201527f50524553414c455f4d494e545f49535f4e4f545f5945545f4143544956450000604082015260600190565b6020808252601b908201527f465245455f4d494e545f49535f4e4f545f5945545f4143544956450000000000604082015260600190565b602080825260119082015270115610d1515117d352539517d312535255607a1b604082015260600190565b60208082526028908201527f455843454544494e475f4d4158494d554d5f414d4f554e545f5045525f5452416040820152672729a0a1aa24a7a760c11b606082015260800190565b6000816000190483118215151615613d5f57613d5f613b4d565b500290565b634e487b7160e01b600052601260045260246000fd5b600082613d8957613d89613d64565b500490565b8054600090600181811c9080831680613da857607f831692505b60208084108203613dc957634e487b7160e01b600052602260045260246000fd5b818015613ddd5760018114613dee57613e1b565b60ff19861689528489019650613e1b565b60008881526020902060005b86811015613e135781548b820152908501908301613dfa565b505084890196505b50505050505092915050565b6000613e338285613d8e565b8351613e4381836020880161333c565b01949350505050565b60006133358284613d8e565b600081613e6757613e67613b4d565b506000190190565b60208082526034908201527f455243373231415f5f496e697469616c697a61626c653a20636f6e7472616374604082015273206973206e6f7420696e697469616c697a696e6760601b606082015260800190565b600082821015613ed557613ed5613b4d565b500390565b600082613ee957613ee9613d64565b500690565b6001600160a01b0385811682528416602082015260408101839052608060608201819052600090613f2190830184613368565b9695505050505050565b600060208284031215613f3d57600080fd5b815161333581613302565b634e487b7160e01b600052602160045260246000fdfeee151c8401928dc223602bb187aff91b9a56c7cae5476ef1b3287b085a16c85fa26469706673582212206e6a2202fc4933e1c573253c067f479b4f5dd5625f2c681569e9caba1db12cb364736f6c634300080d0033",
  "linkReferences": {},
  "deployedLinkReferences": {}
}