{
  "_format": "hh-sol-artifact-1",
  "contractName": "Drivrs2",
  "sourceName": "contracts/Drivrs2.sol",
  "abi": [
    {
      "inputs": [],
      "name": "ApprovalCallerNotOwnerNorApproved",
      "type": "error"
    },
    {
      "inputs": [],
      "name": "ApprovalQueryForNonexistentToken",
      "type": "error"
    },
    {
      "inputs": [],
      "name": "BalanceQueryForZeroAddress",
      "type": "error"
    },
    {
      "inputs": [],
      "name": "InvalidQueryRange",
      "type": "error"
    },
    {
      "inputs": [],
      "name": "MintERC2309QuantityExceedsLimit",
      "type": "error"
    },
    {
      "inputs": [],
      "name": "MintToZeroAddress",
      "type": "error"
    },
    {
      "inputs": [],
      "name": "MintZeroQuantity",
      "type": "error"
    },
    {
      "inputs": [
        {
          "internalType": "address",
          "name": "operator",
          "type": "address"
        }
      ],
      "name": "OperatorNotAllowed",
      "type": "error"
    },
    {
      "inputs": [],
      "name": "OwnerQueryForNonexistentToken",
      "type": "error"
    },
    {
      "inputs": [],
      "name": "OwnershipNotInitializedForExtraData",
      "type": "error"
    },
    {
      "inputs": [],
      "name": "TransferCallerNotOwnerNorApproved",
      "type": "error"
    },
    {
      "inputs": [],
      "name": "TransferFromIncorrectOwner",
      "type": "error"
    },
    {
      "inputs": [],
      "name": "TransferToNonERC721ReceiverImplementer",
      "type": "error"
    },
    {
      "inputs": [],
      "name": "TransferToZeroAddress",
      "type": "error"
    },
    {
      "inputs": [],
      "name": "URIQueryForNonexistentToken",
      "type": "error"
    },
    {
      "anonymous": false,
      "inputs": [
        {
          "indexed": true,
          "internalType": "address",
          "name": "owner",
          "type": "address"
        },
        {
          "indexed": true,
          "internalType": "address",
          "name": "approved",
          "type": "address"
        },
        {
          "indexed": true,
          "internalType": "uint256",
          "name": "tokenId",
          "type": "uint256"
        }
      ],
      "name": "Approval",
      "type": "event"
    },
    {
      "anonymous": false,
      "inputs": [
        {
          "indexed": true,
          "internalType": "address",
          "name": "owner",
          "type": "address"
        },
        {
          "indexed": true,
          "internalType": "address",
          "name": "operator",
          "type": "address"
        },
        {
          "indexed": false,
          "internalType": "bool",
          "name": "approved",
          "type": "bool"
        }
      ],
      "name": "ApprovalForAll",
      "type": "event"
    },
    {
      "anonymous": false,
      "inputs": [
        {
          "indexed": true,
          "internalType": "uint256",
          "name": "fromTokenId",
          "type": "uint256"
        },
        {
          "indexed": false,
          "internalType": "uint256",
          "name": "toTokenId",
          "type": "uint256"
        },
        {
          "indexed": true,
          "internalType": "address",
          "name": "from",
          "type": "address"
        },
        {
          "indexed": true,
          "internalType": "address",
          "name": "to",
          "type": "address"
        }
      ],
      "name": "ConsecutiveTransfer",
      "type": "event"
    },
    {
      "anonymous": false,
      "inputs": [
        {
          "indexed": false,
          "internalType": "uint8",
          "name": "version",
          "type": "uint8"
        }
      ],
      "name": "Initialized",
      "type": "event"
    },
    {
      "anonymous": false,
      "inputs": [
        {
          "indexed": true,
          "internalType": "address",
          "name": "previousOwner",
          "type": "address"
        },
        {
          "indexed": true,
          "internalType": "address",
          "name": "newOwner",
          "type": "address"
        }
      ],
      "name": "OwnershipTransferred",
      "type": "event"
    },
    {
      "anonymous": false,
      "inputs": [
        {
          "indexed": true,
          "internalType": "address",
          "name": "from",
          "type": "address"
        },
        {
          "indexed": true,
          "internalType": "address",
          "name": "to",
          "type": "address"
        },
        {
          "indexed": true,
          "internalType": "uint256",
          "name": "tokenId",
          "type": "uint256"
        }
      ],
      "name": "Transfer",
      "type": "event"
    },
    {
      "inputs": [],
      "name": "ADDRESS_1",
      "outputs": [
        {
          "internalType": "address",
          "name": "",
          "type": "address"
        }
      ],
      "stateMutability": "view",
      "type": "function"
    },
    {
      "inputs": [],
      "name": "ADDRESS_2",
      "outputs": [
        {
          "internalType": "address",
          "name": "",
          "type": "address"
        }
      ],
      "stateMutability": "view",
      "type": "function"
    },
    {
      "inputs": [],
      "name": "MAX_SUPPLY",
      "outputs": [
        {
          "internalType": "uint256",
          "name": "",
          "type": "uint256"
        }
      ],
      "stateMutability": "view",
      "type": "function"
    },
    {
      "inputs": [],
      "name": "MINT_LIMIT",
      "outputs": [
        {
          "internalType": "uint256",
          "name": "",
          "type": "uint256"
        }
      ],
      "stateMutability": "view",
      "type": "function"
    },
    {
      "inputs": [],
      "name": "PUBLIC_PRICE",
      "outputs": [
        {
          "internalType": "uint256",
          "name": "",
          "type": "uint256"
        }
      ],
      "stateMutability": "view",
      "type": "function"
    },
    {
      "inputs": [],
      "name": "TRANSACTION_LIMIT",
      "outputs": [
        {
          "internalType": "uint256",
          "name": "",
          "type": "uint256"
        }
      ],
      "stateMutability": "view",
      "type": "function"
    },
    {
      "inputs": [],
      "name": "WL_PRICE",
      "outputs": [
        {
          "internalType": "uint256",
          "name": "",
          "type": "uint256"
        }
      ],
      "stateMutability": "view",
      "type": "function"
    },
    {
      "inputs": [],
      "name": "__DefaultOperatorFilterer_init",
      "outputs": [],
      "stateMutability": "nonpayable",
      "type": "function"
    },
    {
      "inputs": [
        {
          "internalType": "address",
          "name": "subscriptionOrRegistrantToCopy",
          "type": "address"
        },
        {
          "internalType": "bool",
          "name": "subscribe",
          "type": "bool"
        }
      ],
      "name": "__OperatorFilterer_init",
      "outputs": [],
      "stateMutability": "nonpayable",
      "type": "function"
    },
    {
      "inputs": [
        {
          "internalType": "address",
          "name": "to",
          "type": "address"
        },
        {
          "internalType": "uint256",
          "name": "tokenId",
          "type": "uint256"
        }
      ],
      "name": "approve",
      "outputs": [],
      "stateMutability": "payable",
      "type": "function"
    },
    {
      "inputs": [
        {
          "internalType": "address",
          "name": "owner",
          "type": "address"
        }
      ],
      "name": "balanceOf",
      "outputs": [
        {
          "internalType": "uint256",
          "name": "",
          "type": "uint256"
        }
      ],
      "stateMutability": "view",
      "type": "function"
    },
    {
      "inputs": [
        {
          "internalType": "uint256",
          "name": "_maxSupply",
          "type": "uint256"
        }
      ],
      "name": "decreaseSupply",
      "outputs": [],
      "stateMutability": "nonpayable",
      "type": "function"
    },
    {
      "inputs": [
        {
          "internalType": "address[]",
          "name": "_addresses",
          "type": "address[]"
        },
        {
          "internalType": "uint256[]",
          "name": "quantities",
          "type": "uint256[]"
        }
      ],
      "name": "devMint",
      "outputs": [],
      "stateMutability": "nonpayable",
      "type": "function"
    },
    {
      "inputs": [
        {
          "internalType": "uint256",
          "name": "tokenId",
          "type": "uint256"
        }
      ],
      "name": "explicitOwnershipOf",
      "outputs": [
        {
          "components": [
            {
              "internalType": "address",
              "name": "addr",
              "type": "address"
            },
            {
              "internalType": "uint64",
              "name": "startTimestamp",
              "type": "uint64"
            },
            {
              "internalType": "bool",
              "name": "burned",
              "type": "bool"
            },
            {
              "internalType": "uint24",
              "name": "extraData",
              "type": "uint24"
            }
          ],
          "internalType": "struct IERC721AUpgradeable.TokenOwnership",
          "name": "ownership",
          "type": "tuple"
        }
      ],
      "stateMutability": "view",
      "type": "function"
    },
    {
      "inputs": [
        {
          "internalType": "uint256[]",
          "name": "tokenIds",
          "type": "uint256[]"
        }
      ],
      "name": "explicitOwnershipsOf",
      "outputs": [
        {
          "components": [
            {
              "internalType": "address",
              "name": "addr",
              "type": "address"
            },
            {
              "internalType": "uint64",
              "name": "startTimestamp",
              "type": "uint64"
            },
            {
              "internalType": "bool",
              "name": "burned",
              "type": "bool"
            },
            {
              "internalType": "uint24",
              "name": "extraData",
              "type": "uint24"
            }
          ],
          "internalType": "struct IERC721AUpgradeable.TokenOwnership[]",
          "name": "",
          "type": "tuple[]"
        }
      ],
      "stateMutability": "view",
      "type": "function"
    },
    {
      "inputs": [
        {
          "internalType": "bytes32[]",
          "name": "proof",
          "type": "bytes32[]"
        },
        {
          "internalType": "uint256",
          "name": "numberOfTokens",
          "type": "uint256"
        },
        {
          "internalType": "uint256",
          "name": "maxMint",
          "type": "uint256"
        }
      ],
      "name": "freeMint",
      "outputs": [],
      "stateMutability": "nonpayable",
      "type": "function"
    },
    {
      "inputs": [
        {
          "internalType": "uint256",
          "name": "tokenId",
          "type": "uint256"
        }
      ],
      "name": "getApproved",
      "outputs": [
        {
          "internalType": "address",
          "name": "",
          "type": "address"
        }
      ],
      "stateMutability": "view",
      "type": "function"
    },
    {
      "inputs": [],
      "name": "initialize",
      "outputs": [],
      "stateMutability": "nonpayable",
      "type": "function"
    },
    {
      "inputs": [
        {
          "internalType": "address",
          "name": "owner",
          "type": "address"
        },
        {
          "internalType": "address",
          "name": "operator",
          "type": "address"
        }
      ],
      "name": "isApprovedForAll",
      "outputs": [
        {
          "internalType": "bool",
          "name": "",
          "type": "bool"
        }
      ],
      "stateMutability": "view",
      "type": "function"
    },
    {
      "inputs": [],
      "name": "isPresaleActive",
      "outputs": [
        {
          "internalType": "bool",
          "name": "",
          "type": "bool"
        }
      ],
      "stateMutability": "view",
      "type": "function"
    },
    {
      "inputs": [],
      "name": "isPublicSaleActive",
      "outputs": [
        {
          "internalType": "bool",
          "name": "",
          "type": "bool"
        }
      ],
      "stateMutability": "view",
      "type": "function"
    },
    {
      "inputs": [
        {
          "internalType": "uint256",
          "name": "numberOfTokens",
          "type": "uint256"
        }
      ],
      "name": "mint",
      "outputs": [],
      "stateMutability": "payable",
      "type": "function"
    },
    {
      "inputs": [],
      "name": "name",
      "outputs": [
        {
          "internalType": "string",
          "name": "",
          "type": "string"
        }
      ],
      "stateMutability": "view",
      "type": "function"
    },
    {
      "inputs": [
        {
          "internalType": "address",
          "name": "owner",
          "type": "address"
        }
      ],
      "name": "numberMinted",
      "outputs": [
        {
          "internalType": "uint256",
          "name": "",
          "type": "uint256"
        }
      ],
      "stateMutability": "view",
      "type": "function"
    },
    {
      "inputs": [],
      "name": "owner",
      "outputs": [
        {
          "internalType": "address",
          "name": "",
          "type": "address"
        }
      ],
      "stateMutability": "view",
      "type": "function"
    },
    {
      "inputs": [
        {
          "internalType": "uint256",
          "name": "tokenId",
          "type": "uint256"
        }
      ],
      "name": "ownerOf",
      "outputs": [
        {
          "internalType": "address",
          "name": "",
          "type": "address"
        }
      ],
      "stateMutability": "view",
      "type": "function"
    },
    {
      "inputs": [
        {
          "internalType": "bytes32[]",
          "name": "proof",
          "type": "bytes32[]"
        },
        {
          "internalType": "uint256",
          "name": "numberOfTokens",
          "type": "uint256"
        },
        {
          "internalType": "uint256",
          "name": "maxMint",
          "type": "uint256"
        }
      ],
      "name": "presaleMint",
      "outputs": [],
      "stateMutability": "payable",
      "type": "function"
    },
    {
      "inputs": [],
      "name": "renounceOwnership",
      "outputs": [],
      "stateMutability": "nonpayable",
      "type": "function"
    },
    {
      "inputs": [
        {
          "internalType": "bool",
          "name": "revealed",
          "type": "bool"
        },
        {
          "internalType": "string",
          "name": "_baseURI",
          "type": "string"
        }
      ],
      "name": "reveal",
      "outputs": [],
      "stateMutability": "nonpayable",
      "type": "function"
    },
    {
      "inputs": [
        {
          "internalType": "address",
          "name": "from",
          "type": "address"
        },
        {
          "internalType": "address",
          "name": "to",
          "type": "address"
        },
        {
          "internalType": "uint256",
          "name": "tokenId",
          "type": "uint256"
        }
      ],
      "name": "safeTransferFrom",
      "outputs": [],
      "stateMutability": "payable",
      "type": "function"
    },
    {
      "inputs": [
        {
          "internalType": "address",
          "name": "from",
          "type": "address"
        },
        {
          "internalType": "address",
          "name": "to",
          "type": "address"
        },
        {
          "internalType": "uint256",
          "name": "tokenId",
          "type": "uint256"
        },
        {
          "internalType": "bytes",
          "name": "data",
          "type": "bytes"
        }
      ],
      "name": "safeTransferFrom",
      "outputs": [],
      "stateMutability": "payable",
      "type": "function"
    },
    {
      "inputs": [
        {
          "internalType": "address",
          "name": "operator",
          "type": "address"
        },
        {
          "internalType": "bool",
          "name": "approved",
          "type": "bool"
        }
      ],
      "name": "setApprovalForAll",
      "outputs": [],
      "stateMutability": "nonpayable",
      "type": "function"
    },
    {
      "inputs": [
        {
          "internalType": "string",
          "name": "URI",
          "type": "string"
        }
      ],
      "name": "setBaseURI",
      "outputs": [],
      "stateMutability": "nonpayable",
      "type": "function"
    },
    {
      "inputs": [
        {
          "internalType": "bytes32",
          "name": "_freemintRoot",
          "type": "bytes32"
        }
      ],
      "name": "setFreeMintRoot",
      "outputs": [],
      "stateMutability": "nonpayable",
      "type": "function"
    },
    {
      "inputs": [
        {
          "internalType": "uint256",
          "name": "_mintLimit",
          "type": "uint256"
        }
      ],
      "name": "setMintLimit",
      "outputs": [],
      "stateMutability": "nonpayable",
      "type": "function"
    },
    {
      "inputs": [
        {
          "internalType": "bytes32",
          "name": "_presaleRoot",
          "type": "bytes32"
        }
      ],
      "name": "setPreSaleRoot",
      "outputs": [],
      "stateMutability": "nonpayable",
      "type": "function"
    },
    {
      "inputs": [],
      "name": "setPreSaleStatus",
      "outputs": [],
      "stateMutability": "nonpayable",
      "type": "function"
    },
    {
      "inputs": [
        {
          "internalType": "uint256",
          "name": "_wlPrice",
          "type": "uint256"
        }
      ],
      "name": "setPresalePrice",
      "outputs": [],
      "stateMutability": "nonpayable",
      "type": "function"
    },
    {
      "inputs": [
        {
          "internalType": "uint256",
          "name": "_publicPrice",
          "type": "uint256"
        }
      ],
      "name": "setPublicPrice",
      "outputs": [],
      "stateMutability": "nonpayable",
      "type": "function"
    },
    {
      "inputs": [],
      "name": "setPublicSaleStatus",
      "outputs": [],
      "stateMutability": "nonpayable",
      "type": "function"
    },
    {
      "inputs": [
        {
          "internalType": "address",
          "name": "_signer",
          "type": "address"
        }
      ],
      "name": "setSigner",
      "outputs": [],
      "stateMutability": "nonpayable",
      "type": "function"
    },
    {
      "inputs": [
        {
          "internalType": "uint256",
          "name": "_transactionLimit",
          "type": "uint256"
        }
      ],
      "name": "setTransactionLimit",
      "outputs": [],
      "stateMutability": "nonpayable",
      "type": "function"
    },
    {
      "inputs": [
        {
          "internalType": "bytes4",
          "name": "interfaceId",
          "type": "bytes4"
        }
      ],
      "name": "supportsInterface",
      "outputs": [
        {
          "internalType": "bool",
          "name": "",
          "type": "bool"
        }
      ],
      "stateMutability": "view",
      "type": "function"
    },
    {
      "inputs": [],
      "name": "symbol",
      "outputs": [
        {
          "internalType": "string",
          "name": "",
          "type": "string"
        }
      ],
      "stateMutability": "view",
      "type": "function"
    },
    {
      "inputs": [
        {
          "internalType": "uint256",
          "name": "tokenId",
          "type": "uint256"
        }
      ],
      "name": "tokenURI",
      "outputs": [
        {
          "internalType": "string",
          "name": "",
          "type": "string"
        }
      ],
      "stateMutability": "view",
      "type": "function"
    },
    {
      "inputs": [
        {
          "internalType": "address",
          "name": "owner",
          "type": "address"
        }
      ],
      "name": "tokensOfOwner",
      "outputs": [
        {
          "internalType": "uint256[]",
          "name": "",
          "type": "uint256[]"
        }
      ],
      "stateMutability": "view",
      "type": "function"
    },
    {
      "inputs": [
        {
          "internalType": "address",
          "name": "owner",
          "type": "address"
        },
        {
          "internalType": "uint256",
          "name": "start",
          "type": "uint256"
        },
        {
          "internalType": "uint256",
          "name": "stop",
          "type": "uint256"
        }
      ],
      "name": "tokensOfOwnerIn",
      "outputs": [
        {
          "internalType": "uint256[]",
          "name": "",
          "type": "uint256[]"
        }
      ],
      "stateMutability": "view",
      "type": "function"
    },
    {
      "inputs": [],
      "name": "totalSupply",
      "outputs": [
        {
          "internalType": "uint256",
          "name": "",
          "type": "uint256"
        }
      ],
      "stateMutability": "view",
      "type": "function"
    },
    {
      "inputs": [
        {
          "internalType": "address",
          "name": "from",
          "type": "address"
        },
        {
          "internalType": "address",
          "name": "to",
          "type": "address"
        },
        {
          "internalType": "uint256",
          "name": "tokenId",
          "type": "uint256"
        }
      ],
      "name": "transferFrom",
      "outputs": [],
      "stateMutability": "payable",
      "type": "function"
    },
    {
      "inputs": [
        {
          "internalType": "address",
          "name": "newOwner",
          "type": "address"
        }
      ],
      "name": "transferOwnership",
      "outputs": [],
      "stateMutability": "nonpayable",
      "type": "function"
    },
    {
      "inputs": [
        {
          "internalType": "bytes32",
          "name": "",
          "type": "bytes32"
        }
      ],
      "name": "usedDigests",
      "outputs": [
        {
          "internalType": "bool",
          "name": "",
          "type": "bool"
        }
      ],
      "stateMutability": "view",
      "type": "function"
    },
    {
      "inputs": [
        {
          "internalType": "address",
          "name": "",
          "type": "address"
        }
      ],
      "name": "userPurchase",
      "outputs": [
        {
          "internalType": "uint256",
          "name": "presaleMinted",
          "type": "uint256"
        },
        {
          "internalType": "uint256",
          "name": "freeMinted",
          "type": "uint256"
        }
      ],
      "stateMutability": "view",
      "type": "function"
    },
    {
      "inputs": [],
      "name": "withdraw",
      "outputs": [],
      "stateMutability": "nonpayable",
      "type": "function"
    }
  ],
  "bytecode": "0x608060405234801561001057600080fd5b506139c9806100206000396000f3fe60806040526004361061031a5760003560e01c806370c42575116101ab578063b08da342116100f7578063d39c4de711610095578063e985e9c51161006f578063e985e9c51461090d578063f2fde38b1461092d578063fe042d491461094d578063ff633d551461096d57600080fd5b8063d39c4de714610895578063dc33e681146108c5578063de97536b146108e557600080fd5b8063b88d4fde116100d1578063b88d4fde14610815578063c23dc68f14610828578063c627525514610855578063c87b56dd1461087557600080fd5b8063b08da3421461078e578063b484eff7146107b6578063b6fd509b146107ff57600080fd5b806395d89b41116101645780639e6a1d7d1161013e5780639e6a1d7d1461071b578063a0712d681461073b578063a101ff6d1461074e578063a22cb4651461076e57600080fd5b806395d89b41146106c657806398e52f9a146106db57806399a2557a146106fb57600080fd5b806370c425751461061c578063715018a61461063c5780637dfed9fe146106515780638129fc1c146106665780638462151c1461067b5780638da5cb5b146106a857600080fd5b80633549345e1161026a5780635bbb2177116102235780636352211e116101fd5780636352211e1461059c57806364bfa546146105bc5780636c19e783146105dc57806370a08231146105fc57600080fd5b80635bbb21771461053a57806360d938dc14610567578063611f3f101461058657600080fd5b80633549345e146104aa5780633c18c3da146104ca5780633ccfd60b146104dd5780633e07ac02146104f257806342842e0e1461050757806355f804b31461051a57600080fd5b806318160ddd116102d75780632446548f116102b15780632446548f1461043e57806331c3c7a01461045e57806332cb6b0c1461047457806334837ad31461048a57600080fd5b806318160ddd146103fc5780631e84c4131461041157806323b872dd1461042b57600080fd5b806301ffc9a71461031f578063027752401461035457806303eaebec1461037857806306fdde031461038f578063081812fc146103b1578063095ea7b3146103e9575b600080fd5b34801561032b57600080fd5b5061033f61033a366004612ddf565b61098d565b60405190151581526020015b60405180910390f35b34801561036057600080fd5b5061036a60685481565b60405190815260200161034b565b34801561038457600080fd5b5061038d6109df565b005b34801561039b57600080fd5b506103a4610a30565b60405161034b9190612e5b565b3480156103bd57600080fd5b506103d16103cc366004612e6e565b610acb565b6040516001600160a01b03909116815260200161034b565b61038d6103f7366004612e9e565b610b0f565b34801561040857600080fd5b5061036a610b1f565b34801561041d57600080fd5b50606a5461033f9060ff1681565b61038d610439366004612ec8565b610b3e565b34801561044a57600080fd5b5061038d610459366004612fd8565b610c93565b34801561046a57600080fd5b5061036a60665481565b34801561048057600080fd5b5061036a60655481565b34801561049657600080fd5b5061038d6104a5366004613097565b610dab565b3480156104b657600080fd5b5061038d6104c5366004612e6e565b611078565b61038d6104d8366004613097565b611085565b3480156104e957600080fd5b5061038d611381565b3480156104fe57600080fd5b5061038d61146a565b61038d610515366004612ec8565b61148f565b34801561052657600080fd5b5061038d61053536600461317f565b6115d9565b34801561054657600080fd5b5061055a6105553660046131c0565b6115f2565b60405161034b9190613270565b34801561057357600080fd5b50606a5461033f90610100900460ff1681565b34801561059257600080fd5b5061036a60675481565b3480156105a857600080fd5b506103d16105b7366004612e6e565b61163e565b3480156105c857600080fd5b5061038d6105d7366004612e6e565b611649565b3480156105e857600080fd5b5061038d6105f73660046132b2565b611656565b34801561060857600080fd5b5061036a6106173660046132b2565b611680565b34801561062857600080fd5b5061038d610637366004612e6e565b6116df565b34801561064857600080fd5b5061038d6116ec565b34801561065d57600080fd5b5061038d6116fe565b34801561067257600080fd5b5061038d61171a565b34801561068757600080fd5b5061069b6106963660046132b2565b6119d3565b60405161034b91906132cd565b3480156106b457600080fd5b506033546001600160a01b03166103d1565b3480156106d257600080fd5b506103a4611a01565b3480156106e757600080fd5b5061038d6106f6366004612e6e565b611a19565b34801561070757600080fd5b5061069b610716366004613305565b611a6e565b34801561072757600080fd5b5061038d610736366004612e6e565b611a7b565b61038d610749366004612e6e565b611a88565b34801561075a57600080fd5b5061038d610769366004613346565b611bd2565b34801561077a57600080fd5b5061038d61078936600461339a565b611bfb565b34801561079a57600080fd5b506103d173779e3847551fa09d15a0ae2ae86b60a912ea00ad81565b3480156107c257600080fd5b506107ea6107d13660046132b2565b606e602052600090815260409020805460019091015482565b6040805192835260208301919091520161034b565b34801561080b57600080fd5b5061036a60695481565b61038d6108233660046133d1565b611c78565b34801561083457600080fd5b50610848610843366004612e6e565b611dd0565b60405161034b9190613490565b34801561086157600080fd5b5061038d610870366004612e6e565b611e2b565b34801561088157600080fd5b506103a4610890366004612e6e565b611e38565b3480156108a157600080fd5b5061033f6108b0366004612e6e565b60716020526000908152604090205460ff1681565b3480156108d157600080fd5b5061036a6108e03660046132b2565b611e90565b3480156108f157600080fd5b506103d173188a3c584f0de9ee0eabe04316a94a41f0867c0c81565b34801561091957600080fd5b5061033f61092836600461349e565b611e9b565b34801561093957600080fd5b5061038d6109483660046132b2565b611ed8565b34801561095957600080fd5b5061038d610968366004612e6e565b611f4e565b34801561097957600080fd5b5061038d61098836600461339a565b611f5b565b60006301ffc9a760e01b6001600160e01b0319831614806109be57506380ac58cd60e01b6001600160e01b03198316145b806109d95750635b5e139f60e01b6001600160e01b03198316145b92915050565b600054610100900460ff16610a0f5760405162461bcd60e51b8152600401610a06906134d1565b60405180910390fd5b610a2e733cc6cdda760b79bafa08df41ecfa224f810dceb66001611f5b565b565b6060610a3a6120e4565b6002018054610a489061351c565b80601f0160208091040260200160405190810160405280929190818152602001828054610a749061351c565b8015610ac15780601f10610a9657610100808354040283529160200191610ac1565b820191906000526020600020905b815481529060010190602001808311610aa457829003601f168201915b5050505050905090565b6000610ad682612108565b610aea57610aea6333d1c03960e21b61215e565b610af26120e4565b60009283526006016020525060409020546001600160a01b031690565b610b1b82826001612168565b5050565b600080610b2a6120e4565b60010154610b366120e4565b540303919050565b826daaeb6d7670e522a718067333cd4e3b15610c8257336001600160a01b03821603610b7457610b6f848484612219565b610c8d565b604051633185c44d60e21b81526daaeb6d7670e522a718067333cd4e9063c617113490610ba79030903390600401613556565b602060405180830381865afa158015610bc4573d6000803e3d6000fd5b505050506040513d601f19601f82011682018060405250810190610be89190613570565b8015610c635750604051633185c44d60e21b81526daaeb6d7670e522a718067333cd4e9063c617113490610c229030908590600401613556565b602060405180830381865afa158015610c3f573d6000803e3d6000fd5b505050506040513d601f19601f82011682018060405250810190610c639190613570565b610c8257604051633b79c77360e21b8152336004820152602401610a06565b610c8d848484612219565b50505050565b8051825114610cd75760405162461bcd60e51b815260206004820152601060248201526f57524f4e475f504152414d455445525360801b6044820152606401610a06565b6000805b8251811015610d1d57828181518110610cf657610cf661358d565b602002602001015182610d0991906135b9565b915080610d15816135d1565b915050610cdb565b50606554610d29610b1f565b610d3390836135b9565b1115610d515760405162461bcd60e51b8152600401610a06906135ea565b60005b8351811015610c8d57610d99848281518110610d7257610d7261358d565b6020026020010151848381518110610d8c57610d8c61358d565b60200260200101516123dc565b80610da3816135d1565b915050610d54565b336000908152606f60205260409020546003904211610ddc5760405162461bcd60e51b8152600401610a0690613615565b323314610dfb5760405162461bcd60e51b8152600401610a069061364c565b8060ff16600103610e2857606a5460ff16610e285760405162461bcd60e51b8152600401610a0690613683565b8060ff16600203610e5a57606a54610100900460ff16610e5a5760405162461bcd60e51b8152600401610a06906136ba565b8060ff16600303610e8c57606a54610100900460ff16610e8c5760405162461bcd60e51b8152600401610a06906136f1565b82606554610e98610b1f565b610ea290836135b9565b1115610ec05760405162461bcd60e51b8152600401610a06906135ea565b606854610ecc33611e90565b610ed690836135b9565b1115610f185760405162461bcd60e51b8152602060048201526011602482015270115610d1515117d352539517d312535255607a1b6044820152606401610a06565b606954811115610f3a5760405162461bcd60e51b8152600401610a0690613728565b6040516bffffffffffffffffffffffff193360601b16602082015260348101849052600090605401604051602081830303815290604052805190602001209050610f8786606d54836123f6565b610fc35760405162461bcd60e51b815260206004820152600d60248201526c141493d3d197d2539590531251609a1b6044820152606401610a06565b336000908152606e60205260409020600101548490610fe39087906135b9565b11156110315760405162461bcd60e51b815260206004820152601b60248201527f4558434545445f414c4c4f43415445445f4d494e545f4c494d495400000000006044820152606401610a06565b336000908152606f60209081526040808320429055606e909152812060010180548792906110609084906135b9565b909155506110709050338661240c565b505050505050565b611080612500565b606655565b336000908152606f602052604090205460029042116110b65760405162461bcd60e51b8152600401610a0690613615565b3233146110d55760405162461bcd60e51b8152600401610a069061364c565b8060ff1660010361110257606a5460ff166111025760405162461bcd60e51b8152600401610a0690613683565b8060ff1660020361113457606a54610100900460ff166111345760405162461bcd60e51b8152600401610a06906136ba565b8060ff1660030361116657606a54610100900460ff166111665760405162461bcd60e51b8152600401610a06906136f1565b82606554611172610b1f565b61117c90836135b9565b111561119a5760405162461bcd60e51b8152600401610a06906135ea565b6068546111a633611e90565b6111b090836135b9565b11156111f25760405162461bcd60e51b8152602060048201526011602482015270115610d1515117d352539517d312535255607a1b6044820152606401610a06565b6069548111156112145760405162461bcd60e51b8152600401610a0690613728565b6040516bffffffffffffffffffffffff193360601b1660208201526034810184905260009060540160405160208183030381529060405280519060200120905061126186606c54836123f6565b61129d5760405162461bcd60e51b815260206004820152600d60248201526c141493d3d197d2539590531251609a1b6044820152606401610a06565b336000908152606e602052604090205484906112ba9087906135b9565b11156113085760405162461bcd60e51b815260206004820152601b60248201527f4558434545445f414c4c4f43415445445f4d494e545f4c494d495400000000006044820152606401610a06565b846066546113169190613770565b34146113555760405162461bcd60e51b815260206004820152600e60248201526d1253959053125117d05353d5539560921b6044820152606401610a06565b336000908152606f60209081526040808320429055606e909152812080548792906110609084906135b9565b611389612500565b47806113d05760405162461bcd60e51b81526020600482015260166024820152754e6f2062616c616e636520746f20776974686472617760501b6044820152606401610a06565b73188a3c584f0de9ee0eabe04316a94a41f0867c0c6108fc6127106113f7846102bc613770565b61140191906137a5565b6040518115909202916000818181858888f19350505050158015611429573d6000803e3d6000fd5b5060405173779e3847551fa09d15a0ae2ae86b60a912ea00ad904780156108fc02916000818181858888f19350505050158015610b1b573d6000803e3d6000fd5b611472612500565b606a805461ff001981166101009182900460ff1615909102179055565b826daaeb6d7670e522a718067333cd4e3b156115ce57336001600160a01b038216036114c057610b6f84848461255a565b604051633185c44d60e21b81526daaeb6d7670e522a718067333cd4e9063c6171134906114f39030903390600401613556565b602060405180830381865afa158015611510573d6000803e3d6000fd5b505050506040513d601f19601f820116820180604052508101906115349190613570565b80156115af5750604051633185c44d60e21b81526daaeb6d7670e522a718067333cd4e9063c61711349061156e9030908590600401613556565b602060405180830381865afa15801561158b573d6000803e3d6000fd5b505050506040513d601f19601f820116820180604052508101906115af9190613570565b6115ce57604051633b79c77360e21b8152336004820152602401610a06565b610c8d84848461255a565b6115e1612500565b6115ed606b8383612cbc565b505050565b60408051828152600583901b8082016020019092526060915b801561163657601f198082019186010135600061162782611dd0565b848401602001525061160b9050565b509392505050565b60006109d982612575565b611651612500565b606955565b61165e612500565b607080546001600160a01b0319166001600160a01b0392909216919091179055565b60006001600160a01b0382166116a0576116a06323d3ad8160e21b61215e565b6001600160401b036116b06120e4565b6005016000846001600160a01b03166001600160a01b0316815260200190815260200160002054169050919050565b6116e7612500565b606d55565b6116f4612500565b610a2e600061262f565b611706612500565b606a805460ff19811660ff90911615179055565b60008051602061397483398151915254610100900460ff1661174f576000805160206139748339815191525460ff1615611753565b303b155b6117c55760405162461bcd60e51b815260206004820152603760248201527f455243373231415f5f496e697469616c697a61626c653a20636f6e747261637460448201527f20697320616c726561647920696e697469616c697a65640000000000000000006064820152608401610a06565b60008051602061397483398151915254610100900460ff1615801561180157600080516020613974833981519152805461ffff19166101011790555b600054610100900460ff16158080156118215750600054600160ff909116105b8061183b5750303b15801561183b575060005460ff166001145b61189e5760405162461bcd60e51b815260206004820152602e60248201527f496e697469616c697a61626c653a20636f6e747261637420697320616c72656160448201526d191e481a5b9a5d1a585b1a5e995960921b6064820152608401610a06565b6000805460ff1916600117905580156118c1576000805461ff0019166101001790555b61190f6040518060400160405280600a8152602001694452495652535041535360b01b8152506040518060400160405280600a8152602001694452495652535041535360b01b815250612681565b6119176126bf565b61191f6109df565b6122b8606555661550f7dca70000606681905560675560016068819055606955606a805462ffffff1916905560408051602081019182905260009081905261196991606b91612d40565b5080156119b0576000805461ff0019169055604051600181527f7f26b83ff96e1f2b6a682f133852f6798a09c465da95921460cefb38474024989060200160405180910390a15b5080156119d057600080516020613974833981519152805461ff00191690555b50565b60606000806119e06126ee565b905060608183146119f9576119f68584846126fe565b90505b949350505050565b6060611a0b6120e4565b6003018054610a489061351c565b611a21612500565b6065548110611a695760405162461bcd60e51b815260206004820152601460248201527343414e545f494e4352454153455f535550504c5960601b6044820152606401610a06565b606555565b60606119f98484846126fe565b611a83612500565b606855565b336000908152606f60205260409020546001904211611ab95760405162461bcd60e51b8152600401610a0690613615565b323314611ad85760405162461bcd60e51b8152600401610a069061364c565b8060ff16600103611b0557606a5460ff16611b055760405162461bcd60e51b8152600401610a0690613683565b8060ff16600203611b3757606a54610100900460ff16611b375760405162461bcd60e51b8152600401610a06906136ba565b8060ff16600303611b6957606a54610100900460ff16611b695760405162461bcd60e51b8152600401610a06906136f1565b81606754611b779190613770565b3414611bb65760405162461bcd60e51b815260206004820152600e60248201526d1253959053125117d05353d5539560921b6044820152606401610a06565b336000818152606f60205260409020429055610b1b908361240c565b611bda612500565b606a805462ff000019166201000085151502179055610c8d606b8383612cbc565b80611c046120e4565b336000818152600792909201602090815260408084206001600160a01b03881680865290835293819020805460ff19169515159590951790945592518415158152919290917f17307eab39ab6107e8899845ad3d59bd9653f200f220920489ca2b5937696c31910160405180910390a35050565b836daaeb6d7670e522a718067333cd4e3b15611dbd57336001600160a01b03821603611caf57611caa858585856127f8565b611dc9565b604051633185c44d60e21b81526daaeb6d7670e522a718067333cd4e9063c617113490611ce29030903390600401613556565b602060405180830381865afa158015611cff573d6000803e3d6000fd5b505050506040513d601f19601f82011682018060405250810190611d239190613570565b8015611d9e5750604051633185c44d60e21b81526daaeb6d7670e522a718067333cd4e9063c617113490611d5d9030908590600401613556565b602060405180830381865afa158015611d7a573d6000803e3d6000fd5b505050506040513d601f19601f82011682018060405250810190611d9e9190613570565b611dbd57604051633b79c77360e21b8152336004820152602401610a06565b611dc9858585856127f8565b5050505050565b604080516080810182526000808252602082018190529181018290526060810191909152611dfc6126ee565b821015611e26575b611e0d82612833565b611e1d5760001990910190611e04565b6109d982612853565b919050565b611e33612500565b606755565b606a5460609062010000900460ff1615611e7e57606b611e57836128dc565b604051602001611e68929190613852565b6040516020818303038152906040529050919050565b606b604051602001611e689190613877565b60006109d9826129dc565b6000611ea56120e4565b6001600160a01b039384166000908152600791909101602090815260408083209490951682529290925250205460ff1690565b611ee0612500565b6001600160a01b038116611f455760405162461bcd60e51b815260206004820152602660248201527f4f776e61626c653a206e6577206f776e657220697320746865207a65726f206160448201526564647265737360d01b6064820152608401610a06565b6119d08161262f565b611f56612500565b606c55565b600054610100900460ff16611f825760405162461bcd60e51b8152600401610a06906134d1565b6daaeb6d7670e522a718067333cd4e3b15610b1b5760405163c3c5a54760e01b81523060048201526daaeb6d7670e522a718067333cd4e9063c3c5a547906024016020604051808303816000875af1158015611fe2573d6000803e3d6000fd5b505050506040513d601f19601f820116820180604052508101906120069190613570565b610b1b57801561207157604051633e9f1edf60e11b81526daaeb6d7670e522a718067333cd4e90637d3e3dbe906120439030908690600401613556565b600060405180830381600087803b15801561205d57600080fd5b505af1158015611070573d6000803e3d6000fd5b6001600160a01b038216156120b35760405163a0af290360e01b81526daaeb6d7670e522a718067333cd4e9063a0af2903906120439030908690600401613556565b604051632210724360e11b81523060048201526daaeb6d7670e522a718067333cd4e90634420e48690602401612043565b7f2569078dfb4b0305704d3008e7403993ae9601b85f7ae5e742de3de8f8011c4090565b60006121126120e4565b54821015611e265760005b6121256120e4565b6000848152600491909101602052604081205491508190036121515761214a83613883565b925061211d565b600160e01b161592915050565b8060005260046000fd5b60006121738361163e565b905081801561218b5750336001600160a01b03821614155b156121ae5761219a8133611e9b565b6121ae576121ae6367d9dca160e11b61215e565b836121b76120e4565b6000858152600691909101602052604080822080546001600160a01b0319166001600160a01b0394851617905551859287811692908516917f8c5be1e5ebec7d5bd14f71427d1e84f3dd0314c0f7b2291e5b200ac8c7c3b9259190a450505050565b600061222482612575565b6001600160a01b03948516949091508116841461224a5761224a62a1148160e81b61215e565b60008061225684612a21565b9150915061227b81876122663390565b6001600160a01b039081169116811491141790565b61229d576122898633611e9b565b61229d5761229d632ce44b5f60e11b61215e565b80156122a857600082555b6122b06120e4565b6001600160a01b03871660009081526005919091016020526040902080546000190190556122dc6120e4565b6001600160a01b03861660008181526005929092016020526040909120805460010190554260a01b17600160e11b176123136120e4565b60008681526004919091016020526040812091909155600160e11b8416900361238957600184016123426120e4565b600082815260049190910160205260408120549003612387576123636120e4565b54811461238757836123736120e4565b600083815260049190910160205260409020555b505b6001600160a01b0385168481887fddf252ad1be2c89b69c2b068fc378daa952ba7f163c4a11628f55a4df523b3ef600080a4806000036123d3576123d3633a954ecd60e21b61215e565b50505050505050565b610b1b828260405180602001604052806000815250612a49565b6000826124038584612abb565b14949350505050565b60006124166120e4565b54905060008290036124325761243263b562e8dd60e01b61215e565b6001600160a01b0383164260a01b6001841460e11b17176124516120e4565b600083815260049190910160205260409020556801000000000000000182026124786120e4565b6001600160a01b03851660008181526005929092016020526040822080549093019092558190036124b2576124b2622e076360e81b61215e565b818301825b808360007fddf252ad1be2c89b69c2b068fc378daa952ba7f163c4a11628f55a4df523b3ef600080a48181600101915081036124b757816124f66120e4565b55506115ed915050565b6033546001600160a01b03163314610a2e5760405162461bcd60e51b815260206004820181905260248201527f4f776e61626c653a2063616c6c6572206973206e6f7420746865206f776e65726044820152606401610a06565b6115ed83838360405180602001604052806000815250611c78565b600061257f6120e4565b60008381526004919091016020526040812054915081900361260c576125a36120e4565b5482106125ba576125ba636f96cda160e11b61215e565b6125c26120e4565b6000199092016000818152600493909301602052604090922054905080156125ba57600160e01b81166000036125f757919050565b612607636f96cda160e11b61215e565b6125ba565b600160e01b811660000361261f57919050565b611e26636f96cda160e11b61215e565b603380546001600160a01b038381166001600160a01b0319831681179093556040519116919082907f8be0079c531659141344cd1fd0a4f28419497f9722a3daafe3b4186f6b6457e090600090a35050565b60008051602061397483398151915254610100900460ff166126b55760405162461bcd60e51b8152600401610a069061389a565b610b1b8282612b27565b600054610100900460ff166126e65760405162461bcd60e51b8152600401610a06906134d1565b610a2e612baa565b60006126f86120e4565b54919050565b606081831061271757612717631960ccad60e11b61215e565b60006127216126ee565b905080831061272e578092505b6060600061273b87611680565b858710908102915081156127ec5781878703116127585786860391505b60405192506001820160051b8301604052600061277488611dd0565b905060008160400151612785575080515b60005b6127918a612853565b92506040830151600081146127a957600092506127ce565b8351156127b557835192505b8b831860601b6127ce576001820191508a8260051b8801525b5060018a019950888a14806127e257508481145b1561278857855250505b50909695505050505050565b612803848484610b3e565b6001600160a01b0383163b15610c8d5761281f84848484612bda565b610c8d57610c8d6368d2bf6b60e11b61215e565b600061283d6120e4565b6000928352600401602052506040902054151590565b6040805160808101825260008082526020820181905291810182905260608101919091526109d96128826120e4565b60008481526004919091016020526040902054604080516080810182526001600160a01b038316815260a083901c6001600160401b03166020820152600160e01b831615159181019190915260e89190911c606082015290565b6060816000036129035750506040805180820190915260018152600360fc1b602082015290565b8160005b811561292d5780612917816135d1565b91506129269050600a836137a5565b9150612907565b6000816001600160401b0381111561294757612947612f04565b6040519080825280601f01601f191660200182016040528015612971576020820181803683370190505b5090505b84156119f9576129866001836138ee565b9150612993600a86613905565b61299e9060306135b9565b60f81b8183815181106129b3576129b361358d565b60200101906001600160f81b031916908160001a9053506129d5600a866137a5565b9450612975565b60006001600160401b0360406129f06120e4565b6005016000856001600160a01b03166001600160a01b0316815260200190815260200160002054901c169050919050565b6000806000612a2e6120e4565b60009485526006016020525050604090912080549092909150565b612a53838361240c565b6001600160a01b0383163b156115ed576000612a6d6120e4565b5490508281035b612a876000868380600101945086612bda565b612a9b57612a9b6368d2bf6b60e11b61215e565b818110612a745781612aab6120e4565b5414611dc957611dc9600061215e565b600081815b8451811015611636576000858281518110612add57612add61358d565b60200260200101519050808311612b035760008381526020829052604090209250612b14565b600081815260208490526040902092505b5080612b1f816135d1565b915050612ac0565b60008051602061397483398151915254610100900460ff16612b5b5760405162461bcd60e51b8152600401610a069061389a565b81612b646120e4565b6002019080519060200190612b7a929190612d40565b5080612b846120e4565b6003019080519060200190612b9a929190612d40565b506000612ba56120e4565b555050565b600054610100900460ff16612bd15760405162461bcd60e51b8152600401610a06906134d1565b610a2e3361262f565b604051630a85bd0160e11b81526000906001600160a01b0385169063150b7a0290612c0f903390899088908890600401613919565b6020604051808303816000875af1925050508015612c4a575060408051601f3d908101601f19168201909252612c4791810190613956565b60015b612c9f573d808015612c78576040519150601f19603f3d011682016040523d82523d6000602084013e612c7d565b606091505b508051600003612c9757612c976368d2bf6b60e11b61215e565b805181602001fd5b6001600160e01b031916630a85bd0160e11b149050949350505050565b828054612cc89061351c565b90600052602060002090601f016020900481019282612cea5760008555612d30565b82601f10612d035782800160ff19823516178555612d30565b82800160010185558215612d30579182015b82811115612d30578235825591602001919060010190612d15565b50612d3c929150612db4565b5090565b828054612d4c9061351c565b90600052602060002090601f016020900481019282612d6e5760008555612d30565b82601f10612d8757805160ff1916838001178555612d30565b82800160010185558215612d30579182015b82811115612d30578251825591602001919060010190612d99565b5b80821115612d3c5760008155600101612db5565b6001600160e01b0319811681146119d057600080fd5b600060208284031215612df157600080fd5b8135612dfc81612dc9565b9392505050565b60005b83811015612e1e578181015183820152602001612e06565b83811115610c8d5750506000910152565b60008151808452612e47816020860160208601612e03565b601f01601f19169290920160200192915050565b602081526000612dfc6020830184612e2f565b600060208284031215612e8057600080fd5b5035919050565b80356001600160a01b0381168114611e2657600080fd5b60008060408385031215612eb157600080fd5b612eba83612e87565b946020939093013593505050565b600080600060608486031215612edd57600080fd5b612ee684612e87565b9250612ef460208501612e87565b9150604084013590509250925092565b634e487b7160e01b600052604160045260246000fd5b604051601f8201601f191681016001600160401b0381118282101715612f4257612f42612f04565b604052919050565b60006001600160401b03821115612f6357612f63612f04565b5060051b60200190565b600082601f830112612f7e57600080fd5b81356020612f93612f8e83612f4a565b612f1a565b82815260059290921b84018101918181019086841115612fb257600080fd5b8286015b84811015612fcd5780358352918301918301612fb6565b509695505050505050565b60008060408385031215612feb57600080fd5b82356001600160401b038082111561300257600080fd5b818501915085601f83011261301657600080fd5b81356020613026612f8e83612f4a565b82815260059290921b8401810191818101908984111561304557600080fd5b948201945b8386101561306a5761305b86612e87565b8252948201949082019061304a565b9650508601359250508082111561308057600080fd5b5061308d85828601612f6d565b9150509250929050565b6000806000606084860312156130ac57600080fd5b83356001600160401b038111156130c257600080fd5b8401601f810186136130d357600080fd5b803560206130e3612f8e83612f4a565b82815260059290921b8301810191818101908984111561310257600080fd5b938201935b8385101561312057843582529382019390820190613107565b999188013598505060409096013595945050505050565b60008083601f84011261314957600080fd5b5081356001600160401b0381111561316057600080fd5b60208301915083602082850101111561317857600080fd5b9250929050565b6000806020838503121561319257600080fd5b82356001600160401b038111156131a857600080fd5b6131b485828601613137565b90969095509350505050565b600080602083850312156131d357600080fd5b82356001600160401b03808211156131ea57600080fd5b818501915085601f8301126131fe57600080fd5b81358181111561320d57600080fd5b8660208260051b850101111561322257600080fd5b60209290920196919550909350505050565b80516001600160a01b031682526020808201516001600160401b03169083015260408082015115159083015260609081015162ffffff16910152565b6020808252825182820181905260009190848201906040850190845b818110156127ec5761329f838551613234565b928401926080929092019160010161328c565b6000602082840312156132c457600080fd5b612dfc82612e87565b6020808252825182820181905260009190848201906040850190845b818110156127ec578351835292840192918401916001016132e9565b60008060006060848603121561331a57600080fd5b61332384612e87565b95602085013595506040909401359392505050565b80151581146119d057600080fd5b60008060006040848603121561335b57600080fd5b833561336681613338565b925060208401356001600160401b0381111561338157600080fd5b61338d86828701613137565b9497909650939450505050565b600080604083850312156133ad57600080fd5b6133b683612e87565b915060208301356133c681613338565b809150509250929050565b600080600080608085870312156133e757600080fd5b6133f085612e87565b935060206133ff818701612e87565b93506040860135925060608601356001600160401b038082111561342257600080fd5b818801915088601f83011261343657600080fd5b81358181111561344857613448612f04565b61345a601f8201601f19168501612f1a565b9150808252898482850101111561347057600080fd5b808484018584013760008482840101525080935050505092959194509250565b608081016109d98284613234565b600080604083850312156134b157600080fd5b6134ba83612e87565b91506134c860208401612e87565b90509250929050565b6020808252602b908201527f496e697469616c697a61626c653a20636f6e7472616374206973206e6f74206960408201526a6e697469616c697a696e6760a81b606082015260800190565b600181811c9082168061353057607f821691505b60208210810361355057634e487b7160e01b600052602260045260246000fd5b50919050565b6001600160a01b0392831681529116602082015260400190565b60006020828403121561358257600080fd5b8151612dfc81613338565b634e487b7160e01b600052603260045260246000fd5b634e487b7160e01b600052601160045260246000fd5b600082198211156135cc576135cc6135a3565b500190565b6000600182016135e3576135e36135a3565b5060010190565b6020808252601190820152704e4f545f454e4f5547485f535550504c5960781b604082015260600190565b6020808252601d908201527f43414e4e4f545f4d494e545f4f4e5f5448455f53414d455f424c4f434b000000604082015260600190565b6020808252601d908201527f434f4e5452414354535f4e4f545f414c4c4f5745445f544f5f4d494e54000000604082015260600190565b6020808252601d908201527f5055424c49435f4d494e545f49535f4e4f545f5945545f414354495645000000604082015260600190565b6020808252601e908201527f50524553414c455f4d494e545f49535f4e4f545f5945545f4143544956450000604082015260600190565b6020808252601b908201527f465245455f4d494e545f49535f4e4f545f5945545f4143544956450000000000604082015260600190565b60208082526028908201527f455843454544494e475f4d4158494d554d5f414d4f554e545f5045525f5452416040820152672729a0a1aa24a7a760c11b606082015260800190565b600081600019048311821515161561378a5761378a6135a3565b500290565b634e487b7160e01b600052601260045260246000fd5b6000826137b4576137b461378f565b500490565b8054600090600181811c90808316806137d357607f831692505b602080841082036137f457634e487b7160e01b600052602260045260246000fd5b818015613808576001811461381957613846565b60ff19861689528489019650613846565b60008881526020902060005b8681101561383e5781548b820152908501908301613825565b505084890196505b50505050505092915050565b600061385e82856137b9565b835161386e818360208801612e03565b01949350505050565b6000612dfc82846137b9565b600081613892576138926135a3565b506000190190565b60208082526034908201527f455243373231415f5f496e697469616c697a61626c653a20636f6e7472616374604082015273206973206e6f7420696e697469616c697a696e6760601b606082015260800190565b600082821015613900576139006135a3565b500390565b6000826139145761391461378f565b500690565b6001600160a01b038581168252841660208201526040810183905260806060820181905260009061394c90830184612e2f565b9695505050505050565b60006020828403121561396857600080fd5b8151612dfc81612dc956feee151c8401928dc223602bb187aff91b9a56c7cae5476ef1b3287b085a16c85fa2646970667358221220186fc279a88df3a3507b6b9c2a3e7589cff85c268dcb50a7f3a7a839b3a2875c64736f6c634300080d0033",
  "linkReferences": {},
  "deployedLinkReferences": {}
}